{"abi":[{"type":"constructor","inputs":[{"name":"limitOrderProtocol","type":"address","internalType":"address"},{"name":"feeToken","type":"address","internalType":"contract IERC20"},{"name":"accessToken","type":"address","internalType":"contract IERC20"},{"name":"owner","type":"address","internalType":"address"},{"name":"srcImplementation","type":"address","internalType":"address"},{"name":"dstImplementation","type":"address","internalType":"address"}],"stateMutability":"nonpayable"},{"type":"function","name":"ACCESS_TOKEN","inputs":[],"outputs":[{"name":"","type":"address","internalType":"contract IERC20"}],"stateMutability":"view"},{"type":"function","name":"ESCROW_DST_IMPLEMENTATION","inputs":[],"outputs":[{"name":"","type":"address","internalType":"address"}],"stateMutability":"view"},{"type":"function","name":"ESCROW_SRC_IMPLEMENTATION","inputs":[],"outputs":[{"name":"","type":"address","internalType":"address"}],"stateMutability":"view"},{"type":"function","name":"FEE_TOKEN","inputs":[],"outputs":[{"name":"","type":"address","internalType":"contract IERC20"}],"stateMutability":"view"},{"type":"function","name":"LIMIT_ORDER_PROTOCOL","inputs":[],"outputs":[{"name":"","type":"address","internalType":"address"}],"stateMutability":"view"},{"type":"function","name":"OWNER","inputs":[],"outputs":[{"name":"","type":"address","internalType":"address"}],"stateMutability":"view"},{"type":"function","name":"addressOfEscrowDst","inputs":[{"name":"immutables","type":"tuple","internalType":"struct IBaseEscrow.Immutables","components":[{"name":"orderHash","type":"bytes32","internalType":"bytes32"},{"name":"hashlock","type":"bytes32","internalType":"bytes32"},{"name":"maker","type":"uint256","internalType":"Address"},{"name":"taker","type":"uint256","internalType":"Address"},{"name":"token","type":"uint256","internalType":"Address"},{"name":"amount","type":"uint256","internalType":"uint256"},{"name":"safetyDeposit","type":"uint256","internalType":"uint256"},{"name":"timelocks","type":"uint256","internalType":"Timelocks"}]}],"outputs":[{"name":"","type":"address","internalType":"address"}],"stateMutability":"view"},{"type":"function","name":"addressOfEscrowSrc","inputs":[{"name":"immutables","type":"tuple","internalType":"struct IBaseEscrow.Immutables","components":[{"name":"orderHash","type":"bytes32","internalType":"bytes32"},{"name":"hashlock","type":"bytes32","internalType":"bytes32"},{"name":"maker","type":"uint256","internalType":"Address"},{"name":"taker","type":"uint256","internalType":"Address"},{"name":"token","type":"uint256","internalType":"Address"},{"name":"amount","type":"uint256","internalType":"uint256"},{"name":"safetyDeposit","type":"uint256","internalType":"uint256"},{"name":"timelocks","type":"uint256","internalType":"Timelocks"}]}],"outputs":[{"name":"","type":"address","internalType":"address"}],"stateMutability":"view"},{"type":"function","name":"createDstEscrow","inputs":[{"name":"dstImmutables","type":"tuple","internalType":"struct IBaseEscrow.Immutables","components":[{"name":"orderHash","type":"bytes32","internalType":"bytes32"},{"name":"hashlock","type":"bytes32","internalType":"bytes32"},{"name":"maker","type":"uint256","internalType":"Address"},{"name":"taker","type":"uint256","internalType":"Address"},{"name":"token","type":"uint256","internalType":"Address"},{"name":"amount","type":"uint256","internalType":"uint256"},{"name":"safetyDeposit","type":"uint256","internalType":"uint256"},{"name":"timelocks","type":"uint256","internalType":"Timelocks"}]},{"name":"srcCancellationTimestamp","type":"uint256","internalType":"uint256"}],"outputs":[],"stateMutability":"payable"},{"type":"function","name":"getMakingAmount","inputs":[{"name":"order","type":"tuple","internalType":"struct IOrderMixin.Order","components":[{"name":"salt","type":"uint256","internalType":"uint256"},{"name":"maker","type":"uint256","internalType":"Address"},{"name":"receiver","type":"uint256","internalType":"Address"},{"name":"makerAsset","type":"uint256","internalType":"Address"},{"name":"takerAsset","type":"uint256","internalType":"Address"},{"name":"makingAmount","type":"uint256","internalType":"uint256"},{"name":"takingAmount","type":"uint256","internalType":"uint256"},{"name":"makerTraits","type":"uint256","internalType":"MakerTraits"}]},{"name":"","type":"bytes","internalType":"bytes"},{"name":"","type":"bytes32","internalType":"bytes32"},{"name":"","type":"address","internalType":"address"},{"name":"takingAmount","type":"uint256","internalType":"uint256"},{"name":"","type":"uint256","internalType":"uint256"},{"name":"extraData","type":"bytes","internalType":"bytes"}],"outputs":[{"name":"","type":"uint256","internalType":"uint256"}],"stateMutability":"view"},{"type":"function","name":"getTakingAmount","inputs":[{"name":"order","type":"tuple","internalType":"struct IOrderMixin.Order","components":[{"name":"salt","type":"uint256","internalType":"uint256"},{"name":"maker","type":"uint256","internalType":"Address"},{"name":"receiver","type":"uint256","internalType":"Address"},{"name":"makerAsset","type":"uint256","internalType":"Address"},{"name":"takerAsset","type":"uint256","internalType":"Address"},{"name":"makingAmount","type":"uint256","internalType":"uint256"},{"name":"takingAmount","type":"uint256","internalType":"uint256"},{"name":"makerTraits","type":"uint256","internalType":"MakerTraits"}]},{"name":"","type":"bytes","internalType":"bytes"},{"name":"","type":"bytes32","internalType":"bytes32"},{"name":"","type":"address","internalType":"address"},{"name":"makingAmount","type":"uint256","internalType":"uint256"},{"name":"","type":"uint256","internalType":"uint256"},{"name":"extraData","type":"bytes","internalType":"bytes"}],"outputs":[{"name":"","type":"uint256","internalType":"uint256"}],"stateMutability":"view"},{"type":"function","name":"lastValidated","inputs":[{"name":"key","type":"bytes32","internalType":"bytes32"}],"outputs":[{"name":"index","type":"uint256","internalType":"uint256"},{"name":"leaf","type":"bytes32","internalType":"bytes32"}],"stateMutability":"view"},{"type":"function","name":"postInteraction","inputs":[{"name":"order","type":"tuple","internalType":"struct IOrderMixin.Order","components":[{"name":"salt","type":"uint256","internalType":"uint256"},{"name":"maker","type":"uint256","internalType":"Address"},{"name":"receiver","type":"uint256","internalType":"Address"},{"name":"makerAsset","type":"uint256","internalType":"Address"},{"name":"takerAsset","type":"uint256","internalType":"Address"},{"name":"makingAmount","type":"uint256","internalType":"uint256"},{"name":"takingAmount","type":"uint256","internalType":"uint256"},{"name":"makerTraits","type":"uint256","internalType":"MakerTraits"}]},{"name":"extension","type":"bytes","internalType":"bytes"},{"name":"orderHash","type":"bytes32","internalType":"bytes32"},{"name":"taker","type":"address","internalType":"address"},{"name":"makingAmount","type":"uint256","internalType":"uint256"},{"name":"takingAmount","type":"uint256","internalType":"uint256"},{"name":"remainingMakingAmount","type":"uint256","internalType":"uint256"},{"name":"extraData","type":"bytes","internalType":"bytes"}],"outputs":[],"stateMutability":"nonpayable"},{"type":"function","name":"preInteraction","inputs":[{"name":"order","type":"tuple","internalType":"struct IOrderMixin.Order","components":[{"name":"salt","type":"uint256","internalType":"uint256"},{"name":"maker","type":"uint256","internalType":"Address"},{"name":"receiver","type":"uint256","internalType":"Address"},{"name":"makerAsset","type":"uint256","internalType":"Address"},{"name":"takerAsset","type":"uint256","internalType":"Address"},{"name":"makingAmount","type":"uint256","internalType":"uint256"},{"name":"takingAmount","type":"uint256","internalType":"uint256"},{"name":"makerTraits","type":"uint256","internalType":"MakerTraits"}]},{"name":"extension","type":"bytes","internalType":"bytes"},{"name":"orderHash","type":"bytes32","internalType":"bytes32"},{"name":"taker","type":"address","internalType":"address"},{"name":"makingAmount","type":"uint256","internalType":"uint256"},{"name":"takingAmount","type":"uint256","internalType":"uint256"},{"name":"remainingMakingAmount","type":"uint256","internalType":"uint256"},{"name":"extraData","type":"bytes","internalType":"bytes"}],"outputs":[],"stateMutability":"nonpayable"},{"type":"function","name":"takerInteraction","inputs":[{"name":"","type":"tuple","internalType":"struct IOrderMixin.Order","components":[{"name":"salt","type":"uint256","internalType":"uint256"},{"name":"maker","type":"uint256","internalType":"Address"},{"name":"receiver","type":"uint256","internalType":"Address"},{"name":"makerAsset","type":"uint256","internalType":"Address"},{"name":"takerAsset","type":"uint256","internalType":"Address"},{"name":"makingAmount","type":"uint256","internalType":"uint256"},{"name":"takingAmount","type":"uint256","internalType":"uint256"},{"name":"makerTraits","type":"uint256","internalType":"MakerTraits"}]},{"name":"extension","type":"bytes","internalType":"bytes"},{"name":"orderHash","type":"bytes32","internalType":"bytes32"},{"name":"","type":"address","internalType":"address"},{"name":"","type":"uint256","internalType":"uint256"},{"name":"","type":"uint256","internalType":"uint256"},{"name":"","type":"uint256","internalType":"uint256"},{"name":"extraData","type":"bytes","internalType":"bytes"}],"outputs":[],"stateMutability":"nonpayable"},{"type":"event","name":"DstEscrowCreated","inputs":[{"name":"escrow","type":"address","indexed":false,"internalType":"address"},{"name":"hashlock","type":"bytes32","indexed":false,"internalType":"bytes32"},{"name":"taker","type":"uint256","indexed":false,"internalType":"Address"}],"anonymous":false},{"type":"event","name":"SrcEscrowCreated","inputs":[{"name":"srcImmutables","type":"tuple","indexed":false,"internalType":"struct IBaseEscrow.Immutables","components":[{"name":"orderHash","type":"bytes32","internalType":"bytes32"},{"name":"hashlock","type":"bytes32","internalType":"bytes32"},{"name":"maker","type":"uint256","internalType":"Address"},{"name":"taker","type":"uint256","internalType":"Address"},{"name":"token","type":"uint256","internalType":"Address"},{"name":"amount","type":"uint256","internalType":"uint256"},{"name":"safetyDeposit","type":"uint256","internalType":"uint256"},{"name":"timelocks","type":"uint256","internalType":"Timelocks"}]},{"name":"dstImmutablesComplement","type":"tuple","indexed":false,"internalType":"struct IEscrowFactory.DstImmutablesComplement","components":[{"name":"maker","type":"uint256","internalType":"Address"},{"name":"amount","type":"uint256","internalType":"uint256"},{"name":"token","type":"uint256","internalType":"Address"},{"name":"safetyDeposit","type":"uint256","internalType":"uint256"},{"name":"chainId","type":"uint256","internalType":"uint256"}]}],"anonymous":false},{"type":"error","name":"AccessDenied","inputs":[]},{"type":"error","name":"FailedDeployment","inputs":[]},{"type":"error","name":"InsufficientBalance","inputs":[{"name":"balance","type":"uint256","internalType":"uint256"},{"name":"needed","type":"uint256","internalType":"uint256"}]},{"type":"error","name":"InsufficientEscrowBalance","inputs":[]},{"type":"error","name":"InvalidCreationTime","inputs":[]},{"type":"error","name":"InvalidPartialFill","inputs":[]},{"type":"error","name":"InvalidProof","inputs":[]},{"type":"error","name":"InvalidSecretsAmount","inputs":[]},{"type":"error","name":"OnlyLimitOrderProtocol","inputs":[]},{"type":"error","name":"SafeTransferFromFailed","inputs":[]}],"bytecode":{"object":"0x6101a0346200026957601f620018dd38819003918201601f19168301916001600160401b038311848410176200026d5780849260c09460405283398101031262000269576200004e8162000281565b906200005d6020820162000281565b6200006b6040830162000281565b620000796060840162000281565b906200009660a06200008e6080870162000281565b950162000281565b608086905260a09390935260c05260e0526101009283526001600160a01b038281168015620002245781831615620001df576101209384526101409283526e5af43d82803e903d91602b57fd5bf3602052601181905260881c763d602d80600a3d3981f3363d3d373d3d3d363d73000000175f5260376009206200015c9091610160928352835116763d602d80600a3d3981f3363d3d373d3d3d363d73000000906e5af43d82803e903d91602b57fd5bf36020528060115260881c175f52603760092090565b9161018092835260405193611646958662000297873960805186818161054b01528181610b0d015261117a015260a05186610a4c015260c051866110b7015260e05186611125015251856106df01525184818161010801528181610aba0152610e880152518381816102bb015281816105b5015261068c01525182505051815050f35b60405162461bcd60e51b815260206004820152601a60248201527f496e76616c69642044535420696d706c656d656e746174696f6e0000000000006044820152606490fd5b60405162461bcd60e51b815260206004820152601a60248201527f496e76616c69642053524320696d706c656d656e746174696f6e0000000000006044820152606490fd5b5f80fd5b634e487b7160e01b5f52604160045260245ffd5b51906001600160a01b0382168203620002695756fe60808060405260049081361015610014575f80fd5b5f3560e01c9081630986bdd51461114957508063117803e3146110db5780631d9671c3146104fc5780633eb5002a1461106d578063462ebde214610ade5780637040f17314610a7057806373717b0814610a02578063acf4ce5c146109b3578063adf38ba1146106b0578063ba55117714610642578063be58e91c1461056f578063c145938414610501578063d7ff8a80146104fc578063dea024e4146101b75763fb6bd47e146100c3575f80fd5b346101b35761010090817ffffffffffffffffffffffffffffffffffffffffffffffffffffffffffffffffc3601126101b35781610195916020936040519182372030907f000000000000000000000000000000000000000000000000000000000000000073ffffffffffffffffffffffffffffffffffffffff926055926043926040519260388401526f5af43d82803e903d91602b57fd5bf3ff60248401526014830152733d602d80600a3d3981f3363d3d373d3d3d363d73825260588201526037600c820120607882015201201690565b73ffffffffffffffffffffffffffffffffffffffff60405191168152f35b5f80fd5b507ffffffffffffffffffffffffffffffffffffffffffffffffffffffffffffffffc36019061012082126101b3576101008092126101b357610104356084359173ffffffffffffffffffffffffffffffffffffffff8084169060c435958690831597886104ea575b34036104c157604051610231816113e1565b8535815260243596876020830152604435604083015260643598896060840152608083015260a082019360a435855260c08301526102a74260e01b7bffffffffffffffffffffffffffffffffffffffffffffffffffffffff60e43516178060e085015263ffffffff8160c01c169060e01c61143f565b61012c8201809211610495571161046c57207f00000000000000000000000000000000000000000000000000000000000000003447106104365780763d602d80600a3d3981f3363d3d373d3d3d363d7300000062ffffff6e5af43d82803e903d91602b57fd5bf39360881c16175f5260781b176020526037600934f591821696871561040d571561036c575b7fc30e111dcc74fddc2c3a4d98ffb97adec4485c0a687946bf5b22c2a99c7ff96d606088888860405192835260208301526040820152a1005b60646020925f9251604051917f23b872dd00000000000000000000000000000000000000000000000000000000835233888401526024830152604482015282855af190816103eb575b50156103c357808080610333565b6040517ff4059071000000000000000000000000000000000000000000000000000000008152fd5b90503d15610405575060015f5114601f3d11165b5f6103b5565b3b15156103ff565b846040517fb06ebf3d000000000000000000000000000000000000000000000000000000008152fd5b60448647604051917fcf479181000000000000000000000000000000000000000000000000000000008352820152346024820152fd5b856040517ff4840e96000000000000000000000000000000000000000000000000000000008152fd5b6011887f4e487b71000000000000000000000000000000000000000000000000000000005f525260245ffd5b846040517f34f5151d000000000000000000000000000000000000000000000000000000008152fd5b6104f79060a4359061143f565b61021f565b6112a2565b346101b3575f7ffffffffffffffffffffffffffffffffffffffffffffffffffffffffffffffffc3601126101b357602060405173ffffffffffffffffffffffffffffffffffffffff7f0000000000000000000000000000000000000000000000000000000000000000168152f35b50346101b35761010090817ffffffffffffffffffffffffffffffffffffffffffffffffffffffffffffffffc3601126101b35781610195916020936040519182372030907f000000000000000000000000000000000000000000000000000000000000000073ffffffffffffffffffffffffffffffffffffffff926055926043926040519260388401526f5af43d82803e903d91602b57fd5bf3ff60248401526014830152733d602d80600a3d3981f3363d3d373d3d3d363d73825260588201526037600c820120607882015201201690565b346101b3575f7ffffffffffffffffffffffffffffffffffffffffffffffffffffffffffffffffc3601126101b357602060405173ffffffffffffffffffffffffffffffffffffffff7f0000000000000000000000000000000000000000000000000000000000000000168152f35b50346101b3576106bf366111f5565b50989750505050509173ffffffffffffffffffffffffffffffffffffffff7f000000000000000000000000000000000000000000000000000000000000000016330361098a579061070f91611591565b92907fffffffffffffffffffffffffffffffffffffffffffffffffffffffffffffff607dffffffffffffffffffffffffffffffffffffffffffffffffffffffffffff9485920101351690604051926020936107ce816107a286888301958690603e927fffffffffffffffffffffffffffffffffffffffffffffffffffffffffffff000091835260101b1660208201520190565b037fffffffffffffffffffffffffffffffffffffffffffffffffffffffffffffffe081018352826113fe565b5190209185357fffffffffffffffffffffffffffffffffffffffffffffffffffffffffffffffe1873603018112156101b35767ffffffffffffffff9590870180358781116101b3576005918160051b3603888201136101b3576040888b01359a013598604051898101917fffffffffffffffff0000000000000000000000000000000000000000000000008d60c01b1683528b60288301526028825260608201908282109082111761095e57604052519020925f9291905b828410610923575050505016036108fb57600185018095116108cf5750600192915f91604051956108b687611398565b865281860193845282525260405f209251835551910155005b6011907f4e487b71000000000000000000000000000000000000000000000000000000005f525260245ffd5b6040517f09bde339000000000000000000000000000000000000000000000000000000008152fd5b909192938985831b84010135908181105f1461094e575f528952600160405f205b9401929190610886565b905f528952600160405f20610944565b6041897f4e487b71000000000000000000000000000000000000000000000000000000005f525260245ffd5b836040517f4ca88867000000000000000000000000000000000000000000000000000000008152fd5b50346101b35760207ffffffffffffffffffffffffffffffffffffffffffffffffffffffffffffffffc3601126101b357355f525f6020526040805f206001815491015482519182526020820152f35b346101b3575f7ffffffffffffffffffffffffffffffffffffffffffffffffffffffffffffffffc3601126101b357602060405173ffffffffffffffffffffffffffffffffffffffff7f0000000000000000000000000000000000000000000000000000000000000000168152f35b346101b3575f7ffffffffffffffffffffffffffffffffffffffffffffffffffffffffffffffffc3601126101b357602060405173ffffffffffffffffffffffffffffffffffffffff7f0000000000000000000000000000000000000000000000000000000000000000168152f35b50346101b357610aed366111f5565b95989650929650909273ffffffffffffffffffffffffffffffffffffffff7f0000000000000000000000000000000000000000000000000000000000000000163303611044577fffffffffffffffffffffffffffffffffffffffffffffffffffffffffffffff608581810111611018578386010160e08701357f40000000000000000000000000000000000000000000000000000000000000001615610ffb57358060f01c60028110610fd25760408051602081018c815260109490941b7fffffffffffffffffffffffffffffffffffffffffffffffffffffffffffff00001691810191909152610c1e9290610be681605e81016107a2565b5190205f525f60205260405f20906020604051610c0281611398565b6001845494858352015491829101529460a08a0135908b6114d0565b15610fa95773ffffffffffffffffffffffffffffffffffffffff915b60405198610c478a6113e1565b8952602089015260208601356040890152166060870152606084013560808701528460a08701527fffffffffffffffffffffffffffffffffffffffffffffffffffffffffffffffc0838201013560801c60c08701524260e01b7bffffffffffffffffffffffffffffffffffffffffffffffffffffffff7fffffffffffffffffffffffffffffffffffffffffffffffffffffffffffffffe08584010135161760e0870152604084013573ffffffffffffffffffffffffffffffffffffffff8116155f14610fa357506020840135925b604051938460a081011067ffffffffffffffff60a08701111761095e57917f0e534c62f0afd2fa0f0fa71198e8aa2d549f24daf2bb47de0d5486c7ce9288ca93916101a09360a08701604052865260208601928352604086017fffffffffffffffffffffffffffffffffffffffffffffffffffffffffffffffa0828401013581527fffffffffffffffffffffffffffffffffffffffffffffffffffffffffffffff8060608801926fffffffffffffffffffffffffffffffff7fffffffffffffffffffffffffffffffffffffffffffffffffffffffffffffffc0828701013516845260808901940101358352604051938a51855260208b0151602086015260408b0151604086015260608b0151606086015260808b0151608086015260a08b015160a086015260c08b015160c086015260e08b015160e086015261010097518886015251610120850152516101408401525161016083015251610180820152a183206e5af43d82803e903d91602b57fd5bf37f0000000000000000000000000000000000000000000000000000000000000000763d602d80600a3d3981f3363d3d373d3d3d363d7300000062ffffff8260881c16175f5260781b17602052603760095ff59273ffffffffffffffffffffffffffffffffffffffff84161561040d5760c0843191015111928315610f36575b505050610f0e57005b6040517f34f5151d000000000000000000000000000000000000000000000000000000008152fd5b60209293505f73ffffffffffffffffffffffffffffffffffffffff606082946024947f70a0823100000000000000000000000000000000000000000000000000000000855289520135165afa5f51901560203d1017610f9857105f8080610f05565b6040513d5f823e3d90fd5b92610d15565b886040517feab3a174000000000000000000000000000000000000000000000000000000008152fd5b8a6040517f10d629d3000000000000000000000000000000000000000000000000000000008152fd5b73ffffffffffffffffffffffffffffffffffffffff925035610c3a565b60118a7f4e487b71000000000000000000000000000000000000000000000000000000005f525260245ffd5b886040517fd25aa106000000000000000000000000000000000000000000000000000000008152fd5b346101b3575f7ffffffffffffffffffffffffffffffffffffffffffffffffffffffffffffffffc3601126101b357602060405173ffffffffffffffffffffffffffffffffffffffff7f0000000000000000000000000000000000000000000000000000000000000000168152f35b346101b3575f7ffffffffffffffffffffffffffffffffffffffffffffffffffffffffffffffffc3601126101b357602060405173ffffffffffffffffffffffffffffffffffffffff7f0000000000000000000000000000000000000000000000000000000000000000168152f35b9050346101b357611159366111f5565b5050505050505050505073ffffffffffffffffffffffffffffffffffffffff7f00000000000000000000000000000000000000000000000000000000000000001633036111a257005b7fd25aa106000000000000000000000000000000000000000000000000000000008152fd5b9181601f840112156101b35782359167ffffffffffffffff83116101b357602083818601950101116101b357565b7ffffffffffffffffffffffffffffffffffffffffffffffffffffffffffffffffc81016101e081126101b357610100136101b35760049167ffffffffffffffff610104358181116101b3578361124d916004016111c7565b9390939261012435926101443573ffffffffffffffffffffffffffffffffffffffff811681036101b35792610164359261018435926101a435926101c4359182116101b35761129e916004016111c7565b9091565b346101b3577ffffffffffffffffffffffffffffffffffffffffffffffffffffffffffffffffc36016101c081126101b357610100136101b35767ffffffffffffffff610104358181116101b3576112fd9036906004016111c7565b50506101443573ffffffffffffffffffffffffffffffffffffffff8116036101b3576101a4359081116101b3576113389036906004016111c7565b505060646040517f08c379a000000000000000000000000000000000000000000000000000000000815260206004820152600f60248201527f4e6f7420696d706c656d656e74656400000000000000000000000000000000006044820152fd5b6040810190811067ffffffffffffffff8211176113b457604052565b7f4e487b71000000000000000000000000000000000000000000000000000000005f52604160045260245ffd5b610100810190811067ffffffffffffffff8211176113b457604052565b90601f7fffffffffffffffffffffffffffffffffffffffffffffffffffffffffffffffe0910116810190811067ffffffffffffffff8211176113b457604052565b9190820180921161144c57565b7f4e487b71000000000000000000000000000000000000000000000000000000005f52601160045260245ffd5b9190820391821161144c57565b8181029291811591840414171561144c57565b81156114a3570490565b7f4e487b71000000000000000000000000000000000000000000000000000000005f52601260045260245ffd5b9291906114e6846114e18385611479565b61143f565b907fffffffffffffffffffffffffffffffffffffffffffffffffffffffffffffffff9182810190811161144c57836115218661152693611486565b611499565b94810361154057505050506002810180911161144c571490565b80830361155b575b505050506001810180911161144c571490565b6115659083611479565b90810190811161144c5761157c9261152191611486565b811461158b575f808080611548565b50505f90565b91909160208310611608578035907fffffffffffffffffffffffffffffffffffffffffffffffffffffffffffffffe063ffffffff8360c01c169260e01c940184116115e0578101602001920390565b7f9605a010000000000000000000000000000000000000000000000000000000005f5260045ffd5b505f9150819056fea2646970667358221220a7955406ee96b972435968e9eb9502da36a5cc63b4a4c5d69a077874828b1c0464736f6c63430008170033","linkReferences":{}},"methodIdentifiers":{"ACCESS_TOKEN()":"3eb5002a","ESCROW_DST_IMPLEMENTATION()":"ba551177","ESCROW_SRC_IMPLEMENTATION()":"7040f173","FEE_TOKEN()":"73717b08","LIMIT_ORDER_PROTOCOL()":"c1459384","OWNER()":"117803e3","addressOfEscrowDst((bytes32,bytes32,uint256,uint256,uint256,uint256,uint256,uint256))":"be58e91c","addressOfEscrowSrc((bytes32,bytes32,uint256,uint256,uint256,uint256,uint256,uint256))":"fb6bd47e","createDstEscrow((bytes32,bytes32,uint256,uint256,uint256,uint256,uint256,uint256),uint256)":"dea024e4","getMakingAmount((uint256,uint256,uint256,uint256,uint256,uint256,uint256,uint256),bytes,bytes32,address,uint256,uint256,bytes)":"1d9671c3","getTakingAmount((uint256,uint256,uint256,uint256,uint256,uint256,uint256,uint256),bytes,bytes32,address,uint256,uint256,bytes)":"d7ff8a80","lastValidated(bytes32)":"acf4ce5c","postInteraction((uint256,uint256,uint256,uint256,uint256,uint256,uint256,uint256),bytes,bytes32,address,uint256,uint256,uint256,bytes)":"462ebde2","preInteraction((uint256,uint256,uint256,uint256,uint256,uint256,uint256,uint256),bytes,bytes32,address,uint256,uint256,uint256,bytes)":"0986bdd5","takerInteraction((uint256,uint256,uint256,uint256,uint256,uint256,uint256,uint256),bytes,bytes32,address,uint256,uint256,uint256,bytes)":"adf38ba1"},"id":4}