{"abi":[{"type":"constructor","inputs":[{"name":"limitOrderProtocol","type":"address","internalType":"address"},{"name":"feeToken","type":"address","internalType":"contract IERC20"},{"name":"bmnToken","type":"address","internalType":"contract IERC20"},{"name":"_owner","type":"address","internalType":"address"},{"name":"rescueDelaySrc","type":"uint32","internalType":"uint32"},{"name":"rescueDelayDst","type":"uint32","internalType":"uint32"}],"stateMutability":"nonpayable"},{"type":"function","name":"ESCROW_DST_IMPLEMENTATION","inputs":[],"outputs":[{"name":"","type":"address","internalType":"address"}],"stateMutability":"view"},{"type":"function","name":"ESCROW_SRC_IMPLEMENTATION","inputs":[],"outputs":[{"name":"","type":"address","internalType":"address"}],"stateMutability":"view"},{"type":"function","name":"VERSION","inputs":[],"outputs":[{"name":"","type":"string","internalType":"string"}],"stateMutability":"view"},{"type":"function","name":"addAdmin","inputs":[{"name":"admin","type":"address","internalType":"address"}],"outputs":[],"stateMutability":"nonpayable"},{"type":"function","name":"addResolver","inputs":[{"name":"resolver","type":"address","internalType":"address"}],"outputs":[],"stateMutability":"nonpayable"},{"type":"function","name":"addResolverToWhitelist","inputs":[{"name":"resolver","type":"address","internalType":"address"}],"outputs":[],"stateMutability":"nonpayable"},{"type":"function","name":"addressOfEscrowDst","inputs":[{"name":"immutables","type":"tuple","internalType":"struct IBaseEscrow.Immutables","components":[{"name":"orderHash","type":"bytes32","internalType":"bytes32"},{"name":"hashlock","type":"bytes32","internalType":"bytes32"},{"name":"maker","type":"uint256","internalType":"Address"},{"name":"taker","type":"uint256","internalType":"Address"},{"name":"token","type":"uint256","internalType":"Address"},{"name":"amount","type":"uint256","internalType":"uint256"},{"name":"safetyDeposit","type":"uint256","internalType":"uint256"},{"name":"timelocks","type":"uint256","internalType":"Timelocks"}]}],"outputs":[{"name":"","type":"address","internalType":"address"}],"stateMutability":"view"},{"type":"function","name":"addressOfEscrowSrc","inputs":[{"name":"immutables","type":"tuple","internalType":"struct IBaseEscrow.Immutables","components":[{"name":"orderHash","type":"bytes32","internalType":"bytes32"},{"name":"hashlock","type":"bytes32","internalType":"bytes32"},{"name":"maker","type":"uint256","internalType":"Address"},{"name":"taker","type":"uint256","internalType":"Address"},{"name":"token","type":"uint256","internalType":"Address"},{"name":"amount","type":"uint256","internalType":"uint256"},{"name":"safetyDeposit","type":"uint256","internalType":"uint256"},{"name":"timelocks","type":"uint256","internalType":"Timelocks"}]}],"outputs":[{"name":"","type":"address","internalType":"address"}],"stateMutability":"view"},{"type":"function","name":"admins","inputs":[{"name":"","type":"address","internalType":"address"}],"outputs":[{"name":"","type":"bool","internalType":"bool"}],"stateMutability":"view"},{"type":"function","name":"chainMetrics","inputs":[{"name":"","type":"uint256","internalType":"uint256"}],"outputs":[{"name":"totalVolume","type":"uint256","internalType":"uint256"},{"name":"successfulSwaps","type":"uint256","internalType":"uint256"},{"name":"failedSwaps","type":"uint256","internalType":"uint256"},{"name":"avgCompletionTime","type":"uint256","internalType":"uint256"}],"stateMutability":"view"},{"type":"function","name":"createDstEscrow","inputs":[{"name":"dstImmutables","type":"tuple","internalType":"struct IBaseEscrow.Immutables","components":[{"name":"orderHash","type":"bytes32","internalType":"bytes32"},{"name":"hashlock","type":"bytes32","internalType":"bytes32"},{"name":"maker","type":"uint256","internalType":"Address"},{"name":"taker","type":"uint256","internalType":"Address"},{"name":"token","type":"uint256","internalType":"Address"},{"name":"amount","type":"uint256","internalType":"uint256"},{"name":"safetyDeposit","type":"uint256","internalType":"uint256"},{"name":"timelocks","type":"uint256","internalType":"Timelocks"}]},{"name":"srcCancellationTimestamp","type":"uint256","internalType":"uint256"}],"outputs":[],"stateMutability":"payable"},{"type":"function","name":"emergencyPaused","inputs":[],"outputs":[{"name":"","type":"bool","internalType":"bool"}],"stateMutability":"view"},{"type":"function","name":"getActiveResolvers","inputs":[],"outputs":[{"name":"","type":"address[]","internalType":"address[]"}],"stateMutability":"view"},{"type":"function","name":"getChainMetrics","inputs":[{"name":"chainId","type":"uint256","internalType":"uint256"}],"outputs":[{"name":"","type":"tuple","internalType":"struct CrossChainEscrowFactory.SwapMetrics","components":[{"name":"totalVolume","type":"uint256","internalType":"uint256"},{"name":"successfulSwaps","type":"uint256","internalType":"uint256"},{"name":"failedSwaps","type":"uint256","internalType":"uint256"},{"name":"avgCompletionTime","type":"uint256","internalType":"uint256"}]}],"stateMutability":"view"},{"type":"function","name":"getMetrics","inputs":[],"outputs":[{"name":"totalVolume","type":"uint256","internalType":"uint256"},{"name":"successRate","type":"uint256","internalType":"uint256"},{"name":"avgCompletionTime","type":"uint256","internalType":"uint256"},{"name":"activeResolvers","type":"uint256","internalType":"uint256"}],"stateMutability":"view"},{"type":"function","name":"globalMetrics","inputs":[],"outputs":[{"name":"totalVolume","type":"uint256","internalType":"uint256"},{"name":"successfulSwaps","type":"uint256","internalType":"uint256"},{"name":"failedSwaps","type":"uint256","internalType":"uint256"},{"name":"avgCompletionTime","type":"uint256","internalType":"uint256"}],"stateMutability":"view"},{"type":"function","name":"isInteractionProcessed","inputs":[{"name":"orderMaker","type":"address","internalType":"address"},{"name":"interactionTarget","type":"address","internalType":"address"},{"name":"interaction","type":"bytes","internalType":"bytes"}],"outputs":[{"name":"","type":"bool","internalType":"bool"}],"stateMutability":"view"},{"type":"function","name":"isWhitelistedResolver","inputs":[{"name":"resolver","type":"address","internalType":"address"}],"outputs":[{"name":"","type":"bool","internalType":"bool"}],"stateMutability":"view"},{"type":"function","name":"lastInteractionTimestamp","inputs":[{"name":"","type":"address","internalType":"address"}],"outputs":[{"name":"","type":"uint256","internalType":"uint256"}],"stateMutability":"view"},{"type":"function","name":"lastValidated","inputs":[{"name":"key","type":"bytes32","internalType":"bytes32"}],"outputs":[{"name":"index","type":"uint256","internalType":"uint256"},{"name":"leaf","type":"bytes32","internalType":"bytes32"}],"stateMutability":"view"},{"type":"function","name":"owner","inputs":[],"outputs":[{"name":"","type":"address","internalType":"address"}],"stateMutability":"view"},{"type":"function","name":"pause","inputs":[],"outputs":[],"stateMutability":"nonpayable"},{"type":"function","name":"postInteraction","inputs":[{"name":"order","type":"tuple","internalType":"struct IOrderMixin.Order","components":[{"name":"salt","type":"uint256","internalType":"uint256"},{"name":"maker","type":"uint256","internalType":"Address"},{"name":"receiver","type":"uint256","internalType":"Address"},{"name":"makerAsset","type":"uint256","internalType":"Address"},{"name":"takerAsset","type":"uint256","internalType":"Address"},{"name":"makingAmount","type":"uint256","internalType":"uint256"},{"name":"takingAmount","type":"uint256","internalType":"uint256"},{"name":"makerTraits","type":"uint256","internalType":"MakerTraits"}]},{"name":"extension","type":"bytes","internalType":"bytes"},{"name":"orderHash","type":"bytes32","internalType":"bytes32"},{"name":"taker","type":"address","internalType":"address"},{"name":"makingAmount","type":"uint256","internalType":"uint256"},{"name":"takingAmount","type":"uint256","internalType":"uint256"},{"name":"remainingMakingAmount","type":"uint256","internalType":"uint256"},{"name":"extraData","type":"bytes","internalType":"bytes"}],"outputs":[],"stateMutability":"nonpayable"},{"type":"function","name":"processedInteractions","inputs":[{"name":"","type":"bytes32","internalType":"bytes32"}],"outputs":[{"name":"","type":"bool","internalType":"bool"}],"stateMutability":"view"},{"type":"function","name":"reactivateResolver","inputs":[{"name":"resolver","type":"address","internalType":"address"}],"outputs":[],"stateMutability":"nonpayable"},{"type":"function","name":"removeAdmin","inputs":[{"name":"admin","type":"address","internalType":"address"}],"outputs":[],"stateMutability":"nonpayable"},{"type":"function","name":"removeResolver","inputs":[{"name":"resolver","type":"address","internalType":"address"}],"outputs":[],"stateMutability":"nonpayable"},{"type":"function","name":"removeResolverFromWhitelist","inputs":[{"name":"resolver","type":"address","internalType":"address"}],"outputs":[],"stateMutability":"nonpayable"},{"type":"function","name":"resolverCount","inputs":[],"outputs":[{"name":"","type":"uint256","internalType":"uint256"}],"stateMutability":"view"},{"type":"function","name":"resolverList","inputs":[{"name":"","type":"uint256","internalType":"uint256"}],"outputs":[{"name":"","type":"address","internalType":"address"}],"stateMutability":"view"},{"type":"function","name":"resolvers","inputs":[{"name":"","type":"address","internalType":"address"}],"outputs":[{"name":"isWhitelisted","type":"bool","internalType":"bool"},{"name":"isActive","type":"bool","internalType":"bool"},{"name":"addedAt","type":"uint256","internalType":"uint256"},{"name":"suspendedUntil","type":"uint256","internalType":"uint256"},{"name":"totalTransactions","type":"uint256","internalType":"uint256"},{"name":"failedTransactions","type":"uint256","internalType":"uint256"},{"name":"addedBy","type":"address","internalType":"address"}],"stateMutability":"view"},{"type":"function","name":"suspendResolver","inputs":[{"name":"resolver","type":"address","internalType":"address"},{"name":"duration","type":"uint256","internalType":"uint256"},{"name":"reason","type":"string","internalType":"string"}],"outputs":[],"stateMutability":"nonpayable"},{"type":"function","name":"takerInteraction","inputs":[{"name":"","type":"tuple","internalType":"struct IOrderMixin.Order","components":[{"name":"salt","type":"uint256","internalType":"uint256"},{"name":"maker","type":"uint256","internalType":"Address"},{"name":"receiver","type":"uint256","internalType":"Address"},{"name":"makerAsset","type":"uint256","internalType":"Address"},{"name":"takerAsset","type":"uint256","internalType":"Address"},{"name":"makingAmount","type":"uint256","internalType":"uint256"},{"name":"takingAmount","type":"uint256","internalType":"uint256"},{"name":"makerTraits","type":"uint256","internalType":"MakerTraits"}]},{"name":"extension","type":"bytes","internalType":"bytes"},{"name":"orderHash","type":"bytes32","internalType":"bytes32"},{"name":"","type":"address","internalType":"address"},{"name":"","type":"uint256","internalType":"uint256"},{"name":"","type":"uint256","internalType":"uint256"},{"name":"","type":"uint256","internalType":"uint256"},{"name":"extraData","type":"bytes","internalType":"bytes"}],"outputs":[],"stateMutability":"nonpayable"},{"type":"function","name":"transferFactoryOwnership","inputs":[{"name":"newOwner","type":"address","internalType":"address"}],"outputs":[],"stateMutability":"nonpayable"},{"type":"function","name":"unpause","inputs":[],"outputs":[],"stateMutability":"nonpayable"},{"type":"function","name":"whitelistedResolvers","inputs":[{"name":"","type":"address","internalType":"address"}],"outputs":[{"name":"","type":"bool","internalType":"bool"}],"stateMutability":"view"},{"type":"event","name":"AdminAdded","inputs":[{"name":"admin","type":"address","indexed":true,"internalType":"address"}],"anonymous":false},{"type":"event","name":"AdminRemoved","inputs":[{"name":"admin","type":"address","indexed":true,"internalType":"address"}],"anonymous":false},{"type":"event","name":"DstEscrowCreated","inputs":[{"name":"escrow","type":"address","indexed":true,"internalType":"address"},{"name":"hashlock","type":"bytes32","indexed":true,"internalType":"bytes32"},{"name":"taker","type":"uint256","indexed":false,"internalType":"Address"}],"anonymous":false},{"type":"event","name":"EmergencyPause","inputs":[{"name":"paused","type":"bool","indexed":false,"internalType":"bool"}],"anonymous":false},{"type":"event","name":"InteractionExecuted","inputs":[{"name":"orderMaker","type":"address","indexed":true,"internalType":"address"},{"name":"interactionTarget","type":"address","indexed":true,"internalType":"address"},{"name":"interactionHash","type":"bytes32","indexed":true,"internalType":"bytes32"},{"name":"timestamp","type":"uint256","indexed":false,"internalType":"uint256"}],"anonymous":false},{"type":"event","name":"InteractionFailed","inputs":[{"name":"orderMaker","type":"address","indexed":true,"internalType":"address"},{"name":"interactionTarget","type":"address","indexed":true,"internalType":"address"},{"name":"reason","type":"string","indexed":false,"internalType":"string"}],"anonymous":false},{"type":"event","name":"MetricsUpdated","inputs":[{"name":"totalVolume","type":"uint256","indexed":false,"internalType":"uint256"},{"name":"successRate","type":"uint256","indexed":false,"internalType":"uint256"},{"name":"avgCompletionTime","type":"uint256","indexed":false,"internalType":"uint256"}],"anonymous":false},{"type":"event","name":"OwnershipTransferred","inputs":[{"name":"previousOwner","type":"address","indexed":true,"internalType":"address"},{"name":"newOwner","type":"address","indexed":true,"internalType":"address"}],"anonymous":false},{"type":"event","name":"ResolverAdded","inputs":[{"name":"resolver","type":"address","indexed":true,"internalType":"address"},{"name":"addedBy","type":"address","indexed":true,"internalType":"address"}],"anonymous":false},{"type":"event","name":"ResolverReactivated","inputs":[{"name":"resolver","type":"address","indexed":true,"internalType":"address"}],"anonymous":false},{"type":"event","name":"ResolverRemoved","inputs":[{"name":"resolver","type":"address","indexed":true,"internalType":"address"}],"anonymous":false},{"type":"event","name":"ResolverRemoved","inputs":[{"name":"resolver","type":"address","indexed":true,"internalType":"address"},{"name":"removedBy","type":"address","indexed":true,"internalType":"address"}],"anonymous":false},{"type":"event","name":"ResolverSuspended","inputs":[{"name":"resolver","type":"address","indexed":true,"internalType":"address"},{"name":"until","type":"uint256","indexed":false,"internalType":"uint256"},{"name":"reason","type":"string","indexed":false,"internalType":"string"}],"anonymous":false},{"type":"event","name":"ResolverWhitelisted","inputs":[{"name":"resolver","type":"address","indexed":true,"internalType":"address"}],"anonymous":false},{"type":"event","name":"SrcEscrowCreated","inputs":[{"name":"escrow","type":"address","indexed":true,"internalType":"address"},{"name":"srcImmutables","type":"tuple","indexed":false,"internalType":"struct IBaseEscrow.Immutables","components":[{"name":"orderHash","type":"bytes32","internalType":"bytes32"},{"name":"hashlock","type":"bytes32","internalType":"bytes32"},{"name":"maker","type":"uint256","internalType":"Address"},{"name":"taker","type":"uint256","internalType":"Address"},{"name":"token","type":"uint256","internalType":"Address"},{"name":"amount","type":"uint256","internalType":"uint256"},{"name":"safetyDeposit","type":"uint256","internalType":"uint256"},{"name":"timelocks","type":"uint256","internalType":"Timelocks"}]},{"name":"dstImmutablesComplement","type":"tuple","indexed":false,"internalType":"struct IEscrowFactory.DstImmutablesComplement","components":[{"name":"maker","type":"uint256","internalType":"Address"},{"name":"amount","type":"uint256","internalType":"uint256"},{"name":"token","type":"uint256","internalType":"Address"},{"name":"safetyDeposit","type":"uint256","internalType":"uint256"},{"name":"chainId","type":"uint256","internalType":"uint256"}]}],"anonymous":false},{"type":"event","name":"SwapCompleted","inputs":[{"name":"orderHash","type":"bytes32","indexed":true,"internalType":"bytes32"},{"name":"resolver","type":"address","indexed":true,"internalType":"address"},{"name":"completionTime","type":"uint256","indexed":false,"internalType":"uint256"},{"name":"gasUsed","type":"uint256","indexed":false,"internalType":"uint256"}],"anonymous":false},{"type":"event","name":"SwapInitiated","inputs":[{"name":"escrowSrc","type":"address","indexed":true,"internalType":"address"},{"name":"maker","type":"address","indexed":true,"internalType":"address"},{"name":"resolver","type":"address","indexed":true,"internalType":"address"},{"name":"volume","type":"uint256","indexed":false,"internalType":"uint256"},{"name":"srcChainId","type":"uint256","indexed":false,"internalType":"uint256"},{"name":"dstChainId","type":"uint256","indexed":false,"internalType":"uint256"}],"anonymous":false},{"type":"error","name":"AccessDenied","inputs":[]},{"type":"error","name":"FailedDeployment","inputs":[]},{"type":"error","name":"InsufficientBalance","inputs":[{"name":"balance","type":"uint256","internalType":"uint256"},{"name":"needed","type":"uint256","internalType":"uint256"}]},{"type":"error","name":"InsufficientEscrowBalance","inputs":[]},{"type":"error","name":"InvalidCreationTime","inputs":[]},{"type":"error","name":"InvalidPartialFill","inputs":[]},{"type":"error","name":"InvalidProof","inputs":[]},{"type":"error","name":"InvalidSecretsAmount","inputs":[]},{"type":"error","name":"SafeTransferFromFailed","inputs":[]}],"bytecode":{"object":"0x610120346200030657601f62003d3638819003918201601f19168301926001600160401b0392909183851183861017620002b4578160c09284926040978852833981010312620003065762000054816200030a565b9162000063602083016200030a565b50620000718483016200030a565b9062000080606084016200030a565b936200009d60a062000095608087016200031f565b95016200031f565b9060805260018060a01b0393848616958615620002d25760078054610100600160a81b03191660089290921b610100600160a81b0316919091179055865190610b4f8083019085821184831017620002b45783926200011e928892620031e7863963ffffffff90911681526001600160a01b03909116602082015260400190565b03905ff08015620002c857841660a0528551926108aa918285019385851090851117620002b457849362000172936200293d863963ffffffff90911681526001600160a01b03909116602082015260400190565b03905ff0908115620002aa578062000214921660c052620001cf8160a05116763d602d80600a3d3981f3363d3d373d3d3d363d73000000906e5af43d82803e903d91602b57fd5bf36020528060115260881c175f52603760092090565b60e05260c05116763d602d80600a3d3981f3363d3d373d3d3d363d73000000906e5af43d82803e903d91602b57fd5bf36020528060115260881c175f52603760092090565b91610100928352815f526008602052805f20600160ff19825416179055600160095551907f45fedec4fac25f615c1ed3c5890277618636de60b3ade84ae3006e93923fcb425f80a261260b918262000332833960805182610c01015260a05182818161025b0152818161124b0152611558015260c0518281816106a8015281816109f10152610a29015260e05182505051815050f35b83513d5f823e3d90fd5b634e487b7160e01b5f52604160045260245ffd5b86513d5f823e3d90fd5b875162461bcd60e51b815260206004820152600d60248201526c24b73b30b634b21037bbb732b960991b6044820152606490fd5b5f80fd5b51906001600160a01b03821682036200030657565b519063ffffffff82168203620003065756fe604060808152600480361015610013575f80fd5b60e0905f35821c9182631785f53c14611dc157826327c830a914611d9e57826332978c2414611c2c578263390a0b6f146119a05782633f4ba83a14611941578263429b62e514611905578263462ebde21461139d5782634855b72e14611346578263612f2a21146113075782636f36bbf11461127a5782637040f17314611237578263704802751461115a5782637606f781146111215782637821e39c146110e15782638456cb591461107d5782638da5cb5b146110515782639c5c5ce714610f93578263a133353614610e36578263a674b19714610e18578263aa80eb2914610ddc578263acf4ce5c14610dab578263adf38ba114610bde578263b1012f1914610ad7578263b93793e914610a58578263ba55117714610a15578263be58e91c146109c9578263cccda38c14610993578263d22d924f146108b7578263d8958e2c14610889578263dea024e4146105c357508163e9e05b0b14610465578163ef091cf814610439578163f42ff4e414610346578163fabdef5214610290578163fb6bd47e14610234575063ffa1ad74146101ac575f80fd5b34610230575f366003190112610230578051906101c882611fae565b6010825260206f322e312e302d626d6e2d73656375726560801b60208401528151928391602083528151918260208501525f5b83811061021a5750505f83830185015250601f01601f19168101030190f35b81810183015187820187015286945082016101fb565b5f80fd5b8234610230576101009182600319360112610230578261027f9160209484519182372030907f0000000000000000000000000000000000000000000000000000000000000000612423565b90516001600160a01b039091168152f35b8234610230576060366003190112610230576102aa611ea1565b602435906001600160a01b0382168203610230576044356001600160401b0381116102305760686102e360209661032d93369101611eb7565b8087959295519586938a8501986bffffffffffffffffffffffff19809260601b168a5260601b16603485015260488401378101603c4204604882015203604881018452018261202f565b5190205f526001825260ff815f20541690519015158152f35b82346102305760208060031936011261023057610361611ea1565b335f526003825261037760ff845f20541661209c565b60018060a01b031692835f526002825261039660ff845f2054166121ab565b835f526002825260ff835f205460081c166103ed57505f916002809285855252822061010061ff001982541617815501557fcacde32caca43f9b9b070f76454cf37a0f79993890ed2f82fb392d2e1cf241565f80a2005b915162461bcd60e51b815291820152602260248201527f5265736f6c76657256616c69646174696f6e3a20416c72656164792061637469604482015261766560f01b6064820152608490fd5b823461023057602036600319011261023057602091355f526001825260ff815f20541690519015158152f35b90503461023057606036600319011261023057610480611ea1565b6024356044356001600160401b038111610230576104a19036908501611eb7565b91335f52602093600385526104bb60ff885f20541661209c565b60018060a01b031694855f52600285526104da60ff885f2054166121ab565b811515806105b6575b15610567575091808596928161052f6060967fa3ffdb4e56afe113cf9581119d96c85e04108ad48e51181fa993b24942b76126995f5260028952865f2061ff0019815416905542612210565b94895f5260028852856002825f2001558080519889978852870152850152848401375f828201840152601f01601f19168101030190a2005b865162461bcd60e51b81529081018590526024808201527f5265736f6c76657256616c69646174696f6e3a20496e76616c696420647572616044820152633a34b7b760e11b6064820152608490fd5b5062278d008211156104e3565b36600319018461012082126102305761010080921261023057610104356105ef60ff600754161561230e565b335f526020916008835261060860ff825f20541661234f565b6084356001600160a01b038181168015969294909260c435918289610877575b34036108345785519061063a82611fdd565b8b3582526106946024359b8c8b85015260443589850152606435998a6060860152608085015260a084019560a435875260c085015242811b60018060e01b0360e4351617808286015263ffffffff8160c01c16911c612210565b61012c820180921161082157116107e657207f00000000000000000000000000000000000000000000000000000000000000003447106107ca5780763d602d80600a3d3981f3363d3d373d3d3d363d7300000062ffffff6e5af43d82803e903d91602b57fd5bf39360881c16175f5260781b1787526037600934f59182169687156107ba571561074d575b505050907fc30e111dcc74fddc2c3a4d98ffb97adec4485c0a687946bf5b22c2a99c7ff96d929151908152a3005b606486925f92518651916323b872dd60e01b8352338d8401526024830152604482015282855af19081610798575b50156107895785808061071f565b5163f405907160e01b81528590fd5b90503d156107b2575060015f5114601f3d11165b8761077b565b3b15156107ac565b845163b06ebf3d60e01b81528a90fd5b855163cf47918160e01b815247818d0152346024820152604490fd5b855162461bcd60e51b8152808c018990526015602482015274496e76616c6964206372656174696f6e2074696d6560581b6044820152606490fd5b60118d634e487b7160e01b5f525260245ffd5b855162461bcd60e51b8152808c01899052601b60248201527f496e73756666696369656e7420657363726f772062616c616e636500000000006044820152606490fd5b6108849060a43590612210565b610628565b8334610230576020366003190112610230576020906108ae6108a9611ea1565b61224e565b90519015158152f35b838234610230576020366003190112610230576108d2611ea1565b60018060a01b03906108ec8260075460081c16331461216b565b1691825f52600860205260ff815f2054161561095e575f838152600860205220805460ff1916905560095490811561094b57505f19016009557f3ae8b1488efc5effc2f9c5dc1943ec82217b537d2c5f6dce8340094446bbb3535f80a2005b601190634e487b7160e01b5f525260245ffd5b906020606492519162461bcd60e51b8352820152600f60248201526e139bdd081dda1a5d195b1a5cdd1959608a1b6044820152fd5b8334610230576020366003190112610230576020906001600160a01b036109b8611ea1565b165f525f8252805f20549051908152f35b508234610230576101009182600319360112610230578261027f9160209484519182372030907f0000000000000000000000000000000000000000000000000000000000000000612423565b8334610230575f36600319011261023057517f00000000000000000000000000000000000000000000000000000000000000006001600160a01b03168152602090f35b908334610230576020366003190112610230576001600160a01b039182610a7d611ea1565b165f526002602052815f209081549360018301546002840154916005600386015494860154950154169460ff8151978181161515895260081c16151560208801528601526060850152608084015260a083015260c0820152f35b50823461023057602036600319011261023057610af2611ea1565b60018060a01b0390610b0c8260075460081c16331461216b565b16918215610ba957825f52600860205260ff825f205416610b715750815f5260086020525f20600160ff19825416179055610b486009546120e7565b6009557f45fedec4fac25f615c1ed3c5890277618636de60b3ade84ae3006e93923fcb425f80a2005b6020606492519162461bcd60e51b83528201526013602482015272105b1c9958591e481dda1a5d195b1a5cdd1959606a1b6044820152fd5b6020606492519162461bcd60e51b8352820152601060248201526f24b73b30b634b2103932b9b7b63b32b960811b6044820152fd5b83823461023057610bee36611ee4565b5098975050505050949160018060a01b037f0000000000000000000000000000000000000000000000000000000000000000163303610d9c5790610c31916124eb565b8251602080820197885291909201609f190135601081901b61ffff1916604084015290956001600160f01b039491851692610c7981605e81015b03601f19810183528261202f565b519020918535601e1987360301811215610230576001600160401b03959087018035878111610230576005918160051b36038b82011361023057878b8b01359a01359888518c8101916001600160401b0360c01b8d60c01b1683528b602883015260288252606082019082821090821117610d89578a52519020925f9291905b828410610d5057505050501603610d42576001850180951161094b575060019394600691835196610d2988611fae565b87528187019485525f52525f2092518355519101555f80f35b82516309bde33960e01b8152fd5b909192938c85831b84010135908181105f14610d7a575f528c526001895f205b9401929190610cf9565b905f528c526001895f20610d70565b604189634e487b7160e01b5f525260245ffd5b505051634ca8886760e01b8152fd5b83823461023057602036600319011261023057355f526006602052805f206001815491015482519182526020820152f35b8334610230576020366003190112610230576020906001600160a01b03610e01611ea1565b165f526008825260ff815f20541690519015158152f35b8334610230575f366003190112610230576020906009549051908152f35b83823461023057602036600319011261023057610e51611ea1565b90335f526003906003602052610e6c60ff855f20541661209c565b60018060a01b0380931693845f526002602052610e8e60ff825f2054166121ab565b845f5260026020525f2061ffff1981541690555f5b815480821015610f89578585610eb884611f65565b905490871b1c1614610ecd5750600101610ea3565b929391925f199190828101908111610f765790610efd84610ef0610f1b94611f65565b905490891b1c1691611f65565b90919060018060a01b038084549260031b9316831b921b1916179055565b82548015610f63570192610f2e84611f65565b81939154921b1b19169055555b33907fac03556895e66a64a8c5388670b854f2097fd3a74d8a8af8b7d6755269f16d195f80a3005b603184634e487b7160e01b5f525260245ffd5b601185634e487b7160e01b5f525260245ffd5b5050505050610f3b565b83823461023057602036600319011261023057610fae611ea1565b6007549060018060a01b0392838360081c1693610fcc85331461216b565b821694851561101e575050610100600160a81b031990911660089190911b610100600160a81b0316176007557f8be0079c531659141344cd1fd0a4f28419497f9722a3daafe3b4186f6b6457e05f80a3005b906020606492519162461bcd60e51b8352820152600d60248201526c24b73b30b634b21037bbb732b960991b6044820152fd5b8334610230575f36600319011261023057600754905160089190911c6001600160a01b03168152602090f35b8334610230575f366003190112610230576007547fb80d1ae5628c2af91424c54c87acfd15016be4bebeef0425b328238702f34831916020916001906110d133600883901c6001600160a01b03161461216b565b60ff1916176007555160018152a1005b8334610230575f36600319011261023057600a54600b54600c54600d549351928352602083019190915260408201526060810191909152608090f35b0390f35b8334610230575f36600319011261023057600a546080916111406123e6565b90600d5491815193845260208401528201525f6060820152f35b50823461023057602036600319011261023057611175611ea1565b6005546001600160a01b03919061118f9083163314612050565b169161119c831515612120565b825f52600360205260ff825f2054166111eb5750815f5260036020525f20600160ff198254161790557f44d6d25963f097ad14f29f06854a01f575648a1ef82f30e562ccd3889717e3395f80a2005b6020608492519162461bcd60e51b8352820152602160248201527f5265736f6c76657256616c69646174696f6e3a20416c72656164792061646d696044820152603760f91b6064820152fd5b8334610230575f36600319011261023057517f00000000000000000000000000000000000000000000000000000000000000006001600160a01b03168152602090f35b508234610230576020366003190112610230576080915f6060835161129e81612014565b82815282602082015282858201520152355f52600e602052805f20908051906112c682612014565b825492838352600181015460208401908152606060036002840154938587019485520154940193845282519485525160208501525190830152516060820152f35b508234610230576020366003190112610230578135915482101561023057611330602092611f65565b905491519160018060a01b039160031b1c168152f35b83823461023057602036600319011261023057355f52600e602052805f209061111d825491600184015493600360028201549101549151948594859094939260609260808301968352602083015260408201520152565b8334610230576113ac36611ee4565b9996509092979a9499919396506113c860ff600754161561230e565b60018060a01b038097169a8b5f5260209960088b526113ec60ff895f20541661234f565b609f199281848101116118f257019182018c8b8d84870135600160fe1b16156118de57505050358060f01c90600282106118ce578851808d018e815260109290921b61ffff1916602083015261148092919061144b81603e8401610c6b565b5190205f5260068c52885f20908c8a5161146481611fae565b6001845494858352015491829101529660a0850135908d612533565b156118be578a8796959493928d988c935b848101359a606082013597603f19850135968451966114af88611fdd565b87528601528b8386015260608501528660808501528c60a085015260c08401958560801c875242811b60018060e01b03601f1986013516179085015201358a8116155f146118b8575088925b88519361150785611ff9565b84528c8401968752888401605f1983013581526fffffffffffffffffffffffffffffffff60608601921682526080850192607f19013583528d6101008520906e5af43d82803e903d91602b57fd5bf37f0000000000000000000000000000000000000000000000000000000000000000763d602d80600a3d3981f3363d3d373d3d3d363d7300000062ffffff8260881c16175f5260781b179052603760095ff5978c89169586156118a857938f989694936101a0938f9997937fd2441ca0d5908dcf7cb9576579cf63aede62b73cf1b3f4d4ec23de47c5898553968f6115ef9051809761239b565b5161010086015251610120850152516101408401525161016083015251610180820152a28431905111938415611876575b5050505061186857611630612485565b50878661163b612485565b019783895161164c89600a54612210565b600a5561165a600b546120e7565b600b556116674242612203565b90600d5480155f14611839575081600d555b5f52600e8a526001825f2061168f8b8254612210565b81550161169c81546120e7565b905562030d40805a11156117ec5750907f7f4016aa21af28f0e289d24cf406555e3975731403a8e13e8da7d6d1fda9a1bc915f5b82519182528b820152a37f30b47c3a685e507da227a870550a387d376e03da27ad5b6a1d8c7517eb2d9b2f600a546117066123e6565b600d54855192835260208301919091526040820152606090a16117276124af565b506117486117336124af565b8351637db5ea3f60e11b81529283019061239b565b858161010481305afa9586156117e2575f966117a7575b50509451945192835246602084015260408301949094529283169291909116907f06475dfdedcef09498317de851e1ad9adf568423234a2c5f8579a6c97c15268890606090a4005b908092959650813d83116117db575b6117c0818361202f565b8101031261023057518281168103610230579392808361175f565b503d6117b6565b82513d5f823e3d90fd5b91509192505a810390811161182657848b93927f7f4016aa21af28f0e289d24cf406555e3975731403a8e13e8da7d6d1fda9a1bc926116d0565b601184634e487b7160e01b5f525260245ffd5b8092949550600991935002908104600903610f7657918591600a61185f838f9796612210565b04600d55611679565b90516334f5151d60e01b8152fd5b6370a0823160e01b5f9081529086529293506024918391165afa5f5190873d109015176117e257851186858b80611620565b8b5163b06ebf3d60e01b81528b90fd5b926114fb565b8651633aace85d60e21b81528690fd5b88516310d629d360e01b81528890fd5b928a99989750999093959491993595611491565b601188634e487b7160e01b5f525260245ffd5b8334610230576020366003190112610230576020906001600160a01b0361192a611ea1565b165f526003825260ff815f20541690519015158152f35b8334610230575f366003190112610230576007547fb80d1ae5628c2af91424c54c87acfd15016be4bebeef0425b328238702f348319160209161199233600883901c6001600160a01b03161461216b565b60ff1916600755515f8152a1005b83903461023057602080600319360112610230576119bc611ea1565b91335f52600382526119d360ff855f20541661209c565b6001600160a01b03838116949091906119ed861515612120565b855f526002845260ff815f205416611bda57606487541015611b8657662386f26fc10000853110611b355780519182018281106001600160401b03821117611b225790600592918152600182528482016001815281830142815260608401905f825260808501925f845260a08601945f8652600260c088019a338c528d5f52525f20955115159060ff61ff0088549251151560081b1692169061ffff1916171785555160018501555160028401555160038301555187820155019151166bffffffffffffffffffffffff60a01b825416179055825468010000000000000000811015611b0f5780611ae793946001610efd93019055611f65565b33907fc88d00b12398b347bca6513b03e06dda0090f7a0910203e9fcf27a201ae3b1855f80a3005b604184634e487b7160e01b5f525260245ffd5b604188634e487b7160e01b5f525260245ffd5b5162461bcd60e51b8152808701849052602660248201527f5265736f6c76657256616c69646174696f6e3a20496e73756666696369656e74604482015265207374616b6560d01b6064820152608490fd5b5162461bcd60e51b8152808701849052602960248201527f5265736f6c76657256616c69646174696f6e3a204d6178207265736f6c7665726044820152681cc81c995858da195960ba1b6064820152608490fd5b5162461bcd60e51b8152808701849052602760248201527f5265736f6c76657256616c69646174696f6e3a20416c72656164792077686974604482015266195b1a5cdd195960ca1b6064820152608490fd5b838234610230575f36600319011261023057905f915f8154905b818110611d525750611c6f611c5a85612109565b94611c678551968761202f565b808652612109565b9160209182860193601f19013685375f805b828110611cd1575050505082519384938285019183865251809252840192915f5b828110611cb157505050500390f35b83516001600160a01b031685528695509381019392810192600101611ca2565b611cde8198969798611f65565b90546001600160a01b0391600391611cfa91831b1c831661224e565b611d0d575b505060010196959496611c81565b611d1683611f65565b9054911b1c16611d25836120e7565b928751811015611d3f5760051b8701860152600189611cff565b603286634e487b7160e01b5f525260245ffd5b611d79611d628296949596611f65565b905460039190911b1c6001600160a01b031661224e565b611d8a575b60010193929193611c46565b91611d966001916120e7565b929050611d7e565b8334610230575f3660031901126102305760209060ff6007541690519015158152f35b50823461023057602036600319011261023057611ddc611ea1565b6005546001600160a01b039081169391611df7338614612050565b1692835f526003602052611e1060ff845f20541661209c565b8314611e4f5750815f5260036020525f2060ff1981541690557fa3b62bc36326052d97ea62d63c3d60308ed4c3ea8ac079dd8499f1e9c4f80c0f5f80a2005b6020608492519162461bcd60e51b8352820152602760248201527f5265736f6c76657256616c69646174696f6e3a2043616e6e6f742072656d6f76604482015266329037bbb732b960c91b6064820152fd5b600435906001600160a01b038216820361023057565b9181601f84011215610230578235916001600160401b038311610230576020838186019501011161023057565b60031981016101e081126102305761010013610230576004916001600160401b03610104358181116102305783611f1d91600401611eb7565b909390926101243592610144356001600160a01b03811681036102305792610164359261018435926101a435926101c43591821161023057611f6191600401611eb7565b9091565b600454811015611f9a5760045f527f8a35acfbc15ff81a39ae7d344fd709f28e8600b4aa8c65c6b64bfe7fe36bd19b01905f90565b634e487b7160e01b5f52603260045260245ffd5b604081019081106001600160401b03821117611fc957604052565b634e487b7160e01b5f52604160045260245ffd5b61010081019081106001600160401b03821117611fc957604052565b60a081019081106001600160401b03821117611fc957604052565b608081019081106001600160401b03821117611fc957604052565b90601f801991011681019081106001600160401b03821117611fc957604052565b1561205757565b60405162461bcd60e51b815260206004820152601d60248201527f5265736f6c76657256616c69646174696f6e3a204e6f74206f776e65720000006044820152606490fd5b156120a357565b606460405162461bcd60e51b815260206004820152602060248201527f5265736f6c76657256616c69646174696f6e3a204e6f7420616e2061646d696e6044820152fd5b5f1981146120f55760010190565b634e487b7160e01b5f52601160045260245ffd5b6001600160401b038111611fc95760051b60200190565b1561212757565b606460405162461bcd60e51b815260206004820152602060248201527f5265736f6c76657256616c69646174696f6e3a205a65726f20616464726573736044820152fd5b1561217257565b60405162461bcd60e51b81526020600482015260116024820152702737ba103330b1ba37b93c9037bbb732b960791b6044820152606490fd5b156121b257565b60405162461bcd60e51b815260206004820152602360248201527f5265736f6c76657256616c69646174696f6e3a204e6f742077686974656c69736044820152621d195960ea1b6064820152608490fd5b919082039182116120f557565b919082018092116120f557565b818102929181159184041417156120f557565b811561223a570490565b634e487b7160e01b5f52601260045260245ffd5b6001600160a01b0381165f818152600260205260409020805460ff8116156123065760081c60ff16156122ff576002810154806122f3575b5060646003820154116122ae575b5050662386f26fc100009031106122aa57600190565b5f90565b60040154906064820291808304606414901517156120f557600a916122e2915f526002602052600360405f20015490612230565b116122ee575f80612294565b505f90565b42106122ff575f612286565b5050505f90565b505050505f90565b1561231557565b60405162461bcd60e51b8152602060048201526012602482015271141c9bdd1bd8dbdb081a5cc81c185d5cd95960721b6044820152606490fd5b1561235657565b60405162461bcd60e51b815260206004820152601860248201527f5265736f6c766572206e6f742077686974656c697374656400000000000000006044820152606490fd5b60e08091805184526020810151602085015260408101516040850152606081015160608501526080810151608085015260a081015160a085015260c081015160c08501520151910152565b600b546123f5600c5482612210565b801561241b57612710918281029281840414901517156120f55761241891612230565b90565b505061271090565b60405160388101939093526f5af43d82803e903d91602b57fd5bf3ff60248401526014830152733d602d80600a3d3981f3363d3d373d3d3d363d73825260588201526037600c820120607882015260556043909101206001600160a01b031690565b6040519061249282611ff9565b5f6080838281528260208201528260408201528260608201520152565b604051906124bc82611fdd565b5f60e0838281528260208201528260408201528260608201528260808201528260a08201528260c08201520152565b9190916020831061252b5780359063ffffffff8260c01c169160e01c93601f1901841161251c578101602001920390565b6309605a0160e41b5f5260045ffd5b505f91508190565b929190612549846125448385612203565b612210565b5f1991908281019081116120f557836125658661256a9361221d565b612230565b9481036125845750505050600281018091116120f5571490565b80830361259f575b50505050600181018091116120f5571490565b6125a99083612203565b9081019081116120f5576125c0926125659161221d565b81146125cf575f80808061258c565b50505f9056fea2646970667358221220327c219db663ca74bfcd300560a6b1b93a5b46dd650ff2a679a26a4531397b7264736f6c634300081700336101003461010e57601f6108aa38819003918201601f19168301916001600160401b0383118484101761011257808492604094855283398101031261010e5780519063ffffffff821680920361010e5760200151906001600160a01b038216820361010e573360c05260a0526080526e5af43d82803e903d91602b57fd5bf360205230601152763d602d80600a3d3981f3363d3d373d3d3d363d730000003060881c175f52603760092060e0526040516107839081610127823960805181610419015260a0518181816085015261027f015260c051818181610113015281816102490152818161035b015261056c015260e05181818160e90152818161021f0152818161032401526105420152f35b5f80fd5b634e487b7160e01b5f52604160045260245ffdfe6080604090808252600480361015610015575f80fd5b60e05f35811c9283630af97558146103f057508263233057031461038a5782632dd310001461034757826334862b6a1461030d5782634649088b146101c35750816390d3252f146100ac575063f56cd69c1461006f575f80fd5b346100a8575f3660031901126100a857602090517f00000000000000000000000000000000000000000000000000000000000000008152f35b5f80fd5b82346100a857610100806003193601126100a8576001600160a01b0391606435831691338390036101b3576055600b8592845181898237208451907f00000000000000000000000000000000000000000000000000000000000000008683015260208201527f000000000000000000000000000000000000000000000000000000000000000081520160ff8153201630036101a45761014c60e43561063f565b42106101955761016360a43583608435861661066d565b61016f60c435336106ef565b7f6e3be9294e58d10b9c8053cfd5e09871b67e442fe394d6b0870d336b9df984a95f80a1005b516337bf561360e11b81528390fd5b51635134a42560e11b81528390fd5b81516348f5c3ed60e01b81528590fd5b8390346100a8576101403660031901126100a8578235926001600160a01b03808516929091908386036100a85760243592610100806043193601126100a8578160a4351633036102fd57600b60559188518160448237208851907f00000000000000000000000000000000000000000000000000000000000000008a83015260208201527f000000000000000000000000000000000000000000000000000000000000000081520160ff8153201630036102ee5761012435901c7f00000000000000000000000000000000000000000000000000000000000000000142106102e057506102d3817fc4474c2790e13695f6d2b6f1d8e164290b55370f87a542fd7711abe0a1bf40ac95339061066d565b82519182526020820152a1005b83516337bf561360e11b8152fd5b508351635134a42560e11b8152fd5b86516348f5c3ed60e01b81528490fd5b83346100a8575f3660031901126100a857602090517f00000000000000000000000000000000000000000000000000000000000000008152f35b83346100a8575f3660031901126100a857517f00000000000000000000000000000000000000000000000000000000000000006001600160a01b03168152602090f35b8390346100a85761039a366104bd565b92909160608401356001600160a01b031633036101b35763ffffffff8185013580921c9160801c1681018091116103dd574210610195576103db8383610516565b005b601185634e487b7160e01b5f525260245ffd5b84346100a8576103ff366104bd565b6370a0823160e01b845233868501529390926020816024817f00000000000000000000000000000000000000000000000000000000000000006001600160a01b03165afa9081156104b3575f91610481575b50156101b35763ffffffff8185013580921c9160a01c1681018091116103dd574210610195576103db8383610516565b90506020813d6020116104ab575b8161049c602093836104e0565b810103126100a8575186610451565b3d915061048f565b83513d5f823e3d90fd5b906101206003198301126100a8576101006004359260231901126100a857602490565b90601f8019910116810190811067ffffffffffffffff82111761050257604052565b634e487b7160e01b5f52604160045260245ffd5b9061052460e082013561063f565b42101561062d576040906055600b83516101009081858237208451907f00000000000000000000000000000000000000000000000000000000000000008683015260208201527f000000000000000000000000000000000000000000000000000000000000000081520160ff8153206001600160a01b03908116300361061c57835f5260205f2060208301350361060b579161060460c0836105fc60209660a07fe346f5c97a360db5188bfa5d3ec5f0583abde420c6ba4d08b6cfe61addc1710599970135908087850135169060808501351661066d565b0135336106ef565b51908152a1565b825163abab6bd760e01b8152600490fd5b8251635134a42560e11b8152600490fd5b6040516337bf561360e11b8152600490fd5b63ffffffff8160e01c9160c01c1681018091116106595790565b634e487b7160e01b5f52601160045260245ffd5b6001600160a01b03169190826106895761068792506106ef565b565b60445f916020936040519163a9059cbb60e01b83526004830152602482015282855af190816106cd575b50156106bb57565b60405163fb7f507960e01b8152600490fd5b90503d156106e7575060015f5114601f3d11165b5f6106b3565b3b15156106e1565b5f80809381935af13d15610748573d67ffffffffffffffff81116105025760405190610725601f8201601f1916602001836104e0565b81525f60203d92013e5b1561073657565b604051638a0332d560e01b8152600490fd5b61072f56fea2646970667358221220c216d6b4fe1cecb56ab3ef57acdc383c460b80ba7f5098d5d8ce427034de35be64736f6c634300081700336101003461011557601f610b4f38819003918201601f19168301916001600160401b038311848410176101195780849260409485528339810103126101155780519063ffffffff82168092036101155760200151906001600160a01b0382168203610115573360c05260a0526080526e5af43d82803e903d91602b57fd5bf360205230601152763d602d80600a3d3981f3363d3d373d3d3d363d730000003060881c175f52603760092060e052604051610a21908161012e823960805181818160f801526105bf015260a051818181609b01526103b8015260c05181818161049a015281816107e40152818161087101526108eb015260e051818181610463015281816107b90152818161084601526108c00152f35b5f80fd5b634e487b7160e01b5f52604160045260245ffdfe6080604090808252600480361015610015575f80fd5b60e05f35811c9283630af97558146105875750826323305703146104c95782632dd310001461048657826334862b6a1461044c5782634649088b146103635782636c10c0c81461026157826390d3252f1461020d578263daff233e146100c257505063f56cd69c14610085575f80fd5b346100be575f3660031901126100be57602090517f00000000000000000000000000000000000000000000000000000000000000008152f35b5f80fd5b83346100be576101003660031901126100be5780516370a0823160e01b815233848201526001600160a01b0392906020816024817f000000000000000000000000000000000000000000000000000000000000000088165afa908115610203575f916101d1575b50156101c15763ffffffff60e43580921c9160601c1681018091116101ae57421061019f5761016d8261015a610831565b60a4359080604435169060843516610926565b61017960c4353361098d565b7f6e3be9294e58d10b9c8053cfd5e09871b67e442fe394d6b0870d336b9df984a95f80a1005b516337bf561360e11b81529050fd5b601184634e487b7160e01b5f525260245ffd5b81516348f5c3ed60e01b81528490fd5b90506020813d6020116101fb575b816101ec60209383610729565b810103126100be575185610129565b3d91506101df565b83513d5f823e3d90fd5b5082346100be576101003660031901126100be576001600160a01b0390606435821633036102525761024060e43561075f565b421061019f5761016d8261015a610831565b516348f5c3ed60e01b81529050fd5b5082346100be576101403660031901126100be578135916001600160a01b03906024359082821682036100be576101003660431901126100be578260a43516330361035557610124356102b38161078d565b4210610346576102c29061075f565b421015610338576102d16107a4565b845f5260205f206064350361032a577fe346f5c97a360db5188bfa5d3ec5f0583abde420c6ba4d08b6cfe61addc171056020868661031660e4358760c4358a16610926565b610323610104353361098d565b51908152a1005b835163abab6bd760e01b8152fd5b83516337bf561360e11b8152fd5b5083516337bf561360e11b8152fd5b83516348f5c3ed60e01b8152fd5b8390346100be576101403660031901126100be576001600160a01b03833581811692908390036100be57602435916101003660431901126100be5760a43516330361043c576103b06107a4565b61012435901c7f000000000000000000000000000000000000000000000000000000000000000001421061042d577fc4474c2790e13695f6d2b6f1d8e164290b55370f87a542fd7711abe0a1bf40ac93508161041d57610410813361098d565b82519182526020820152a1005b610428813384610926565b610410565b5050516337bf561360e11b8152fd5b505050516348f5c3ed60e01b8152fd5b83346100be575f3660031901126100be57602090517f00000000000000000000000000000000000000000000000000000000000000008152f35b83346100be575f3660031901126100be57517f00000000000000000000000000000000000000000000000000000000000000006001600160a01b03168152602090f35b8390346100be576104d936610706565b909390916001600160a01b039190606084013583163303610578578301356105008161078d565b42106103465761050f9061075f565b4210156103385761051f836108ac565b845f5260205f2060208401350361032a577fe346f5c97a360db5188bfa5d3ec5f0583abde420c6ba4d08b6cfe61addc171056020868661032360c08861057060a08201353360808401358c16610926565b01353361098d565b5083516348f5c3ed60e01b8152fd5b8285346100be5761059736610706565b6370a0823160e01b855233858501529460209491936001600160a01b039290919086816024817f000000000000000000000000000000000000000000000000000000000000000088165afa9081156106fc575f916106cf575b50156106c0578087013580911c63ffffffff82881c1681018091116106ad57421061069e5761061e9061075f565b4210156106905761062e866108ac565b835f52845f208587013503610682575060c0856105706103239360a07fe346f5c97a360db5188bfa5d3ec5f0583abde420c6ba4d08b6cfe61addc17105990135908060608501351690608085013516610926565b825163abab6bd760e01b8152fd5b82516337bf561360e11b8152fd5b5082516337bf561360e11b8152fd5b601183634e487b7160e01b5f525260245ffd5b5082516348f5c3ed60e01b8152fd5b90508681813d83116106f5575b6106e68183610729565b810103126100be5751886105f0565b503d6106dc565b85513d5f823e3d90fd5b906101206003198301126100be576101006004359260231901126100be57602490565b90601f8019910116810190811067ffffffffffffffff82111761074b57604052565b634e487b7160e01b5f52604160045260245ffd5b63ffffffff8160e01c9160401c1681018091116107795790565b634e487b7160e01b5f52601160045260245ffd5b63ffffffff8160e01c911681018091116107795790565b600b60405161010090816044823720604051907f0000000000000000000000000000000000000000000000000000000000000000604083015260208201527f000000000000000000000000000000000000000000000000000000000000000081520160ff8153605590206001600160a01b0316300361081f57565b604051635134a42560e11b8152600490fd5b600b60405161010090816004823720604051907f0000000000000000000000000000000000000000000000000000000000000000604083015260208201527f000000000000000000000000000000000000000000000000000000000000000081520160ff8153605590206001600160a01b0316300361081f57565b600b906040516101008092823720604051907f0000000000000000000000000000000000000000000000000000000000000000604083015260208201527f000000000000000000000000000000000000000000000000000000000000000081520160ff8153605590206001600160a01b0316300361081f57565b9160446020925f926040519163a9059cbb60e01b83526004830152602482015282855af1908161096b575b501561095957565b60405163fb7f507960e01b8152600490fd5b90503d15610985575060015f5114601f3d11165b5f610951565b3b151561097f565b5f80809381935af13d156109e6573d67ffffffffffffffff811161074b57604051906109c3601f8201601f191660200183610729565b81525f60203d92013e5b156109d457565b604051638a0332d560e01b8152600490fd5b6109cd56fea264697066735822122035475dcd50fae5a3250d2d790794465b8da83b0ce0e314a4e23caf82039631bf64736f6c63430008170033","linkReferences":{}},"methodIdentifiers":{"ESCROW_DST_IMPLEMENTATION()":"ba551177","ESCROW_SRC_IMPLEMENTATION()":"7040f173","VERSION()":"ffa1ad74","addAdmin(address)":"70480275","addResolver(address)":"390a0b6f","addResolverToWhitelist(address)":"b1012f19","addressOfEscrowDst((bytes32,bytes32,uint256,uint256,uint256,uint256,uint256,uint256))":"be58e91c","addressOfEscrowSrc((bytes32,bytes32,uint256,uint256,uint256,uint256,uint256,uint256))":"fb6bd47e","admins(address)":"429b62e5","chainMetrics(uint256)":"4855b72e","createDstEscrow((bytes32,bytes32,uint256,uint256,uint256,uint256,uint256,uint256),uint256)":"dea024e4","emergencyPaused()":"27c830a9","getActiveResolvers()":"32978c24","getChainMetrics(uint256)":"6f36bbf1","getMetrics()":"7606f781","globalMetrics()":"7821e39c","isInteractionProcessed(address,address,bytes)":"fabdef52","isWhitelistedResolver(address)":"d8958e2c","lastInteractionTimestamp(address)":"cccda38c","lastValidated(bytes32)":"acf4ce5c","owner()":"8da5cb5b","pause()":"8456cb59","postInteraction((uint256,uint256,uint256,uint256,uint256,uint256,uint256,uint256),bytes,bytes32,address,uint256,uint256,uint256,bytes)":"462ebde2","processedInteractions(bytes32)":"ef091cf8","reactivateResolver(address)":"f42ff4e4","removeAdmin(address)":"1785f53c","removeResolver(address)":"a1333536","removeResolverFromWhitelist(address)":"d22d924f","resolverCount()":"a674b197","resolverList(uint256)":"612f2a21","resolvers(address)":"b93793e9","suspendResolver(address,uint256,string)":"e9e05b0b","takerInteraction((uint256,uint256,uint256,uint256,uint256,uint256,uint256,uint256),bytes,bytes32,address,uint256,uint256,uint256,bytes)":"adf38ba1","transferFactoryOwnership(address)":"9c5c5ce7","unpause()":"3f4ba83a","whitelistedResolvers(address)":"aa80eb29"},"id":4}