{"abi":[{"type":"constructor","inputs":[{"name":"limitOrderProtocol","type":"address","internalType":"address"},{"name":"feeToken","type":"address","internalType":"contract IERC20"},{"name":"accessToken","type":"address","internalType":"contract IERC20"},{"name":"owner","type":"address","internalType":"address"},{"name":"srcImplementation","type":"address","internalType":"address"},{"name":"dstImplementation","type":"address","internalType":"address"}],"stateMutability":"nonpayable"},{"type":"function","name":"ACCESS_TOKEN","inputs":[],"outputs":[{"name":"","type":"address","internalType":"contract IERC20"}],"stateMutability":"view"},{"type":"function","name":"ESCROW_DST_IMPLEMENTATION","inputs":[],"outputs":[{"name":"","type":"address","internalType":"address"}],"stateMutability":"view"},{"type":"function","name":"ESCROW_SRC_IMPLEMENTATION","inputs":[],"outputs":[{"name":"","type":"address","internalType":"address"}],"stateMutability":"view"},{"type":"function","name":"FEE_TOKEN","inputs":[],"outputs":[{"name":"","type":"address","internalType":"contract IERC20"}],"stateMutability":"view"},{"type":"function","name":"LIMIT_ORDER_PROTOCOL","inputs":[],"outputs":[{"name":"","type":"address","internalType":"address"}],"stateMutability":"view"},{"type":"function","name":"OWNER","inputs":[],"outputs":[{"name":"","type":"address","internalType":"address"}],"stateMutability":"view"},{"type":"function","name":"addressOfEscrowDst","inputs":[{"name":"immutables","type":"tuple","internalType":"struct IBaseEscrow.Immutables","components":[{"name":"orderHash","type":"bytes32","internalType":"bytes32"},{"name":"hashlock","type":"bytes32","internalType":"bytes32"},{"name":"maker","type":"uint256","internalType":"Address"},{"name":"taker","type":"uint256","internalType":"Address"},{"name":"token","type":"uint256","internalType":"Address"},{"name":"amount","type":"uint256","internalType":"uint256"},{"name":"safetyDeposit","type":"uint256","internalType":"uint256"},{"name":"timelocks","type":"uint256","internalType":"Timelocks"}]}],"outputs":[{"name":"","type":"address","internalType":"address"}],"stateMutability":"view"},{"type":"function","name":"addressOfEscrowSrc","inputs":[{"name":"immutables","type":"tuple","internalType":"struct IBaseEscrow.Immutables","components":[{"name":"orderHash","type":"bytes32","internalType":"bytes32"},{"name":"hashlock","type":"bytes32","internalType":"bytes32"},{"name":"maker","type":"uint256","internalType":"Address"},{"name":"taker","type":"uint256","internalType":"Address"},{"name":"token","type":"uint256","internalType":"Address"},{"name":"amount","type":"uint256","internalType":"uint256"},{"name":"safetyDeposit","type":"uint256","internalType":"uint256"},{"name":"timelocks","type":"uint256","internalType":"Timelocks"}]}],"outputs":[{"name":"","type":"address","internalType":"address"}],"stateMutability":"view"},{"type":"function","name":"createDstEscrow","inputs":[{"name":"dstImmutables","type":"tuple","internalType":"struct IBaseEscrow.Immutables","components":[{"name":"orderHash","type":"bytes32","internalType":"bytes32"},{"name":"hashlock","type":"bytes32","internalType":"bytes32"},{"name":"maker","type":"uint256","internalType":"Address"},{"name":"taker","type":"uint256","internalType":"Address"},{"name":"token","type":"uint256","internalType":"Address"},{"name":"amount","type":"uint256","internalType":"uint256"},{"name":"safetyDeposit","type":"uint256","internalType":"uint256"},{"name":"timelocks","type":"uint256","internalType":"Timelocks"}]},{"name":"srcCancellationTimestamp","type":"uint256","internalType":"uint256"}],"outputs":[],"stateMutability":"payable"},{"type":"function","name":"getMakingAmount","inputs":[{"name":"order","type":"tuple","internalType":"struct IOrderMixin.Order","components":[{"name":"salt","type":"uint256","internalType":"uint256"},{"name":"maker","type":"uint256","internalType":"Address"},{"name":"receiver","type":"uint256","internalType":"Address"},{"name":"makerAsset","type":"uint256","internalType":"Address"},{"name":"takerAsset","type":"uint256","internalType":"Address"},{"name":"makingAmount","type":"uint256","internalType":"uint256"},{"name":"takingAmount","type":"uint256","internalType":"uint256"},{"name":"makerTraits","type":"uint256","internalType":"MakerTraits"}]},{"name":"","type":"bytes","internalType":"bytes"},{"name":"","type":"bytes32","internalType":"bytes32"},{"name":"","type":"address","internalType":"address"},{"name":"takingAmount","type":"uint256","internalType":"uint256"},{"name":"","type":"uint256","internalType":"uint256"},{"name":"extraData","type":"bytes","internalType":"bytes"}],"outputs":[{"name":"","type":"uint256","internalType":"uint256"}],"stateMutability":"view"},{"type":"function","name":"getTakingAmount","inputs":[{"name":"order","type":"tuple","internalType":"struct IOrderMixin.Order","components":[{"name":"salt","type":"uint256","internalType":"uint256"},{"name":"maker","type":"uint256","internalType":"Address"},{"name":"receiver","type":"uint256","internalType":"Address"},{"name":"makerAsset","type":"uint256","internalType":"Address"},{"name":"takerAsset","type":"uint256","internalType":"Address"},{"name":"makingAmount","type":"uint256","internalType":"uint256"},{"name":"takingAmount","type":"uint256","internalType":"uint256"},{"name":"makerTraits","type":"uint256","internalType":"MakerTraits"}]},{"name":"","type":"bytes","internalType":"bytes"},{"name":"","type":"bytes32","internalType":"bytes32"},{"name":"","type":"address","internalType":"address"},{"name":"makingAmount","type":"uint256","internalType":"uint256"},{"name":"","type":"uint256","internalType":"uint256"},{"name":"extraData","type":"bytes","internalType":"bytes"}],"outputs":[{"name":"","type":"uint256","internalType":"uint256"}],"stateMutability":"view"},{"type":"function","name":"lastValidated","inputs":[{"name":"key","type":"bytes32","internalType":"bytes32"}],"outputs":[{"name":"index","type":"uint256","internalType":"uint256"},{"name":"leaf","type":"bytes32","internalType":"bytes32"}],"stateMutability":"view"},{"type":"function","name":"postInteraction","inputs":[{"name":"order","type":"tuple","internalType":"struct IOrderMixin.Order","components":[{"name":"salt","type":"uint256","internalType":"uint256"},{"name":"maker","type":"uint256","internalType":"Address"},{"name":"receiver","type":"uint256","internalType":"Address"},{"name":"makerAsset","type":"uint256","internalType":"Address"},{"name":"takerAsset","type":"uint256","internalType":"Address"},{"name":"makingAmount","type":"uint256","internalType":"uint256"},{"name":"takingAmount","type":"uint256","internalType":"uint256"},{"name":"makerTraits","type":"uint256","internalType":"MakerTraits"}]},{"name":"extension","type":"bytes","internalType":"bytes"},{"name":"orderHash","type":"bytes32","internalType":"bytes32"},{"name":"taker","type":"address","internalType":"address"},{"name":"makingAmount","type":"uint256","internalType":"uint256"},{"name":"takingAmount","type":"uint256","internalType":"uint256"},{"name":"remainingMakingAmount","type":"uint256","internalType":"uint256"},{"name":"extraData","type":"bytes","internalType":"bytes"}],"outputs":[],"stateMutability":"nonpayable"},{"type":"function","name":"preInteraction","inputs":[{"name":"order","type":"tuple","internalType":"struct IOrderMixin.Order","components":[{"name":"salt","type":"uint256","internalType":"uint256"},{"name":"maker","type":"uint256","internalType":"Address"},{"name":"receiver","type":"uint256","internalType":"Address"},{"name":"makerAsset","type":"uint256","internalType":"Address"},{"name":"takerAsset","type":"uint256","internalType":"Address"},{"name":"makingAmount","type":"uint256","internalType":"uint256"},{"name":"takingAmount","type":"uint256","internalType":"uint256"},{"name":"makerTraits","type":"uint256","internalType":"MakerTraits"}]},{"name":"extension","type":"bytes","internalType":"bytes"},{"name":"orderHash","type":"bytes32","internalType":"bytes32"},{"name":"taker","type":"address","internalType":"address"},{"name":"makingAmount","type":"uint256","internalType":"uint256"},{"name":"takingAmount","type":"uint256","internalType":"uint256"},{"name":"remainingMakingAmount","type":"uint256","internalType":"uint256"},{"name":"extraData","type":"bytes","internalType":"bytes"}],"outputs":[],"stateMutability":"nonpayable"},{"type":"function","name":"takerInteraction","inputs":[{"name":"","type":"tuple","internalType":"struct IOrderMixin.Order","components":[{"name":"salt","type":"uint256","internalType":"uint256"},{"name":"maker","type":"uint256","internalType":"Address"},{"name":"receiver","type":"uint256","internalType":"Address"},{"name":"makerAsset","type":"uint256","internalType":"Address"},{"name":"takerAsset","type":"uint256","internalType":"Address"},{"name":"makingAmount","type":"uint256","internalType":"uint256"},{"name":"takingAmount","type":"uint256","internalType":"uint256"},{"name":"makerTraits","type":"uint256","internalType":"MakerTraits"}]},{"name":"extension","type":"bytes","internalType":"bytes"},{"name":"orderHash","type":"bytes32","internalType":"bytes32"},{"name":"","type":"address","internalType":"address"},{"name":"","type":"uint256","internalType":"uint256"},{"name":"","type":"uint256","internalType":"uint256"},{"name":"","type":"uint256","internalType":"uint256"},{"name":"extraData","type":"bytes","internalType":"bytes"}],"outputs":[],"stateMutability":"nonpayable"},{"type":"event","name":"DstEscrowCreated","inputs":[{"name":"escrow","type":"address","indexed":true,"internalType":"address"},{"name":"hashlock","type":"bytes32","indexed":true,"internalType":"bytes32"},{"name":"taker","type":"uint256","indexed":false,"internalType":"Address"}],"anonymous":false},{"type":"event","name":"SrcEscrowCreated","inputs":[{"name":"escrow","type":"address","indexed":true,"internalType":"address"},{"name":"srcImmutables","type":"tuple","indexed":false,"internalType":"struct IBaseEscrow.Immutables","components":[{"name":"orderHash","type":"bytes32","internalType":"bytes32"},{"name":"hashlock","type":"bytes32","internalType":"bytes32"},{"name":"maker","type":"uint256","internalType":"Address"},{"name":"taker","type":"uint256","internalType":"Address"},{"name":"token","type":"uint256","internalType":"Address"},{"name":"amount","type":"uint256","internalType":"uint256"},{"name":"safetyDeposit","type":"uint256","internalType":"uint256"},{"name":"timelocks","type":"uint256","internalType":"Timelocks"}]},{"name":"dstImmutablesComplement","type":"tuple","indexed":false,"internalType":"struct IEscrowFactory.DstImmutablesComplement","components":[{"name":"maker","type":"uint256","internalType":"Address"},{"name":"amount","type":"uint256","internalType":"uint256"},{"name":"token","type":"uint256","internalType":"Address"},{"name":"safetyDeposit","type":"uint256","internalType":"uint256"},{"name":"chainId","type":"uint256","internalType":"uint256"}]}],"anonymous":false},{"type":"error","name":"AccessDenied","inputs":[]},{"type":"error","name":"FailedDeployment","inputs":[]},{"type":"error","name":"InsufficientBalance","inputs":[{"name":"balance","type":"uint256","internalType":"uint256"},{"name":"needed","type":"uint256","internalType":"uint256"}]},{"type":"error","name":"InsufficientEscrowBalance","inputs":[]},{"type":"error","name":"InvalidCreationTime","inputs":[]},{"type":"error","name":"InvalidPartialFill","inputs":[]},{"type":"error","name":"InvalidProof","inputs":[]},{"type":"error","name":"InvalidSecretsAmount","inputs":[]},{"type":"error","name":"OnlyLimitOrderProtocol","inputs":[]},{"type":"error","name":"SafeTransferFromFailed","inputs":[]}],"bytecode":{"object":"0x6101a0346200026957601f6200193a38819003918201601f19168301916001600160401b038311848410176200026d5780849260c09460405283398101031262000269576200004e8162000281565b906200005d6020820162000281565b6200006b6040830162000281565b620000796060840162000281565b906200009660a06200008e6080870162000281565b950162000281565b608086905260a09390935260c05260e0526101009283526001600160a01b038281168015620002245781831615620001df576101209384526101409283526e5af43d82803e903d91602b57fd5bf3602052601181905260881c763d602d80600a3d3981f3363d3d373d3d3d363d73000000175f5260376009206200015c9091610160928352835116763d602d80600a3d3981f3363d3d373d3d3d363d73000000906e5af43d82803e903d91602b57fd5bf36020528060115260881c175f52603760092090565b91610180928352604051936116a3958662000297873960805186818161054101528181610b0301526111d7015260a05186610a42015260c05186611114015260e05186611182015251856106d501525184818161010801528181610ab00152610e000152518381816102bb015281816105ab015261068201525182505051815050f35b60405162461bcd60e51b815260206004820152601a60248201527f496e76616c69642044535420696d706c656d656e746174696f6e0000000000006044820152606490fd5b60405162461bcd60e51b815260206004820152601a60248201527f496e76616c69642053524320696d706c656d656e746174696f6e0000000000006044820152606490fd5b5f80fd5b634e487b7160e01b5f52604160045260245ffd5b51906001600160a01b0382168203620002695756fe60808060405260049081361015610014575f80fd5b5f3560e01c9081630986bdd5146111a657508063117803e3146111385780631d9671c3146104f25780633eb5002a146110ca578063462ebde214610ad45780637040f17314610a6657806373717b08146109f8578063acf4ce5c146109a9578063adf38ba1146106a6578063ba55117714610638578063be58e91c14610565578063c1459384146104f7578063d7ff8a80146104f2578063dea024e4146101b75763fb6bd47e146100c3575f80fd5b346101b35761010090817ffffffffffffffffffffffffffffffffffffffffffffffffffffffffffffffffc3601126101b35781610195916020936040519182372030907f000000000000000000000000000000000000000000000000000000000000000073ffffffffffffffffffffffffffffffffffffffff926055926043926040519260388401526f5af43d82803e903d91602b57fd5bf3ff60248401526014830152733d602d80600a3d3981f3363d3d373d3d3d363d73825260588201526037600c820120607882015201201690565b73ffffffffffffffffffffffffffffffffffffffff60405191168152f35b5f80fd5b507ffffffffffffffffffffffffffffffffffffffffffffffffffffffffffffffffc360161012081126101b3576101008091126101b35761010435916084359073ffffffffffffffffffffffffffffffffffffffff8083169060c435948590831596876104e0575b34036104b7576040516102318161143e565b8535815260243598896020830152604435604083015260643597886060840152608083015260a082019360a435855260c08301526102a74260e01b7bffffffffffffffffffffffffffffffffffffffffffffffffffffffff60e43516178060e085015263ffffffff8160c01c169060e01c61149c565b61012c820180921161048b571161046257207f000000000000000000000000000000000000000000000000000000000000000034471061042c5780763d602d80600a3d3981f3363d3d373d3d3d363d7300000062ffffff6e5af43d82803e903d91602b57fd5bf39360881c16175f5260781b176020526037600934f59182169586156104035715610362575b86867fc30e111dcc74fddc2c3a4d98ffb97adec4485c0a687946bf5b22c2a99c7ff96d602088604051908152a3005b60646020925f9251604051917f23b872dd00000000000000000000000000000000000000000000000000000000835233888401526024830152604482015282855af190816103e1575b50156103b957808080610333565b6040517ff4059071000000000000000000000000000000000000000000000000000000008152fd5b90503d156103fb575060015f5114601f3d11165b5f6103ab565b3b15156103f5565b846040517fb06ebf3d000000000000000000000000000000000000000000000000000000008152fd5b60448647604051917fcf479181000000000000000000000000000000000000000000000000000000008352820152346024820152fd5b856040517ff4840e96000000000000000000000000000000000000000000000000000000008152fd5b6011887f4e487b71000000000000000000000000000000000000000000000000000000005f525260245ffd5b846040517f34f5151d000000000000000000000000000000000000000000000000000000008152fd5b6104ed9060a4359061149c565b61021f565b6112ff565b346101b3575f7ffffffffffffffffffffffffffffffffffffffffffffffffffffffffffffffffc3601126101b357602060405173ffffffffffffffffffffffffffffffffffffffff7f0000000000000000000000000000000000000000000000000000000000000000168152f35b50346101b35761010090817ffffffffffffffffffffffffffffffffffffffffffffffffffffffffffffffffc3601126101b35781610195916020936040519182372030907f000000000000000000000000000000000000000000000000000000000000000073ffffffffffffffffffffffffffffffffffffffff926055926043926040519260388401526f5af43d82803e903d91602b57fd5bf3ff60248401526014830152733d602d80600a3d3981f3363d3d373d3d3d363d73825260588201526037600c820120607882015201201690565b346101b3575f7ffffffffffffffffffffffffffffffffffffffffffffffffffffffffffffffffc3601126101b357602060405173ffffffffffffffffffffffffffffffffffffffff7f0000000000000000000000000000000000000000000000000000000000000000168152f35b50346101b3576106b536611252565b50989750505050509173ffffffffffffffffffffffffffffffffffffffff7f00000000000000000000000000000000000000000000000000000000000000001633036109805790610705916115ee565b92907fffffffffffffffffffffffffffffffffffffffffffffffffffffffffffffff607dffffffffffffffffffffffffffffffffffffffffffffffffffffffffffff9485920101351690604051926020936107c48161079886888301958690603e927fffffffffffffffffffffffffffffffffffffffffffffffffffffffffffff000091835260101b1660208201520190565b037fffffffffffffffffffffffffffffffffffffffffffffffffffffffffffffffe0810183528261145b565b5190209185357fffffffffffffffffffffffffffffffffffffffffffffffffffffffffffffffe1873603018112156101b35767ffffffffffffffff9590870180358781116101b3576005918160051b3603888201136101b3576040888b01359a013598604051898101917fffffffffffffffff0000000000000000000000000000000000000000000000008d60c01b1683528b60288301526028825260608201908282109082111761095457604052519020925f9291905b828410610919575050505016036108f157600185018095116108c55750600192915f91604051956108ac876113f5565b865281860193845282525260405f209251835551910155005b6011907f4e487b71000000000000000000000000000000000000000000000000000000005f525260245ffd5b6040517f09bde339000000000000000000000000000000000000000000000000000000008152fd5b909192938985831b84010135908181105f14610944575f528952600160405f205b940192919061087c565b905f528952600160405f2061093a565b6041897f4e487b71000000000000000000000000000000000000000000000000000000005f525260245ffd5b836040517f4ca88867000000000000000000000000000000000000000000000000000000008152fd5b50346101b35760207ffffffffffffffffffffffffffffffffffffffffffffffffffffffffffffffffc3601126101b357355f525f6020526040805f206001815491015482519182526020820152f35b346101b3575f7ffffffffffffffffffffffffffffffffffffffffffffffffffffffffffffffffc3601126101b357602060405173ffffffffffffffffffffffffffffffffffffffff7f0000000000000000000000000000000000000000000000000000000000000000168152f35b346101b3575f7ffffffffffffffffffffffffffffffffffffffffffffffffffffffffffffffffc3601126101b357602060405173ffffffffffffffffffffffffffffffffffffffff7f0000000000000000000000000000000000000000000000000000000000000000168152f35b50346101b357610ae336611252565b94919298965092965073ffffffffffffffffffffffffffffffffffffffff7f00000000000000000000000000000000000000000000000000000000000000001633036110a1577fffffffffffffffffffffffffffffffffffffffffffffffffffffffffffffff608481810111611075578385010160e08701357f4000000000000000000000000000000000000000000000000000000000000000161561105857358060f01c6002811061102f57610c3291604051610bfa816107987dffffffffffffffffffffffffffffffffffffffffffffffffffffffffffff6020830195168c8690603e927fffffffffffffffffffffffffffffffffffffffffffffffffffffffffffff000091835260101b1660208201520190565b5190205f525f60205260405f20906020604051610c16816113f5565b6001845494858352015491829101529460a08a0135908b61152d565b156110065773ffffffffffffffffffffffffffffffffffffffff915b60405195610c5b8761143e565b8652602086015260208601356040860152166060840152606084013560808401528460a08401527fffffffffffffffffffffffffffffffffffffffffffffffffffffffffffffffc0828201013560801c60c08401524260e01b7bffffffffffffffffffffffffffffffffffffffffffffffffffffffff7fffffffffffffffffffffffffffffffffffffffffffffffffffffffffffffffe08484010135161760e0840152604084013573ffffffffffffffffffffffffffffffffffffffff8116155f1461100057506020840135955b604051968760a081011067ffffffffffffffff60a08a01111761095457907fffffffffffffffffffffffffffffffffffffffffffffffffffffffffffffff8093929160a08901604052885260208801527fffffffffffffffffffffffffffffffffffffffffffffffffffffffffffffffa0828201013560408801526fffffffffffffffffffffffffffffffff7fffffffffffffffffffffffffffffffffffffffffffffffffffffffffffffffc08383010135166060880152010135608085015261010081206e5af43d82803e903d91602b57fd5bf37f0000000000000000000000000000000000000000000000000000000000000000763d602d80600a3d3981f3363d3d373d3d3d363d7300000062ffffff8260881c16175f5260781b17602052603760095ff59373ffffffffffffffffffffffffffffffffffffffff851615610fd75760806040519183518352602084015160208401526040840151604084015260608401516060840152818401518284015260a084015160a084015260c084015160c084015260e084015160e0840152805161010084015260208101516101208401526040810151610140840152606081015161016084015201516101808201527fd2441ca0d5908dcf7cb9576579cf63aede62b73cf1b3f4d4ec23de47c58985536101a073ffffffffffffffffffffffffffffffffffffffff871692a260c0843191015111928315610f6a575b505050610f4257005b6040517f34f5151d000000000000000000000000000000000000000000000000000000008152fd5b60209293505f73ffffffffffffffffffffffffffffffffffffffff606082946024947f70a0823100000000000000000000000000000000000000000000000000000000855289520135165afa5f51901560203d1017610fcc57105f8080610f39565b6040513d5f823e3d90fd5b856040517fb06ebf3d000000000000000000000000000000000000000000000000000000008152fd5b95610d29565b886040517feab3a174000000000000000000000000000000000000000000000000000000008152fd5b8a6040517f10d629d3000000000000000000000000000000000000000000000000000000008152fd5b73ffffffffffffffffffffffffffffffffffffffff925035610c4e565b60118a7f4e487b71000000000000000000000000000000000000000000000000000000005f525260245ffd5b886040517fd25aa106000000000000000000000000000000000000000000000000000000008152fd5b346101b3575f7ffffffffffffffffffffffffffffffffffffffffffffffffffffffffffffffffc3601126101b357602060405173ffffffffffffffffffffffffffffffffffffffff7f0000000000000000000000000000000000000000000000000000000000000000168152f35b346101b3575f7ffffffffffffffffffffffffffffffffffffffffffffffffffffffffffffffffc3601126101b357602060405173ffffffffffffffffffffffffffffffffffffffff7f0000000000000000000000000000000000000000000000000000000000000000168152f35b9050346101b3576111b636611252565b5050505050505050505073ffffffffffffffffffffffffffffffffffffffff7f00000000000000000000000000000000000000000000000000000000000000001633036111ff57005b7fd25aa106000000000000000000000000000000000000000000000000000000008152fd5b9181601f840112156101b35782359167ffffffffffffffff83116101b357602083818601950101116101b357565b7ffffffffffffffffffffffffffffffffffffffffffffffffffffffffffffffffc81016101e081126101b357610100136101b35760049167ffffffffffffffff610104358181116101b357836112aa91600401611224565b9390939261012435926101443573ffffffffffffffffffffffffffffffffffffffff811681036101b35792610164359261018435926101a435926101c4359182116101b3576112fb91600401611224565b9091565b346101b3577ffffffffffffffffffffffffffffffffffffffffffffffffffffffffffffffffc36016101c081126101b357610100136101b35767ffffffffffffffff610104358181116101b35761135a903690600401611224565b50506101443573ffffffffffffffffffffffffffffffffffffffff8116036101b3576101a4359081116101b357611395903690600401611224565b505060646040517f08c379a000000000000000000000000000000000000000000000000000000000815260206004820152600f60248201527f4e6f7420696d706c656d656e74656400000000000000000000000000000000006044820152fd5b6040810190811067ffffffffffffffff82111761141157604052565b7f4e487b71000000000000000000000000000000000000000000000000000000005f52604160045260245ffd5b610100810190811067ffffffffffffffff82111761141157604052565b90601f7fffffffffffffffffffffffffffffffffffffffffffffffffffffffffffffffe0910116810190811067ffffffffffffffff82111761141157604052565b919082018092116114a957565b7f4e487b71000000000000000000000000000000000000000000000000000000005f52601160045260245ffd5b919082039182116114a957565b818102929181159184041417156114a957565b8115611500570490565b7f4e487b71000000000000000000000000000000000000000000000000000000005f52601260045260245ffd5b9291906115438461153e83856114d6565b61149c565b907fffffffffffffffffffffffffffffffffffffffffffffffffffffffffffffffff918281019081116114a9578361157e86611583936114e3565b6114f6565b94810361159d5750505050600281018091116114a9571490565b8083036115b8575b50505050600181018091116114a9571490565b6115c290836114d6565b9081019081116114a9576115d99261157e916114e3565b81146115e8575f8080806115a5565b50505f90565b91909160208310611665578035907fffffffffffffffffffffffffffffffffffffffffffffffffffffffffffffffe063ffffffff8360c01c169260e01c9401841161163d578101602001920390565b7f9605a010000000000000000000000000000000000000000000000000000000005f5260045ffd5b505f9150819056fea264697066735822122099033960f2e241638001b18bb302935028350b7a1094033eeb213d459673ab2f64736f6c63430008170033","linkReferences":{}},"methodIdentifiers":{"ACCESS_TOKEN()":"3eb5002a","ESCROW_DST_IMPLEMENTATION()":"ba551177","ESCROW_SRC_IMPLEMENTATION()":"7040f173","FEE_TOKEN()":"73717b08","LIMIT_ORDER_PROTOCOL()":"c1459384","OWNER()":"117803e3","addressOfEscrowDst((bytes32,bytes32,uint256,uint256,uint256,uint256,uint256,uint256))":"be58e91c","addressOfEscrowSrc((bytes32,bytes32,uint256,uint256,uint256,uint256,uint256,uint256))":"fb6bd47e","createDstEscrow((bytes32,bytes32,uint256,uint256,uint256,uint256,uint256,uint256),uint256)":"dea024e4","getMakingAmount((uint256,uint256,uint256,uint256,uint256,uint256,uint256,uint256),bytes,bytes32,address,uint256,uint256,bytes)":"1d9671c3","getTakingAmount((uint256,uint256,uint256,uint256,uint256,uint256,uint256,uint256),bytes,bytes32,address,uint256,uint256,bytes)":"d7ff8a80","lastValidated(bytes32)":"acf4ce5c","postInteraction((uint256,uint256,uint256,uint256,uint256,uint256,uint256,uint256),bytes,bytes32,address,uint256,uint256,uint256,bytes)":"462ebde2","preInteraction((uint256,uint256,uint256,uint256,uint256,uint256,uint256,uint256),bytes,bytes32,address,uint256,uint256,uint256,bytes)":"0986bdd5","takerInteraction((uint256,uint256,uint256,uint256,uint256,uint256,uint256,uint256),bytes,bytes32,address,uint256,uint256,uint256,bytes)":"adf38ba1"},"id":3}