{
  "abi": [
    {
      "type": "constructor",
      "inputs": [
        {
          "name": "rescueDelay",
          "type": "uint32",
          "internalType": "uint32"
        },
        {
          "name": "accessToken",
          "type": "address",
          "internalType": "contract IERC20"
        }
      ],
      "stateMutability": "nonpayable"
    },
    {
      "type": "function",
      "name": "FACTORY",
      "inputs": [],
      "outputs": [
        {
          "name": "",
          "type": "address",
          "internalType": "address"
        }
      ],
      "stateMutability": "view"
    },
    {
      "type": "function",
      "name": "PROXY_BYTECODE_HASH",
      "inputs": [],
      "outputs": [
        {
          "name": "",
          "type": "bytes32",
          "internalType": "bytes32"
        }
      ],
      "stateMutability": "view"
    },
    {
      "type": "function",
      "name": "RESCUE_DELAY",
      "inputs": [],
      "outputs": [
        {
          "name": "",
          "type": "uint256",
          "internalType": "uint256"
        }
      ],
      "stateMutability": "view"
    },
    {
      "type": "function",
      "name": "_hashPublicAction",
      "inputs": [
        {
          "name": "orderHash",
          "type": "bytes32",
          "internalType": "bytes32"
        },
        {
          "name": "caller",
          "type": "address",
          "internalType": "address"
        },
        {
          "name": "action",
          "type": "string",
          "internalType": "string"
        }
      ],
      "outputs": [
        {
          "name": "",
          "type": "bytes32",
          "internalType": "bytes32"
        }
      ],
      "stateMutability": "view"
    },
    {
      "type": "function",
      "name": "_recover",
      "inputs": [
        {
          "name": "digest",
          "type": "bytes32",
          "internalType": "bytes32"
        },
        {
          "name": "sig",
          "type": "bytes",
          "internalType": "bytes"
        }
      ],
      "outputs": [
        {
          "name": "signer",
          "type": "address",
          "internalType": "address"
        }
      ],
      "stateMutability": "pure"
    },
    {
      "type": "function",
      "name": "cancel",
      "inputs": [
        {
          "name": "immutables",
          "type": "tuple",
          "internalType": "struct IBaseEscrow.Immutables",
          "components": [
            {
              "name": "orderHash",
              "type": "bytes32",
              "internalType": "bytes32"
            },
            {
              "name": "hashlock",
              "type": "bytes32",
              "internalType": "bytes32"
            },
            {
              "name": "maker",
              "type": "uint256",
              "internalType": "Address"
            },
            {
              "name": "taker",
              "type": "uint256",
              "internalType": "Address"
            },
            {
              "name": "token",
              "type": "uint256",
              "internalType": "Address"
            },
            {
              "name": "amount",
              "type": "uint256",
              "internalType": "uint256"
            },
            {
              "name": "safetyDeposit",
              "type": "uint256",
              "internalType": "uint256"
            },
            {
              "name": "timelocks",
              "type": "uint256",
              "internalType": "Timelocks"
            }
          ]
        }
      ],
      "outputs": [],
      "stateMutability": "nonpayable"
    },
    {
      "type": "function",
      "name": "publicCancel",
      "inputs": [
        {
          "name": "immutables",
          "type": "tuple",
          "internalType": "struct IBaseEscrow.Immutables",
          "components": [
            {
              "name": "orderHash",
              "type": "bytes32",
              "internalType": "bytes32"
            },
            {
              "name": "hashlock",
              "type": "bytes32",
              "internalType": "bytes32"
            },
            {
              "name": "maker",
              "type": "uint256",
              "internalType": "Address"
            },
            {
              "name": "taker",
              "type": "uint256",
              "internalType": "Address"
            },
            {
              "name": "token",
              "type": "uint256",
              "internalType": "Address"
            },
            {
              "name": "amount",
              "type": "uint256",
              "internalType": "uint256"
            },
            {
              "name": "safetyDeposit",
              "type": "uint256",
              "internalType": "uint256"
            },
            {
              "name": "timelocks",
              "type": "uint256",
              "internalType": "Timelocks"
            }
          ]
        }
      ],
      "outputs": [],
      "stateMutability": "nonpayable"
    },
    {
      "type": "function",
      "name": "publicCancelSigned",
      "inputs": [
        {
          "name": "immutables",
          "type": "tuple",
          "internalType": "struct IBaseEscrow.Immutables",
          "components": [
            {
              "name": "orderHash",
              "type": "bytes32",
              "internalType": "bytes32"
            },
            {
              "name": "hashlock",
              "type": "bytes32",
              "internalType": "bytes32"
            },
            {
              "name": "maker",
              "type": "uint256",
              "internalType": "Address"
            },
            {
              "name": "taker",
              "type": "uint256",
              "internalType": "Address"
            },
            {
              "name": "token",
              "type": "uint256",
              "internalType": "Address"
            },
            {
              "name": "amount",
              "type": "uint256",
              "internalType": "uint256"
            },
            {
              "name": "safetyDeposit",
              "type": "uint256",
              "internalType": "uint256"
            },
            {
              "name": "timelocks",
              "type": "uint256",
              "internalType": "Timelocks"
            }
          ]
        },
        {
          "name": "resolverSignature",
          "type": "bytes",
          "internalType": "bytes"
        }
      ],
      "outputs": [],
      "stateMutability": "nonpayable"
    },
    {
      "type": "function",
      "name": "publicWithdraw",
      "inputs": [
        {
          "name": "secret",
          "type": "bytes32",
          "internalType": "bytes32"
        },
        {
          "name": "immutables",
          "type": "tuple",
          "internalType": "struct IBaseEscrow.Immutables",
          "components": [
            {
              "name": "orderHash",
              "type": "bytes32",
              "internalType": "bytes32"
            },
            {
              "name": "hashlock",
              "type": "bytes32",
              "internalType": "bytes32"
            },
            {
              "name": "maker",
              "type": "uint256",
              "internalType": "Address"
            },
            {
              "name": "taker",
              "type": "uint256",
              "internalType": "Address"
            },
            {
              "name": "token",
              "type": "uint256",
              "internalType": "Address"
            },
            {
              "name": "amount",
              "type": "uint256",
              "internalType": "uint256"
            },
            {
              "name": "safetyDeposit",
              "type": "uint256",
              "internalType": "uint256"
            },
            {
              "name": "timelocks",
              "type": "uint256",
              "internalType": "Timelocks"
            }
          ]
        }
      ],
      "outputs": [],
      "stateMutability": "nonpayable"
    },
    {
      "type": "function",
      "name": "publicWithdrawSigned",
      "inputs": [
        {
          "name": "secret",
          "type": "bytes32",
          "internalType": "bytes32"
        },
        {
          "name": "immutables",
          "type": "tuple",
          "internalType": "struct IBaseEscrow.Immutables",
          "components": [
            {
              "name": "orderHash",
              "type": "bytes32",
              "internalType": "bytes32"
            },
            {
              "name": "hashlock",
              "type": "bytes32",
              "internalType": "bytes32"
            },
            {
              "name": "maker",
              "type": "uint256",
              "internalType": "Address"
            },
            {
              "name": "taker",
              "type": "uint256",
              "internalType": "Address"
            },
            {
              "name": "token",
              "type": "uint256",
              "internalType": "Address"
            },
            {
              "name": "amount",
              "type": "uint256",
              "internalType": "uint256"
            },
            {
              "name": "safetyDeposit",
              "type": "uint256",
              "internalType": "uint256"
            },
            {
              "name": "timelocks",
              "type": "uint256",
              "internalType": "Timelocks"
            }
          ]
        },
        {
          "name": "resolverSignature",
          "type": "bytes",
          "internalType": "bytes"
        }
      ],
      "outputs": [],
      "stateMutability": "nonpayable"
    },
    {
      "type": "function",
      "name": "rescueFunds",
      "inputs": [
        {
          "name": "token",
          "type": "address",
          "internalType": "address"
        },
        {
          "name": "amount",
          "type": "uint256",
          "internalType": "uint256"
        },
        {
          "name": "immutables",
          "type": "tuple",
          "internalType": "struct IBaseEscrow.Immutables",
          "components": [
            {
              "name": "orderHash",
              "type": "bytes32",
              "internalType": "bytes32"
            },
            {
              "name": "hashlock",
              "type": "bytes32",
              "internalType": "bytes32"
            },
            {
              "name": "maker",
              "type": "uint256",
              "internalType": "Address"
            },
            {
              "name": "taker",
              "type": "uint256",
              "internalType": "Address"
            },
            {
              "name": "token",
              "type": "uint256",
              "internalType": "Address"
            },
            {
              "name": "amount",
              "type": "uint256",
              "internalType": "uint256"
            },
            {
              "name": "safetyDeposit",
              "type": "uint256",
              "internalType": "uint256"
            },
            {
              "name": "timelocks",
              "type": "uint256",
              "internalType": "Timelocks"
            }
          ]
        }
      ],
      "outputs": [],
      "stateMutability": "nonpayable"
    },
    {
      "type": "function",
      "name": "withdraw",
      "inputs": [
        {
          "name": "secret",
          "type": "bytes32",
          "internalType": "bytes32"
        },
        {
          "name": "immutables",
          "type": "tuple",
          "internalType": "struct IBaseEscrow.Immutables",
          "components": [
            {
              "name": "orderHash",
              "type": "bytes32",
              "internalType": "bytes32"
            },
            {
              "name": "hashlock",
              "type": "bytes32",
              "internalType": "bytes32"
            },
            {
              "name": "maker",
              "type": "uint256",
              "internalType": "Address"
            },
            {
              "name": "taker",
              "type": "uint256",
              "internalType": "Address"
            },
            {
              "name": "token",
              "type": "uint256",
              "internalType": "Address"
            },
            {
              "name": "amount",
              "type": "uint256",
              "internalType": "uint256"
            },
            {
              "name": "safetyDeposit",
              "type": "uint256",
              "internalType": "uint256"
            },
            {
              "name": "timelocks",
              "type": "uint256",
              "internalType": "Timelocks"
            }
          ]
        }
      ],
      "outputs": [],
      "stateMutability": "nonpayable"
    },
    {
      "type": "function",
      "name": "withdrawTo",
      "inputs": [
        {
          "name": "secret",
          "type": "bytes32",
          "internalType": "bytes32"
        },
        {
          "name": "target",
          "type": "address",
          "internalType": "address"
        },
        {
          "name": "immutables",
          "type": "tuple",
          "internalType": "struct IBaseEscrow.Immutables",
          "components": [
            {
              "name": "orderHash",
              "type": "bytes32",
              "internalType": "bytes32"
            },
            {
              "name": "hashlock",
              "type": "bytes32",
              "internalType": "bytes32"
            },
            {
              "name": "maker",
              "type": "uint256",
              "internalType": "Address"
            },
            {
              "name": "taker",
              "type": "uint256",
              "internalType": "Address"
            },
            {
              "name": "token",
              "type": "uint256",
              "internalType": "Address"
            },
            {
              "name": "amount",
              "type": "uint256",
              "internalType": "uint256"
            },
            {
              "name": "safetyDeposit",
              "type": "uint256",
              "internalType": "uint256"
            },
            {
              "name": "timelocks",
              "type": "uint256",
              "internalType": "Timelocks"
            }
          ]
        }
      ],
      "outputs": [],
      "stateMutability": "nonpayable"
    },
    {
      "type": "event",
      "name": "EscrowCancelled",
      "inputs": [],
      "anonymous": false
    },
    {
      "type": "event",
      "name": "EscrowWithdrawal",
      "inputs": [
        {
          "name": "secret",
          "type": "bytes32",
          "indexed": false,
          "internalType": "bytes32"
        }
      ],
      "anonymous": false
    },
    {
      "type": "event",
      "name": "FundsRescued",
      "inputs": [
        {
          "name": "token",
          "type": "address",
          "indexed": false,
          "internalType": "address"
        },
        {
          "name": "amount",
          "type": "uint256",
          "indexed": false,
          "internalType": "uint256"
        }
      ],
      "anonymous": false
    },
    {
      "type": "error",
      "name": "InvalidCaller",
      "inputs": []
    },
    {
      "type": "error",
      "name": "InvalidImmutables",
      "inputs": []
    },
    {
      "type": "error",
      "name": "InvalidSecret",
      "inputs": []
    },
    {
      "type": "error",
      "name": "InvalidTime",
      "inputs": []
    },
    {
      "type": "error",
      "name": "NativeTokenSendingFailure",
      "inputs": []
    },
    {
      "type": "error",
      "name": "SafeTransferFailed",
      "inputs": []
    }
  ],
  "bytecode": {
    "object": "0x6101a034610227576001600160401b03611280601f38829003908101601f19168401908382118583101761021357808591604094859485528339810103126102275782519263ffffffff84168094036102275760200151906001600160a01b038216820361022757306080524660a05280519061007b8261022b565b600a825260036020830169424d4e2d457363726f7760b01b8152602083516100a28161022b565b838152019362322e3360e81b85525190209220908260c0528160e05280519160208301937f8b73c3c69bb8fe3d512ecc4cf759cc79239f7b179b0ffacaa9a75d522b39400f85528284015260608301524660808301523060a083015260a0825260c0820194828610908611176102135784905251902092610100938452610160903382526101409081526101209283526e5af43d82803e903d91602b57fd5bf360205230601152763d602d80600a3d3981f3363d3d373d3d3d363d730000003060881c175f526037600920926101809384526110399586610247873960805186610b47015260a05186610b6a015260c05186610bfa015260e05186610c2001525185610b25015251848181610122015261088201525183818160c5015261059e0152518281816103300152818161073301528181610d2701528181610dec01528181610e790152610ef30152518181816103060152818161064801528181610dc101528181610e4e0152610ec80152f35b634e487b7160e01b5f52604160045260245ffd5b5f80fd5b604081019081106001600160401b038211176102135760405256fe6080604090808252600480361015610015575f80fd5b5f3560e01c9182630af975581461084a5750816323305703146107b0578163265d3e97146107625781632dd310001461071f578163344de82f1461066b57816334862b6a146106315781634649088b1461054a5781635d7d5e99146104c55781636c10c0c8146103e3578163877435cd1461024757816390d3252f14610215578163daff233e146100ec575063f56cd69c146100af575f80fd5b346100e8575f3660031901126100e857602090517f00000000000000000000000000000000000000000000000000000000000000008152f35b5f80fd5b82346100e8576101003660031901126100e85780516370a0823160e01b815233838201526001600160a01b0391906020816024817f000000000000000000000000000000000000000000000000000000000000000087165afa90811561020b575f916101d9575b50156101ca5761016460e435610ccf565b42106101bb5761018982610176610dac565b60a4359080604435169060843516610f2e565b61019560c43533610f95565b7f6e3be9294e58d10b9c8053cfd5e09871b67e442fe394d6b0870d336b9df984a95f80a1005b516337bf561360e11b81529050fd5b516348f5c3ed60e01b81529050fd5b90506020813d602011610203575b816101f460209383610a20565b810103126100e8575184610153565b3d91506101e7565b82513d5f823e3d90fd5b82346100e8576101003660031901126100e8576001600160a01b0390606435821633036101ca5761016460e435610c9e565b82346100e8576101403660031901126100e857813591610100806023193601126100e8576101243567ffffffffffffffff81116100e85761028b90369084016109ac565b906101043561029981610c70565b42106103d3576102a890610c9e565b4210156103c357600b9392916102eb9186516102c3816109f0565b60138152725352435f5055424c49435f574954484452415760681b6020820152602435610ce9565b83516001600160a01b039384926055928160248237208651907f00000000000000000000000000000000000000000000000000000000000000008883015260208201527f000000000000000000000000000000000000000000000000000000000000000081520160ff8153201630036103b557835f5260205f20604435036103a7575f80516020610fe48339815191526020858561039460c435608435881660a4358916610f2e565b6103a060e43533610f95565b51908152a1005b825163abab6bd760e01b8152fd5b8251635134a42560e11b8152fd5b84516337bf561360e11b81528490fd5b85516337bf561360e11b81528590fd5b82346100e8576101403660031901126100e8578135916104016109da565b6101003660431901126100e8576001600160a01b039160a435831633036104b7576101243561042f81610cb8565b42106104a85761043e90610c9e565b42101561049a5761044d610e39565b845f5260205f206064350361048c575f80516020610fe48339815191526020868661047f60e4358760c4358a16610f2e565b6103a06101043533610f95565b835163abab6bd760e01b8152fd5b83516337bf561360e11b8152fd5b5083516337bf561360e11b8152fd5b83516348f5c3ed60e01b8152fd5b82346100e85760603660031901126100e8576104df6109da565b916044359067ffffffffffffffff82116100e857366023830112156100e857818101359361050c85610a42565b9161051985519384610a20565b85835236602487860101116100e8575f602087819860246105439801838801378501015235610ab0565b9051908152f35b82346100e8576101403660031901126100e85781356001600160a01b03818116918290036100e857602435906101003660431901126100e85760a43516330361062257610595610e39565b6101243560e01c7f0000000000000000000000000000000000000000000000000000000000000000014210610613577fc4474c2790e13695f6d2b6f1d8e164290b55370f87a542fd7711abe0a1bf40ac935081610603576105f68133610f95565b82519182526020820152a1005b61060e813384610f2e565b6105f6565b5050516337bf561360e11b8152fd5b5050516348f5c3ed60e01b8152fd5b82346100e8575f3660031901126100e857602090517f00000000000000000000000000000000000000000000000000000000000000008152f35b82346100e857366003190161012081126100e857610100136100e8576101043567ffffffffffffffff81116100e8576106a790369084016109ac565b916106b360e435610ccf565b421061071057516106eb936106c7826109f0565b601182527014d490d7d41550931250d7d0d05390d153607a1b602083015235610ce9565b6106f3610dac565b61018960a4356001600160a01b0360443581169060843516610f2e565b516337bf561360e11b81528390fd5b82346100e8575f3660031901126100e857517f00000000000000000000000000000000000000000000000000000000000000006001600160a01b03168152602090f35b82346100e857806003193601126100e85760243567ffffffffffffffff81116100e85760209261079861079f92369083016109ac565b9135610a5e565b90516001600160a01b039091168152f35b82346100e8576107bf36610989565b90926001600160a01b03906060830135821633036104b75760e08301356107e581610cb8565b42106104a8576107f490610c9e565b42101561049a5761080483610eb4565b845f5260205f2060208401350361048c575f80516020610fe4833981519152602086866103a060c08861084260a08201353360808401358c16610f2e565b013533610f95565b9150346100e85761085a36610989565b6370a0823160e01b8452338484015293602093919290916001600160a01b03919085816024817f000000000000000000000000000000000000000000000000000000000000000087165afa90811561097f575f91610952575b50156109445760e08601356108c781610c70565b4210610935576108d690610c9e565b421015610927576108e686610eb4565b835f52845f2085870135036103a7575060c0856108426103a09360a05f80516020610fe4833981519152990135908060608501351690608085013516610f2e565b82516337bf561360e11b8152fd5b5082516337bf561360e11b8152fd5b82516348f5c3ed60e01b8152fd5b90508581813d8311610978575b6109698183610a20565b810103126100e857515f6108b3565b503d61095f565b84513d5f823e3d90fd5b906101206003198301126100e8576101006004359260231901126100e857602490565b9181601f840112156100e85782359167ffffffffffffffff83116100e857602083818601950101116100e857565b602435906001600160a01b03821682036100e857565b6040810190811067ffffffffffffffff821117610a0c57604052565b634e487b7160e01b5f52604160045260245ffd5b90601f8019910116810190811067ffffffffffffffff821117610a0c57604052565b67ffffffffffffffff8111610a0c57601f01601f191660200190565b9091604103610aaa5760805f91602080946040519283526040810135851a82840152803560408401520135606082015282805260015afa15610a9f575f5190565b6040513d5f823e3d90fd5b50505f90565b91602081519101209160409283519260208401927fd6ae97ebc6a7fcc26983b667d1787f39e1b4383b40a13b0c604f9aa744952bb384528585015260018060a01b0316606084015260808301526080825260a082019267ffffffffffffffff9183851083861117610a0c5784825283519020927f0000000000000000000000000000000000000000000000000000000000000000947f000000000000000000000000000000000000000000000000000000000000000030147f000000000000000000000000000000000000000000000000000000000000000046141615610bc9575b5050805192602084019461190160f01b86526022850152604284015260428352608083019183831090831117610a0c575251902090565b9091945061016060c08301927f8b73c3c69bb8fe3d512ecc4cf759cc79239f7b179b0ffacaa9a75d522b39400f84527f000000000000000000000000000000000000000000000000000000000000000060e08201527f0000000000000000000000000000000000000000000000000000000000000000610100820152466101208201523061014082015260a083520181811084821117610a0c578552519020925f80610b92565b63ffffffff8160e01c9160201c168101809111610c8a5790565b634e487b7160e01b5f52601160045260245ffd5b63ffffffff8160e01c9160401c168101809111610c8a5790565b63ffffffff8160e01c91168101809111610c8a5790565b63ffffffff8160e01c9160601c168101809111610c8a5790565b92602092610cfe610d03936024963390610ab0565b610a5e565b604051633625638b60e21b81526001600160a01b03918216600482015292839182907f0000000000000000000000000000000000000000000000000000000000000000165afa908115610a9f575f91610d71575b5015610d5f57565b6040516348f5c3ed60e01b8152600490fd5b90506020813d602011610da4575b81610d8c60209383610a20565b810103126100e8575180151581036100e8575f610d57565b3d9150610d7f565b600b60405161010090816004823720604051907f0000000000000000000000000000000000000000000000000000000000000000604083015260208201527f000000000000000000000000000000000000000000000000000000000000000081520160ff8153605590206001600160a01b03163003610e2757565b604051635134a42560e11b8152600490fd5b600b60405161010090816044823720604051907f0000000000000000000000000000000000000000000000000000000000000000604083015260208201527f000000000000000000000000000000000000000000000000000000000000000081520160ff8153605590206001600160a01b03163003610e2757565b600b906040516101008092823720604051907f0000000000000000000000000000000000000000000000000000000000000000604083015260208201527f000000000000000000000000000000000000000000000000000000000000000081520160ff8153605590206001600160a01b03163003610e2757565b9160446020925f926040519163a9059cbb60e01b83526004830152602482015282855af19081610f73575b5015610f6157565b60405163fb7f507960e01b8152600490fd5b90503d15610f8d575060015f5114601f3d11165b5f610f59565b3b1515610f87565b5f80809381935af13d15610fde573d610fad81610a42565b90610fbb6040519283610a20565b81525f60203d92013e5b15610fcc57565b604051638a0332d560e01b8152600490fd5b610fc556fee346f5c97a360db5188bfa5d3ec5f0583abde420c6ba4d08b6cfe61addc17105a26469706673582212201c71e56012333076baad5aa309379dd853542ad3aca7991198a07e6d94827c6164736f6c63430008170033",
    "linkReferences": {}
  },
  "methodIdentifiers": {
    "FACTORY()": "2dd31000",
    "PROXY_BYTECODE_HASH()": "34862b6a",
    "RESCUE_DELAY()": "f56cd69c",
    "_hashPublicAction(bytes32,address,string)": "5d7d5e99",
    "_recover(bytes32,bytes)": "265d3e97",
    "cancel((bytes32,bytes32,uint256,uint256,uint256,uint256,uint256,uint256))": "90d3252f",
    "publicCancel((bytes32,bytes32,uint256,uint256,uint256,uint256,uint256,uint256))": "daff233e",
    "publicCancelSigned((bytes32,bytes32,uint256,uint256,uint256,uint256,uint256,uint256),bytes)": "344de82f",
    "publicWithdraw(bytes32,(bytes32,bytes32,uint256,uint256,uint256,uint256,uint256,uint256))": "0af97558",
    "publicWithdrawSigned(bytes32,(bytes32,bytes32,uint256,uint256,uint256,uint256,uint256,uint256),bytes)": "877435cd",
    "rescueFunds(address,uint256,(bytes32,bytes32,uint256,uint256,uint256,uint256,uint256,uint256))": "4649088b",
    "withdraw(bytes32,(bytes32,bytes32,uint256,uint256,uint256,uint256,uint256,uint256))": "23305703",
    "withdrawTo(bytes32,address,(bytes32,bytes32,uint256,uint256,uint256,uint256,uint256,uint256))": "6c10c0c8"
  },
  "id": 7
}