{"abi":[{"type":"constructor","inputs":[{"name":"limitOrderProtocol","type":"address","internalType":"address"},{"name":"feeToken","type":"address","internalType":"contract IERC20"},{"name":"accessToken","type":"address","internalType":"contract IERC20"},{"name":"owner","type":"address","internalType":"address"},{"name":"rescueDelaySrc","type":"uint32","internalType":"uint32"},{"name":"rescueDelayDst","type":"uint32","internalType":"uint32"}],"stateMutability":"nonpayable"},{"type":"function","name":"ACCESS_TOKEN","inputs":[],"outputs":[{"name":"","type":"address","internalType":"contract IERC20"}],"stateMutability":"view"},{"type":"function","name":"ESCROW_DST_IMPLEMENTATION","inputs":[],"outputs":[{"name":"","type":"address","internalType":"address"}],"stateMutability":"view"},{"type":"function","name":"ESCROW_SRC_IMPLEMENTATION","inputs":[],"outputs":[{"name":"","type":"address","internalType":"address"}],"stateMutability":"view"},{"type":"function","name":"FEE_TOKEN","inputs":[],"outputs":[{"name":"","type":"address","internalType":"contract IERC20"}],"stateMutability":"view"},{"type":"function","name":"LIMIT_ORDER_PROTOCOL","inputs":[],"outputs":[{"name":"","type":"address","internalType":"address"}],"stateMutability":"view"},{"type":"function","name":"OWNER","inputs":[],"outputs":[{"name":"","type":"address","internalType":"address"}],"stateMutability":"view"},{"type":"function","name":"addressOfEscrowDst","inputs":[{"name":"immutables","type":"tuple","internalType":"struct IBaseEscrow.Immutables","components":[{"name":"orderHash","type":"bytes32","internalType":"bytes32"},{"name":"hashlock","type":"bytes32","internalType":"bytes32"},{"name":"maker","type":"uint256","internalType":"Address"},{"name":"taker","type":"uint256","internalType":"Address"},{"name":"token","type":"uint256","internalType":"Address"},{"name":"amount","type":"uint256","internalType":"uint256"},{"name":"safetyDeposit","type":"uint256","internalType":"uint256"},{"name":"timelocks","type":"uint256","internalType":"Timelocks"}]}],"outputs":[{"name":"","type":"address","internalType":"address"}],"stateMutability":"view"},{"type":"function","name":"addressOfEscrowSrc","inputs":[{"name":"immutables","type":"tuple","internalType":"struct IBaseEscrow.Immutables","components":[{"name":"orderHash","type":"bytes32","internalType":"bytes32"},{"name":"hashlock","type":"bytes32","internalType":"bytes32"},{"name":"maker","type":"uint256","internalType":"Address"},{"name":"taker","type":"uint256","internalType":"Address"},{"name":"token","type":"uint256","internalType":"Address"},{"name":"amount","type":"uint256","internalType":"uint256"},{"name":"safetyDeposit","type":"uint256","internalType":"uint256"},{"name":"timelocks","type":"uint256","internalType":"Timelocks"}]}],"outputs":[{"name":"","type":"address","internalType":"address"}],"stateMutability":"view"},{"type":"function","name":"createDstEscrow","inputs":[{"name":"dstImmutables","type":"tuple","internalType":"struct IBaseEscrow.Immutables","components":[{"name":"orderHash","type":"bytes32","internalType":"bytes32"},{"name":"hashlock","type":"bytes32","internalType":"bytes32"},{"name":"maker","type":"uint256","internalType":"Address"},{"name":"taker","type":"uint256","internalType":"Address"},{"name":"token","type":"uint256","internalType":"Address"},{"name":"amount","type":"uint256","internalType":"uint256"},{"name":"safetyDeposit","type":"uint256","internalType":"uint256"},{"name":"timelocks","type":"uint256","internalType":"Timelocks"}]},{"name":"srcCancellationTimestamp","type":"uint256","internalType":"uint256"}],"outputs":[],"stateMutability":"payable"},{"type":"function","name":"getMakingAmount","inputs":[{"name":"order","type":"tuple","internalType":"struct IOrderMixin.Order","components":[{"name":"salt","type":"uint256","internalType":"uint256"},{"name":"maker","type":"uint256","internalType":"Address"},{"name":"receiver","type":"uint256","internalType":"Address"},{"name":"makerAsset","type":"uint256","internalType":"Address"},{"name":"takerAsset","type":"uint256","internalType":"Address"},{"name":"makingAmount","type":"uint256","internalType":"uint256"},{"name":"takingAmount","type":"uint256","internalType":"uint256"},{"name":"makerTraits","type":"uint256","internalType":"MakerTraits"}]},{"name":"","type":"bytes","internalType":"bytes"},{"name":"","type":"bytes32","internalType":"bytes32"},{"name":"","type":"address","internalType":"address"},{"name":"takingAmount","type":"uint256","internalType":"uint256"},{"name":"","type":"uint256","internalType":"uint256"},{"name":"extraData","type":"bytes","internalType":"bytes"}],"outputs":[{"name":"","type":"uint256","internalType":"uint256"}],"stateMutability":"view"},{"type":"function","name":"getTakingAmount","inputs":[{"name":"order","type":"tuple","internalType":"struct IOrderMixin.Order","components":[{"name":"salt","type":"uint256","internalType":"uint256"},{"name":"maker","type":"uint256","internalType":"Address"},{"name":"receiver","type":"uint256","internalType":"Address"},{"name":"makerAsset","type":"uint256","internalType":"Address"},{"name":"takerAsset","type":"uint256","internalType":"Address"},{"name":"makingAmount","type":"uint256","internalType":"uint256"},{"name":"takingAmount","type":"uint256","internalType":"uint256"},{"name":"makerTraits","type":"uint256","internalType":"MakerTraits"}]},{"name":"","type":"bytes","internalType":"bytes"},{"name":"","type":"bytes32","internalType":"bytes32"},{"name":"","type":"address","internalType":"address"},{"name":"makingAmount","type":"uint256","internalType":"uint256"},{"name":"","type":"uint256","internalType":"uint256"},{"name":"extraData","type":"bytes","internalType":"bytes"}],"outputs":[{"name":"","type":"uint256","internalType":"uint256"}],"stateMutability":"view"},{"type":"function","name":"lastValidated","inputs":[{"name":"key","type":"bytes32","internalType":"bytes32"}],"outputs":[{"name":"index","type":"uint256","internalType":"uint256"},{"name":"leaf","type":"bytes32","internalType":"bytes32"}],"stateMutability":"view"},{"type":"function","name":"postInteraction","inputs":[{"name":"order","type":"tuple","internalType":"struct IOrderMixin.Order","components":[{"name":"salt","type":"uint256","internalType":"uint256"},{"name":"maker","type":"uint256","internalType":"Address"},{"name":"receiver","type":"uint256","internalType":"Address"},{"name":"makerAsset","type":"uint256","internalType":"Address"},{"name":"takerAsset","type":"uint256","internalType":"Address"},{"name":"makingAmount","type":"uint256","internalType":"uint256"},{"name":"takingAmount","type":"uint256","internalType":"uint256"},{"name":"makerTraits","type":"uint256","internalType":"MakerTraits"}]},{"name":"extension","type":"bytes","internalType":"bytes"},{"name":"orderHash","type":"bytes32","internalType":"bytes32"},{"name":"taker","type":"address","internalType":"address"},{"name":"makingAmount","type":"uint256","internalType":"uint256"},{"name":"takingAmount","type":"uint256","internalType":"uint256"},{"name":"remainingMakingAmount","type":"uint256","internalType":"uint256"},{"name":"extraData","type":"bytes","internalType":"bytes"}],"outputs":[],"stateMutability":"nonpayable"},{"type":"function","name":"preInteraction","inputs":[{"name":"order","type":"tuple","internalType":"struct IOrderMixin.Order","components":[{"name":"salt","type":"uint256","internalType":"uint256"},{"name":"maker","type":"uint256","internalType":"Address"},{"name":"receiver","type":"uint256","internalType":"Address"},{"name":"makerAsset","type":"uint256","internalType":"Address"},{"name":"takerAsset","type":"uint256","internalType":"Address"},{"name":"makingAmount","type":"uint256","internalType":"uint256"},{"name":"takingAmount","type":"uint256","internalType":"uint256"},{"name":"makerTraits","type":"uint256","internalType":"MakerTraits"}]},{"name":"extension","type":"bytes","internalType":"bytes"},{"name":"orderHash","type":"bytes32","internalType":"bytes32"},{"name":"taker","type":"address","internalType":"address"},{"name":"makingAmount","type":"uint256","internalType":"uint256"},{"name":"takingAmount","type":"uint256","internalType":"uint256"},{"name":"remainingMakingAmount","type":"uint256","internalType":"uint256"},{"name":"extraData","type":"bytes","internalType":"bytes"}],"outputs":[],"stateMutability":"nonpayable"},{"type":"function","name":"takerInteraction","inputs":[{"name":"","type":"tuple","internalType":"struct IOrderMixin.Order","components":[{"name":"salt","type":"uint256","internalType":"uint256"},{"name":"maker","type":"uint256","internalType":"Address"},{"name":"receiver","type":"uint256","internalType":"Address"},{"name":"makerAsset","type":"uint256","internalType":"Address"},{"name":"takerAsset","type":"uint256","internalType":"Address"},{"name":"makingAmount","type":"uint256","internalType":"uint256"},{"name":"takingAmount","type":"uint256","internalType":"uint256"},{"name":"makerTraits","type":"uint256","internalType":"MakerTraits"}]},{"name":"extension","type":"bytes","internalType":"bytes"},{"name":"orderHash","type":"bytes32","internalType":"bytes32"},{"name":"","type":"address","internalType":"address"},{"name":"","type":"uint256","internalType":"uint256"},{"name":"","type":"uint256","internalType":"uint256"},{"name":"","type":"uint256","internalType":"uint256"},{"name":"extraData","type":"bytes","internalType":"bytes"}],"outputs":[],"stateMutability":"nonpayable"},{"type":"event","name":"DstEscrowCreated","inputs":[{"name":"escrow","type":"address","indexed":false,"internalType":"address"},{"name":"hashlock","type":"bytes32","indexed":false,"internalType":"bytes32"},{"name":"taker","type":"uint256","indexed":false,"internalType":"Address"}],"anonymous":false},{"type":"event","name":"SrcEscrowCreated","inputs":[{"name":"srcImmutables","type":"tuple","indexed":false,"internalType":"struct IBaseEscrow.Immutables","components":[{"name":"orderHash","type":"bytes32","internalType":"bytes32"},{"name":"hashlock","type":"bytes32","internalType":"bytes32"},{"name":"maker","type":"uint256","internalType":"Address"},{"name":"taker","type":"uint256","internalType":"Address"},{"name":"token","type":"uint256","internalType":"Address"},{"name":"amount","type":"uint256","internalType":"uint256"},{"name":"safetyDeposit","type":"uint256","internalType":"uint256"},{"name":"timelocks","type":"uint256","internalType":"Timelocks"}]},{"name":"dstImmutablesComplement","type":"tuple","indexed":false,"internalType":"struct IEscrowFactory.DstImmutablesComplement","components":[{"name":"maker","type":"uint256","internalType":"Address"},{"name":"amount","type":"uint256","internalType":"uint256"},{"name":"token","type":"uint256","internalType":"Address"},{"name":"safetyDeposit","type":"uint256","internalType":"uint256"},{"name":"chainId","type":"uint256","internalType":"uint256"}]}],"anonymous":false},{"type":"error","name":"AccessDenied","inputs":[]},{"type":"error","name":"FailedDeployment","inputs":[]},{"type":"error","name":"InsufficientBalance","inputs":[{"name":"balance","type":"uint256","internalType":"uint256"},{"name":"needed","type":"uint256","internalType":"uint256"}]},{"type":"error","name":"InsufficientEscrowBalance","inputs":[]},{"type":"error","name":"InvalidCreationTime","inputs":[]},{"type":"error","name":"InvalidPartialFill","inputs":[]},{"type":"error","name":"InvalidProof","inputs":[]},{"type":"error","name":"InvalidSecretsAmount","inputs":[]},{"type":"error","name":"OnlyLimitOrderProtocol","inputs":[]},{"type":"error","name":"SafeTransferFromFailed","inputs":[]}],"bytecode":{"object":"0x6101a034620002a2576001600160401b03601f6200347038819003918201601f1916840191908383118584101762000284578160c09286926040958652833981010312620002a2576200005283620002a6565b926200006160208201620002a6565b906200006f838201620002a6565b906200007e60608201620002a6565b6200009a60a06200009260808501620002bb565b9301620002bb565b938760805260a0528260c05260e052610100958652835190610fa3808301908382108883111762000284578392620000f4928692620024cd863963ffffffff90911681526001600160a01b03909116602082015260400190565b03905ff0938415620002985760018060a01b03928361012096168652845192610bb991828501938585109085111762000284578493620001549362001914863963ffffffff90911681526001600160a01b03909116602082015260400190565b03905ff080156200027a578161014091168152620001f9620001b183865116763d602d80600a3d3981f3363d3d373d3d3d363d73000000906e5af43d82803e903d91602b57fd5bf36020528060115260881c175f52603760092090565b92610160938452825116763d602d80600a3d3981f3363d3d373d3d3d363d73000000906e5af43d82803e903d91602b57fd5bf36020528060115260881c175f52603760092090565b9261018093845251936116469586620002ce873960805186818161054b01528181610b0d015261117a015260a05186610a4c015260c051866110b7015260e05186611125015251856106df01525184818161010801528181610aba0152610e880152518381816102bb015281816105b5015261068c01525182505051815050f35b82513d5f823e3d90fd5b634e487b7160e01b5f52604160045260245ffd5b83513d5f823e3d90fd5b5f80fd5b51906001600160a01b0382168203620002a257565b519063ffffffff82168203620002a25756fe60808060405260049081361015610014575f80fd5b5f3560e01c9081630986bdd51461114957508063117803e3146110db5780631d9671c3146104fc5780633eb5002a1461106d578063462ebde214610ade5780637040f17314610a7057806373717b0814610a02578063acf4ce5c146109b3578063adf38ba1146106b0578063ba55117714610642578063be58e91c1461056f578063c145938414610501578063d7ff8a80146104fc578063dea024e4146101b75763fb6bd47e146100c3575f80fd5b346101b35761010090817ffffffffffffffffffffffffffffffffffffffffffffffffffffffffffffffffc3601126101b35781610195916020936040519182372030907f000000000000000000000000000000000000000000000000000000000000000073ffffffffffffffffffffffffffffffffffffffff926055926043926040519260388401526f5af43d82803e903d91602b57fd5bf3ff60248401526014830152733d602d80600a3d3981f3363d3d373d3d3d363d73825260588201526037600c820120607882015201201690565b73ffffffffffffffffffffffffffffffffffffffff60405191168152f35b5f80fd5b507ffffffffffffffffffffffffffffffffffffffffffffffffffffffffffffffffc36019061012082126101b3576101008092126101b357610104356084359173ffffffffffffffffffffffffffffffffffffffff8084169060c435958690831597886104ea575b34036104c157604051610231816113e1565b8535815260243596876020830152604435604083015260643598896060840152608083015260a082019360a435855260c08301526102a74260e01b7bffffffffffffffffffffffffffffffffffffffffffffffffffffffff60e43516178060e085015263ffffffff8160c01c169060e01c61143f565b61012c8201809211610495571161046c57207f00000000000000000000000000000000000000000000000000000000000000003447106104365780763d602d80600a3d3981f3363d3d373d3d3d363d7300000062ffffff6e5af43d82803e903d91602b57fd5bf39360881c16175f5260781b176020526037600934f591821696871561040d571561036c575b7fc30e111dcc74fddc2c3a4d98ffb97adec4485c0a687946bf5b22c2a99c7ff96d606088888860405192835260208301526040820152a1005b60646020925f9251604051917f23b872dd00000000000000000000000000000000000000000000000000000000835233888401526024830152604482015282855af190816103eb575b50156103c357808080610333565b6040517ff4059071000000000000000000000000000000000000000000000000000000008152fd5b90503d15610405575060015f5114601f3d11165b5f6103b5565b3b15156103ff565b846040517fb06ebf3d000000000000000000000000000000000000000000000000000000008152fd5b60448647604051917fcf479181000000000000000000000000000000000000000000000000000000008352820152346024820152fd5b856040517ff4840e96000000000000000000000000000000000000000000000000000000008152fd5b6011887f4e487b71000000000000000000000000000000000000000000000000000000005f525260245ffd5b846040517f34f5151d000000000000000000000000000000000000000000000000000000008152fd5b6104f79060a4359061143f565b61021f565b6112a2565b346101b3575f7ffffffffffffffffffffffffffffffffffffffffffffffffffffffffffffffffc3601126101b357602060405173ffffffffffffffffffffffffffffffffffffffff7f0000000000000000000000000000000000000000000000000000000000000000168152f35b50346101b35761010090817ffffffffffffffffffffffffffffffffffffffffffffffffffffffffffffffffc3601126101b35781610195916020936040519182372030907f000000000000000000000000000000000000000000000000000000000000000073ffffffffffffffffffffffffffffffffffffffff926055926043926040519260388401526f5af43d82803e903d91602b57fd5bf3ff60248401526014830152733d602d80600a3d3981f3363d3d373d3d3d363d73825260588201526037600c820120607882015201201690565b346101b3575f7ffffffffffffffffffffffffffffffffffffffffffffffffffffffffffffffffc3601126101b357602060405173ffffffffffffffffffffffffffffffffffffffff7f0000000000000000000000000000000000000000000000000000000000000000168152f35b50346101b3576106bf366111f5565b50989750505050509173ffffffffffffffffffffffffffffffffffffffff7f000000000000000000000000000000000000000000000000000000000000000016330361098a579061070f91611591565b92907fffffffffffffffffffffffffffffffffffffffffffffffffffffffffffffff607dffffffffffffffffffffffffffffffffffffffffffffffffffffffffffff9485920101351690604051926020936107ce816107a286888301958690603e927fffffffffffffffffffffffffffffffffffffffffffffffffffffffffffff000091835260101b1660208201520190565b037fffffffffffffffffffffffffffffffffffffffffffffffffffffffffffffffe081018352826113fe565b5190209185357fffffffffffffffffffffffffffffffffffffffffffffffffffffffffffffffe1873603018112156101b35767ffffffffffffffff9590870180358781116101b3576005918160051b3603888201136101b3576040888b01359a013598604051898101917fffffffffffffffff0000000000000000000000000000000000000000000000008d60c01b1683528b60288301526028825260608201908282109082111761095e57604052519020925f9291905b828410610923575050505016036108fb57600185018095116108cf5750600192915f91604051956108b687611398565b865281860193845282525260405f209251835551910155005b6011907f4e487b71000000000000000000000000000000000000000000000000000000005f525260245ffd5b6040517f09bde339000000000000000000000000000000000000000000000000000000008152fd5b909192938985831b84010135908181105f1461094e575f528952600160405f205b9401929190610886565b905f528952600160405f20610944565b6041897f4e487b71000000000000000000000000000000000000000000000000000000005f525260245ffd5b836040517f4ca88867000000000000000000000000000000000000000000000000000000008152fd5b50346101b35760207ffffffffffffffffffffffffffffffffffffffffffffffffffffffffffffffffc3601126101b357355f525f6020526040805f206001815491015482519182526020820152f35b346101b3575f7ffffffffffffffffffffffffffffffffffffffffffffffffffffffffffffffffc3601126101b357602060405173ffffffffffffffffffffffffffffffffffffffff7f0000000000000000000000000000000000000000000000000000000000000000168152f35b346101b3575f7ffffffffffffffffffffffffffffffffffffffffffffffffffffffffffffffffc3601126101b357602060405173ffffffffffffffffffffffffffffffffffffffff7f0000000000000000000000000000000000000000000000000000000000000000168152f35b50346101b357610aed366111f5565b95989650929650909273ffffffffffffffffffffffffffffffffffffffff7f0000000000000000000000000000000000000000000000000000000000000000163303611044577fffffffffffffffffffffffffffffffffffffffffffffffffffffffffffffff608581810111611018578386010160e08701357f40000000000000000000000000000000000000000000000000000000000000001615610ffb57358060f01c60028110610fd25760408051602081018c815260109490941b7fffffffffffffffffffffffffffffffffffffffffffffffffffffffffffff00001691810191909152610c1e9290610be681605e81016107a2565b5190205f525f60205260405f20906020604051610c0281611398565b6001845494858352015491829101529460a08a0135908b6114d0565b15610fa95773ffffffffffffffffffffffffffffffffffffffff915b60405198610c478a6113e1565b8952602089015260208601356040890152166060870152606084013560808701528460a08701527fffffffffffffffffffffffffffffffffffffffffffffffffffffffffffffffc0838201013560801c60c08701524260e01b7bffffffffffffffffffffffffffffffffffffffffffffffffffffffff7fffffffffffffffffffffffffffffffffffffffffffffffffffffffffffffffe08584010135161760e0870152604084013573ffffffffffffffffffffffffffffffffffffffff8116155f14610fa357506020840135925b604051938460a081011067ffffffffffffffff60a08701111761095e57917f0e534c62f0afd2fa0f0fa71198e8aa2d549f24daf2bb47de0d5486c7ce9288ca93916101a09360a08701604052865260208601928352604086017fffffffffffffffffffffffffffffffffffffffffffffffffffffffffffffffa0828401013581527fffffffffffffffffffffffffffffffffffffffffffffffffffffffffffffff8060608801926fffffffffffffffffffffffffffffffff7fffffffffffffffffffffffffffffffffffffffffffffffffffffffffffffffc0828701013516845260808901940101358352604051938a51855260208b0151602086015260408b0151604086015260608b0151606086015260808b0151608086015260a08b015160a086015260c08b015160c086015260e08b015160e086015261010097518886015251610120850152516101408401525161016083015251610180820152a183206e5af43d82803e903d91602b57fd5bf37f0000000000000000000000000000000000000000000000000000000000000000763d602d80600a3d3981f3363d3d373d3d3d363d7300000062ffffff8260881c16175f5260781b17602052603760095ff59273ffffffffffffffffffffffffffffffffffffffff84161561040d5760c0843191015111928315610f36575b505050610f0e57005b6040517f34f5151d000000000000000000000000000000000000000000000000000000008152fd5b60209293505f73ffffffffffffffffffffffffffffffffffffffff606082946024947f70a0823100000000000000000000000000000000000000000000000000000000855289520135165afa5f51901560203d1017610f9857105f8080610f05565b6040513d5f823e3d90fd5b92610d15565b886040517feab3a174000000000000000000000000000000000000000000000000000000008152fd5b8a6040517f10d629d3000000000000000000000000000000000000000000000000000000008152fd5b73ffffffffffffffffffffffffffffffffffffffff925035610c3a565b60118a7f4e487b71000000000000000000000000000000000000000000000000000000005f525260245ffd5b886040517fd25aa106000000000000000000000000000000000000000000000000000000008152fd5b346101b3575f7ffffffffffffffffffffffffffffffffffffffffffffffffffffffffffffffffc3601126101b357602060405173ffffffffffffffffffffffffffffffffffffffff7f0000000000000000000000000000000000000000000000000000000000000000168152f35b346101b3575f7ffffffffffffffffffffffffffffffffffffffffffffffffffffffffffffffffc3601126101b357602060405173ffffffffffffffffffffffffffffffffffffffff7f0000000000000000000000000000000000000000000000000000000000000000168152f35b9050346101b357611159366111f5565b5050505050505050505073ffffffffffffffffffffffffffffffffffffffff7f00000000000000000000000000000000000000000000000000000000000000001633036111a257005b7fd25aa106000000000000000000000000000000000000000000000000000000008152fd5b9181601f840112156101b35782359167ffffffffffffffff83116101b357602083818601950101116101b357565b7ffffffffffffffffffffffffffffffffffffffffffffffffffffffffffffffffc81016101e081126101b357610100136101b35760049167ffffffffffffffff610104358181116101b3578361124d916004016111c7565b9390939261012435926101443573ffffffffffffffffffffffffffffffffffffffff811681036101b35792610164359261018435926101a435926101c4359182116101b35761129e916004016111c7565b9091565b346101b3577ffffffffffffffffffffffffffffffffffffffffffffffffffffffffffffffffc36016101c081126101b357610100136101b35767ffffffffffffffff610104358181116101b3576112fd9036906004016111c7565b50506101443573ffffffffffffffffffffffffffffffffffffffff8116036101b3576101a4359081116101b3576113389036906004016111c7565b505060646040517f08c379a000000000000000000000000000000000000000000000000000000000815260206004820152600f60248201527f4e6f7420696d706c656d656e74656400000000000000000000000000000000006044820152fd5b6040810190811067ffffffffffffffff8211176113b457604052565b7f4e487b71000000000000000000000000000000000000000000000000000000005f52604160045260245ffd5b610100810190811067ffffffffffffffff8211176113b457604052565b90601f7fffffffffffffffffffffffffffffffffffffffffffffffffffffffffffffffe0910116810190811067ffffffffffffffff8211176113b457604052565b9190820180921161144c57565b7f4e487b71000000000000000000000000000000000000000000000000000000005f52601160045260245ffd5b9190820391821161144c57565b8181029291811591840414171561144c57565b81156114a3570490565b7f4e487b71000000000000000000000000000000000000000000000000000000005f52601260045260245ffd5b9291906114e6846114e18385611479565b61143f565b907fffffffffffffffffffffffffffffffffffffffffffffffffffffffffffffffff9182810190811161144c57836115218661152693611486565b611499565b94810361154057505050506002810180911161144c571490565b80830361155b575b505050506001810180911161144c571490565b6115659083611479565b90810190811161144c5761157c9261152191611486565b811461158b575f808080611548565b50505f90565b91909160208310611608578035907fffffffffffffffffffffffffffffffffffffffffffffffffffffffffffffffe063ffffffff8360c01c169260e01c940184116115e0578101602001920390565b7f9605a010000000000000000000000000000000000000000000000000000000005f5260045ffd5b505f9150819056fea2646970667358221220dbfa23769fa0fbc77ac47e26da0ef47564e76eebaca043a166d80f28e37cf27d64736f6c634300081700336101003461010f57601f610bb938819003918201601f19168301916001600160401b0383118484101761011357808492604094855283398101031261010f5780519063ffffffff821680920361010f5760200151906001600160a01b038216820361010f573360c05260a0526080526e5af43d82803e903d91602b57fd5bf360205230601152763d602d80600a3d3981f3363d3d373d3d3d363d730000003060881c175f52603760092060e052604051610a9190816101288239608051816105d9015260a05181818160a30152610358015260c05181818161015b01528181610322015281816104d20152610798015260e051818181610131015281816102f801528181610465015261076e0152f35b5f80fd5b634e487b7160e01b5f52604160045260245ffdfe6080604090808252600480361015610015575f80fd5b60e05f35811c9283630af97558146105825750826323305703146104f65782632dd310001461048857826334862b6a146104305782634649088b146102555750816390d3252f146100ca575063f56cd69c1461006f575f80fd5b346100c6575f7ffffffffffffffffffffffffffffffffffffffffffffffffffffffffffffffffc3601126100c657602090517f00000000000000000000000000000000000000000000000000000000000000008152f35b5f80fd5b82346100c657610100807ffffffffffffffffffffffffffffffffffffffffffffffffffffffffffffffffc3601126100c65773ffffffffffffffffffffffffffffffffffffffff9182606435169182330361022d576055600b8592845181898237208451907f00000000000000000000000000000000000000000000000000000000000000008683015260208201527f000000000000000000000000000000000000000000000000000000000000000081520160ff8153201630036102055761019460e4356108c0565b42106101dd576101ab60a435836084358616610907565b6101b760c435336109c7565b7f6e3be9294e58d10b9c8053cfd5e09871b67e442fe394d6b0870d336b9df984a95f80a1005b8390517f6f7eac26000000000000000000000000000000000000000000000000000000008152fd5b8390517fa269484a000000000000000000000000000000000000000000000000000000008152fd5b8482517f48f5c3ed000000000000000000000000000000000000000000000000000000008152fd5b8390346100c6576101407ffffffffffffffffffffffffffffffffffffffffffffffffffffffffffffffffc3601126100c65782359273ffffffffffffffffffffffffffffffffffffffff90818516928386036100c65760243592610100807fffffffffffffffffffffffffffffffffffffffffffffffffffffffffffffffbc3601126100c6578160a43516330361040857600b60559188518160448237208851907f00000000000000000000000000000000000000000000000000000000000000008a83015260208201527f000000000000000000000000000000000000000000000000000000000000000081520160ff8153201630036103e05761012435901c7f00000000000000000000000000000000000000000000000000000000000000000142106103b957506103ac817fc4474c2790e13695f6d2b6f1d8e164290b55370f87a542fd7711abe0a1bf40ac953390610907565b82519182526020820152a1005b83517f6f7eac26000000000000000000000000000000000000000000000000000000008152fd5b5083517fa269484a000000000000000000000000000000000000000000000000000000008152fd5b8387517f48f5c3ed000000000000000000000000000000000000000000000000000000008152fd5b83346100c6575f7ffffffffffffffffffffffffffffffffffffffffffffffffffffffffffffffffc3601126100c657602090517f00000000000000000000000000000000000000000000000000000000000000008152f35b83346100c6575f7ffffffffffffffffffffffffffffffffffffffffffffffffffffffffffffffffc3601126100c6576020905173ffffffffffffffffffffffffffffffffffffffff7f0000000000000000000000000000000000000000000000000000000000000000168152f35b8390346100c65761050636610675565b92909173ffffffffffffffffffffffffffffffffffffffff606085013516330361022d5763ffffffff8185013580921c9160801c1681018091116105565742106101dd576105548383610742565b005b6011857f4e487b71000000000000000000000000000000000000000000000000000000005f525260245ffd5b84346100c65761059136610675565b9390927f70a08231000000000000000000000000000000000000000000000000000000008152338682015260208160248173ffffffffffffffffffffffffffffffffffffffff7f0000000000000000000000000000000000000000000000000000000000000000165afa90811561066b575f91610639575b501561022d5763ffffffff8185013580921c9160a01c1681018091116105565742106101dd576105548383610742565b90506020813d602011610663575b81610654602093836106d4565b810103126100c6575186610609565b3d9150610647565b83513d5f823e3d90fd5b906101207ffffffffffffffffffffffffffffffffffffffffffffffffffffffffffffffffc8301126100c6576101007fffffffffffffffffffffffffffffffffffffffffffffffffffffffffffffffdc6004359301126100c657602490565b90601f7fffffffffffffffffffffffffffffffffffffffffffffffffffffffffffffffe0910116810190811067ffffffffffffffff82111761071557604052565b7f4e487b71000000000000000000000000000000000000000000000000000000005f52604160045260245ffd5b9061075060e08201356108c0565b421015610896576040906055600b83516101009081858237208451907f00000000000000000000000000000000000000000000000000000000000000008683015260208201527f000000000000000000000000000000000000000000000000000000000000000081520160ff81532073ffffffffffffffffffffffffffffffffffffffff908116300361086d57835f5260205f20602083013503610844579161083d60c08361083560209660a07fe346f5c97a360db5188bfa5d3ec5f0583abde420c6ba4d08b6cfe61addc17105999701359080878501351690608085013516610907565b0135336109c7565b51908152a1565b600483517fabab6bd7000000000000000000000000000000000000000000000000000000008152fd5b600483517fa269484a000000000000000000000000000000000000000000000000000000008152fd5b60046040517f6f7eac26000000000000000000000000000000000000000000000000000000008152fd5b63ffffffff8160e01c9160c01c1681018091116108da5790565b7f4e487b71000000000000000000000000000000000000000000000000000000005f52601160045260245ffd5b73ffffffffffffffffffffffffffffffffffffffff169190826109305761092e92506109c7565b565b60445f91602093604051917fa9059cbb0000000000000000000000000000000000000000000000000000000083526004830152602482015282855af190816109a5575b501561097b57565b60046040517ffb7f5079000000000000000000000000000000000000000000000000000000008152fd5b90503d156109bf575060015f5114601f3d11165b5f610973565b3b15156109b9565b5f80809381935af13d15610a56573d67ffffffffffffffff81116107155760405190610a1b60207fffffffffffffffffffffffffffffffffffffffffffffffffffffffffffffffe0601f84011601836106d4565b81525f60203d92013e5b15610a2c57565b60046040517f8a0332d5000000000000000000000000000000000000000000000000000000008152fd5b610a2556fea2646970667358221220b874b0d4a69935fddeb5b2733222ac4d597fdf898d5fdde3d8848c3b5403916264736f6c634300081700336101003461011657601f610fa338819003918201601f19168301916001600160401b0383118484101761011a5780849260409485528339810103126101165780519063ffffffff82168092036101165760200151906001600160a01b0382168203610116573360c05260a0526080526e5af43d82803e903d91602b57fd5bf360205230601152763d602d80600a3d3981f3363d3d373d3d3d363d730000003060881c175f52603760092060e052604051610e74908161012f823960805181818161015a0152610866015260a05181818160b9015261059c015260c05181818161070401528181610bab01528181610c5c0152610ce2015260e05181818161069701528181610b8001528181610c310152610cb70152f35b5f80fd5b634e487b7160e01b5f52604160045260245ffdfe6080604090808252600480361015610015575f80fd5b60e05f35811c9283630af975581461080a5750826323305703146107285782632dd31000146106ba57826334862b6a146106625782634649088b146104fe5782636c10c0c81461035057826390d3252f146102b8578263daff233e146100e057505063f56cd69c14610085575f80fd5b346100dc575f7ffffffffffffffffffffffffffffffffffffffffffffffffffffffffffffffffc3601126100dc57602090517f00000000000000000000000000000000000000000000000000000000000000008152f35b5f80fd5b83346100dc576101007ffffffffffffffffffffffffffffffffffffffffffffffffffffffffffffffffc3601126100dc5773ffffffffffffffffffffffffffffffffffffffff9181517f70a082310000000000000000000000000000000000000000000000000000000081523385820152602081602481877f0000000000000000000000000000000000000000000000000000000000000000165afa9081156102ae575f9161027c575b50156102545763ffffffff60e43580921c9160601c168101809111610228574210610200576101ce826101bb610c05565b60a4359080604435169060843516610d12565b6101da60c43533610daa565b7f6e3be9294e58d10b9c8053cfd5e09871b67e442fe394d6b0870d336b9df984a95f80a1005b9050517f6f7eac26000000000000000000000000000000000000000000000000000000008152fd5b6011847f4e487b71000000000000000000000000000000000000000000000000000000005f525260245ffd5b8382517f48f5c3ed000000000000000000000000000000000000000000000000000000008152fd5b90506020813d6020116102a6575b8161029760209383610a88565b810103126100dc57518561018a565b3d915061028a565b83513d5f823e3d90fd5b5082346100dc576101007ffffffffffffffffffffffffffffffffffffffffffffffffffffffffffffffffc3601126100dc5773ffffffffffffffffffffffffffffffffffffffff90816064351633036103285761031660e435610af6565b4210610200576101ce826101bb610c05565b9050517f48f5c3ed000000000000000000000000000000000000000000000000000000008152fd5b5082346100dc576101407ffffffffffffffffffffffffffffffffffffffffffffffffffffffffffffffffc3601126100dc5781359160243573ffffffffffffffffffffffffffffffffffffffff9182821682036100dc576101007fffffffffffffffffffffffffffffffffffffffffffffffffffffffffffffffbc3601126100dc578260a4351633036104d757610124356103ea81610b3d565b42106104af576103f990610af6565b42101561048857610408610b54565b845f5260205f2060643503610461577fe346f5c97a360db5188bfa5d3ec5f0583abde420c6ba4d08b6cfe61addc171056020868661044d60e4358760c4358a16610d12565b61045a6101043533610daa565b51908152a1005b83517fabab6bd7000000000000000000000000000000000000000000000000000000008152fd5b83517f6f7eac26000000000000000000000000000000000000000000000000000000008152fd5b5083517f6f7eac26000000000000000000000000000000000000000000000000000000008152fd5b83517f48f5c3ed000000000000000000000000000000000000000000000000000000008152fd5b8390346100dc576101407ffffffffffffffffffffffffffffffffffffffffffffffffffffffffffffffffc3601126100dc5782359073ffffffffffffffffffffffffffffffffffffffff908183168093036100dc57602435916101007fffffffffffffffffffffffffffffffffffffffffffffffffffffffffffffffbc3601126100dc5760a43516330361063957610594610b54565b61012435901c7f0000000000000000000000000000000000000000000000000000000000000000014210610611577fc4474c2790e13695f6d2b6f1d8e164290b55370f87a542fd7711abe0a1bf40ac935081610601576105f48133610daa565b82519182526020820152a1005b61060c813384610d12565b6105f4565b5050517f6f7eac26000000000000000000000000000000000000000000000000000000008152fd5b505050517f48f5c3ed000000000000000000000000000000000000000000000000000000008152fd5b83346100dc575f7ffffffffffffffffffffffffffffffffffffffffffffffffffffffffffffffffc3601126100dc57602090517f00000000000000000000000000000000000000000000000000000000000000008152f35b83346100dc575f7ffffffffffffffffffffffffffffffffffffffffffffffffffffffffffffffffc3601126100dc576020905173ffffffffffffffffffffffffffffffffffffffff7f0000000000000000000000000000000000000000000000000000000000000000168152f35b8390346100dc5761073836610a29565b91909373ffffffffffffffffffffffffffffffffffffffff918260608501351633036107e25783013561076a81610b3d565b42106104af5761077990610af6565b4210156104885761078983610c8c565b845f5260205f20602084013503610461577fe346f5c97a360db5188bfa5d3ec5f0583abde420c6ba4d08b6cfe61addc171056020868661045a60c0886107da60a08201353360808401358c16610d12565b013533610daa565b5083517f48f5c3ed000000000000000000000000000000000000000000000000000000008152fd5b8285346100dc5761081a36610a29565b94909273ffffffffffffffffffffffffffffffffffffffff917f70a0823100000000000000000000000000000000000000000000000000000000865233828701526020958681602481877f0000000000000000000000000000000000000000000000000000000000000000165afa908115610a1f575f916109f2575b50156109ca578087013580911c63ffffffff82881c16810180911161099e574210610976576108c490610af6565b42101561094f576108d486610c8c565b835f52845f208587013503610928575060c0856107da61045a9360a07fe346f5c97a360db5188bfa5d3ec5f0583abde420c6ba4d08b6cfe61addc17105990135908060608501351690608085013516610d12565b82517fabab6bd7000000000000000000000000000000000000000000000000000000008152fd5b82517f6f7eac26000000000000000000000000000000000000000000000000000000008152fd5b5082517f6f7eac26000000000000000000000000000000000000000000000000000000008152fd5b6011837f4e487b71000000000000000000000000000000000000000000000000000000005f525260245ffd5b5082517f48f5c3ed000000000000000000000000000000000000000000000000000000008152fd5b90508681813d8311610a18575b610a098183610a88565b810103126100dc575188610896565b503d6109ff565b85513d5f823e3d90fd5b906101207ffffffffffffffffffffffffffffffffffffffffffffffffffffffffffffffffc8301126100dc576101007fffffffffffffffffffffffffffffffffffffffffffffffffffffffffffffffdc6004359301126100dc57602490565b90601f7fffffffffffffffffffffffffffffffffffffffffffffffffffffffffffffffe0910116810190811067ffffffffffffffff821117610ac957604052565b7f4e487b71000000000000000000000000000000000000000000000000000000005f52604160045260245ffd5b63ffffffff8160e01c9160401c168101809111610b105790565b7f4e487b71000000000000000000000000000000000000000000000000000000005f52601160045260245ffd5b63ffffffff8160e01c91168101809111610b105790565b73ffffffffffffffffffffffffffffffffffffffff6055600b60405161010090816044823720604051907f0000000000000000000000000000000000000000000000000000000000000000604083015260208201527f000000000000000000000000000000000000000000000000000000000000000081520160ff815320163003610bdb57565b60046040517fa269484a000000000000000000000000000000000000000000000000000000008152fd5b73ffffffffffffffffffffffffffffffffffffffff6055600b60405161010090816004823720604051907f0000000000000000000000000000000000000000000000000000000000000000604083015260208201527f000000000000000000000000000000000000000000000000000000000000000081520160ff815320163003610bdb57565b6055600b73ffffffffffffffffffffffffffffffffffffffff926040516101008092823720604051907f0000000000000000000000000000000000000000000000000000000000000000604083015260208201527f000000000000000000000000000000000000000000000000000000000000000081520160ff815320163003610bdb57565b9160446020925f92604051917fa9059cbb0000000000000000000000000000000000000000000000000000000083526004830152602482015282855af19081610d88575b5015610d5e57565b60046040517ffb7f5079000000000000000000000000000000000000000000000000000000008152fd5b90503d15610da2575060015f5114601f3d11165b5f610d56565b3b1515610d9c565b5f80809381935af13d15610e39573d67ffffffffffffffff8111610ac95760405190610dfe60207fffffffffffffffffffffffffffffffffffffffffffffffffffffffffffffffe0601f8401160183610a88565b81525f60203d92013e5b15610e0f57565b60046040517f8a0332d5000000000000000000000000000000000000000000000000000000008152fd5b610e0856fea2646970667358221220c3ea7f60f981efebd792064d85a479eb8a66c0c167e139da81734f67e2de7f2564736f6c63430008170033","linkReferences":{}},"methodIdentifiers":{"ACCESS_TOKEN()":"3eb5002a","ESCROW_DST_IMPLEMENTATION()":"ba551177","ESCROW_SRC_IMPLEMENTATION()":"7040f173","FEE_TOKEN()":"73717b08","LIMIT_ORDER_PROTOCOL()":"c1459384","OWNER()":"117803e3","addressOfEscrowDst((bytes32,bytes32,uint256,uint256,uint256,uint256,uint256,uint256))":"be58e91c","addressOfEscrowSrc((bytes32,bytes32,uint256,uint256,uint256,uint256,uint256,uint256))":"fb6bd47e","createDstEscrow((bytes32,bytes32,uint256,uint256,uint256,uint256,uint256,uint256),uint256)":"dea024e4","getMakingAmount((uint256,uint256,uint256,uint256,uint256,uint256,uint256,uint256),bytes,bytes32,address,uint256,uint256,bytes)":"1d9671c3","getTakingAmount((uint256,uint256,uint256,uint256,uint256,uint256,uint256,uint256),bytes,bytes32,address,uint256,uint256,bytes)":"d7ff8a80","lastValidated(bytes32)":"acf4ce5c","postInteraction((uint256,uint256,uint256,uint256,uint256,uint256,uint256,uint256),bytes,bytes32,address,uint256,uint256,uint256,bytes)":"462ebde2","preInteraction((uint256,uint256,uint256,uint256,uint256,uint256,uint256,uint256),bytes,bytes32,address,uint256,uint256,uint256,bytes)":"0986bdd5","takerInteraction((uint256,uint256,uint256,uint256,uint256,uint256,uint256,uint256),bytes,bytes32,address,uint256,uint256,uint256,bytes)":"adf38ba1"},"id":7}