{
  "abi": [
    {
      "type": "constructor",
      "inputs": [
        {
          "name": "rescueDelay",
          "type": "uint32",
          "internalType": "uint32"
        },
        {
          "name": "accessToken",
          "type": "address",
          "internalType": "contract IERC20"
        }
      ],
      "stateMutability": "nonpayable"
    },
    {
      "type": "function",
      "name": "FACTORY",
      "inputs": [],
      "outputs": [
        {
          "name": "",
          "type": "address",
          "internalType": "address"
        }
      ],
      "stateMutability": "view"
    },
    {
      "type": "function",
      "name": "PROXY_BYTECODE_HASH",
      "inputs": [],
      "outputs": [
        {
          "name": "",
          "type": "bytes32",
          "internalType": "bytes32"
        }
      ],
      "stateMutability": "view"
    },
    {
      "type": "function",
      "name": "RESCUE_DELAY",
      "inputs": [],
      "outputs": [
        {
          "name": "",
          "type": "uint256",
          "internalType": "uint256"
        }
      ],
      "stateMutability": "view"
    },
    {
      "type": "function",
      "name": "_hashPublicAction",
      "inputs": [
        {
          "name": "orderHash",
          "type": "bytes32",
          "internalType": "bytes32"
        },
        {
          "name": "caller",
          "type": "address",
          "internalType": "address"
        },
        {
          "name": "action",
          "type": "string",
          "internalType": "string"
        }
      ],
      "outputs": [
        {
          "name": "",
          "type": "bytes32",
          "internalType": "bytes32"
        }
      ],
      "stateMutability": "view"
    },
    {
      "type": "function",
      "name": "_recover",
      "inputs": [
        {
          "name": "digest",
          "type": "bytes32",
          "internalType": "bytes32"
        },
        {
          "name": "sig",
          "type": "bytes",
          "internalType": "bytes"
        }
      ],
      "outputs": [
        {
          "name": "signer",
          "type": "address",
          "internalType": "address"
        }
      ],
      "stateMutability": "pure"
    },
    {
      "type": "function",
      "name": "cancel",
      "inputs": [
        {
          "name": "immutables",
          "type": "tuple",
          "internalType": "struct IBaseEscrow.Immutables",
          "components": [
            {
              "name": "orderHash",
              "type": "bytes32",
              "internalType": "bytes32"
            },
            {
              "name": "hashlock",
              "type": "bytes32",
              "internalType": "bytes32"
            },
            {
              "name": "maker",
              "type": "uint256",
              "internalType": "Address"
            },
            {
              "name": "taker",
              "type": "uint256",
              "internalType": "Address"
            },
            {
              "name": "token",
              "type": "uint256",
              "internalType": "Address"
            },
            {
              "name": "amount",
              "type": "uint256",
              "internalType": "uint256"
            },
            {
              "name": "safetyDeposit",
              "type": "uint256",
              "internalType": "uint256"
            },
            {
              "name": "timelocks",
              "type": "uint256",
              "internalType": "Timelocks"
            }
          ]
        }
      ],
      "outputs": [],
      "stateMutability": "nonpayable"
    },
    {
      "type": "function",
      "name": "publicCancelSigned",
      "inputs": [
        {
          "name": "immutables",
          "type": "tuple",
          "internalType": "struct IBaseEscrow.Immutables",
          "components": [
            {
              "name": "orderHash",
              "type": "bytes32",
              "internalType": "bytes32"
            },
            {
              "name": "hashlock",
              "type": "bytes32",
              "internalType": "bytes32"
            },
            {
              "name": "maker",
              "type": "uint256",
              "internalType": "Address"
            },
            {
              "name": "taker",
              "type": "uint256",
              "internalType": "Address"
            },
            {
              "name": "token",
              "type": "uint256",
              "internalType": "Address"
            },
            {
              "name": "amount",
              "type": "uint256",
              "internalType": "uint256"
            },
            {
              "name": "safetyDeposit",
              "type": "uint256",
              "internalType": "uint256"
            },
            {
              "name": "timelocks",
              "type": "uint256",
              "internalType": "Timelocks"
            }
          ]
        },
        {
          "name": "resolverSignature",
          "type": "bytes",
          "internalType": "bytes"
        }
      ],
      "outputs": [],
      "stateMutability": "nonpayable"
    },
    {
      "type": "function",
      "name": "publicWithdraw",
      "inputs": [
        {
          "name": "secret",
          "type": "bytes32",
          "internalType": "bytes32"
        },
        {
          "name": "immutables",
          "type": "tuple",
          "internalType": "struct IBaseEscrow.Immutables",
          "components": [
            {
              "name": "orderHash",
              "type": "bytes32",
              "internalType": "bytes32"
            },
            {
              "name": "hashlock",
              "type": "bytes32",
              "internalType": "bytes32"
            },
            {
              "name": "maker",
              "type": "uint256",
              "internalType": "Address"
            },
            {
              "name": "taker",
              "type": "uint256",
              "internalType": "Address"
            },
            {
              "name": "token",
              "type": "uint256",
              "internalType": "Address"
            },
            {
              "name": "amount",
              "type": "uint256",
              "internalType": "uint256"
            },
            {
              "name": "safetyDeposit",
              "type": "uint256",
              "internalType": "uint256"
            },
            {
              "name": "timelocks",
              "type": "uint256",
              "internalType": "Timelocks"
            }
          ]
        }
      ],
      "outputs": [],
      "stateMutability": "nonpayable"
    },
    {
      "type": "function",
      "name": "publicWithdrawSigned",
      "inputs": [
        {
          "name": "secret",
          "type": "bytes32",
          "internalType": "bytes32"
        },
        {
          "name": "immutables",
          "type": "tuple",
          "internalType": "struct IBaseEscrow.Immutables",
          "components": [
            {
              "name": "orderHash",
              "type": "bytes32",
              "internalType": "bytes32"
            },
            {
              "name": "hashlock",
              "type": "bytes32",
              "internalType": "bytes32"
            },
            {
              "name": "maker",
              "type": "uint256",
              "internalType": "Address"
            },
            {
              "name": "taker",
              "type": "uint256",
              "internalType": "Address"
            },
            {
              "name": "token",
              "type": "uint256",
              "internalType": "Address"
            },
            {
              "name": "amount",
              "type": "uint256",
              "internalType": "uint256"
            },
            {
              "name": "safetyDeposit",
              "type": "uint256",
              "internalType": "uint256"
            },
            {
              "name": "timelocks",
              "type": "uint256",
              "internalType": "Timelocks"
            }
          ]
        },
        {
          "name": "resolverSignature",
          "type": "bytes",
          "internalType": "bytes"
        }
      ],
      "outputs": [],
      "stateMutability": "nonpayable"
    },
    {
      "type": "function",
      "name": "rescueFunds",
      "inputs": [
        {
          "name": "token",
          "type": "address",
          "internalType": "address"
        },
        {
          "name": "amount",
          "type": "uint256",
          "internalType": "uint256"
        },
        {
          "name": "immutables",
          "type": "tuple",
          "internalType": "struct IBaseEscrow.Immutables",
          "components": [
            {
              "name": "orderHash",
              "type": "bytes32",
              "internalType": "bytes32"
            },
            {
              "name": "hashlock",
              "type": "bytes32",
              "internalType": "bytes32"
            },
            {
              "name": "maker",
              "type": "uint256",
              "internalType": "Address"
            },
            {
              "name": "taker",
              "type": "uint256",
              "internalType": "Address"
            },
            {
              "name": "token",
              "type": "uint256",
              "internalType": "Address"
            },
            {
              "name": "amount",
              "type": "uint256",
              "internalType": "uint256"
            },
            {
              "name": "safetyDeposit",
              "type": "uint256",
              "internalType": "uint256"
            },
            {
              "name": "timelocks",
              "type": "uint256",
              "internalType": "Timelocks"
            }
          ]
        }
      ],
      "outputs": [],
      "stateMutability": "nonpayable"
    },
    {
      "type": "function",
      "name": "withdraw",
      "inputs": [
        {
          "name": "secret",
          "type": "bytes32",
          "internalType": "bytes32"
        },
        {
          "name": "immutables",
          "type": "tuple",
          "internalType": "struct IBaseEscrow.Immutables",
          "components": [
            {
              "name": "orderHash",
              "type": "bytes32",
              "internalType": "bytes32"
            },
            {
              "name": "hashlock",
              "type": "bytes32",
              "internalType": "bytes32"
            },
            {
              "name": "maker",
              "type": "uint256",
              "internalType": "Address"
            },
            {
              "name": "taker",
              "type": "uint256",
              "internalType": "Address"
            },
            {
              "name": "token",
              "type": "uint256",
              "internalType": "Address"
            },
            {
              "name": "amount",
              "type": "uint256",
              "internalType": "uint256"
            },
            {
              "name": "safetyDeposit",
              "type": "uint256",
              "internalType": "uint256"
            },
            {
              "name": "timelocks",
              "type": "uint256",
              "internalType": "Timelocks"
            }
          ]
        }
      ],
      "outputs": [],
      "stateMutability": "nonpayable"
    },
    {
      "type": "event",
      "name": "EscrowCancelled",
      "inputs": [],
      "anonymous": false
    },
    {
      "type": "event",
      "name": "EscrowWithdrawal",
      "inputs": [
        {
          "name": "secret",
          "type": "bytes32",
          "indexed": false,
          "internalType": "bytes32"
        }
      ],
      "anonymous": false
    },
    {
      "type": "event",
      "name": "FundsRescued",
      "inputs": [
        {
          "name": "token",
          "type": "address",
          "indexed": false,
          "internalType": "address"
        },
        {
          "name": "amount",
          "type": "uint256",
          "indexed": false,
          "internalType": "uint256"
        }
      ],
      "anonymous": false
    },
    {
      "type": "error",
      "name": "InvalidCaller",
      "inputs": []
    },
    {
      "type": "error",
      "name": "InvalidImmutables",
      "inputs": []
    },
    {
      "type": "error",
      "name": "InvalidSecret",
      "inputs": []
    },
    {
      "type": "error",
      "name": "InvalidTime",
      "inputs": []
    },
    {
      "type": "error",
      "name": "NativeTokenSendingFailure",
      "inputs": []
    },
    {
      "type": "error",
      "name": "SafeTransferFailed",
      "inputs": []
    }
  ],
  "bytecode": {
    "object": "0x6101a034610220576001600160401b0361105c601f38829003908101601f19168401908382118583101761020c57808591604094859485528339810103126102205782519263ffffffff84168094036102205760200151906001600160a01b038216820361022057306080524660a05280519061007b82610224565b600a825260036020830169424d4e2d457363726f7760b01b8152602083516100a281610224565b838152019362322e3360e81b85525190209220908260c0528160e05280519160208301937f8b73c3c69bb8fe3d512ecc4cf759cc79239f7b179b0ffacaa9a75d522b39400f85528284015260608301524660808301523060a083015260a0825260c08201948286109086111761020c5784905251902092610100938452610160903382526101409081526101209283526e5af43d82803e903d91602b57fd5bf360205230601152763d602d80600a3d3981f3363d3d373d3d3d363d730000003060881c175f52603760092092610180938452610e1c9586610240873960805186610ae2015260a05186610b05015260c05186610b95015260e05186610bbb01525185610ac00152518461077a01525183818160af01526104e701525182818161013d015281816102ca015281816104b00152818161065f015281816109260152610c91015251818181610113015281816102a0015281816104860152818161058b01526108fc0152f35b634e487b7160e01b5f52604160045260245ffd5b5f80fd5b604081019081106001600160401b0382111761020c5760405256fe6080604090808252600480361015610015575f80fd5b5f3560e01c9182630af97558146107505750816323305703146106dc578163265d3e971461068e5781632dd310001461064b578163344de82f146105ae57816334862b6a146105745781634649088b1461042e5781635d7d5e991461039e578163877435cd146101ed57816390d3252f146100d6575063f56cd69c14610099575f80fd5b346100d2575f3660031901126100d257602090517f00000000000000000000000000000000000000000000000000000000000000008152f35b5f80fd5b82346100d257610100806003193601126100d2576001600160a01b0391606435831691338390036101dd576055600b8592845181898237208451907f00000000000000000000000000000000000000000000000000000000000000008683015260208201527f000000000000000000000000000000000000000000000000000000000000000081520160ff8153201630036101ce5761017660e435610c39565b42106101bf5761018d60a435836084358616610d16565b61019960c43533610d98565b7f6e3be9294e58d10b9c8053cfd5e09871b67e442fe394d6b0870d336b9df984a95f80a1005b516337bf561360e11b81528390fd5b51635134a42560e11b81528390fd5b81516348f5c3ed60e01b81528590fd5b82346100d2576101403660031901126100d257813591610100806023193601126100d2576101243567ffffffffffffffff81116100d2576102319036908401610834565b906101043561023f81610c0b565b421061038e5761024e90610c39565b42101561037e5791610293600b9260559594875161026b81610862565b60138152724453545f5055424c49435f574954484452415760681b6020820152602435610c53565b84518160248237208451907f00000000000000000000000000000000000000000000000000000000000000008683015260208201527f000000000000000000000000000000000000000000000000000000000000000081520160ff8153919091206001600160a01b0391908216300361037057835f5260205f2060443503610362577fe346f5c97a360db5188bfa5d3ec5f0583abde420c6ba4d08b6cfe61addc171056020858561034f60c435606435881660a4358916610d16565b61035b60e43533610d98565b51908152a1005b825163abab6bd760e01b8152fd5b8251635134a42560e11b8152fd5b84516337bf561360e11b81528490fd5b85516337bf561360e11b81528590fd5b82346100d25760603660031901126100d257602435916001600160a01b03831683036100d2576044359067ffffffffffffffff82116100d257366023830112156100d25781810135936103f0856108b4565b916103fd85519384610892565b85835236602487860101116100d2575f602087819860246104279801838801378501015235610a4b565b9051908152f35b82346100d2576101403660031901126100d2578135916001600160a01b03808416918285036100d25760243591610100806043193601126100d2578160a43516330361056457600b60559187518160448237208751907f00000000000000000000000000000000000000000000000000000000000000008983015260208201527f000000000000000000000000000000000000000000000000000000000000000081520160ff815320163003610556576101243560e01c7f0000000000000000000000000000000000000000000000000000000000000000014210610548575061053b817fc4474c2790e13695f6d2b6f1d8e164290b55370f87a542fd7711abe0a1bf40ac953390610d16565b82519182526020820152a1005b83516337bf561360e11b8152fd5b8351635134a42560e11b8152fd5b85516348f5c3ed60e01b81528390fd5b82346100d2575f3660031901126100d257602090517f00000000000000000000000000000000000000000000000000000000000000008152f35b82346100d257366003190161012081126100d257610100136100d2576101043567ffffffffffffffff81116100d2576105ea9036908401610834565b916105f660e435610c39565b42106101bf575161062e9361060a82610862565b60118252701114d517d41550931250d7d0d05390d153607a1b602083015235610c53565b61018d60a4356001600160a01b0360643581169060843516610d16565b82346100d2575f3660031901126100d257517f00000000000000000000000000000000000000000000000000000000000000006001600160a01b03168152602090f35b82346100d257806003193601126100d25760243567ffffffffffffffff81116100d2576020926106c46106cb9236908301610834565b91356109f9565b90516001600160a01b039091168152f35b82346100d2576106eb36610811565b9160608301356001600160a01b031633036107415760e083013563ffffffff8160e01c9160801c16810180911161072e5742106101bf5761072c83836108d0565b005b601185634e487b7160e01b5f525260245ffd5b516348f5c3ed60e01b81528390fd5b8390346100d25761076036610811565b6370a0823160e01b835233858401529290916020816024817f00000000000000000000000000000000000000000000000000000000000000006001600160a01b03165afa908115610807575f916107d5575b5015610741576107c560e0840135610c0b565b42106101bf5761072c83836108d0565b90506020813d6020116107ff575b816107f060209383610892565b810103126100d25751856107b2565b3d91506107e3565b82513d5f823e3d90fd5b906101206003198301126100d2576101006004359260231901126100d257602490565b9181601f840112156100d25782359167ffffffffffffffff83116100d257602083818601950101116100d257565b6040810190811067ffffffffffffffff82111761087e57604052565b634e487b7160e01b5f52604160045260245ffd5b90601f8019910116810190811067ffffffffffffffff82111761087e57604052565b67ffffffffffffffff811161087e57601f01601f191660200190565b906108de60e0820135610c39565b4210156109e7576040906055600b83516101009081858237208451907f00000000000000000000000000000000000000000000000000000000000000008683015260208201527f000000000000000000000000000000000000000000000000000000000000000081520160ff8153206001600160a01b0390811630036109d657835f5260205f206020830135036109c557916109be60c0836109b660209660a07fe346f5c97a360db5188bfa5d3ec5f0583abde420c6ba4d08b6cfe61addc17105999701359080878501351690608085013516610d16565b013533610d98565b51908152a1565b825163abab6bd760e01b8152600490fd5b8251635134a42560e11b8152600490fd5b6040516337bf561360e11b8152600490fd5b9091604103610a455760805f91602080946040519283526040810135851a82840152803560408401520135606082015282805260015afa15610a3a575f5190565b6040513d5f823e3d90fd5b50505f90565b91602081519101209160409283519260208401927fd6ae97ebc6a7fcc26983b667d1787f39e1b4383b40a13b0c604f9aa744952bb384528585015260018060a01b0316606084015260808301526080825260a082019267ffffffffffffffff918385108386111761087e5784825283519020927f0000000000000000000000000000000000000000000000000000000000000000947f000000000000000000000000000000000000000000000000000000000000000030147f000000000000000000000000000000000000000000000000000000000000000046141615610b64575b5050805192602084019461190160f01b8652602285015260428401526042835260808301918383109083111761087e575251902090565b9091945061016060c08301927f8b73c3c69bb8fe3d512ecc4cf759cc79239f7b179b0ffacaa9a75d522b39400f84527f000000000000000000000000000000000000000000000000000000000000000060e08201527f0000000000000000000000000000000000000000000000000000000000000000610100820152466101208201523061014082015260a08352018181108482111761087e578552519020925f80610b2d565b63ffffffff8160e01c9160a01c168101809111610c255790565b634e487b7160e01b5f52601160045260245ffd5b63ffffffff8160e01c9160c01c168101809111610c255790565b92602092610c68610c6d936024963390610a4b565b6109f9565b604051633625638b60e21b81526001600160a01b03918216600482015292839182907f0000000000000000000000000000000000000000000000000000000000000000165afa908115610a3a575f91610cdb575b5015610cc957565b6040516348f5c3ed60e01b8152600490fd5b90506020813d602011610d0e575b81610cf660209383610892565b810103126100d2575180151581036100d2575f610cc1565b3d9150610ce9565b6001600160a01b0316919082610d3257610d309250610d98565b565b60445f916020936040519163a9059cbb60e01b83526004830152602482015282855af19081610d76575b5015610d6457565b60405163fb7f507960e01b8152600490fd5b90503d15610d90575060015f5114601f3d11165b5f610d5c565b3b1515610d8a565b5f80809381935af13d15610de1573d610db0816108b4565b90610dbe6040519283610892565b81525f60203d92013e5b15610dcf57565b604051638a0332d560e01b8152600490fd5b610dc856fea264697066735822122028a0b38ef49f86f4c34eb9c127afe5d778cf43693377498d3f9e26690fdc860764736f6c63430008170033",
    "linkReferences": {}
  },
  "methodIdentifiers": {
    "FACTORY()": "2dd31000",
    "PROXY_BYTECODE_HASH()": "34862b6a",
    "RESCUE_DELAY()": "f56cd69c",
    "_hashPublicAction(bytes32,address,string)": "5d7d5e99",
    "_recover(bytes32,bytes)": "265d3e97",
    "cancel((bytes32,bytes32,uint256,uint256,uint256,uint256,uint256,uint256))": "90d3252f",
    "publicCancelSigned((bytes32,bytes32,uint256,uint256,uint256,uint256,uint256,uint256),bytes)": "344de82f",
    "publicWithdraw(bytes32,(bytes32,bytes32,uint256,uint256,uint256,uint256,uint256,uint256))": "0af97558",
    "publicWithdrawSigned(bytes32,(bytes32,bytes32,uint256,uint256,uint256,uint256,uint256,uint256),bytes)": "877435cd",
    "rescueFunds(address,uint256,(bytes32,bytes32,uint256,uint256,uint256,uint256,uint256,uint256))": "4649088b",
    "withdraw(bytes32,(bytes32,bytes32,uint256,uint256,uint256,uint256,uint256,uint256))": "23305703"
  },
  "id": 4
}