{"abi":[{"type":"constructor","inputs":[{"name":"srcImpl","type":"address","internalType":"address"},{"name":"dstImpl","type":"address","internalType":"address"},{"name":"_owner","type":"address","internalType":"address"}],"stateMutability":"nonpayable"},{"type":"function","name":"ESCROW_DST_IMPLEMENTATION","inputs":[],"outputs":[{"name":"","type":"address","internalType":"address"}],"stateMutability":"view"},{"type":"function","name":"ESCROW_SRC_IMPLEMENTATION","inputs":[],"outputs":[{"name":"","type":"address","internalType":"address"}],"stateMutability":"view"},{"type":"function","name":"addMaker","inputs":[{"name":"maker","type":"address","internalType":"address"}],"outputs":[],"stateMutability":"nonpayable"},{"type":"function","name":"addResolver","inputs":[{"name":"resolver","type":"address","internalType":"address"}],"outputs":[],"stateMutability":"nonpayable"},{"type":"function","name":"addressOfEscrow","inputs":[{"name":"immutables","type":"tuple","internalType":"struct IBaseEscrow.Immutables","components":[{"name":"orderHash","type":"bytes32","internalType":"bytes32"},{"name":"hashlock","type":"bytes32","internalType":"bytes32"},{"name":"maker","type":"uint256","internalType":"Address"},{"name":"taker","type":"uint256","internalType":"Address"},{"name":"token","type":"uint256","internalType":"Address"},{"name":"amount","type":"uint256","internalType":"uint256"},{"name":"safetyDeposit","type":"uint256","internalType":"uint256"},{"name":"timelocks","type":"uint256","internalType":"Timelocks"}]},{"name":"isSrc","type":"bool","internalType":"bool"}],"outputs":[{"name":"","type":"address","internalType":"address"}],"stateMutability":"view"},{"type":"function","name":"createDstEscrow","inputs":[{"name":"immutables","type":"tuple","internalType":"struct IBaseEscrow.Immutables","components":[{"name":"orderHash","type":"bytes32","internalType":"bytes32"},{"name":"hashlock","type":"bytes32","internalType":"bytes32"},{"name":"maker","type":"uint256","internalType":"Address"},{"name":"taker","type":"uint256","internalType":"Address"},{"name":"token","type":"uint256","internalType":"Address"},{"name":"amount","type":"uint256","internalType":"uint256"},{"name":"safetyDeposit","type":"uint256","internalType":"uint256"},{"name":"timelocks","type":"uint256","internalType":"Timelocks"}]}],"outputs":[{"name":"escrow","type":"address","internalType":"address"}],"stateMutability":"payable"},{"type":"function","name":"createSrcEscrow","inputs":[{"name":"immutables","type":"tuple","internalType":"struct IBaseEscrow.Immutables","components":[{"name":"orderHash","type":"bytes32","internalType":"bytes32"},{"name":"hashlock","type":"bytes32","internalType":"bytes32"},{"name":"maker","type":"uint256","internalType":"Address"},{"name":"taker","type":"uint256","internalType":"Address"},{"name":"token","type":"uint256","internalType":"Address"},{"name":"amount","type":"uint256","internalType":"uint256"},{"name":"safetyDeposit","type":"uint256","internalType":"uint256"},{"name":"timelocks","type":"uint256","internalType":"Timelocks"}]},{"name":"maker","type":"address","internalType":"address"},{"name":"token","type":"address","internalType":"address"},{"name":"amount","type":"uint256","internalType":"uint256"}],"outputs":[{"name":"escrow","type":"address","internalType":"address"}],"stateMutability":"nonpayable"},{"type":"function","name":"emergencyPaused","inputs":[],"outputs":[{"name":"","type":"bool","internalType":"bool"}],"stateMutability":"view"},{"type":"function","name":"escrows","inputs":[{"name":"","type":"bytes32","internalType":"bytes32"}],"outputs":[{"name":"","type":"address","internalType":"address"}],"stateMutability":"view"},{"type":"function","name":"makerWhitelistEnabled","inputs":[],"outputs":[{"name":"","type":"bool","internalType":"bool"}],"stateMutability":"view"},{"type":"function","name":"owner","inputs":[],"outputs":[{"name":"","type":"address","internalType":"address"}],"stateMutability":"view"},{"type":"function","name":"pause","inputs":[],"outputs":[],"stateMutability":"nonpayable"},{"type":"function","name":"removeMaker","inputs":[{"name":"maker","type":"address","internalType":"address"}],"outputs":[],"stateMutability":"nonpayable"},{"type":"function","name":"removeResolver","inputs":[{"name":"resolver","type":"address","internalType":"address"}],"outputs":[],"stateMutability":"nonpayable"},{"type":"function","name":"resolverCount","inputs":[],"outputs":[{"name":"","type":"uint256","internalType":"uint256"}],"stateMutability":"view"},{"type":"function","name":"setMakerWhitelistEnabled","inputs":[{"name":"enabled","type":"bool","internalType":"bool"}],"outputs":[],"stateMutability":"nonpayable"},{"type":"function","name":"transferOwnership","inputs":[{"name":"newOwner","type":"address","internalType":"address"}],"outputs":[],"stateMutability":"nonpayable"},{"type":"function","name":"unpause","inputs":[],"outputs":[],"stateMutability":"nonpayable"},{"type":"function","name":"whitelistedMakers","inputs":[{"name":"","type":"address","internalType":"address"}],"outputs":[{"name":"","type":"bool","internalType":"bool"}],"stateMutability":"view"},{"type":"function","name":"whitelistedResolvers","inputs":[{"name":"","type":"address","internalType":"address"}],"outputs":[{"name":"","type":"bool","internalType":"bool"}],"stateMutability":"view"},{"type":"event","name":"DstEscrowCreated","inputs":[{"name":"escrow","type":"address","indexed":true,"internalType":"address"},{"name":"hashlock","type":"bytes32","indexed":true,"internalType":"bytes32"},{"name":"taker","type":"address","indexed":true,"internalType":"address"}],"anonymous":false},{"type":"event","name":"EmergencyPause","inputs":[{"name":"paused","type":"bool","indexed":false,"internalType":"bool"}],"anonymous":false},{"type":"event","name":"MakerRemoved","inputs":[{"name":"maker","type":"address","indexed":true,"internalType":"address"}],"anonymous":false},{"type":"event","name":"MakerWhitelisted","inputs":[{"name":"maker","type":"address","indexed":true,"internalType":"address"}],"anonymous":false},{"type":"event","name":"OwnershipTransferred","inputs":[{"name":"previousOwner","type":"address","indexed":true,"internalType":"address"},{"name":"newOwner","type":"address","indexed":true,"internalType":"address"}],"anonymous":false},{"type":"event","name":"ResolverRemoved","inputs":[{"name":"resolver","type":"address","indexed":true,"internalType":"address"}],"anonymous":false},{"type":"event","name":"ResolverWhitelisted","inputs":[{"name":"resolver","type":"address","indexed":true,"internalType":"address"}],"anonymous":false},{"type":"event","name":"SrcEscrowCreated","inputs":[{"name":"escrow","type":"address","indexed":true,"internalType":"address"},{"name":"orderHash","type":"bytes32","indexed":true,"internalType":"bytes32"},{"name":"maker","type":"address","indexed":true,"internalType":"address"},{"name":"taker","type":"address","indexed":false,"internalType":"address"},{"name":"amount","type":"uint256","indexed":false,"internalType":"uint256"}],"anonymous":false},{"type":"error","name":"FailedDeployment","inputs":[]},{"type":"error","name":"InsufficientBalance","inputs":[{"name":"balance","type":"uint256","internalType":"uint256"},{"name":"needed","type":"uint256","internalType":"uint256"}]},{"type":"error","name":"SafeTransferFromFailed","inputs":[]}],"bytecode":{"object":"0x60c0346101d257601f610efe38819003918201601f1916830191906001600160401b038311848410176101d65781606092859260409586528339810103126101d25761004a826101ea565b916100628261005b602084016101ea565b92016101ea565b6001600160a01b03908482161561018e578183161561014a57169283156101165760805260a0525f80546001600160a01b0319168317815582815260016020819052828220805460ff191682179055600455905191907f45fedec4fac25f615c1ed3c5890277618636de60b3ade84ae3006e93923fcb429080a2610cff90816101ff82396080518181816102e40152818161063f0152610778015260a05181818161027d0152818161037001526108690152f35b825162461bcd60e51b815260206004820152600d60248201526c24b73b30b634b21037bbb732b960991b6044820152606490fd5b835162461bcd60e51b815260206004820152601a60248201527f496e76616c69642064737420696d706c656d656e746174696f6e0000000000006044820152606490fd5b835162461bcd60e51b815260206004820152601a60248201527f496e76616c69642073726320696d706c656d656e746174696f6e0000000000006044820152606490fd5b5f80fd5b634e487b7160e01b5f52604160045260245ffd5b51906001600160a01b03821682036101d25756fe608060409080825260049081361015610016575f80fd5b5f3560e01c90816327c830a914610b2f575080632d83549c14610aff578063390a0b6f14610a2c5780633f4ba83a146109d05780634579d04b1461082b5780635413f4df146107a75780637040f17314610764578063793a31a5146105be5780637bc17ed11461059b578063802fd960146105585780638456cb59146104f55780638da5cb5b146104ce57806396a8a53b14610492578063a1333536146103ee578063a674b197146103d1578063aa80eb2914610395578063af8a1b27146102ac578063ba55117714610269578063d4ec1fc2146101a75763f2fde38b146100fc575f80fd5b346101a35760203660031901126101a357610115610b50565b5f546001600160a01b03808216939192610130338614610b66565b169384156101705750506001600160a01b03191682175f9081557f8be0079c531659141344cd1fd0a4f28419497f9722a3daafe3b4186f6b6457e09080a3005b906020606492519162461bcd60e51b8352820152600d60248201526c24b73b30b634b21037bbb732b960991b6044820152fd5b5f80fd5b5090346101a35760203660031901126101a3576101c2610b50565b5f546001600160a01b0391906101db9083163314610b66565b169182156102375750815f5260026020526101fc60ff825f20541615610b9e565b815f5260026020525f20600160ff198254161790557f9faa3c4eaf67e3583721b249c7b4f68963f32c75c1a305e2a8e18aa846d7dd275f80a2005b6020606492519162461bcd60e51b8352820152600d60248201526c24b73b30b634b21036b0b5b2b960991b6044820152fd5b82346101a3575f3660031901126101a357517f00000000000000000000000000000000000000000000000000000000000000006001600160a01b03168152602090f35b5090346101a35736600319019161012083126101a3576101008093126101a357610104359283151584036101a3576020931561036e577f0000000000000000000000000000000000000000000000000000000000000000915b818451918237208251913060388401526f5af43d82803e903d91602b57fd5bf3ff60248401526014830152733d602d80600a3d3981f3363d3d373d3d3d363d73825260588201526037600c82012060788201526055604360018060a01b03920120169051908152f35b7f000000000000000000000000000000000000000000000000000000000000000091610305565b82346101a35760203660031901126101a3576020906001600160a01b036103ba610b50565b165f526001825260ff815f20541690519015158152f35b5090346101a3575f3660031901126101a357602091549051908152f35b50346101a35760203660031901126101a357610408610b50565b5f546001600160a01b0391906104219083163314610b66565b1691825f52600160205261043a60ff825f205416610c1e565b5f838152600160205220805460ff191690558054801561047f575f190190557f3ae8b1488efc5effc2f9c5dc1943ec82217b537d2c5f6dce8340094446bbb3535f80a2005b601182634e487b7160e01b5f525260245ffd5b82346101a35760203660031901126101a3576020906001600160a01b036104b7610b50565b165f526002825260ff815f20541690519015158152f35b82346101a3575f3660031901126101a3575f5490516001600160a01b039091168152602090f35b82346101a3575f3660031901126101a3575f547fb80d1ae5628c2af91424c54c87acfd15016be4bebeef0425b328238702f3483191602091610541336001600160a01b03831614610b66565b60ff60a01b1916600160a01b175f555160018152a1005b50346101a35760203660031901126101a357358015158091036101a35761058960018060a01b035f54163314610b66565b60ff8019600554169116176005555f80f35b82346101a3575f3660031901126101a35760209060ff6005541690519015158152f35b5090346101a35736600319019061016082126101a3576101008092126101a357610104356001600160a01b03818116918290036101a35761012435938185168095036101a357610144359061061a60ff5f5460a01c1615610be0565b60ff60055416610716575b84518188823720946e5af43d82803e903d91602b57fd5bf37f0000000000000000000000000000000000000000000000000000000000000000763d602d80600a3d3981f3363d3d373d3d3d363d7300000062ffffff8260881c16175f5260781b1760205285603760095ff5908382169687156107065797836106f089957fb68514f3fd43f58950720caa0e3c8a33918342e1150fe06e53f288a399902008958a9560209d5f5260038e52865f20896bffffffffffffffffffffffff60a01b8254161790553390610c5c565b825195606435168652898601523593a451908152f35b865163b06ebf3d60e01b81528990fd5b835f52600260205260ff855f20541661062557845162461bcd60e51b8152602081890152601560248201527413585ad95c881b9bdd081dda1a5d195b1a5cdd1959605a1b6044820152606490fd5b82346101a3575f3660031901126101a357517f00000000000000000000000000000000000000000000000000000000000000006001600160a01b03168152602090f35b82346101a35760203660031901126101a3576107c1610b50565b5f546001600160a01b0391906107da9083163314610b66565b1690815f5260026020526107f360ff825f205416610c1e565b815f5260026020525f2060ff1981541690557fc61be715a2ea14b6511e1f253e4b75edc1a54edbbbf304876a6f747d89d654c15f80a2005b5090610100806003193601126101a35761084c60ff5f5460a01c1615610be0565b335f52600160205260ff825f2054161561098d57815181848237207f00000000000000000000000000000000000000000000000000000000000000003447106109715780763d602d80600a3d3981f3363d3d373d3d3d363d7300000062ffffff6e5af43d82803e903d91602b57fd5bf39360881c16175f5260781b17602052806037600934f56001600160a01b039283821692909190831561096157602095505f5260038552815f20836bffffffffffffffffffffffff60a01b82541617905583608435168061094b575b5050519160643516602435827fbfd5e2039d3537cb8378a5ba1d9a6170f92307d49369f6fadd6b2ee64ca254a75f80a48152f35b61095a9160a435913390610c5c565b5f80610917565b825163b06ebf3d60e01b81528690fd5b825163cf47918160e01b81524781860152346024820152604490fd5b815162461bcd60e51b8152602081850152601860248201527f4e6f742077686974656c6973746564207265736f6c76657200000000000000006044820152606490fd5b82346101a3575f3660031901126101a3575f547fb80d1ae5628c2af91424c54c87acfd15016be4bebeef0425b328238702f3483191602091610a1c336001600160a01b03831614610b66565b60ff60a01b19165f55515f8152a1005b50346101a35760203660031901126101a357610a46610b50565b5f546001600160a01b039190610a5f9083163314610b66565b16918215610ac957825f526001602052610a7f60ff825f20541615610b9e565b825f5260016020525f20600160ff1982541617905580545f19811461047f5760010190557f45fedec4fac25f615c1ed3c5890277618636de60b3ade84ae3006e93923fcb425f80a2005b906020606492519162461bcd60e51b8352820152601060248201526f24b73b30b634b2103932b9b7b63b32b960811b6044820152fd5b5090346101a35760203660031901126101a357602091355f526003825260018060a01b03815f2054169051908152f35b346101a3575f3660031901126101a35760209060ff5f5460a01c1615158152f35b600435906001600160a01b03821682036101a357565b15610b6d57565b60405162461bcd60e51b81526020600482015260096024820152682737ba1037bbb732b960b91b6044820152606490fd5b15610ba557565b60405162461bcd60e51b8152602060048201526013602482015272105b1c9958591e481dda1a5d195b1a5cdd1959606a1b6044820152606490fd5b15610be757565b60405162461bcd60e51b815260206004820152600f60248201526e141c9bdd1bd8dbdb081c185d5cd959608a1b6044820152606490fd5b15610c2557565b60405162461bcd60e51b815260206004820152600f60248201526e139bdd081dda1a5d195b1a5cdd1959608a1b6044820152606490fd5b925f91606491602094604051926323b872dd60e01b845260048401526024830152604482015282855af19081610ca7575b5015610c9557565b60405163f405907160e01b8152600490fd5b90503d15610cc1575060015f5114601f3d11165b5f610c8d565b3b1515610cbb56fea2646970667358221220e1ee5dfc0d693b4752609c6a0b05313c9e55851f3358c253a8f8fae56e0813d464736f6c63430008170033","linkReferences":{}},"methodIdentifiers":{"ESCROW_DST_IMPLEMENTATION()":"ba551177","ESCROW_SRC_IMPLEMENTATION()":"7040f173","addMaker(address)":"d4ec1fc2","addResolver(address)":"390a0b6f","addressOfEscrow((bytes32,bytes32,uint256,uint256,uint256,uint256,uint256,uint256),bool)":"af8a1b27","createDstEscrow((bytes32,bytes32,uint256,uint256,uint256,uint256,uint256,uint256))":"4579d04b","createSrcEscrow((bytes32,bytes32,uint256,uint256,uint256,uint256,uint256,uint256),address,address,uint256)":"793a31a5","emergencyPaused()":"27c830a9","escrows(bytes32)":"2d83549c","makerWhitelistEnabled()":"7bc17ed1","owner()":"8da5cb5b","pause()":"8456cb59","removeMaker(address)":"5413f4df","removeResolver(address)":"a1333536","resolverCount()":"a674b197","setMakerWhitelistEnabled(bool)":"802fd960","transferOwnership(address)":"f2fde38b","unpause()":"3f4ba83a","whitelistedMakers(address)":"96a8a53b","whitelistedResolvers(address)":"aa80eb29"},"id":12}