{
  "abi": [
    {
      "type": "constructor",
      "inputs": [
        {
          "name": "srcImpl",
          "type": "address",
          "internalType": "address"
        },
        {
          "name": "dstImpl",
          "type": "address",
          "internalType": "address"
        },
        {
          "name": "_owner",
          "type": "address",
          "internalType": "address"
        }
      ],
      "stateMutability": "nonpayable"
    },
    {
      "type": "function",
      "name": "ESCROW_DST_IMPLEMENTATION",
      "inputs": [],
      "outputs": [
        {
          "name": "",
          "type": "address",
          "internalType": "address"
        }
      ],
      "stateMutability": "view"
    },
    {
      "type": "function",
      "name": "ESCROW_SRC_IMPLEMENTATION",
      "inputs": [],
      "outputs": [
        {
          "name": "",
          "type": "address",
          "internalType": "address"
        }
      ],
      "stateMutability": "view"
    },
    {
      "type": "function",
      "name": "addMaker",
      "inputs": [
        {
          "name": "maker",
          "type": "address",
          "internalType": "address"
        }
      ],
      "outputs": [],
      "stateMutability": "nonpayable"
    },
    {
      "type": "function",
      "name": "addResolver",
      "inputs": [
        {
          "name": "resolver",
          "type": "address",
          "internalType": "address"
        }
      ],
      "outputs": [],
      "stateMutability": "nonpayable"
    },
    {
      "type": "function",
      "name": "addressOfEscrow",
      "inputs": [
        {
          "name": "immutables",
          "type": "tuple",
          "internalType": "struct IBaseEscrow.Immutables",
          "components": [
            {
              "name": "orderHash",
              "type": "bytes32",
              "internalType": "bytes32"
            },
            {
              "name": "hashlock",
              "type": "bytes32",
              "internalType": "bytes32"
            },
            {
              "name": "maker",
              "type": "uint256",
              "internalType": "Address"
            },
            {
              "name": "taker",
              "type": "uint256",
              "internalType": "Address"
            },
            {
              "name": "token",
              "type": "uint256",
              "internalType": "Address"
            },
            {
              "name": "amount",
              "type": "uint256",
              "internalType": "uint256"
            },
            {
              "name": "safetyDeposit",
              "type": "uint256",
              "internalType": "uint256"
            },
            {
              "name": "timelocks",
              "type": "uint256",
              "internalType": "Timelocks"
            }
          ]
        },
        {
          "name": "isSrc",
          "type": "bool",
          "internalType": "bool"
        }
      ],
      "outputs": [
        {
          "name": "",
          "type": "address",
          "internalType": "address"
        }
      ],
      "stateMutability": "view"
    },
    {
      "type": "function",
      "name": "createDstEscrow",
      "inputs": [
        {
          "name": "immutables",
          "type": "tuple",
          "internalType": "struct IBaseEscrow.Immutables",
          "components": [
            {
              "name": "orderHash",
              "type": "bytes32",
              "internalType": "bytes32"
            },
            {
              "name": "hashlock",
              "type": "bytes32",
              "internalType": "bytes32"
            },
            {
              "name": "maker",
              "type": "uint256",
              "internalType": "Address"
            },
            {
              "name": "taker",
              "type": "uint256",
              "internalType": "Address"
            },
            {
              "name": "token",
              "type": "uint256",
              "internalType": "Address"
            },
            {
              "name": "amount",
              "type": "uint256",
              "internalType": "uint256"
            },
            {
              "name": "safetyDeposit",
              "type": "uint256",
              "internalType": "uint256"
            },
            {
              "name": "timelocks",
              "type": "uint256",
              "internalType": "Timelocks"
            }
          ]
        }
      ],
      "outputs": [
        {
          "name": "escrow",
          "type": "address",
          "internalType": "address"
        }
      ],
      "stateMutability": "payable"
    },
    {
      "type": "function",
      "name": "createSrcEscrow",
      "inputs": [
        {
          "name": "immutables",
          "type": "tuple",
          "internalType": "struct IBaseEscrow.Immutables",
          "components": [
            {
              "name": "orderHash",
              "type": "bytes32",
              "internalType": "bytes32"
            },
            {
              "name": "hashlock",
              "type": "bytes32",
              "internalType": "bytes32"
            },
            {
              "name": "maker",
              "type": "uint256",
              "internalType": "Address"
            },
            {
              "name": "taker",
              "type": "uint256",
              "internalType": "Address"
            },
            {
              "name": "token",
              "type": "uint256",
              "internalType": "Address"
            },
            {
              "name": "amount",
              "type": "uint256",
              "internalType": "uint256"
            },
            {
              "name": "safetyDeposit",
              "type": "uint256",
              "internalType": "uint256"
            },
            {
              "name": "timelocks",
              "type": "uint256",
              "internalType": "Timelocks"
            }
          ]
        },
        {
          "name": "maker",
          "type": "address",
          "internalType": "address"
        },
        {
          "name": "token",
          "type": "address",
          "internalType": "address"
        },
        {
          "name": "amount",
          "type": "uint256",
          "internalType": "uint256"
        }
      ],
      "outputs": [
        {
          "name": "escrow",
          "type": "address",
          "internalType": "address"
        }
      ],
      "stateMutability": "nonpayable"
    },
    {
      "type": "function",
      "name": "emergencyPaused",
      "inputs": [],
      "outputs": [
        {
          "name": "",
          "type": "bool",
          "internalType": "bool"
        }
      ],
      "stateMutability": "view"
    },
    {
      "type": "function",
      "name": "escrows",
      "inputs": [
        {
          "name": "",
          "type": "bytes32",
          "internalType": "bytes32"
        }
      ],
      "outputs": [
        {
          "name": "",
          "type": "address",
          "internalType": "address"
        }
      ],
      "stateMutability": "view"
    },
    {
      "type": "function",
      "name": "makerWhitelistEnabled",
      "inputs": [],
      "outputs": [
        {
          "name": "",
          "type": "bool",
          "internalType": "bool"
        }
      ],
      "stateMutability": "view"
    },
    {
      "type": "function",
      "name": "owner",
      "inputs": [],
      "outputs": [
        {
          "name": "",
          "type": "address",
          "internalType": "address"
        }
      ],
      "stateMutability": "view"
    },
    {
      "type": "function",
      "name": "pause",
      "inputs": [],
      "outputs": [],
      "stateMutability": "nonpayable"
    },
    {
      "type": "function",
      "name": "postInteraction",
      "inputs": [
        {
          "name": "order",
          "type": "tuple",
          "internalType": "struct IOrderMixin.Order",
          "components": [
            {
              "name": "salt",
              "type": "uint256",
              "internalType": "uint256"
            },
            {
              "name": "maker",
              "type": "uint256",
              "internalType": "Address"
            },
            {
              "name": "receiver",
              "type": "uint256",
              "internalType": "Address"
            },
            {
              "name": "makerAsset",
              "type": "uint256",
              "internalType": "Address"
            },
            {
              "name": "takerAsset",
              "type": "uint256",
              "internalType": "Address"
            },
            {
              "name": "makingAmount",
              "type": "uint256",
              "internalType": "uint256"
            },
            {
              "name": "takingAmount",
              "type": "uint256",
              "internalType": "uint256"
            },
            {
              "name": "makerTraits",
              "type": "uint256",
              "internalType": "MakerTraits"
            }
          ]
        },
        {
          "name": "",
          "type": "bytes",
          "internalType": "bytes"
        },
        {
          "name": "orderHash",
          "type": "bytes32",
          "internalType": "bytes32"
        },
        {
          "name": "taker",
          "type": "address",
          "internalType": "address"
        },
        {
          "name": "makingAmount",
          "type": "uint256",
          "internalType": "uint256"
        },
        {
          "name": "",
          "type": "uint256",
          "internalType": "uint256"
        },
        {
          "name": "",
          "type": "uint256",
          "internalType": "uint256"
        },
        {
          "name": "extraData",
          "type": "bytes",
          "internalType": "bytes"
        }
      ],
      "outputs": [],
      "stateMutability": "nonpayable"
    },
    {
      "type": "function",
      "name": "removeMaker",
      "inputs": [
        {
          "name": "maker",
          "type": "address",
          "internalType": "address"
        }
      ],
      "outputs": [],
      "stateMutability": "nonpayable"
    },
    {
      "type": "function",
      "name": "removeResolver",
      "inputs": [
        {
          "name": "resolver",
          "type": "address",
          "internalType": "address"
        }
      ],
      "outputs": [],
      "stateMutability": "nonpayable"
    },
    {
      "type": "function",
      "name": "resolverCount",
      "inputs": [],
      "outputs": [
        {
          "name": "",
          "type": "uint256",
          "internalType": "uint256"
        }
      ],
      "stateMutability": "view"
    },
    {
      "type": "function",
      "name": "setMakerWhitelistEnabled",
      "inputs": [
        {
          "name": "enabled",
          "type": "bool",
          "internalType": "bool"
        }
      ],
      "outputs": [],
      "stateMutability": "nonpayable"
    },
    {
      "type": "function",
      "name": "transferOwnership",
      "inputs": [
        {
          "name": "newOwner",
          "type": "address",
          "internalType": "address"
        }
      ],
      "outputs": [],
      "stateMutability": "nonpayable"
    },
    {
      "type": "function",
      "name": "unpause",
      "inputs": [],
      "outputs": [],
      "stateMutability": "nonpayable"
    },
    {
      "type": "function",
      "name": "whitelistedMakers",
      "inputs": [
        {
          "name": "",
          "type": "address",
          "internalType": "address"
        }
      ],
      "outputs": [
        {
          "name": "",
          "type": "bool",
          "internalType": "bool"
        }
      ],
      "stateMutability": "view"
    },
    {
      "type": "function",
      "name": "whitelistedResolvers",
      "inputs": [
        {
          "name": "",
          "type": "address",
          "internalType": "address"
        }
      ],
      "outputs": [
        {
          "name": "",
          "type": "bool",
          "internalType": "bool"
        }
      ],
      "stateMutability": "view"
    },
    {
      "type": "event",
      "name": "DstEscrowCreated",
      "inputs": [
        {
          "name": "escrow",
          "type": "address",
          "indexed": true,
          "internalType": "address"
        },
        {
          "name": "hashlock",
          "type": "bytes32",
          "indexed": true,
          "internalType": "bytes32"
        },
        {
          "name": "taker",
          "type": "address",
          "indexed": true,
          "internalType": "address"
        }
      ],
      "anonymous": false
    },
    {
      "type": "event",
      "name": "EmergencyPause",
      "inputs": [
        {
          "name": "paused",
          "type": "bool",
          "indexed": false,
          "internalType": "bool"
        }
      ],
      "anonymous": false
    },
    {
      "type": "event",
      "name": "MakerRemoved",
      "inputs": [
        {
          "name": "maker",
          "type": "address",
          "indexed": true,
          "internalType": "address"
        }
      ],
      "anonymous": false
    },
    {
      "type": "event",
      "name": "MakerWhitelisted",
      "inputs": [
        {
          "name": "maker",
          "type": "address",
          "indexed": true,
          "internalType": "address"
        }
      ],
      "anonymous": false
    },
    {
      "type": "event",
      "name": "OwnershipTransferred",
      "inputs": [
        {
          "name": "previousOwner",
          "type": "address",
          "indexed": true,
          "internalType": "address"
        },
        {
          "name": "newOwner",
          "type": "address",
          "indexed": true,
          "internalType": "address"
        }
      ],
      "anonymous": false
    },
    {
      "type": "event",
      "name": "PostInteractionEscrowCreated",
      "inputs": [
        {
          "name": "escrow",
          "type": "address",
          "indexed": true,
          "internalType": "address"
        },
        {
          "name": "hashlock",
          "type": "bytes32",
          "indexed": true,
          "internalType": "bytes32"
        },
        {
          "name": "protocol",
          "type": "address",
          "indexed": true,
          "internalType": "address"
        },
        {
          "name": "taker",
          "type": "address",
          "indexed": false,
          "internalType": "address"
        },
        {
          "name": "amount",
          "type": "uint256",
          "indexed": false,
          "internalType": "uint256"
        }
      ],
      "anonymous": false
    },
    {
      "type": "event",
      "name": "ResolverRemoved",
      "inputs": [
        {
          "name": "resolver",
          "type": "address",
          "indexed": true,
          "internalType": "address"
        }
      ],
      "anonymous": false
    },
    {
      "type": "event",
      "name": "ResolverWhitelisted",
      "inputs": [
        {
          "name": "resolver",
          "type": "address",
          "indexed": true,
          "internalType": "address"
        }
      ],
      "anonymous": false
    },
    {
      "type": "event",
      "name": "SrcEscrowCreated",
      "inputs": [
        {
          "name": "escrow",
          "type": "address",
          "indexed": true,
          "internalType": "address"
        },
        {
          "name": "orderHash",
          "type": "bytes32",
          "indexed": true,
          "internalType": "bytes32"
        },
        {
          "name": "maker",
          "type": "address",
          "indexed": true,
          "internalType": "address"
        },
        {
          "name": "taker",
          "type": "address",
          "indexed": false,
          "internalType": "address"
        },
        {
          "name": "amount",
          "type": "uint256",
          "indexed": false,
          "internalType": "uint256"
        }
      ],
      "anonymous": false
    },
    {
      "type": "error",
      "name": "FailedDeployment",
      "inputs": []
    },
    {
      "type": "error",
      "name": "InsufficientBalance",
      "inputs": [
        {
          "name": "balance",
          "type": "uint256",
          "internalType": "uint256"
        },
        {
          "name": "needed",
          "type": "uint256",
          "internalType": "uint256"
        }
      ]
    },
    {
      "type": "error",
      "name": "SafeTransferFromFailed",
      "inputs": []
    }
  ],
  "bytecode": {
    "object": "0x60c0346101db57601f6200134f38819003918201601f1916830191906001600160401b038311848410176101df5781606092859260409586528339810103126101db5761004b826101f3565b916100638261005c602084016101f3565b92016101f3565b6001600160a01b0390848216156101975781831615610153571692831561011f5760805260a0525f80546001600160a01b0319168317815582815260016020819052828220805460ff191682179055600455905191907f45fedec4fac25f615c1ed3c5890277618636de60b3ade84ae3006e93923fcb429080a261114790816200020882396080518181816102ea015281816106690152818161075c0152610a96015260a0518181816102860152818161037a0152610c170152f35b825162461bcd60e51b815260206004820152600d60248201526c24b73b30b634b21037bbb732b960991b6044820152606490fd5b835162461bcd60e51b815260206004820152601a60248201527f496e76616c69642064737420696d706c656d656e746174696f6e0000000000006044820152606490fd5b835162461bcd60e51b815260206004820152601a60248201527f496e76616c69642073726320696d706c656d656e746174696f6e0000000000006044820152606490fd5b5f80fd5b634e487b7160e01b5f52604160045260245ffd5b51906001600160a01b03821682036101db5756fe6080806040526004361015610012575f80fd5b5f3560e01c90816327c830a914610ee8575080632d83549c14610eb6578063390a0b6f14610dde5780633f4ba83a14610d835780634579d04b14610bd8578063462ebde2146108105780635413f4df1461078b5780637040f17314610747578063793a31a5146105cf5780637bc17ed1146105ad578063802fd960146105695780638456cb59146105055780638da5cb5b146104de57806396a8a53b146104a1578063a1333536146103f9578063a674b197146103dc578063aa80eb291461039f578063af8a1b27146102b5578063ba55117714610271578063d4ec1fc2146101ad5763f2fde38b14610103575f80fd5b346101a95760203660031901126101a95761011c610f09565b5f54906001600160a01b0380831691610136338414610f4d565b16918215610174576001600160a01b03191682175f9081557f8be0079c531659141344cd1fd0a4f28419497f9722a3daafe3b4186f6b6457e09080a3005b60405162461bcd60e51b815260206004820152600d60248201526c24b73b30b634b21037bbb732b960991b6044820152606490fd5b5f80fd5b346101a95760203660031901126101a9576101c6610f09565b5f546001600160a01b0391906101df9083163314610f4d565b16801561023c57805f5260026020526101ff60ff60405f20541615610f85565b805f52600260205260405f20600160ff198254161790557f9faa3c4eaf67e3583721b249c7b4f68963f32c75c1a305e2a8e18aa846d7dd275f80a2005b60405162461bcd60e51b815260206004820152600d60248201526c24b73b30b634b21036b0b5b2b960991b6044820152606490fd5b346101a9575f3660031901126101a9576040517f00000000000000000000000000000000000000000000000000000000000000006001600160a01b03168152602090f35b346101a957366003190161012081126101a9576101008091126101a957610104359081151582036101a95760209115610378577f0000000000000000000000000000000000000000000000000000000000000000905b604051816004823720604051913060388401526f5af43d82803e903d91602b57fd5bf3ff60248401526014830152733d602d80600a3d3981f3363d3d373d3d3d363d73825260588201526037600c82012060788201526055604360018060a01b0392012016604051908152f35b7f00000000000000000000000000000000000000000000000000000000000000009061030b565b346101a95760203660031901126101a9576001600160a01b036103c0610f09565b165f526001602052602060ff60405f2054166040519015158152f35b346101a9575f3660031901126101a9576020600454604051908152f35b346101a95760203660031901126101a957610412610f09565b5f546001600160a01b03919061042b9083163314610f4d565b16805f52600160205261044460ff60405f205416611012565b805f52600160205260405f2060ff198154169055600454801561048d575f19016004557f3ae8b1488efc5effc2f9c5dc1943ec82217b537d2c5f6dce8340094446bbb3535f80a2005b634e487b7160e01b5f52601160045260245ffd5b346101a95760203660031901126101a9576001600160a01b036104c2610f09565b165f526002602052602060ff60405f2054166040519015158152f35b346101a9575f3660031901126101a9575f546040516001600160a01b039091168152602090f35b346101a9575f3660031901126101a9575f5461052b336001600160a01b03831614610f4d565b60ff60a01b1916600160a01b175f55604051600181527fb80d1ae5628c2af91424c54c87acfd15016be4bebeef0425b328238702f3483190602090a1005b346101a95760203660031901126101a9576004358015158091036101a95761059b60018060a01b035f54163314610f4d565b60ff8019600554169116176005555f80f35b346101a9575f3660031901126101a957602060ff600554166040519015158152f35b346101a957366003190161016081126101a9576101008091126101a9576001600160a01b0361010435818116908190036101a95761012435918083168093036101a9576101443561062760ff5f5460a01c1615610fc7565b60ff600554166106f6575b7fb68514f3fd43f58950720caa0e3c8a33918342e1150fe06e53f288a3999020086106eb6020966040518160048237209261068d847f0000000000000000000000000000000000000000000000000000000000000000611050565b935f52600388526106c18160405f2095878116998a97886bffffffffffffffffffffffff60a01b82541617905533906110a4565b60408051606435969096166001600160a01b03168652602086019190915260043594918291820190565b0390a4604051908152f35b825f52600260205260ff60405f2054166106325760405162461bcd60e51b815260206004820152601560248201527413585ad95c881b9bdd081dda1a5d195b1a5cdd1959605a1b6044820152606490fd5b346101a9575f3660031901126101a9576040517f00000000000000000000000000000000000000000000000000000000000000006001600160a01b03168152602090f35b346101a95760203660031901126101a9576107a4610f09565b5f546001600160a01b0391906107bd9083163314610f4d565b16805f5260026020526107d660ff60405f205416611012565b805f52600260205260405f2060ff1981541690557fc61be715a2ea14b6511e1f253e4b75edc1a54edbbbf304876a6f747d89d654c15f80a2005b346101a95736600319016101e081126101a957610100136101a9576101043567ffffffffffffffff81116101a95761084c903690600401610f1f565b5050610144356001600160a01b03811681036101a9576101c43567ffffffffffffffff81116101a957610883903690600401610f1f565b61089760ff5f9493945460a01c1615610fc7565b6001600160a01b0382165f9081526001602052604090205460ff1615610b93578260a091810103126101a95760408201356001600160a01b038116036101a95781355f908152600360205260409020546080830135906001600160a01b0316610b56576001600160801b0381169060801c61093c6bffffffff00000000000000006109224284611005565b60401b1663ffffffff60e01b4260e01b1617914290611005565b9061012c9182810180911161048d5761097d9163ffffffff60801b6109614287611005565b60801b169163ffffffff60601b9060601b161717924290611005565b91818301831161048d57604051928361010081011067ffffffffffffffff61010086011117610b4257610100840160405261012435845285356020850152604084019160018060a01b03602435168352606085019360018060a01b038716855260808601606435815260a087019161016435835260c08801936001600160801b0360608c013516855260e08901956502580000012c60e160c51b019263ffffffff60a01b910160a01b1617178452604051956020870195610124358752602089015160408901525160608801525160808701525160a08601525160c08501525160e084015251610100830152610100825261012082019082821067ffffffffffffffff831117610b4257602092610aba926040525190207f0000000000000000000000000000000000000000000000000000000000000000611050565b9101515f90815260036020526040902080546001600160a01b0319166001600160a01b0380841691821790925591610afd916101643591908590606435166110a4565b604080516001600160a01b03939093168352610164356020840152339335927f50805b468bc791ab273bca5a11ee2eb5134b6658b446b9aef2ee42eea3d8f0b89190a4005b634e487b7160e01b5f52604160045260245ffd5b60405162461bcd60e51b8152602060048201526015602482015274457363726f7720616c72656164792065786973747360581b6044820152606490fd5b60405162461bcd60e51b815260206004820152601860248201527f5265736f6c766572206e6f742077686974656c697374656400000000000000006044820152606490fd5b610100806003193601126101a957610bf760ff5f5460a01c1615610fc7565b335f52600160205260ff60405f20541615610d3e576040518160048237207f0000000000000000000000000000000000000000000000000000000000000000344710610d205780763d602d80600a3d3981f3363d3d373d3d3d363d7300000062ffffff6e5af43d82803e903d91602b57fd5bf39360881c16175f5260781b17602052806037600934f56001600160a01b0390808216908115610d0e576020935f526003845260405f20826bffffffffffffffffffffffff60a01b825416179055826084351680610cf8575b50506040519160643516602435827fbfd5e2039d3537cb8378a5ba1d9a6170f92307d49369f6fadd6b2ee64ca254a75f80a48152f35b610d079160a4359133906110a4565b8380610cc2565b60405163b06ebf3d60e01b8152600490fd5b60405163cf47918160e01b8152476004820152346024820152604490fd5b60405162461bcd60e51b815260206004820152601860248201527f4e6f742077686974656c6973746564207265736f6c76657200000000000000006044820152606490fd5b346101a9575f3660031901126101a9575f54610da9336001600160a01b03831614610f4d565b60ff60a01b19165f557fb80d1ae5628c2af91424c54c87acfd15016be4bebeef0425b328238702f3483160206040515f8152a1005b346101a95760203660031901126101a957610df7610f09565b5f546001600160a01b039190610e109083163314610f4d565b168015610e7e57805f526001602052610e3060ff60405f20541615610f85565b805f52600160205260405f20600160ff198254161790556004545f19811461048d576001016004557f45fedec4fac25f615c1ed3c5890277618636de60b3ade84ae3006e93923fcb425f80a2005b60405162461bcd60e51b815260206004820152601060248201526f24b73b30b634b2103932b9b7b63b32b960811b6044820152606490fd5b346101a95760203660031901126101a9576004355f526003602052602060018060a01b0360405f205416604051908152f35b346101a9575f3660031901126101a95760209060ff5f5460a01c1615158152f35b600435906001600160a01b03821682036101a957565b9181601f840112156101a95782359167ffffffffffffffff83116101a957602083818601950101116101a957565b15610f5457565b60405162461bcd60e51b81526020600482015260096024820152682737ba1037bbb732b960b91b6044820152606490fd5b15610f8c57565b60405162461bcd60e51b8152602060048201526013602482015272105b1c9958591e481dda1a5d195b1a5cdd1959606a1b6044820152606490fd5b15610fce57565b60405162461bcd60e51b815260206004820152600f60248201526e141c9bdd1bd8dbdb081c185d5cd959608a1b6044820152606490fd5b9190820391821161048d57565b1561101957565b60405162461bcd60e51b815260206004820152600f60248201526e139bdd081dda1a5d195b1a5cdd1959608a1b6044820152606490fd5b6e5af43d82803e903d91602b57fd5bf390763d602d80600a3d3981f3363d3d373d3d3d363d7300000062ffffff8260881c16175f5260781b17602052603760095ff5906001600160a01b03821615610d0e57565b925f91606491602094604051926323b872dd60e01b845260048401526024830152604482015282855af190816110ef575b50156110dd57565b60405163f405907160e01b8152600490fd5b90503d15611109575060015f5114601f3d11165b5f6110d5565b3b151561110356fea2646970667358221220d2460e8033b6097dbe55f3900b21d2fd13b4a9a52e3e4c903107d823c652cb5464736f6c63430008170033",
    "linkReferences": {}
  },
  "methodIdentifiers": {
    "ESCROW_DST_IMPLEMENTATION()": "ba551177",
    "ESCROW_SRC_IMPLEMENTATION()": "7040f173",
    "addMaker(address)": "d4ec1fc2",
    "addResolver(address)": "390a0b6f",
    "addressOfEscrow((bytes32,bytes32,uint256,uint256,uint256,uint256,uint256,uint256),bool)": "af8a1b27",
    "createDstEscrow((bytes32,bytes32,uint256,uint256,uint256,uint256,uint256,uint256))": "4579d04b",
    "createSrcEscrow((bytes32,bytes32,uint256,uint256,uint256,uint256,uint256,uint256),address,address,uint256)": "793a31a5",
    "emergencyPaused()": "27c830a9",
    "escrows(bytes32)": "2d83549c",
    "makerWhitelistEnabled()": "7bc17ed1",
    "owner()": "8da5cb5b",
    "pause()": "8456cb59",
    "postInteraction((uint256,uint256,uint256,uint256,uint256,uint256,uint256,uint256),bytes,bytes32,address,uint256,uint256,uint256,bytes)": "462ebde2",
    "removeMaker(address)": "5413f4df",
    "removeResolver(address)": "a1333536",
    "resolverCount()": "a674b197",
    "setMakerWhitelistEnabled(bool)": "802fd960",
    "transferOwnership(address)": "f2fde38b",
    "unpause()": "3f4ba83a",
    "whitelistedMakers(address)": "96a8a53b",
    "whitelistedResolvers(address)": "aa80eb29"
  },
  "id": 13
}