{
  "abi": [
    {
      "type": "constructor",
      "inputs": [
        {
          "name": "_weth",
          "type": "address",
          "internalType": "contract IWETH"
        }
      ],
      "stateMutability": "nonpayable"
    },
    {
      "type": "receive",
      "stateMutability": "payable"
    },
    {
      "type": "function",
      "name": "DOMAIN_SEPARATOR",
      "inputs": [],
      "outputs": [
        {
          "name": "",
          "type": "bytes32",
          "internalType": "bytes32"
        }
      ],
      "stateMutability": "view"
    },
    {
      "type": "function",
      "name": "advanceEpoch",
      "inputs": [
        {
          "name": "series",
          "type": "uint96",
          "internalType": "uint96"
        },
        {
          "name": "amount",
          "type": "uint256",
          "internalType": "uint256"
        }
      ],
      "outputs": [],
      "stateMutability": "nonpayable"
    },
    {
      "type": "function",
      "name": "and",
      "inputs": [
        {
          "name": "offsets",
          "type": "uint256",
          "internalType": "uint256"
        },
        {
          "name": "data",
          "type": "bytes",
          "internalType": "bytes"
        }
      ],
      "outputs": [
        {
          "name": "",
          "type": "bool",
          "internalType": "bool"
        }
      ],
      "stateMutability": "view"
    },
    {
      "type": "function",
      "name": "arbitraryStaticCall",
      "inputs": [
        {
          "name": "target",
          "type": "address",
          "internalType": "address"
        },
        {
          "name": "data",
          "type": "bytes",
          "internalType": "bytes"
        }
      ],
      "outputs": [
        {
          "name": "",
          "type": "uint256",
          "internalType": "uint256"
        }
      ],
      "stateMutability": "view"
    },
    {
      "type": "function",
      "name": "bitInvalidatorForOrder",
      "inputs": [
        {
          "name": "maker",
          "type": "address",
          "internalType": "address"
        },
        {
          "name": "slot",
          "type": "uint256",
          "internalType": "uint256"
        }
      ],
      "outputs": [
        {
          "name": "",
          "type": "uint256",
          "internalType": "uint256"
        }
      ],
      "stateMutability": "view"
    },
    {
      "type": "function",
      "name": "bitsInvalidateForOrder",
      "inputs": [
        {
          "name": "makerTraits",
          "type": "uint256",
          "internalType": "MakerTraits"
        },
        {
          "name": "additionalMask",
          "type": "uint256",
          "internalType": "uint256"
        }
      ],
      "outputs": [],
      "stateMutability": "nonpayable"
    },
    {
      "type": "function",
      "name": "cancelOrder",
      "inputs": [
        {
          "name": "makerTraits",
          "type": "uint256",
          "internalType": "MakerTraits"
        },
        {
          "name": "orderHash",
          "type": "bytes32",
          "internalType": "bytes32"
        }
      ],
      "outputs": [],
      "stateMutability": "nonpayable"
    },
    {
      "type": "function",
      "name": "cancelOrders",
      "inputs": [
        {
          "name": "makerTraits",
          "type": "uint256[]",
          "internalType": "MakerTraits[]"
        },
        {
          "name": "orderHashes",
          "type": "bytes32[]",
          "internalType": "bytes32[]"
        }
      ],
      "outputs": [],
      "stateMutability": "nonpayable"
    },
    {
      "type": "function",
      "name": "checkPredicate",
      "inputs": [
        {
          "name": "predicate",
          "type": "bytes",
          "internalType": "bytes"
        }
      ],
      "outputs": [
        {
          "name": "",
          "type": "bool",
          "internalType": "bool"
        }
      ],
      "stateMutability": "view"
    },
    {
      "type": "function",
      "name": "eip712Domain",
      "inputs": [],
      "outputs": [
        {
          "name": "fields",
          "type": "bytes1",
          "internalType": "bytes1"
        },
        {
          "name": "name",
          "type": "string",
          "internalType": "string"
        },
        {
          "name": "version",
          "type": "string",
          "internalType": "string"
        },
        {
          "name": "chainId",
          "type": "uint256",
          "internalType": "uint256"
        },
        {
          "name": "verifyingContract",
          "type": "address",
          "internalType": "address"
        },
        {
          "name": "salt",
          "type": "bytes32",
          "internalType": "bytes32"
        },
        {
          "name": "extensions",
          "type": "uint256[]",
          "internalType": "uint256[]"
        }
      ],
      "stateMutability": "view"
    },
    {
      "type": "function",
      "name": "epoch",
      "inputs": [
        {
          "name": "maker",
          "type": "address",
          "internalType": "address"
        },
        {
          "name": "series",
          "type": "uint96",
          "internalType": "uint96"
        }
      ],
      "outputs": [
        {
          "name": "",
          "type": "uint256",
          "internalType": "uint256"
        }
      ],
      "stateMutability": "view"
    },
    {
      "type": "function",
      "name": "epochEquals",
      "inputs": [
        {
          "name": "maker",
          "type": "address",
          "internalType": "address"
        },
        {
          "name": "series",
          "type": "uint256",
          "internalType": "uint256"
        },
        {
          "name": "makerEpoch",
          "type": "uint256",
          "internalType": "uint256"
        }
      ],
      "outputs": [
        {
          "name": "",
          "type": "bool",
          "internalType": "bool"
        }
      ],
      "stateMutability": "view"
    },
    {
      "type": "function",
      "name": "eq",
      "inputs": [
        {
          "name": "value",
          "type": "uint256",
          "internalType": "uint256"
        },
        {
          "name": "data",
          "type": "bytes",
          "internalType": "bytes"
        }
      ],
      "outputs": [
        {
          "name": "",
          "type": "bool",
          "internalType": "bool"
        }
      ],
      "stateMutability": "view"
    },
    {
      "type": "function",
      "name": "fillContractOrder",
      "inputs": [
        {
          "name": "order",
          "type": "tuple",
          "internalType": "struct IOrderMixin.Order",
          "components": [
            {
              "name": "salt",
              "type": "uint256",
              "internalType": "uint256"
            },
            {
              "name": "maker",
              "type": "uint256",
              "internalType": "Address"
            },
            {
              "name": "receiver",
              "type": "uint256",
              "internalType": "Address"
            },
            {
              "name": "makerAsset",
              "type": "uint256",
              "internalType": "Address"
            },
            {
              "name": "takerAsset",
              "type": "uint256",
              "internalType": "Address"
            },
            {
              "name": "makingAmount",
              "type": "uint256",
              "internalType": "uint256"
            },
            {
              "name": "takingAmount",
              "type": "uint256",
              "internalType": "uint256"
            },
            {
              "name": "makerTraits",
              "type": "uint256",
              "internalType": "MakerTraits"
            }
          ]
        },
        {
          "name": "signature",
          "type": "bytes",
          "internalType": "bytes"
        },
        {
          "name": "amount",
          "type": "uint256",
          "internalType": "uint256"
        },
        {
          "name": "takerTraits",
          "type": "uint256",
          "internalType": "TakerTraits"
        }
      ],
      "outputs": [
        {
          "name": "",
          "type": "uint256",
          "internalType": "uint256"
        },
        {
          "name": "",
          "type": "uint256",
          "internalType": "uint256"
        },
        {
          "name": "",
          "type": "bytes32",
          "internalType": "bytes32"
        }
      ],
      "stateMutability": "nonpayable"
    },
    {
      "type": "function",
      "name": "fillContractOrderArgs",
      "inputs": [
        {
          "name": "order",
          "type": "tuple",
          "internalType": "struct IOrderMixin.Order",
          "components": [
            {
              "name": "salt",
              "type": "uint256",
              "internalType": "uint256"
            },
            {
              "name": "maker",
              "type": "uint256",
              "internalType": "Address"
            },
            {
              "name": "receiver",
              "type": "uint256",
              "internalType": "Address"
            },
            {
              "name": "makerAsset",
              "type": "uint256",
              "internalType": "Address"
            },
            {
              "name": "takerAsset",
              "type": "uint256",
              "internalType": "Address"
            },
            {
              "name": "makingAmount",
              "type": "uint256",
              "internalType": "uint256"
            },
            {
              "name": "takingAmount",
              "type": "uint256",
              "internalType": "uint256"
            },
            {
              "name": "makerTraits",
              "type": "uint256",
              "internalType": "MakerTraits"
            }
          ]
        },
        {
          "name": "signature",
          "type": "bytes",
          "internalType": "bytes"
        },
        {
          "name": "amount",
          "type": "uint256",
          "internalType": "uint256"
        },
        {
          "name": "takerTraits",
          "type": "uint256",
          "internalType": "TakerTraits"
        },
        {
          "name": "args",
          "type": "bytes",
          "internalType": "bytes"
        }
      ],
      "outputs": [
        {
          "name": "",
          "type": "uint256",
          "internalType": "uint256"
        },
        {
          "name": "",
          "type": "uint256",
          "internalType": "uint256"
        },
        {
          "name": "",
          "type": "bytes32",
          "internalType": "bytes32"
        }
      ],
      "stateMutability": "nonpayable"
    },
    {
      "type": "function",
      "name": "fillOrder",
      "inputs": [
        {
          "name": "order",
          "type": "tuple",
          "internalType": "struct IOrderMixin.Order",
          "components": [
            {
              "name": "salt",
              "type": "uint256",
              "internalType": "uint256"
            },
            {
              "name": "maker",
              "type": "uint256",
              "internalType": "Address"
            },
            {
              "name": "receiver",
              "type": "uint256",
              "internalType": "Address"
            },
            {
              "name": "makerAsset",
              "type": "uint256",
              "internalType": "Address"
            },
            {
              "name": "takerAsset",
              "type": "uint256",
              "internalType": "Address"
            },
            {
              "name": "makingAmount",
              "type": "uint256",
              "internalType": "uint256"
            },
            {
              "name": "takingAmount",
              "type": "uint256",
              "internalType": "uint256"
            },
            {
              "name": "makerTraits",
              "type": "uint256",
              "internalType": "MakerTraits"
            }
          ]
        },
        {
          "name": "r",
          "type": "bytes32",
          "internalType": "bytes32"
        },
        {
          "name": "vs",
          "type": "bytes32",
          "internalType": "bytes32"
        },
        {
          "name": "amount",
          "type": "uint256",
          "internalType": "uint256"
        },
        {
          "name": "takerTraits",
          "type": "uint256",
          "internalType": "TakerTraits"
        }
      ],
      "outputs": [
        {
          "name": "",
          "type": "uint256",
          "internalType": "uint256"
        },
        {
          "name": "",
          "type": "uint256",
          "internalType": "uint256"
        },
        {
          "name": "",
          "type": "bytes32",
          "internalType": "bytes32"
        }
      ],
      "stateMutability": "payable"
    },
    {
      "type": "function",
      "name": "fillOrderArgs",
      "inputs": [
        {
          "name": "order",
          "type": "tuple",
          "internalType": "struct IOrderMixin.Order",
          "components": [
            {
              "name": "salt",
              "type": "uint256",
              "internalType": "uint256"
            },
            {
              "name": "maker",
              "type": "uint256",
              "internalType": "Address"
            },
            {
              "name": "receiver",
              "type": "uint256",
              "internalType": "Address"
            },
            {
              "name": "makerAsset",
              "type": "uint256",
              "internalType": "Address"
            },
            {
              "name": "takerAsset",
              "type": "uint256",
              "internalType": "Address"
            },
            {
              "name": "makingAmount",
              "type": "uint256",
              "internalType": "uint256"
            },
            {
              "name": "takingAmount",
              "type": "uint256",
              "internalType": "uint256"
            },
            {
              "name": "makerTraits",
              "type": "uint256",
              "internalType": "MakerTraits"
            }
          ]
        },
        {
          "name": "r",
          "type": "bytes32",
          "internalType": "bytes32"
        },
        {
          "name": "vs",
          "type": "bytes32",
          "internalType": "bytes32"
        },
        {
          "name": "amount",
          "type": "uint256",
          "internalType": "uint256"
        },
        {
          "name": "takerTraits",
          "type": "uint256",
          "internalType": "TakerTraits"
        },
        {
          "name": "args",
          "type": "bytes",
          "internalType": "bytes"
        }
      ],
      "outputs": [
        {
          "name": "",
          "type": "uint256",
          "internalType": "uint256"
        },
        {
          "name": "",
          "type": "uint256",
          "internalType": "uint256"
        },
        {
          "name": "",
          "type": "bytes32",
          "internalType": "bytes32"
        }
      ],
      "stateMutability": "payable"
    },
    {
      "type": "function",
      "name": "gt",
      "inputs": [
        {
          "name": "value",
          "type": "uint256",
          "internalType": "uint256"
        },
        {
          "name": "data",
          "type": "bytes",
          "internalType": "bytes"
        }
      ],
      "outputs": [
        {
          "name": "",
          "type": "bool",
          "internalType": "bool"
        }
      ],
      "stateMutability": "view"
    },
    {
      "type": "function",
      "name": "hashOrder",
      "inputs": [
        {
          "name": "order",
          "type": "tuple",
          "internalType": "struct IOrderMixin.Order",
          "components": [
            {
              "name": "salt",
              "type": "uint256",
              "internalType": "uint256"
            },
            {
              "name": "maker",
              "type": "uint256",
              "internalType": "Address"
            },
            {
              "name": "receiver",
              "type": "uint256",
              "internalType": "Address"
            },
            {
              "name": "makerAsset",
              "type": "uint256",
              "internalType": "Address"
            },
            {
              "name": "takerAsset",
              "type": "uint256",
              "internalType": "Address"
            },
            {
              "name": "makingAmount",
              "type": "uint256",
              "internalType": "uint256"
            },
            {
              "name": "takingAmount",
              "type": "uint256",
              "internalType": "uint256"
            },
            {
              "name": "makerTraits",
              "type": "uint256",
              "internalType": "MakerTraits"
            }
          ]
        }
      ],
      "outputs": [
        {
          "name": "",
          "type": "bytes32",
          "internalType": "bytes32"
        }
      ],
      "stateMutability": "view"
    },
    {
      "type": "function",
      "name": "increaseEpoch",
      "inputs": [
        {
          "name": "series",
          "type": "uint96",
          "internalType": "uint96"
        }
      ],
      "outputs": [],
      "stateMutability": "nonpayable"
    },
    {
      "type": "function",
      "name": "lt",
      "inputs": [
        {
          "name": "value",
          "type": "uint256",
          "internalType": "uint256"
        },
        {
          "name": "data",
          "type": "bytes",
          "internalType": "bytes"
        }
      ],
      "outputs": [
        {
          "name": "",
          "type": "bool",
          "internalType": "bool"
        }
      ],
      "stateMutability": "view"
    },
    {
      "type": "function",
      "name": "not",
      "inputs": [
        {
          "name": "data",
          "type": "bytes",
          "internalType": "bytes"
        }
      ],
      "outputs": [
        {
          "name": "",
          "type": "bool",
          "internalType": "bool"
        }
      ],
      "stateMutability": "view"
    },
    {
      "type": "function",
      "name": "or",
      "inputs": [
        {
          "name": "offsets",
          "type": "uint256",
          "internalType": "uint256"
        },
        {
          "name": "data",
          "type": "bytes",
          "internalType": "bytes"
        }
      ],
      "outputs": [
        {
          "name": "",
          "type": "bool",
          "internalType": "bool"
        }
      ],
      "stateMutability": "view"
    },
    {
      "type": "function",
      "name": "paused",
      "inputs": [],
      "outputs": [
        {
          "name": "",
          "type": "bool",
          "internalType": "bool"
        }
      ],
      "stateMutability": "view"
    },
    {
      "type": "function",
      "name": "permitAndCall",
      "inputs": [
        {
          "name": "permit",
          "type": "bytes",
          "internalType": "bytes"
        },
        {
          "name": "action",
          "type": "bytes",
          "internalType": "bytes"
        }
      ],
      "outputs": [],
      "stateMutability": "payable"
    },
    {
      "type": "function",
      "name": "rawRemainingInvalidatorForOrder",
      "inputs": [
        {
          "name": "maker",
          "type": "address",
          "internalType": "address"
        },
        {
          "name": "orderHash",
          "type": "bytes32",
          "internalType": "bytes32"
        }
      ],
      "outputs": [
        {
          "name": "",
          "type": "uint256",
          "internalType": "uint256"
        }
      ],
      "stateMutability": "view"
    },
    {
      "type": "function",
      "name": "remainingInvalidatorForOrder",
      "inputs": [
        {
          "name": "maker",
          "type": "address",
          "internalType": "address"
        },
        {
          "name": "orderHash",
          "type": "bytes32",
          "internalType": "bytes32"
        }
      ],
      "outputs": [
        {
          "name": "",
          "type": "uint256",
          "internalType": "uint256"
        }
      ],
      "stateMutability": "view"
    },
    {
      "type": "function",
      "name": "simulate",
      "inputs": [
        {
          "name": "target",
          "type": "address",
          "internalType": "address"
        },
        {
          "name": "data",
          "type": "bytes",
          "internalType": "bytes"
        }
      ],
      "outputs": [],
      "stateMutability": "nonpayable"
    },
    {
      "type": "event",
      "name": "BitInvalidatorUpdated",
      "inputs": [
        {
          "name": "maker",
          "type": "address",
          "indexed": true,
          "internalType": "address"
        },
        {
          "name": "slotIndex",
          "type": "uint256",
          "indexed": false,
          "internalType": "uint256"
        },
        {
          "name": "slotValue",
          "type": "uint256",
          "indexed": false,
          "internalType": "uint256"
        }
      ],
      "anonymous": false
    },
    {
      "type": "event",
      "name": "EIP712DomainChanged",
      "inputs": [],
      "anonymous": false
    },
    {
      "type": "event",
      "name": "EpochIncreased",
      "inputs": [
        {
          "name": "maker",
          "type": "address",
          "indexed": true,
          "internalType": "address"
        },
        {
          "name": "series",
          "type": "uint256",
          "indexed": false,
          "internalType": "uint256"
        },
        {
          "name": "newEpoch",
          "type": "uint256",
          "indexed": false,
          "internalType": "uint256"
        }
      ],
      "anonymous": false
    },
    {
      "type": "event",
      "name": "OrderCancelled",
      "inputs": [
        {
          "name": "orderHash",
          "type": "bytes32",
          "indexed": false,
          "internalType": "bytes32"
        }
      ],
      "anonymous": false
    },
    {
      "type": "event",
      "name": "OrderFilled",
      "inputs": [
        {
          "name": "orderHash",
          "type": "bytes32",
          "indexed": false,
          "internalType": "bytes32"
        },
        {
          "name": "remainingAmount",
          "type": "uint256",
          "indexed": false,
          "internalType": "uint256"
        }
      ],
      "anonymous": false
    },
    {
      "type": "event",
      "name": "Paused",
      "inputs": [
        {
          "name": "account",
          "type": "address",
          "indexed": false,
          "internalType": "address"
        }
      ],
      "anonymous": false
    },
    {
      "type": "event",
      "name": "Unpaused",
      "inputs": [
        {
          "name": "account",
          "type": "address",
          "indexed": false,
          "internalType": "address"
        }
      ],
      "anonymous": false
    },
    {
      "type": "error",
      "name": "AdvanceEpochFailed",
      "inputs": []
    },
    {
      "type": "error",
      "name": "ArbitraryStaticCallFailed",
      "inputs": []
    },
    {
      "type": "error",
      "name": "BadSignature",
      "inputs": []
    },
    {
      "type": "error",
      "name": "BitInvalidatedOrder",
      "inputs": []
    },
    {
      "type": "error",
      "name": "ETHTransferFailed",
      "inputs": []
    },
    {
      "type": "error",
      "name": "EnforcedPause",
      "inputs": []
    },
    {
      "type": "error",
      "name": "EpochManagerAndBitInvalidatorsAreIncompatible",
      "inputs": []
    },
    {
      "type": "error",
      "name": "EthDepositRejected",
      "inputs": []
    },
    {
      "type": "error",
      "name": "ExpectedPause",
      "inputs": []
    },
    {
      "type": "error",
      "name": "InvalidMsgValue",
      "inputs": []
    },
    {
      "type": "error",
      "name": "InvalidPermit2Transfer",
      "inputs": []
    },
    {
      "type": "error",
      "name": "InvalidShortString",
      "inputs": []
    },
    {
      "type": "error",
      "name": "InvalidatedOrder",
      "inputs": []
    },
    {
      "type": "error",
      "name": "MakingAmountTooLow",
      "inputs": []
    },
    {
      "type": "error",
      "name": "MismatchArraysLengths",
      "inputs": []
    },
    {
      "type": "error",
      "name": "OrderExpired",
      "inputs": []
    },
    {
      "type": "error",
      "name": "OrderIsNotSuitableForMassInvalidation",
      "inputs": []
    },
    {
      "type": "error",
      "name": "PartialFillNotAllowed",
      "inputs": []
    },
    {
      "type": "error",
      "name": "Permit2TransferAmountTooHigh",
      "inputs": []
    },
    {
      "type": "error",
      "name": "PredicateIsNotTrue",
      "inputs": []
    },
    {
      "type": "error",
      "name": "PrivateOrder",
      "inputs": []
    },
    {
      "type": "error",
      "name": "ReentrancyDetected",
      "inputs": []
    },
    {
      "type": "error",
      "name": "RemainingInvalidatedOrder",
      "inputs": []
    },
    {
      "type": "error",
      "name": "SafeTransferFailed",
      "inputs": []
    },
    {
      "type": "error",
      "name": "SafeTransferFromFailed",
      "inputs": []
    },
    {
      "type": "error",
      "name": "SimulationResults",
      "inputs": [
        {
          "name": "success",
          "type": "bool",
          "internalType": "bool"
        },
        {
          "name": "res",
          "type": "bytes",
          "internalType": "bytes"
        }
      ]
    },
    {
      "type": "error",
      "name": "StringTooLong",
      "inputs": [
        {
          "name": "str",
          "type": "string",
          "internalType": "string"
        }
      ]
    },
    {
      "type": "error",
      "name": "SwapWithZeroAmount",
      "inputs": []
    },
    {
      "type": "error",
      "name": "TakingAmountExceeded",
      "inputs": []
    },
    {
      "type": "error",
      "name": "TakingAmountTooHigh",
      "inputs": []
    },
    {
      "type": "error",
      "name": "TransferFromMakerToTakerFailed",
      "inputs": []
    },
    {
      "type": "error",
      "name": "TransferFromTakerToMakerFailed",
      "inputs": []
    },
    {
      "type": "error",
      "name": "WrongSeriesNonce",
      "inputs": []
    }
  ],
  "bytecode": {
    "object": "0x6101a0346200021657601f620058b038819003918201601f19168301926001600160401b0392909183851183861017620002025781602092849260409788528339810103126200021657516001600160a01b0381168082036200021657835162000069816200021a565b60148152602081017f4272696467652d4d652d4e6f74204f726465727300000000000000000000000081528551620000a1816200021a565b6001815260208101603160f81b8152620000bb8462000236565b92610120938452620000cd8362000400565b94610140958652519020918260e052519020610100978189524660a05280519160208301937f8b73c3c69bb8fe3d512ecc4cf759cc79239f7b179b0ffacaa9a75d522b39400f85528284015260608301524660808301523060a083015260a0825260c08201978289109089111762000202578790525190206080523060c05260ff19600354166003556101609283526101809384526153089586620005a8873960805186613ed4015260a05186613fa0015260c05186613ea5015260e05186613f2301525185613f49015251846128bb015251836128e40152518260310152518181816104fb015281816105e3015281816108a301528181610920015281816109ab01528181610ad501528181610c9f0152818161170d015281816122ee01528181612eab01528181612f9301526131580152f35b634e487b7160e01b5f52604160045260245ffd5b5f80fd5b604081019081106001600160401b038211176200020257604052565b805160209081811015620002d05750601f8251116200027157808251920151908083106200026357501790565b825f19910360031b1b161790565b90604051809263305a27a960e01b82528060048301528251908160248401525f935b828510620002b6575050604492505f838284010152601f80199101168101030190fd5b848101820151868601604401529381019385935062000293565b906001600160401b03821162000202575f54926001938481811c91168015620003f5575b83821014620003e157601f8111620003ab575b5081601f84116001146200034557509282939183925f9462000339575b50501b915f199060031b1c1916175f5560ff90565b015192505f8062000324565b919083601f1981165f8052845f20945f905b8883831062000390575050501062000377575b505050811b015f5560ff90565b01515f1960f88460031b161c191690555f80806200036a565b85870151885590960195948501948793509081019062000357565b5f805284601f845f20920160051c820191601f860160051c015b828110620003d557505062000307565b5f8155018590620003c5565b634e487b7160e01b5f52602260045260245ffd5b90607f1690620002f4565b8051602090818110156200048c5750601f8251116200042d57808251920151908083106200026357501790565b90604051809263305a27a960e01b82528060048301528251908160248401525f935b82851062000472575050604492505f838284010152601f80199101168101030190fd5b84810182015186860160440152938101938593506200044f565b9192916001600160401b038111620002025760019182548381811c911680156200059c575b82821014620003e157601f811162000566575b5080601f8311600114620005025750819293945f92620004f6575b50505f19600383901b1c191690821b17905560ff90565b015190505f80620004df565b90601f19831695845f52825f20925f905b8882106200054e575050838596971062000535575b505050811b01905560ff90565b01515f1960f88460031b161c191690555f808062000528565b80878596829496860151815501950193019062000513565b835f5283601f835f20920160051c820191601f850160051c015b82811062000590575050620004c4565b5f815501849062000580565b90607f1690620004b156fe6080806040526004361015610083575b50361561001a575f80fd5b73ffffffffffffffffffffffffffffffffffffffff7f000000000000000000000000000000000000000000000000000000000000000016330361005957005b60046040517f1b10b0f9000000000000000000000000000000000000000000000000000000008152fd5b5f3560e01c90816305b1ea0314613888575080630d2c7c1614613792578063143e86a71461372057806315169dec146136b15780633644e51514613671578063435b9789146135d05780634f38e2b81461359f57806356a7586814612bfc5780635816d72314612b2a5780635c975abb14612aea5780636fe7b0ba14612ab95780637426114514612aa0578063802b2ef1146129f657806384b0196e1461288857806389e7c650146127b75780639fda64bd146120db578063b68fb0201461209c578063bd61951d14612028578063bf15fcd814611fd6578063bf79795914611f61578063bfa7514314611f48578063c2a4075314611ed9578063c3cf804314611e26578063ca4ece2214611dea578063cc713a04146114d5578063ce3d710a1461145d578063f497df751461026a5763fcea9e4e146101c3575f61000f565b346102665760407ffffffffffffffffffffffffffffffffffffffffffffffffffffffffffffffffc360112610266576101fa613977565b6024356bffffffffffffffffffffffff81168103610266577fffffffffffffffffffffffff000000000000000000000000000000000000000073ffffffffffffffffffffffffffffffffffffffff9160a01b169116175f526002602052602060405f2054604051908152f35b5f80fd5b7ffffffffffffffffffffffffffffffffffffffffffffffffffffffffffffffffc36016101a08112610266576101001361026657610124356101843567ffffffffffffffff8111610266576102c66102d091369060040161399a565b9061016435613fc6565b93946102e26102dd613e8e565b614093565b936102ec856140ff565b925f9260a4358514611280575b5060ff600354166112565761030e8583614920565b901561124f575069ffffffffffffffffffff8060e435168015918215611243575b5050156112195764ffffffffff8060e43560501c16801515908161120f575b506111e5577f040000000000000000000000000000000000000000000000000000000000000060e4351661113a575b50846110d1575b610164357f80000000000000000000000000000000000000000000000000000000000000001615610fc057836101443510846101443518028418966103cc87868a8987614c13565b9876ffffffffffffffffffffffffffffffffffffffffffffff610164351680610f38575b505b7f800000000000000000000000000000000000000000000000000000000000000060e43516151580610f2c575b610f025789890215610ed85761043660e435613e12565b15610ea05773ffffffffffffffffffffffffffffffffffffffff602435165f52600460205260405f2063ffffffff60e43560801c165f528060205260405f205490600160ff60e43560781c161b600160ff60e43560781c161b831614610e765763ffffffff60e43560801c165f52602052600160ff60e43560781c161b1760405f20555b7f100000000000000000000000000000000000000000000000000000000000000060e43516610d74575b73ffffffffffffffffffffffffffffffffffffffff7f00000000000000000000000000000000000000000000000000000000000000001673ffffffffffffffffffffffffffffffffffffffff606435161480610d46575b8015610d4057305b8a60e4357f01000000000000000000000000000000000000000000000000000000000000001615610cc957506105798987615013565b9050610afe578a6105bb9173ffffffffffffffffffffffffffffffffffffffff6024351673ffffffffffffffffffffffffffffffffffffffff60643516614d7b565b610c98575b5060138111610bd3575b505073ffffffffffffffffffffffffffffffffffffffff7f00000000000000000000000000000000000000000000000000000000000000001673ffffffffffffffffffffffffffffffffffffffff6084351614808091610bca575b15610a4b5750863410610a21578634116109e0575b60e4357e80000000000000000000000000000000000000000000000000000000000000161561087857818080808a610670614ebe565b5af161067a613d87565b501561084e5785935b7f080000000000000000000000000000000000000000000000000000000000000060e4351661070e575b50505060406106e161070a94937ffec331350fce78ba658e082a71da20ac9f8d798a99b3c79681c8440cbfe77e0793614355565b8151908482526020820152a1604051938493846040919493926060820195825260208201520152565b0390f35b909192935061071d81836150b0565b90919060243573ffffffffffffffffffffffffffffffffffffffff168184601382116107f0575b505073ffffffffffffffffffffffffffffffffffffffff1692833b156107ec57858995936107aa8296948b948b8f6040519b8c9a8b998a987f462ebde2000000000000000000000000000000000000000000000000000000008a52339260048b01614206565b03925af180156107e15790859392916107c4575b806106ad565b819293506107d190613bc5565b6107de57908184926107be565b80fd5b6040513d84823e3d90fd5b8580fd5b8195508093506108009250613b12565b60601c90836014116107ec57601401927fffffffffffffffffffffffffffffffffffffffffffffffffffffffffffffffec019073ffffffffffffffffffffffffffffffffffffffff8b610744565b60046040517fb12d13eb000000000000000000000000000000000000000000000000000000008152fd5b7fd0e30db000000000000000000000000000000000000000000000000000000000825281806004818a7f00000000000000000000000000000000000000000000000000000000000000005af1156109d35760208260446108d6614ebe565b604051907fa9059cbb00000000000000000000000000000000000000000000000000000000825260048201528a60248201528273ffffffffffffffffffffffffffffffffffffffff7f0000000000000000000000000000000000000000000000000000000000000000165af18061097e575b15610954578593610683565b60046040517ffb7f5079000000000000000000000000000000000000000000000000000000008152fd5b503d15610994576001825114601f3d1116610948565b73ffffffffffffffffffffffffffffffffffffffff7f0000000000000000000000000000000000000000000000000000000000000000163b1515610948565b50604051903d90823e3d90fd5b818080808a3403335af16109f2613d87565b5061063a5760046040517fb12d13eb000000000000000000000000000000000000000000000000000000008152fd5b60046040517f1841b4e1000000000000000000000000000000000000000000000000000000008152fd5b9334610a215784610b9d575b8415610b8f5730945b88610164357f10000000000000000000000000000000000000000000000000000000000000001615610b285750610a978284615062565b9050610afe57610ac28989973373ffffffffffffffffffffffffffffffffffffffff60843516614d7b565b1561068357610af9610ad2614ebe565b897f0000000000000000000000000000000000000000000000000000000000000000614e56565b610683565b60046040517f2aefd060000000000000000000000000000000000000000000000000000000008152fd5b610b599196610b378486615062565b9290913373ffffffffffffffffffffffffffffffffffffffff60843516614d0f565b15610b65578694610ac2565b60046040517f478a5205000000000000000000000000000000000000000000000000000000008152fd5b610b97614ebe565b94610a60565b60e4357e800000000000000000000000000000000000000000000000000000000000001615159450610a57565b50341515610625565b610bdd8183613b12565b60601c9181601411610c9457823b15610c945787927fffffffffffffffffffffffffffffffffffffffffffffffffffffffffffffffec868094610c5f6014958f8f8e918e918d6040519d8e9c8d9b8c9a7fadf38ba1000000000000000000000000000000000000000000000000000000008c5201970195339260048b01614206565b03925af18015610c8957908391156105ca57610c7a90613bc5565b610c855781886105ca565b5080fd5b6040513d85823e3d90fd5b8480fd5b610cc390897f0000000000000000000000000000000000000000000000000000000000000000614e56565b896105c0565b610d1191610cd78b89615013565b92909173ffffffffffffffffffffffffffffffffffffffff6024351673ffffffffffffffffffffffffffffffffffffffff60643516614d0f565b6105bb575b60046040517f70a03f48000000000000000000000000000000000000000000000000000000008152fd5b81610543565b507f40000000000000000000000000000000000000000000000000000000000000006101643516151561053b565b610d7e8785614fc2565b73ffffffffffffffffffffffffffffffffffffffff6024358116828460138211610e2c575b50508181163b15610266578b5f8f938f96610df88f91978f9885998f996040519c8d9b8c9a8b987f0986bdd5000000000000000000000000000000000000000000000000000000008a52339260048b01614206565b0393165af18015610e2157610e0e575b506104e4565b610e19919550613bc5565b5f938a610e08565b6040513d5f823e3d90fd5b819550809450610e3c9250613b12565b60601c918360141161026657601401927fffffffffffffffffffffffffffffffffffffffffffffffffffffffffffffffec01918e80610da3565b60046040517fa4f62a96000000000000000000000000000000000000000000000000000000008152fd5b73ffffffffffffffffffffffffffffffffffffffff602435165f52600560205260405f20885f526020528886031960405f20556104ba565b60046040517ffba5a276000000000000000000000000000000000000000000000000000000008152fd5b60046040517f8ef0017c000000000000000000000000000000000000000000000000000000008152fd5b5060a43589141561041f565b610144358a03610f79578a11610f4f575b8a6103f0565b60046040517ffb8ae129000000000000000000000000000000000000000000000000000000008152fd5b610f908a610f8a610144358e614188565b92614188565b1015610f495760046040517ffb8ae129000000000000000000000000000000000000000000000000000000008152fd5b610144359796610fd387868b8987614b26565b97858911611087575b76ffffffffffffffffffffffffffffffffffffffffffffff610164351680611005575b506103f2565b610144358b0361104657891061101c575b8a610fff565b60046040517f481ea392000000000000000000000000000000000000000000000000000000008152fd5b6110578b610f8a610144358d614188565b11156110165760046040517f481ea392000000000000000000000000000000000000000000000000000000008152fd5b98509650839661109a8786808987614c13565b98610144358a1115610fdc575b60046040517f7f902a93000000000000000000000000000000000000000000000000000000008152fd5b6110db8583614f41565b806110e8575b5050610384565b6110f29130613e6a565b8161112f575b50156111055788806110e1565b60046040517fb6629c02000000000000000000000000000000000000000000000000000000008152fd5b6001915014896110f8565b61114560e435613e12565b6111bb5760e43560a081811c8316901b60243573ffffffffffffffffffffffffffffffffffffffff16175f9081526002602052604090205460789190911c90911603611191578861037d565b60046040517fe3e8b052000000000000000000000000000000000000000000000000000000008152fd5b60046040517f9e744e25000000000000000000000000000000000000000000000000000000008152fd5b60046040517fc56873ba000000000000000000000000000000000000000000000000000000008152fd5b905042118a61034e565b60046040517fd4dfdafe000000000000000000000000000000000000000000000000000000008152fd5b3316149050898061032f565b5f5260045ffd5b60046040517fd93c0665000000000000000000000000000000000000000000000000000000008152fd5b73ffffffffffffffffffffffffffffffffffffffff9081602435169182159182156113c7575b505061139d577f200000000000000000000000000000000000000000000000000000000000000061016435166102f9576112e086846150ff565b9060148210156112f2575b50506102f9565b6112fc8282613b12565b60601c826014116102665760147fffffffffffffffffffffffffffffffffffffffffffffffffffffffffffffffec61133a9401920190843091614362565b5061134660e435613e12565b15611353575b80806112eb565b5f52600560205260405f20865f5260205260405f2054611373578861134c565b60046040517fc5f2be51000000000000000000000000000000000000000000000000000000008152fd5b60046040517f5cd5d233000000000000000000000000000000000000000000000000000000008152fd5b9091505f907f7fffffffffffffffffffffffffffffffffffffffffffffffffffffffffffffff81167f7fffffffffffffffffffffffffffffff5d576e7357a4501ddfe92f46681b20a18110611424575b5050168114158a806112a6565b602092505f91608091604051918d835260ff1c601b0185830152610104356040830152606082015282805260015afa505f518b80611417565b346102665760607ffffffffffffffffffffffffffffffffffffffffffffffffffffffffffffffffc3601126102665760206114cb611499613977565b73ffffffffffffffffffffffffffffffffffffffff1660243560a01b175f908152600260205260409020546044351490565b6040519015158152f35b34610266577ffffffffffffffffffffffffffffffffffffffffffffffffffffffffffffffffc360161016081126102665761010013610266576101043567ffffffffffffffff81116102665761152f90369060040161399a565b6101243591905f610144356115456102dd613e8e565b9161154f836140ff565b9360a43595868614611d62575b505060ff6003541661125657611570614a2e565b901561124f575060e4359169ffffffffffffffffffff8084168015918215611d56575b5050156112195764ffffffffff808460501c168015159081611d4c575b506111e5577f04000000000000000000000000000000000000000000000000000000000000008416611cfb575b507f80000000000000000000000000000000000000000000000000000000000000009581871615611c46578588108689180286189661161f8860c43584615250565b9876ffffffffffffffffffffffffffffffffffffffffffffff84169081611bf1575b50505b841615159081611be6575b50610f025786860215610ed85761166583613e12565b15611bae5773ffffffffffffffffffffffffffffffffffffffff602435165f52600460205260405f2063ffffffff8460801c16600160ff8660781c161b91815f528060205260405f2054918380841614610e76575f526020521760405f20555b7f100000000000000000000000000000000000000000000000000000000000000091828416611b26575b73ffffffffffffffffffffffffffffffffffffffff928360643516927f0000000000000000000000000000000000000000000000000000000000000000928584169485811480611afb575b8015611af557305b7f01000000000000000000000000000000000000000000000000000000000000008a1615611acb576117748480615013565b9050610afe578c61178c9185948b6024351690614d7b565b611abb575b6107de575090898992866084351686811493848095611ab4575b156119cb57505050915050610a215787907e8000000000000000000000000000000000000000000000000000000000000085161561190057505f8080935080926117f3614ebe565b5af16117fd613d87565b501561084e577f080000000000000000000000000000000000000000000000000000000000000085925b1661185e575b5060406106e17ffec331350fce78ba658e082a71da20ac9f8d798a99b3c79681c8440cbfe77e079261070a95614355565b90506024351691823b15610266575f60405180947f462ebde20000000000000000000000000000000000000000000000000000000082528183816118a9878c8c338c600487016142b2565b03925af1908115610e21576106e18560409261070a967ffec331350fce78ba658e082a71da20ac9f8d798a99b3c79681c8440cbfe77e07956118f1575b50955092505061182d565b6118fa90613bc5565b896118e6565b60045f809381937fd0e30db00000000000000000000000000000000000000000000000000000000083525af115610e215760205f604461193e614ebe565b604051907fa9059cbb00000000000000000000000000000000000000000000000000000000825260048201528a602482015282855af190816119a9575b5015610954577f08000000000000000000000000000000000000000000000000000000000000008592611827565b90503d156119c3575060015f5114601f3d11165b8761197b565b3b15156119bd565b90919293809599975094611a89575b8415611a7b5730925b1615611a3e5791611a1a917f0800000000000000000000000000000000000000000000000000000000000000969594933390614d7b565b611a25575b50611827565b611a389089611a32614ebe565b91614e56565b88611a1f565b611a4d93959497503390614cbc565b15610b655786937f080000000000000000000000000000000000000000000000000000000000000092611a1a565b611a83614ebe565b926119e3565b7e800000000000000000000000000000000000000000000000000000000000008716151594506119da565b505f6117ab565b611ac6338c87614e56565b611791565b611ae991928d611adb8680615013565b9390928c6024351690614d0f565b15610d1657819061178c565b33611742565b507f40000000000000000000000000000000000000000000000000000000000000008316151561173a565b73ffffffffffffffffffffffffffffffffffffffff60243516803b15610266575f8988928a838a611b88604051978896879586947f0986bdd50000000000000000000000000000000000000000000000000000000086523390600487016142b2565b03925af18015610e2157611b9d575b506116ef565b611ba79150613bc5565b5f88611b97565b73ffffffffffffffffffffffffffffffffffffffff602435165f52600560205260405f20845f526020528585031960405f20556116c5565b90508614158861164f565b89818103611c095750508911610f4f575b8980611641565b610f8a611c16928d614188565b1015611c025760046040517ffb8ae129000000000000000000000000000000000000000000000000000000008152fd5b60c4359688611c56818a85615229565b98888a11611cdd575b5076ffffffffffffffffffffffffffffffffffffffffffffff84169081611c88575b5050611644565b8a818103611ca0575050881061101c575b8980611c81565b610f8a611cad928c614188565b1115611c995760046040517f481ea392000000000000000000000000000000000000000000000000000000008152fd5b98509850611ced87809984615250565b98808a116110a7578a611c5f565b611d0484613e12565b6111bb5760a084811c8216901b60243573ffffffffffffffffffffffffffffffffffffffff16175f90815260026020526040902054607885901c9091160361119157876115dd565b90504211896115b0565b33161490508880611593565b60205f809360405190807f1626ba7e00000000000000000000000000000000000000000000000000000000958684528a60048501526040602485015281604485015260648401376064019073ffffffffffffffffffffffffffffffffffffffff602435165afa611dda575b501561139d57868061155c565b5f51143d60201416905087611dcd565b34610266576020611e07611dfd366139c8565b9092919230613e6a565b81929192611e1c575b50506040519015158152f35b1090508280611e10565b346102665760207ffffffffffffffffffffffffffffffffffffffffffffffffffffffffffffffffc36011261026657611e5d61395c565b7fffffffffffffffffffffffff00000000000000000000000000000000000000008160a01b1633175f52600260205260405f2060018154018091556bffffffffffffffffffffffff6040519216825260208201527f099133aefc2c2d1e56f8ef3622ec8e80979a0713fc9c4e1497740efcf809939660403392a2005b346102665760407ffffffffffffffffffffffffffffffffffffffffffffffffffffffffffffffffc3601126102665773ffffffffffffffffffffffffffffffffffffffff611f25613977565b165f52600560205260405f206024355f52602052602060405f2054604051908152f35b346102665760206114cb611f5b366139c8565b91613db6565b346102665760207ffffffffffffffffffffffffffffffffffffffffffffffffffffffffffffffffc3601126102665760043567ffffffffffffffff811161026657611fbc611fb5602092369060040161399a565b9030613e6a565b81611fcd575b506040519015158152f35b90501582611fc2565b3461026657611fed611fe736613aa7565b91613e6a565b9015611ffe57602090604051908152f35b60046040517f1f1b8f61000000000000000000000000000000000000000000000000000000008152fd5b34610266575f8061203836613aa7565b90816040519283928337810184815203915af4612053613d87565b906120986040519283927f1934afc800000000000000000000000000000000000000000000000000000000845215156004840152604060248401526044830190613a1a565b0390fd5b346102665760407ffffffffffffffffffffffffffffffffffffffffffffffffffffffffffffffffc360112610266576120d9602435600435613c73565b005b7ffffffffffffffffffffffffffffffffffffffffffffffffffffffffffffffffc3601610180811261026657610100136102665761014435610124355f610164356121276102dd613e8e565b90612131826140ff565b9260a435948585146126ee575b5060ff6003541661125657612151614a2e565b901561124f575060e4359169ffffffffffffffffffff80841680159182156126e2575b5050156112195764ffffffffff808460501c1680151590816126d8575b506111e5577f04000000000000000000000000000000000000000000000000000000000000008416612687575b507f800000000000000000000000000000000000000000000000000000000000000095818716156125d257858810868918028618966122008860c43584615250565b9876ffffffffffffffffffffffffffffffffffffffffffffff8416908161257d575b50505b841615159081612572575b50610f025786860215610ed85761224683613e12565b1561253a5773ffffffffffffffffffffffffffffffffffffffff602435165f52600460205260405f2063ffffffff8460801c16600160ff8660781c161b91815f528060205260405f2054918380841614610e76575f526020521760405f20555b7f1000000000000000000000000000000000000000000000000000000000000000918284166124b2575b73ffffffffffffffffffffffffffffffffffffffff928360643516927f0000000000000000000000000000000000000000000000000000000000000000928584169485811480612487575b801561248157305b7f01000000000000000000000000000000000000000000000000000000000000008a1615612465576123558480615013565b9050610afe578c61236d9185948b6024351690614d7b565b612455575b6107de575060843585169184831491828061244c575b156123f95750505050873410610a215787908134116123d9575b7e8000000000000000000000000000000000000000000000000000000000000085161561190057505f8080935080926117f3614ebe565b905f808080933403335af16123ec613d87565b501561084e5787906123a2565b90919296945034610a215789968b9284611a89578415611a7b5730921615611a3e5791611a1a917f0800000000000000000000000000000000000000000000000000000000000000969594933390614d7b565b50341515612388565b612460338c87614e56565b612372565b61247591928d611adb8680615013565b15610d1657819061236d565b33612323565b507f40000000000000000000000000000000000000000000000000000000000000008316151561231b565b73ffffffffffffffffffffffffffffffffffffffff60243516803b15610266575f8988928a838a612514604051978896879586947f0986bdd50000000000000000000000000000000000000000000000000000000086523390600487016142b2565b03925af18015610e2157612529575b506122d0565b6125339150613bc5565b5f88612523565b73ffffffffffffffffffffffffffffffffffffffff602435165f52600560205260405f20845f526020528585031960405f20556122a6565b905086141588612230565b898181036125955750508911610f4f575b8980612222565b610f8a6125a2928d614188565b101561258e5760046040517ffb8ae129000000000000000000000000000000000000000000000000000000008152fd5b60c43596886125e2818a85615229565b98888a11612669575b5076ffffffffffffffffffffffffffffffffffffffffffffff84169081612614575b5050612225565b8a81810361262c575050881061101c575b898061260d565b610f8a612639928c614188565b11156126255760046040517f481ea392000000000000000000000000000000000000000000000000000000008152fd5b9850985061267987809984615250565b98808a116110a7578a6125eb565b61269084613e12565b6111bb5760a084811c8216901b60243573ffffffffffffffffffffffffffffffffffffffff16175f90815260026020526040902054607885901c9091160361119157876121be565b9050421189612191565b33161490508880612174565b73ffffffffffffffffffffffffffffffffffffffff8060243516908115928315612720575b50505061139d578661213e565b909192505f907f7fffffffffffffffffffffffffffffffffffffffffffffffffffffffffffffff81167f7fffffffffffffffffffffffffffffff5d576e7357a4501ddfe92f46681b20a1811061277e575b5050161415878080612713565b602092505f91608091604051918a835260ff1c601b0185830152610104356040830152606082015282805260015afa505f518980612771565b346102665760407ffffffffffffffffffffffffffffffffffffffffffffffffffffffffffffffffc3601126102665767ffffffffffffffff60043581811161026657612807903690600401613a76565b909160243590811161026657612821903690600401613a76565b9081830361285e575f5b83811061283457005b806128586128456001938789613c36565b35612851838787613c36565b3590613c73565b0161282b565b60046040517fd97cd9d8000000000000000000000000000000000000000000000000000000008152fd5b34610266575f7ffffffffffffffffffffffffffffffffffffffffffffffffffffffffffffffffc360112610266576128df7f00000000000000000000000000000000000000000000000000000000000000006146cd565b6129087f000000000000000000000000000000000000000000000000000000000000000061483e565b60405160208082019282841067ffffffffffffffff8511176129c95791602061297e859461297097966040525f84526040519788977f0f00000000000000000000000000000000000000000000000000000000000000895260e0858a015260e0890190613a1a565b908782036040890152613a1a565b914660608701523060808701525f60a087015285830360c087015251918281520192915f5b8281106129b257505050500390f35b8351855286955093810193928101926001016129a3565b7f4e487b71000000000000000000000000000000000000000000000000000000005f52604160045260245ffd5b3461026657610100807ffffffffffffffffffffffffffffffffffffffffffffffffffffffffffffffffc360112610266576042602091610120612a37613e8e565b91604051907f3af21ec5a20011b88d3b7b4ed7c806cef05a5980cf34974bcd53566a131f7e4c825260048683013720604051917f190100000000000000000000000000000000000000000000000000000000000083526002830152602282015220604051908152f35b346102665760206114cb612ab3366139c8565b91613b6e565b34610266576020612acc611dfd366139c8565b81929192612ae05750506040519015158152f35b1490508280611e10565b34610266575f7ffffffffffffffffffffffffffffffffffffffffffffffffffffffffffffffffc36011261026657602060ff600354166040519015158152f35b60407ffffffffffffffffffffffffffffffffffffffffffffffffffffffffffffffffc3601126102665767ffffffffffffffff60043581811161026657612b7590369060040161399a565b9160243590811161026657612b8e90369060040161399a565b612b9b8484959395613b12565b60601c9180601411610266575f93849360147fffffffffffffffffffffffffffffffffffffffffffffffffffffffffffffffec612bdf940192019030903390614362565b508060405194853783305af43d5f833e15612bf8573d90f35b3d90fd5b34610266577ffffffffffffffffffffffffffffffffffffffffffffffffffffffffffffffffc3601610180811261026657610100136102665767ffffffffffffffff6101043581811161026657612c5790369060040161399a565b90916101643590811161026657612c75612c7f91369060040161399a565b9061014435613fc6565b949192612c916102dd97929597613e8e565b94612c9b866140ff565b935f9360a4358614613517575b505060ff6003541661125657612cbe8583614920565b901561124f575069ffffffffffffffffffff8060e43516801591821561350b575b5050156112195764ffffffffff8060e43560501c168015159081613501575b506111e5577f040000000000000000000000000000000000000000000000000000000000000060e435166134aa575b508461346b575b610144357f800000000000000000000000000000000000000000000000000000000000000016156133855783610124351084610124351802841896612d7c87868a8987614c13565b9876ffffffffffffffffffffffffffffffffffffffffffffff61014435168061332d575b505b7f800000000000000000000000000000000000000000000000000000000000000060e43516151580613321575b610f025789890215610ed857612de660e435613e12565b156132e95773ffffffffffffffffffffffffffffffffffffffff602435165f52600460205260405f2063ffffffff60e43560801c165f528060205260405f205490600160ff60e43560781c161b600160ff60e43560781c161b831614610e765763ffffffff60e43560801c165f52602052600160ff60e43560781c161b1760405f20555b7f100000000000000000000000000000000000000000000000000000000000000060e435166131f2575b73ffffffffffffffffffffffffffffffffffffffff7f00000000000000000000000000000000000000000000000000000000000000001673ffffffffffffffffffffffffffffffffffffffff6064351614806131c4575b80156131be57305b8a60e4357f010000000000000000000000000000000000000000000000000000000000000016156131825750612f298987615013565b9050610afe578a612f6b9173ffffffffffffffffffffffffffffffffffffffff6024351673ffffffffffffffffffffffffffffffffffffffff60643516614d7b565b613151575b506013811161309f575b505073ffffffffffffffffffffffffffffffffffffffff7f00000000000000000000000000000000000000000000000000000000000000001673ffffffffffffffffffffffffffffffffffffffff6084351614808091613098575b15613016575086610a215760e4357e80000000000000000000000000000000000000000000000000000000000000161561087857818080808a610670614ebe565b938461306b575b841561305d5730945b88610144357f10000000000000000000000000000000000000000000000000000000000000001615610b285750610a978284615062565b613065614ebe565b94613026565b60e4357e80000000000000000000000000000000000000000000000000000000000000161515945061301d565b505f612fd5565b6130a98183613b12565b60601c9181601411610c9457823b15610c945787927fffffffffffffffffffffffffffffffffffffffffffffffffffffffffffffffec86809461312b6014958f8f8e918e918d6040519d8e9c8d9b8c9a7fadf38ba1000000000000000000000000000000000000000000000000000000008c5201970195339260048b01614206565b03925af18015610c895790839115612f7a5761314690613bc5565b610c85578188612f7a565b61317c90897f0000000000000000000000000000000000000000000000000000000000000000614e56565b89612f70565b61319091610cd78b89615013565b612f6b5760046040517f70a03f48000000000000000000000000000000000000000000000000000000008152fd5b81612ef3565b507f400000000000000000000000000000000000000000000000000000000000000061014435161515612eeb565b6131fc8785614fc2565b73ffffffffffffffffffffffffffffffffffffffff602435811682846013821161329f575b50508181163b15610266578b5f8f938f966132768f91978f9885998f996040519c8d9b8c9a8b987f0986bdd5000000000000000000000000000000000000000000000000000000008a52339260048b01614206565b0393165af18015610e215761328c575b50612e94565b613297919550613bc5565b5f938a613286565b8195508094506132af9250613b12565b60601c918360141161026657601401927fffffffffffffffffffffffffffffffffffffffffffffffffffffffffffffffec01918e80613221565b73ffffffffffffffffffffffffffffffffffffffff602435165f52600560205260405f20885f526020528886031960405f2055612e6a565b5060a435891415612dcf565b610124358a03613344578a11610f4f575b8a612da0565b6133558a610f8a610124358e614188565b101561333e5760046040517ffb8ae129000000000000000000000000000000000000000000000000000000008152fd5b61012435979661339887868b8987614b26565b97858911613422575b76ffffffffffffffffffffffffffffffffffffffffffffff6101443516806133ca575b50612da2565b610124358b036133e157891061101c575b8a6133c4565b6133f28b610f8a610124358d614188565b11156133db5760046040517f481ea392000000000000000000000000000000000000000000000000000000008152fd5b9850965083966134358786808987614c13565b98610124358a11156133a15760046040517f7f902a93000000000000000000000000000000000000000000000000000000008152fd5b6134758583614f41565b80613482575b5050612d34565b61348c9130613e6a565b8161349f575b501561110557888061347b565b600191501489613492565b6134b560e435613e12565b6111bb5760e43560a081811c8316901b60243573ffffffffffffffffffffffffffffffffffffffff16175f9081526002602052604090205460789190911c909116036111915788612d2d565b905042118a612cfe565b33161490508980612cdf565b60205f809360405190807f1626ba7e00000000000000000000000000000000000000000000000000000000958684528d60048501526040602485015281604485015260648401376064019073ffffffffffffffffffffffffffffffffffffffff602435165afa61358f575b501561139d578880612ca8565b5f51143d60201416905089613582565b346102665760206135b2611dfd366139c8565b819291926135c65750506040519015158152f35b1190508280611e10565b346102665760407ffffffffffffffffffffffffffffffffffffffffffffffffffffffffffffffffc3601126102665773ffffffffffffffffffffffffffffffffffffffff61361c613977565b165f52600560205260405f206024355f5260205260405f205480156136475760209060405190198152f35b60046040517faa3eef95000000000000000000000000000000000000000000000000000000008152fd5b34610266575f7ffffffffffffffffffffffffffffffffffffffffffffffffffffffffffffffffc3601126102665760206136a9613e8e565b604051908152f35b346102665760207ffffffffffffffffffffffffffffffffffffffffffffffffffffffffffffffffc3601126102665760043567ffffffffffffffff811161026657613705611fb5602092369060040161399a565b8161371557506040519015158152f35b600191501482611fc2565b346102665760407ffffffffffffffffffffffffffffffffffffffffffffffffffffffffffffffffc3601126102665773ffffffffffffffffffffffffffffffffffffffff61376c613977565b165f52600460205260405f2060243560081c5f52602052602060405f2054604051908152f35b346102665760407ffffffffffffffffffffffffffffffffffffffffffffffffffffffffffffffffc360112610266576137c961395c565b6024358015801561387e575b613854577fffffffffffffffffffffffff00000000000000000000000000000000000000008260a01b1633175f52600260205260405f20908154018091556bffffffffffffffffffffffff6040519216825260208201527f099133aefc2c2d1e56f8ef3622ec8e80979a0713fc9c4e1497740efcf809939660403392a2005b60046040517f555fbbbf000000000000000000000000000000000000000000000000000000008152fd5b5060ff81116137d5565b346102665760407ffffffffffffffffffffffffffffffffffffffffffffffffffffffffffffffffc36011261026657600435906138c482613e12565b156139345750335f52600460205260405f209063ffffffff8160801c1691825f5260205260405f2090600160ff6024359260781c161b1781541780915560405191825260208201527fcda0f7e73d07bdb14b141f2cf4745926629a1b63e7c6a3dd8a80232cb459a85060403392a2005b807f86bffaca0000000000000000000000000000000000000000000000000000000060049252fd5b600435906bffffffffffffffffffffffff8216820361026657565b6004359073ffffffffffffffffffffffffffffffffffffffff8216820361026657565b9181601f840112156102665782359167ffffffffffffffff8311610266576020838186019501011161026657565b9060407ffffffffffffffffffffffffffffffffffffffffffffffffffffffffffffffffc83011261026657600435916024359067ffffffffffffffff821161026657613a169160040161399a565b9091565b91908251928382525f5b848110613a625750507fffffffffffffffffffffffffffffffffffffffffffffffffffffffffffffffe0601f845f6020809697860101520116010190565b602081830181015184830182015201613a24565b9181601f840112156102665782359167ffffffffffffffff8311610266576020808501948460051b01011161026657565b9060407ffffffffffffffffffffffffffffffffffffffffffffffffffffffffffffffffc8301126102665760043573ffffffffffffffffffffffffffffffffffffffff8116810361026657916024359067ffffffffffffffff821161026657613a169160040161399a565b7fffffffffffffffffffffffffffffffffffffffff0000000000000000000000009035818116939260148110613b4757505050565b60140360031b82901b16169150565b90939293848311610266578411610266578101920390565b929091925f5b63ffffffff8216908115613bbb57611fb582613b91928888613b56565b81613bb0575b50613ba6579060201c90613b74565b5050915050600190565b60019150145f613b97565b5050509150505f90565b67ffffffffffffffff81116129c957604052565b6040810190811067ffffffffffffffff8211176129c957604052565b90601f7fffffffffffffffffffffffffffffffffffffffffffffffffffffffffffffffe0910116810190811067ffffffffffffffff8211176129c957604052565b9190811015613c465760051b0190565b7f4e487b71000000000000000000000000000000000000000000000000000000005f52603260045260245ffd5b90613c7d82613e12565b15613ce85750335f52600460205260405f209063ffffffff8160801c1691825f52602052600160ff60405f209260781c161b81541780915560405191825260208201527fcda0f7e73d07bdb14b141f2cf4745926629a1b63e7c6a3dd8a80232cb459a85060403392a2565b7f5152abf959f6564662358c2e52b702259b78bac5ee7842a0f01937e670efcc7d9150602090335f526005825260405f20815f5282527fffffffffffffffffffffffffffffffffffffffffffffffffffffffffffffffff60405f2055604051908152a1565b67ffffffffffffffff81116129c957601f017fffffffffffffffffffffffffffffffffffffffffffffffffffffffffffffffe01660200190565b3d15613db1573d90613d9882613d4d565b91613da66040519384613bf5565b82523d5f602084013e565b606090565b929091925f5b63ffffffff8216908115613e0757611fb582613dd9928888613b56565b9015908115613dfb575b50613df2579060201c90613dbc565b50509150505f90565b6001915014155f613de3565b505050915050600190565b7f800000000000000000000000000000000000000000000000000000000000000081161590811591613e42575090565b7f40000000000000000000000000000000000000000000000000000000000000009150161590565b915f906020928294826040519283375afa60203d14169182613e8857565b5f519150565b73ffffffffffffffffffffffffffffffffffffffff7f000000000000000000000000000000000000000000000000000000000000000016301480613f9d575b15613ef6577f000000000000000000000000000000000000000000000000000000000000000090565b60405160208101907f8b73c3c69bb8fe3d512ecc4cf759cc79239f7b179b0ffacaa9a75d522b39400f82527f000000000000000000000000000000000000000000000000000000000000000060408201527f000000000000000000000000000000000000000000000000000000000000000060608201524660808201523060a082015260a0815260c0810181811067ffffffffffffffff8211176129c95760405251902090565b507f00000000000000000000000000000000000000000000000000000000000000004614613ecd565b909291907f080000000000000000000000000000000000000000000000000000000000000081161561408a57613ffc8285613b12565b60601c93826014116102665760147fffffffffffffffffffffffffffffffffffffffffffffffffffffffffffffffec91019201925b62ffffff60e083901c811694851561407c5780861161026657614058908596818197613b56565b919091935b60c81c16928315614072578311610266579190565b505090505f905f90565b92939094505f945f9461405d565b33939192614031565b6042906101206040517f3af21ec5a20011b88d3b7b4ed7c806cef05a5980cf34974bcd53566a131f7e4c81526101006004602083013720604051917f19010000000000000000000000000000000000000000000000000000000000008352600283015260228201522090565b61410a60e435613e12565b15614147575060a435905b811561411d57565b60046040517ff71fbda2000000000000000000000000000000000000000000000000000000008152fd5b73ffffffffffffffffffffffffffffffffffffffff602435165f52600560205260405f20905f5260205261418260405f205460a4359061490f565b90614115565b8181029291811591840414171561419b57565b7f4e487b71000000000000000000000000000000000000000000000000000000005f52601160045260245ffd5b601f82602094937fffffffffffffffffffffffffffffffffffffffffffffffffffffffffffffffe093818652868601375f8582860101520116010190565b94919361428173ffffffffffffffffffffffffffffffffffffffff926142af9b99969a98959a6101e06142728a6004358152602435602082015260443560408201526064356060820152608435608082015260a43560a082015260c43560c082015260e060e435910152565b806101008b01528901916141c8565b98610120870152166101408501526101608401526101808301526101a08201526101c08185039101526141c8565b90565b935f9373ffffffffffffffffffffffffffffffffffffffff610220979394866101e06143178a6004358152602435602082015260443560408201526064356060820152608435608082015260a43560a082015260c43560c082015260e060e435910152565b806101008b015289015261020095610120890152166101408701526101608601526101808501526101a0840152806101c0840152820152015f815290565b9190820391821161419b57565b9190935f94938594614372614eec565b90604051948491826064146146185782604814614557578260e01461451d5782610100146144e1578260601461441b575050610160146143e157508185926004927f9fd5a6cf0000000000000000000000000000000000000000000000000000000086528386013701925af190565b906101649450859250610160907f2b67b57000000000000000000000000000000000000000000000000000000000855260048501375af190565b88955060409250906101649760209495927f2b67b5700000000000000000000000000000000000000000000000000000000089526004890152602488015260148260508901377fffffffffffffffffffffffffffffffffffffffffffffffffffffffffffffffff65ffffffffffff9181601485013560e01c01831660648a0152601884013560e01c60848a015260a4890152601c83013560e01c011660c487015261010060e48701528161010487015282808201610124880137016101448501375af190565b5050505084915092610100610104947f8fcbaf0c00000000000000000000000000000000000000000000000000000000855260048501375af190565b505050508491509260e060e4947fd505accf00000000000000000000000000000000000000000000000000000000855260048501375af190565b8895507f7fffffffffffffffffffffffffffffffffffffffffffffffffffffffffffffff9350610104979492507f8fcbaf0c0000000000000000000000000000000000000000000000000000000087526004870152602486015260206008602883013592803560e01c60448901527fffffffffffffffffffffffffffffffffffffffffffffffffffffffffffffffff600482013560e01c016064890152600160848901528360ff1c601b0160a48901520160c48701371660e48401525af190565b8895507f7fffffffffffffffffffffffffffffffffffffffffffffffffffffffffffffff935060e4979492507fd505accf0000000000000000000000000000000000000000000000000000000087526004870152602486015260206024604483013592828160448a01377fffffffffffffffffffffffffffffffffffffffffffffffffffffffffffffffff8382013560e01c0160648901528360ff1c601b0160848901520160a48701371660c48401525af190565b60ff81146147235760ff811690601f82116146f957604051916146ef83613bd9565b8252602082015290565b60046040517fb3512b0c000000000000000000000000000000000000000000000000000000008152fd5b506040515f8054906001908260011c60018416928315614834575b60209485831085146148075782875286949081156147c8575060011461476d575b50506142af92500382613bf5565b5f8080527f290decd9548b62a8d60345a988386fc84ba6bc95484008f6362f93160ef3e56395935091905b8183106147b05750506142af93508201015f8061475f565b85548784018501529485019486945091830191614798565b90506142af9593507fffffffffffffffffffffffffffffffffffffffffffffffffffffffffffffff0091501682840152151560051b8201015f8061475f565b7f4e487b71000000000000000000000000000000000000000000000000000000005f52602260045260245ffd5b90607f169061473e565b60ff81146148605760ff811690601f82116146f957604051916146ef83613bd9565b506040515f60018054918260011c60018416928315614905575b60209485831085146148075782875286949081156147c857506001146148a85750506142af92500382613bf5565b9093915060015f527fb10e2d527612073b26eecdfd717e6a320cf44b4afac2b0732d9fcbe2b7fa0cf6935f915b8183106148ed5750506142af93508201015f8061475f565b855487840185015294850194869450918301916148d5565b90607f169061487a565b90811561491b57501990565b905090565b9060e4357f02000000000000000000000000000000000000000000000000000000000000001615614a015780156149d95761495a81613d4d565b906149686040519283613bf5565b8082526020820192368282011161026657815f9260209286378301015273ffffffffffffffffffffffffffffffffffffffff918291519020169060043516036149b3575b6001905f90565b5f907fdc11ee6b0000000000000000000000000000000000000000000000000000000090565b50505f907fb2d25e490000000000000000000000000000000000000000000000000000000090565b9050156149ac575f907f74896a7b0000000000000000000000000000000000000000000000000000000090565b5f60e4357f02000000000000000000000000000000000000000000000000000000000000001615614a7e57907fb2d25e490000000000000000000000000000000000000000000000000000000090565b506001905f90565b93614afe73ffffffffffffffffffffffffffffffffffffffff926142af9a98959997946101c0614aef896004358152602435602082015260443560408201526064356060820152608435608082015260a43560a082015260c43560c082015260e060e435910152565b806101008a01528801916141c8565b97610120860152166101408401526101608301526101808201526101a08185039101526141c8565b909291614b338483615150565b90928115614bfd57614b458285613b12565b60601c9382601411610266576020966014967fffffffffffffffffffffffffffffffffffffffffffffffffffffffffffffffec95614bb9946040519b8c9a8b998a997f1d9671c3000000000000000000000000000000000000000000000000000000008b5201960194339260048a01614a86565b03915afa908115610e21575f91614bce575090565b90506020813d602011614bf5575b81614be960209383613bf5565b81010312610266575190565b3d9150614bdc565b5050925050506142af915060c43560a435615229565b909291614c2084836151a1565b90928115614ca657614c328285613b12565b60601c9382601411610266576020966014967fffffffffffffffffffffffffffffffffffffffffffffffffffffffffffffffec95614bb9946040519b8c9a8b998a997fd7ff8a80000000000000000000000000000000000000000000000000000000008b5201960194339260048a01614a86565b5050925050506142af915060c43560a435615250565b905f6064926020958295604051947f23b872dd0000000000000000000000000000000000000000000000000000000086526004860152602485015260448401525af160015f5114601f3d11163d15171690565b9294805f9581602098889596604051977f23b872dd000000000000000000000000000000000000000000000000000000008952600489015260248801526044870152614d6f575b5050606401925af160015f5114601f3d11163d15171690565b6064850137805f614d56565b90919273ffffffffffffffffffffffffffffffffffffffff8111614e2c575f928392608492614da8614eec565b96604051937f36c78516000000000000000000000000000000000000000000000000000000008552600485015260248401526044830152606482015282855af19081614e21575b5015614df757565b60046040517ff4059071000000000000000000000000000000000000000000000000000000008152fd5b90503b15155f614def565b60046040517f8112e119000000000000000000000000000000000000000000000000000000008152fd5b5f6024818080949695967f2e1a7d4d000000000000000000000000000000000000000000000000000000008252876004525af115610e21573073ffffffffffffffffffffffffffffffffffffffff821603614eaf575050565b5f80809381935af115610e2157565b73ffffffffffffffffffffffffffffffffffffffff6044358116908115614ee3575090565b90506024351690565b468061014414614f2d578061012c14614f2d5761010414614f1a576e22d473030f116ddee9f6b43ac78ba390565b6e225e31d15943971f47ad3022f714fa90565b506e225e31d15943971f47ad3022f714fa90565b91909160208310614fba578035907fffffffffffffffffffffffffffffffffffffffffffffffffffffffffffffffe063ffffffff808460601c169360801c1694018411614f92578101602001920390565b7f9605a010000000000000000000000000000000000000000000000000000000005f5260045ffd5b505f91508190565b91909160208310614fba578035907fffffffffffffffffffffffffffffffffffffffffffffffffffffffffffffffe063ffffffff808460a01c169360c01c1694018411614f92578101602001920390565b91909160208310614fba578035907fffffffffffffffffffffffffffffffffffffffffffffffffffffffffffffffe063ffffffff928060201b8416931694018411614f92578101602001920390565b91909160208310614fba578035907fffffffffffffffffffffffffffffffffffffffffffffffffffffffffffffffe063ffffffff8084169360201c1694018411614f92578101602001920390565b91909160208310614fba578035907fffffffffffffffffffffffffffffffffffffffffffffffffffffffffffffffe063ffffffff8360c01c169260e01c94018411614f92578101602001920390565b91909160208310614fba578035907fffffffffffffffffffffffffffffffffffffffffffffffffffffffffffffffe063ffffffff808460801c169360a01c1694018411614f92578101602001920390565b91909160208310614fba578035907fffffffffffffffffffffffffffffffffffffffffffffffffffffffffffffffe063ffffffff808460201c169360401c1694018411614f92578101602001920390565b91909160208310614fba578035907fffffffffffffffffffffffffffffffffffffffffffffffffffffffffffffffe063ffffffff808460401c169360601c1694018411614f92578101602001920390565b81156151fc570490565b7f4e487b71000000000000000000000000000000000000000000000000000000005f52601260045260245ffd5b80831760801c1561524657615241906142af93614188565b6151f2565b6142af92026151f2565b9080831760801c156152a4576152669192614188565b9080820180921161419b577fffffffffffffffffffffffffffffffffffffffffffffffffffffffffffffffff820191821161419b576142af916151f2565b6142af920281017fffffffffffffffffffffffffffffffffffffffffffffffffffffffffffffffff016151f256fea2646970667358221220656e17240b01e8015218cc6347449a477977474a9ab5da3ccfc52758448611e464736f6c63430008170033",
    "linkReferences": {}
  },
  "methodIdentifiers": {
    "DOMAIN_SEPARATOR()": "3644e515",
    "advanceEpoch(uint96,uint256)": "0d2c7c16",
    "and(uint256,bytes)": "bfa75143",
    "arbitraryStaticCall(address,bytes)": "bf15fcd8",
    "bitInvalidatorForOrder(address,uint256)": "143e86a7",
    "bitsInvalidateForOrder(uint256,uint256)": "05b1ea03",
    "cancelOrder(uint256,bytes32)": "b68fb020",
    "cancelOrders(uint256[],bytes32[])": "89e7c650",
    "checkPredicate(bytes)": "15169dec",
    "eip712Domain()": "84b0196e",
    "epoch(address,uint96)": "fcea9e4e",
    "epochEquals(address,uint256,uint256)": "ce3d710a",
    "eq(uint256,bytes)": "6fe7b0ba",
    "fillContractOrder((uint256,uint256,uint256,uint256,uint256,uint256,uint256,uint256),bytes,uint256,uint256)": "cc713a04",
    "fillContractOrderArgs((uint256,uint256,uint256,uint256,uint256,uint256,uint256,uint256),bytes,uint256,uint256,bytes)": "56a75868",
    "fillOrder((uint256,uint256,uint256,uint256,uint256,uint256,uint256,uint256),bytes32,bytes32,uint256,uint256)": "9fda64bd",
    "fillOrderArgs((uint256,uint256,uint256,uint256,uint256,uint256,uint256,uint256),bytes32,bytes32,uint256,uint256,bytes)": "f497df75",
    "gt(uint256,bytes)": "4f38e2b8",
    "hashOrder((uint256,uint256,uint256,uint256,uint256,uint256,uint256,uint256))": "802b2ef1",
    "increaseEpoch(uint96)": "c3cf8043",
    "lt(uint256,bytes)": "ca4ece22",
    "not(bytes)": "bf797959",
    "or(uint256,bytes)": "74261145",
    "paused()": "5c975abb",
    "permitAndCall(bytes,bytes)": "5816d723",
    "rawRemainingInvalidatorForOrder(address,bytes32)": "c2a40753",
    "remainingInvalidatorForOrder(address,bytes32)": "435b9789",
    "simulate(address,bytes)": "bd61951d"
  },
  "id": 20
}