{"abi":[{"type":"constructor","inputs":[{"name":"_weth","type":"address","internalType":"contract IWETH"}],"stateMutability":"nonpayable"},{"type":"receive","stateMutability":"payable"},{"type":"function","name":"DOMAIN_SEPARATOR","inputs":[],"outputs":[{"name":"","type":"bytes32","internalType":"bytes32"}],"stateMutability":"view"},{"type":"function","name":"advanceEpoch","inputs":[{"name":"series","type":"uint96","internalType":"uint96"},{"name":"amount","type":"uint256","internalType":"uint256"}],"outputs":[],"stateMutability":"nonpayable"},{"type":"function","name":"and","inputs":[{"name":"offsets","type":"uint256","internalType":"uint256"},{"name":"data","type":"bytes","internalType":"bytes"}],"outputs":[{"name":"","type":"bool","internalType":"bool"}],"stateMutability":"view"},{"type":"function","name":"arbitraryStaticCall","inputs":[{"name":"target","type":"address","internalType":"address"},{"name":"data","type":"bytes","internalType":"bytes"}],"outputs":[{"name":"","type":"uint256","internalType":"uint256"}],"stateMutability":"view"},{"type":"function","name":"bitInvalidatorForOrder","inputs":[{"name":"maker","type":"address","internalType":"address"},{"name":"slot","type":"uint256","internalType":"uint256"}],"outputs":[{"name":"","type":"uint256","internalType":"uint256"}],"stateMutability":"view"},{"type":"function","name":"bitsInvalidateForOrder","inputs":[{"name":"makerTraits","type":"uint256","internalType":"MakerTraits"},{"name":"additionalMask","type":"uint256","internalType":"uint256"}],"outputs":[],"stateMutability":"nonpayable"},{"type":"function","name":"cancelOrder","inputs":[{"name":"makerTraits","type":"uint256","internalType":"MakerTraits"},{"name":"orderHash","type":"bytes32","internalType":"bytes32"}],"outputs":[],"stateMutability":"nonpayable"},{"type":"function","name":"cancelOrders","inputs":[{"name":"makerTraits","type":"uint256[]","internalType":"MakerTraits[]"},{"name":"orderHashes","type":"bytes32[]","internalType":"bytes32[]"}],"outputs":[],"stateMutability":"nonpayable"},{"type":"function","name":"checkPredicate","inputs":[{"name":"predicate","type":"bytes","internalType":"bytes"}],"outputs":[{"name":"","type":"bool","internalType":"bool"}],"stateMutability":"view"},{"type":"function","name":"eip712Domain","inputs":[],"outputs":[{"name":"fields","type":"bytes1","internalType":"bytes1"},{"name":"name","type":"string","internalType":"string"},{"name":"version","type":"string","internalType":"string"},{"name":"chainId","type":"uint256","internalType":"uint256"},{"name":"verifyingContract","type":"address","internalType":"address"},{"name":"salt","type":"bytes32","internalType":"bytes32"},{"name":"extensions","type":"uint256[]","internalType":"uint256[]"}],"stateMutability":"view"},{"type":"function","name":"epoch","inputs":[{"name":"maker","type":"address","internalType":"address"},{"name":"series","type":"uint96","internalType":"uint96"}],"outputs":[{"name":"","type":"uint256","internalType":"uint256"}],"stateMutability":"view"},{"type":"function","name":"epochEquals","inputs":[{"name":"maker","type":"address","internalType":"address"},{"name":"series","type":"uint256","internalType":"uint256"},{"name":"makerEpoch","type":"uint256","internalType":"uint256"}],"outputs":[{"name":"","type":"bool","internalType":"bool"}],"stateMutability":"view"},{"type":"function","name":"eq","inputs":[{"name":"value","type":"uint256","internalType":"uint256"},{"name":"data","type":"bytes","internalType":"bytes"}],"outputs":[{"name":"","type":"bool","internalType":"bool"}],"stateMutability":"view"},{"type":"function","name":"fillContractOrder","inputs":[{"name":"order","type":"tuple","internalType":"struct IOrderMixin.Order","components":[{"name":"salt","type":"uint256","internalType":"uint256"},{"name":"maker","type":"uint256","internalType":"Address"},{"name":"receiver","type":"uint256","internalType":"Address"},{"name":"makerAsset","type":"uint256","internalType":"Address"},{"name":"takerAsset","type":"uint256","internalType":"Address"},{"name":"makingAmount","type":"uint256","internalType":"uint256"},{"name":"takingAmount","type":"uint256","internalType":"uint256"},{"name":"makerTraits","type":"uint256","internalType":"MakerTraits"}]},{"name":"signature","type":"bytes","internalType":"bytes"},{"name":"amount","type":"uint256","internalType":"uint256"},{"name":"takerTraits","type":"uint256","internalType":"TakerTraits"}],"outputs":[{"name":"","type":"uint256","internalType":"uint256"},{"name":"","type":"uint256","internalType":"uint256"},{"name":"","type":"bytes32","internalType":"bytes32"}],"stateMutability":"nonpayable"},{"type":"function","name":"fillContractOrderArgs","inputs":[{"name":"order","type":"tuple","internalType":"struct IOrderMixin.Order","components":[{"name":"salt","type":"uint256","internalType":"uint256"},{"name":"maker","type":"uint256","internalType":"Address"},{"name":"receiver","type":"uint256","internalType":"Address"},{"name":"makerAsset","type":"uint256","internalType":"Address"},{"name":"takerAsset","type":"uint256","internalType":"Address"},{"name":"makingAmount","type":"uint256","internalType":"uint256"},{"name":"takingAmount","type":"uint256","internalType":"uint256"},{"name":"makerTraits","type":"uint256","internalType":"MakerTraits"}]},{"name":"signature","type":"bytes","internalType":"bytes"},{"name":"amount","type":"uint256","internalType":"uint256"},{"name":"takerTraits","type":"uint256","internalType":"TakerTraits"},{"name":"args","type":"bytes","internalType":"bytes"}],"outputs":[{"name":"","type":"uint256","internalType":"uint256"},{"name":"","type":"uint256","internalType":"uint256"},{"name":"","type":"bytes32","internalType":"bytes32"}],"stateMutability":"nonpayable"},{"type":"function","name":"fillOrder","inputs":[{"name":"order","type":"tuple","internalType":"struct IOrderMixin.Order","components":[{"name":"salt","type":"uint256","internalType":"uint256"},{"name":"maker","type":"uint256","internalType":"Address"},{"name":"receiver","type":"uint256","internalType":"Address"},{"name":"makerAsset","type":"uint256","internalType":"Address"},{"name":"takerAsset","type":"uint256","internalType":"Address"},{"name":"makingAmount","type":"uint256","internalType":"uint256"},{"name":"takingAmount","type":"uint256","internalType":"uint256"},{"name":"makerTraits","type":"uint256","internalType":"MakerTraits"}]},{"name":"r","type":"bytes32","internalType":"bytes32"},{"name":"vs","type":"bytes32","internalType":"bytes32"},{"name":"amount","type":"uint256","internalType":"uint256"},{"name":"takerTraits","type":"uint256","internalType":"TakerTraits"}],"outputs":[{"name":"","type":"uint256","internalType":"uint256"},{"name":"","type":"uint256","internalType":"uint256"},{"name":"","type":"bytes32","internalType":"bytes32"}],"stateMutability":"payable"},{"type":"function","name":"fillOrderArgs","inputs":[{"name":"order","type":"tuple","internalType":"struct IOrderMixin.Order","components":[{"name":"salt","type":"uint256","internalType":"uint256"},{"name":"maker","type":"uint256","internalType":"Address"},{"name":"receiver","type":"uint256","internalType":"Address"},{"name":"makerAsset","type":"uint256","internalType":"Address"},{"name":"takerAsset","type":"uint256","internalType":"Address"},{"name":"makingAmount","type":"uint256","internalType":"uint256"},{"name":"takingAmount","type":"uint256","internalType":"uint256"},{"name":"makerTraits","type":"uint256","internalType":"MakerTraits"}]},{"name":"r","type":"bytes32","internalType":"bytes32"},{"name":"vs","type":"bytes32","internalType":"bytes32"},{"name":"amount","type":"uint256","internalType":"uint256"},{"name":"takerTraits","type":"uint256","internalType":"TakerTraits"},{"name":"args","type":"bytes","internalType":"bytes"}],"outputs":[{"name":"","type":"uint256","internalType":"uint256"},{"name":"","type":"uint256","internalType":"uint256"},{"name":"","type":"bytes32","internalType":"bytes32"}],"stateMutability":"payable"},{"type":"function","name":"gt","inputs":[{"name":"value","type":"uint256","internalType":"uint256"},{"name":"data","type":"bytes","internalType":"bytes"}],"outputs":[{"name":"","type":"bool","internalType":"bool"}],"stateMutability":"view"},{"type":"function","name":"hashOrder","inputs":[{"name":"order","type":"tuple","internalType":"struct IOrderMixin.Order","components":[{"name":"salt","type":"uint256","internalType":"uint256"},{"name":"maker","type":"uint256","internalType":"Address"},{"name":"receiver","type":"uint256","internalType":"Address"},{"name":"makerAsset","type":"uint256","internalType":"Address"},{"name":"takerAsset","type":"uint256","internalType":"Address"},{"name":"makingAmount","type":"uint256","internalType":"uint256"},{"name":"takingAmount","type":"uint256","internalType":"uint256"},{"name":"makerTraits","type":"uint256","internalType":"MakerTraits"}]}],"outputs":[{"name":"","type":"bytes32","internalType":"bytes32"}],"stateMutability":"view"},{"type":"function","name":"increaseEpoch","inputs":[{"name":"series","type":"uint96","internalType":"uint96"}],"outputs":[],"stateMutability":"nonpayable"},{"type":"function","name":"lt","inputs":[{"name":"value","type":"uint256","internalType":"uint256"},{"name":"data","type":"bytes","internalType":"bytes"}],"outputs":[{"name":"","type":"bool","internalType":"bool"}],"stateMutability":"view"},{"type":"function","name":"not","inputs":[{"name":"data","type":"bytes","internalType":"bytes"}],"outputs":[{"name":"","type":"bool","internalType":"bool"}],"stateMutability":"view"},{"type":"function","name":"or","inputs":[{"name":"offsets","type":"uint256","internalType":"uint256"},{"name":"data","type":"bytes","internalType":"bytes"}],"outputs":[{"name":"","type":"bool","internalType":"bool"}],"stateMutability":"view"},{"type":"function","name":"paused","inputs":[],"outputs":[{"name":"","type":"bool","internalType":"bool"}],"stateMutability":"view"},{"type":"function","name":"permitAndCall","inputs":[{"name":"permit","type":"bytes","internalType":"bytes"},{"name":"action","type":"bytes","internalType":"bytes"}],"outputs":[],"stateMutability":"payable"},{"type":"function","name":"rawRemainingInvalidatorForOrder","inputs":[{"name":"maker","type":"address","internalType":"address"},{"name":"orderHash","type":"bytes32","internalType":"bytes32"}],"outputs":[{"name":"","type":"uint256","internalType":"uint256"}],"stateMutability":"view"},{"type":"function","name":"remainingInvalidatorForOrder","inputs":[{"name":"maker","type":"address","internalType":"address"},{"name":"orderHash","type":"bytes32","internalType":"bytes32"}],"outputs":[{"name":"","type":"uint256","internalType":"uint256"}],"stateMutability":"view"},{"type":"function","name":"simulate","inputs":[{"name":"target","type":"address","internalType":"address"},{"name":"data","type":"bytes","internalType":"bytes"}],"outputs":[],"stateMutability":"nonpayable"},{"type":"event","name":"BitInvalidatorUpdated","inputs":[{"name":"maker","type":"address","indexed":true,"internalType":"address"},{"name":"slotIndex","type":"uint256","indexed":false,"internalType":"uint256"},{"name":"slotValue","type":"uint256","indexed":false,"internalType":"uint256"}],"anonymous":false},{"type":"event","name":"EIP712DomainChanged","inputs":[],"anonymous":false},{"type":"event","name":"EpochIncreased","inputs":[{"name":"maker","type":"address","indexed":true,"internalType":"address"},{"name":"series","type":"uint256","indexed":false,"internalType":"uint256"},{"name":"newEpoch","type":"uint256","indexed":false,"internalType":"uint256"}],"anonymous":false},{"type":"event","name":"OrderCancelled","inputs":[{"name":"orderHash","type":"bytes32","indexed":false,"internalType":"bytes32"}],"anonymous":false},{"type":"event","name":"OrderFilled","inputs":[{"name":"orderHash","type":"bytes32","indexed":false,"internalType":"bytes32"},{"name":"remainingAmount","type":"uint256","indexed":false,"internalType":"uint256"}],"anonymous":false},{"type":"event","name":"Paused","inputs":[{"name":"account","type":"address","indexed":false,"internalType":"address"}],"anonymous":false},{"type":"event","name":"Unpaused","inputs":[{"name":"account","type":"address","indexed":false,"internalType":"address"}],"anonymous":false},{"type":"error","name":"AdvanceEpochFailed","inputs":[]},{"type":"error","name":"ArbitraryStaticCallFailed","inputs":[]},{"type":"error","name":"BadSignature","inputs":[]},{"type":"error","name":"BitInvalidatedOrder","inputs":[]},{"type":"error","name":"ETHTransferFailed","inputs":[]},{"type":"error","name":"EnforcedPause","inputs":[]},{"type":"error","name":"EpochManagerAndBitInvalidatorsAreIncompatible","inputs":[]},{"type":"error","name":"EthDepositRejected","inputs":[]},{"type":"error","name":"ExpectedPause","inputs":[]},{"type":"error","name":"InvalidMsgValue","inputs":[]},{"type":"error","name":"InvalidPermit2Transfer","inputs":[]},{"type":"error","name":"InvalidShortString","inputs":[]},{"type":"error","name":"InvalidatedOrder","inputs":[]},{"type":"error","name":"MakingAmountTooLow","inputs":[]},{"type":"error","name":"MismatchArraysLengths","inputs":[]},{"type":"error","name":"OrderExpired","inputs":[]},{"type":"error","name":"OrderIsNotSuitableForMassInvalidation","inputs":[]},{"type":"error","name":"PartialFillNotAllowed","inputs":[]},{"type":"error","name":"Permit2TransferAmountTooHigh","inputs":[]},{"type":"error","name":"PredicateIsNotTrue","inputs":[]},{"type":"error","name":"PrivateOrder","inputs":[]},{"type":"error","name":"ReentrancyDetected","inputs":[]},{"type":"error","name":"RemainingInvalidatedOrder","inputs":[]},{"type":"error","name":"SafeTransferFailed","inputs":[]},{"type":"error","name":"SafeTransferFromFailed","inputs":[]},{"type":"error","name":"SimulationResults","inputs":[{"name":"success","type":"bool","internalType":"bool"},{"name":"res","type":"bytes","internalType":"bytes"}]},{"type":"error","name":"StringTooLong","inputs":[{"name":"str","type":"string","internalType":"string"}]},{"type":"error","name":"SwapWithZeroAmount","inputs":[]},{"type":"error","name":"TakingAmountExceeded","inputs":[]},{"type":"error","name":"TakingAmountTooHigh","inputs":[]},{"type":"error","name":"TransferFromMakerToTakerFailed","inputs":[]},{"type":"error","name":"TransferFromTakerToMakerFailed","inputs":[]},{"type":"error","name":"WrongSeriesNonce","inputs":[]}],"bytecode":{"object":"0x6101a0346200021857601f6200598c38819003918201601f19168301926001600160401b0392909183851183861017620002025781602092849260409788528339810103126200021857516001600160a01b0381168082036200021857835162000069816200021d565b60148152602081017f4272696467652d4d652d4e6f74204f726465727300000000000000000000000081528551620000a1816200021d565b6001815260208101603160f81b8152620000bb8462000239565b92610120938452620000cd836200040c565b94610140958652519020918260e052519020610100978189524660a05280519160208301937f8b73c3c69bb8fe3d512ecc4cf759cc79239f7b179b0ffacaa9a75d522b39400f85528284015260608301524660808301523060a083015260a0825260c08201978289109089111762000202578790525190206080523060c05260ff19600354166003556101609283526101809384526153d29586620005ba873960805186613f62015260a0518661402e015260c05186613f33015260e05186613fb101525185613fd70152518461290b01525183612934015251826032015251818181610507015281816105ef015281816108af0152818161092c015281816109b701528181610ae101528181610cab015281816117320152818161233001528181612f0a01528181612ff201526131b80152f35b634e487b7160e01b600052604160045260246000fd5b600080fd5b604081019081106001600160401b038211176200020257604052565b80516020919082811015620002d8575090601f8251116200027757808251920151908083106200026857501790565b82600019910360031b1b161790565b90604051809263305a27a960e01b82528060048301528251908160248401526000935b828510620002be575050604492506000838284010152601f80199101168101030190fd5b84810182015186860160440152938101938593506200029a565b6001600160401b03811162000202576000928354926001938481811c9116801562000401575b83821014620003ed57601f8111620003b7575b5081601f8411600114620003505750928293918392869462000344575b50501b916000199060031b1c191617905560ff90565b0151925038806200032e565b919083601f1981168780528488209488905b888383106200039c575050501062000382575b505050811b01905560ff90565b015160001960f88460031b161c1916905538808062000375565b85870151885590960195948501948793509081019062000362565b85805284601f848820920160051c820191601f860160051c015b828110620003e157505062000311565b878155018590620003d1565b634e487b7160e01b86526022600452602486fd5b90607f1690620002fe565b8051602090818110156200049a5750601f8251116200043957808251920151908083106200026857501790565b90604051809263305a27a960e01b82528060048301528251908160248401526000935b82851062000480575050604492506000838284010152601f80199101168101030190fd5b84810182015186860160440152938101938593506200045c565b9192916001600160401b038111620002025760019182548381811c91168015620005ae575b828210146200059857601f81116200055f575b5080601f83116001146200051257508192939460009262000506575b5050600019600383901b1c191690821b17905560ff90565b015190503880620004ee565b90601f198316958460005282600020926000905b8882106200054757505083859697106200038257505050811b01905560ff90565b80878596829496860151815501950193019062000526565b8360005283601f83600020920160051c820191601f850160051c015b8281106200058b575050620004d2565b600081550184906200057b565b634e487b7160e01b600052602260045260246000fd5b90607f1690620004bf56fe6080806040526004361015610084575b50361561001b57600080fd5b73ffffffffffffffffffffffffffffffffffffffff7f000000000000000000000000000000000000000000000000000000000000000016330361005a57005b60046040517f1b10b0f9000000000000000000000000000000000000000000000000000000008152fd5b60003560e01c90816305b1ea03146138fc575080630d2c7c1614613804578063143e86a71461378e57806315169dec1461371f5780633644e515146136de578063435b9789146136395780634f38e2b81461360857806356a7586814612c545780635816d72314612b805780635c975abb14612b3f5780636fe7b0ba14612b0e5780637426114514612af5578063802b2ef114612a4b57806384b0196e146128d757806389e7c650146128055780639fda64bd14612116578063b68fb020146120d7578063bd61951d14612062578063bf15fcd814612010578063bf79795914611f9b578063bfa7514314611f82578063c2a4075314611f0f578063c3cf804314611e5a578063ca4ece2214611e1e578063cc713a04146114f3578063ce3d710a1461147a578063f497df751461026f5763fcea9e4e146101c5573861000f565b3461026a5760407ffffffffffffffffffffffffffffffffffffffffffffffffffffffffffffffffc36011261026a576101fc6139ef565b6024356bffffffffffffffffffffffff8116810361026a577fffffffffffffffffffffffff000000000000000000000000000000000000000073ffffffffffffffffffffffffffffffffffffffff9160a01b1691161760005260026020526020604060002054604051908152f35b600080fd5b7ffffffffffffffffffffffffffffffffffffffffffffffffffffffffffffffffc36016101a0811261026a576101001361026a57610124356101843567ffffffffffffffff811161026a576102cb6102d5913690600401613a12565b9061016435614054565b93946102e76102e2613f1c565b614125565b936102f185614191565b9260009260a4358514611296575b5060ff6003541661126c5761031485836149c8565b9015611263575069ffffffffffffffffffff8060e435168015918215611257575b50501561122d5764ffffffffff8060e43560501c168015159081611223575b506111f9577f040000000000000000000000000000000000000000000000000000000000000060e4351661114d575b50846110e4575b610164357f80000000000000000000000000000000000000000000000000000000000000001615610fd357836101443510846101443518028418966103d287868a8987614cc3565b9876ffffffffffffffffffffffffffffffffffffffffffffff610164351680610f4b575b505b7f800000000000000000000000000000000000000000000000000000000000000060e43516151580610f3f575b610f155789890215610eeb5761043c60e435613e9e565b15610eaf5773ffffffffffffffffffffffffffffffffffffffff602435166000526004602052604060002063ffffffff60e43560801c166000528060205260406000205490600160ff60e43560781c161b600160ff60e43560781c161b831614610e855763ffffffff60e43560801c16600052602052600160ff60e43560781c161b176040600020555b7f100000000000000000000000000000000000000000000000000000000000000060e43516610d80575b73ffffffffffffffffffffffffffffffffffffffff7f00000000000000000000000000000000000000000000000000000000000000001673ffffffffffffffffffffffffffffffffffffffff606435161480610d52575b8015610d4c57305b8a60e4357f01000000000000000000000000000000000000000000000000000000000000001615610cd5575061058589876150db565b9050610b0a578a6105c79173ffffffffffffffffffffffffffffffffffffffff6024351673ffffffffffffffffffffffffffffffffffffffff60643516614e2f565b610ca4575b5060138111610bdf575b505073ffffffffffffffffffffffffffffffffffffffff7f00000000000000000000000000000000000000000000000000000000000000001673ffffffffffffffffffffffffffffffffffffffff6084351614808091610bd6575b15610a575750863410610a2d578634116109ec575b60e4357e80000000000000000000000000000000000000000000000000000000000000161561088457818080808a61067c614f83565b5af1610686613e0d565b501561085a5785935b7f080000000000000000000000000000000000000000000000000000000000000060e4351661071a575b50505060406106ed61071694937ffec331350fce78ba658e082a71da20ac9f8d798a99b3c79681c8440cbfe77e07936143f0565b8151908482526020820152a1604051938493846040919493926060820195825260208201520152565b0390f35b90919293506107298183615178565b90919060243573ffffffffffffffffffffffffffffffffffffffff168184601382116107fc575b505073ffffffffffffffffffffffffffffffffffffffff1692833b156107f857858995936107b68296948b948b8f6040519b8c9a8b998a987f462ebde2000000000000000000000000000000000000000000000000000000008a52339260048b0161429f565b03925af180156107ed5790859392916107d0575b806106b9565b819293506107dd90613c41565b6107ea57908184926107ca565b80fd5b6040513d84823e3d90fd5b8580fd5b81955080935061080c9250613b8c565b60601c90836014116107f857601401927fffffffffffffffffffffffffffffffffffffffffffffffffffffffffffffffec019073ffffffffffffffffffffffffffffffffffffffff8b610750565b60046040517fb12d13eb000000000000000000000000000000000000000000000000000000008152fd5b7fd0e30db000000000000000000000000000000000000000000000000000000000825281806004818a7f00000000000000000000000000000000000000000000000000000000000000005af1156109df5760208260446108e2614f83565b604051907fa9059cbb00000000000000000000000000000000000000000000000000000000825260048201528a60248201528273ffffffffffffffffffffffffffffffffffffffff7f0000000000000000000000000000000000000000000000000000000000000000165af18061098a575b1561096057859361068f565b60046040517ffb7f5079000000000000000000000000000000000000000000000000000000008152fd5b503d156109a0576001825114601f3d1116610954565b73ffffffffffffffffffffffffffffffffffffffff7f0000000000000000000000000000000000000000000000000000000000000000163b1515610954565b50604051903d90823e3d90fd5b818080808a3403335af16109fe613e0d565b506106465760046040517fb12d13eb000000000000000000000000000000000000000000000000000000008152fd5b60046040517f1841b4e1000000000000000000000000000000000000000000000000000000008152fd5b9334610a2d5784610ba9575b8415610b9b5730945b88610164357f10000000000000000000000000000000000000000000000000000000000000001615610b345750610aa3828461512a565b9050610b0a57610ace8989973373ffffffffffffffffffffffffffffffffffffffff60843516614e2f565b1561068f57610b05610ade614f83565b897f0000000000000000000000000000000000000000000000000000000000000000614f0b565b61068f565b60046040517f2aefd060000000000000000000000000000000000000000000000000000000008152fd5b610b659196610b43848661512a565b9290913373ffffffffffffffffffffffffffffffffffffffff60843516614dc1565b15610b71578694610ace565b60046040517f478a5205000000000000000000000000000000000000000000000000000000008152fd5b610ba3614f83565b94610a6c565b60e4357e800000000000000000000000000000000000000000000000000000000000001615159450610a63565b50341515610631565b610be98183613b8c565b60601c9181601411610ca057823b15610ca05787927fffffffffffffffffffffffffffffffffffffffffffffffffffffffffffffffec868094610c6b6014958f8f8e918e918d6040519d8e9c8d9b8c9a7fadf38ba1000000000000000000000000000000000000000000000000000000008c5201970195339260048b0161429f565b03925af18015610c9557908391156105d657610c8690613c41565b610c915781886105d6565b5080fd5b6040513d85823e3d90fd5b8480fd5b610ccf90897f0000000000000000000000000000000000000000000000000000000000000000614f0b565b896105cc565b610d1d91610ce38b896150db565b92909173ffffffffffffffffffffffffffffffffffffffff6024351673ffffffffffffffffffffffffffffffffffffffff60643516614dc1565b6105c7575b60046040517f70a03f48000000000000000000000000000000000000000000000000000000008152fd5b8161054f565b507f400000000000000000000000000000000000000000000000000000000000000061016435161515610547565b610d8a878561508a565b73ffffffffffffffffffffffffffffffffffffffff6024358116828460138211610e3b575b50508181163b1561026a578b60008f938f96610e058f91978f9885998f996040519c8d9b8c9a8b987f0986bdd5000000000000000000000000000000000000000000000000000000008a52339260048b0161429f565b0393165af18015610e2f57610e1b575b506104f0565b610e26919550613c41565b6000938a610e15565b6040513d6000823e3d90fd5b819550809450610e4b9250613b8c565b60601c918360141161026a57601401927fffffffffffffffffffffffffffffffffffffffffffffffffffffffffffffffec01918e80610daf565b60046040517fa4f62a96000000000000000000000000000000000000000000000000000000008152fd5b73ffffffffffffffffffffffffffffffffffffffff602435166000526005602052604060002088600052602052888603196040600020556104c6565b60046040517ffba5a276000000000000000000000000000000000000000000000000000000008152fd5b60046040517f8ef0017c000000000000000000000000000000000000000000000000000000008152fd5b5060a435891415610425565b610144358a03610f8c578a11610f62575b8a6103f6565b60046040517ffb8ae129000000000000000000000000000000000000000000000000000000008152fd5b610fa38a610f9d610144358e61421e565b9261421e565b1015610f5c5760046040517ffb8ae129000000000000000000000000000000000000000000000000000000008152fd5b610144359796610fe687868b8987614bd5565b9785891161109a575b76ffffffffffffffffffffffffffffffffffffffffffffff610164351680611018575b506103f8565b610144358b0361105957891061102f575b8a611012565b60046040517f481ea392000000000000000000000000000000000000000000000000000000008152fd5b61106a8b610f9d610144358d61421e565b11156110295760046040517f481ea392000000000000000000000000000000000000000000000000000000008152fd5b9850965083966110ad8786808987614cc3565b98610144358a1115610fef575b60046040517f7f902a93000000000000000000000000000000000000000000000000000000008152fd5b6110ee8583615006565b806110fb575b505061038a565b6111059130613ef6565b81611142575b50156111185788806110f4565b60046040517fb6629c02000000000000000000000000000000000000000000000000000000008152fd5b60019150148961110b565b61115860e435613e9e565b6111cf5760e43560a081811c8316901b60243573ffffffffffffffffffffffffffffffffffffffff161760009081526002602052604090205460789190911c909116036111a55788610383565b60046040517fe3e8b052000000000000000000000000000000000000000000000000000000008152fd5b60046040517f9e744e25000000000000000000000000000000000000000000000000000000008152fd5b60046040517fc56873ba000000000000000000000000000000000000000000000000000000008152fd5b905042118a610354565b60046040517fd4dfdafe000000000000000000000000000000000000000000000000000000008152fd5b33161490508980610335565b60005260046000fd5b60046040517fd93c0665000000000000000000000000000000000000000000000000000000008152fd5b73ffffffffffffffffffffffffffffffffffffffff9081602435169182159182156113e1575b50506113b7577f200000000000000000000000000000000000000000000000000000000000000061016435166102ff576112f686846151c7565b906014821015611308575b50506102ff565b6113128282613b8c565b60601c8260141161026a5760147fffffffffffffffffffffffffffffffffffffffffffffffffffffffffffffffec61135094019201908430916143fd565b5061135c60e435613e9e565b15611369575b8080611301565b600052600560205260406000208660005260205260406000205461138d5788611362565b60046040517fc5f2be51000000000000000000000000000000000000000000000000000000008152fd5b60046040517f5cd5d233000000000000000000000000000000000000000000000000000000008152fd5b9091506000907f7fffffffffffffffffffffffffffffffffffffffffffffffffffffffffffffff81167f7fffffffffffffffffffffffffffffff5d576e7357a4501ddfe92f46681b20a1811061143f575b5050168114158a806112bc565b60209250600091608091604051918d835260ff1c601b0185830152610104356040830152606082015282805260015afa506000518b80611432565b3461026a5760607ffffffffffffffffffffffffffffffffffffffffffffffffffffffffffffffffc36011261026a5760206114e96114b66139ef565b73ffffffffffffffffffffffffffffffffffffffff1660243560a01b176000908152600260205260409020546044351490565b6040519015158152f35b3461026a577ffffffffffffffffffffffffffffffffffffffffffffffffffffffffffffffffc3601610160811261026a576101001361026a576101043567ffffffffffffffff811161026a5761154d903690600401613a12565b6101243591906000610144356115646102e2613f1c565b9161156e83614191565b9360a43595868614611d94575b505060ff6003541661126c5761158f614adb565b9015611263575060e4359169ffffffffffffffffffff8084168015918215611d88575b50501561122d5764ffffffffff808460501c168015159081611d7e575b506111f9577f04000000000000000000000000000000000000000000000000000000000000008416611d2c575b507f80000000000000000000000000000000000000000000000000000000000000009581871615611c77578588108689180286189661163e8860c4358461531a565b9876ffffffffffffffffffffffffffffffffffffffffffffff84169081611c22575b50505b841615159081611c17575b50610f155786860215610eeb5761168483613e9e565b15611bdb5773ffffffffffffffffffffffffffffffffffffffff602435166000526004602052604060002063ffffffff8460801c16600160ff8660781c161b918160005280602052604060002054918380841614610e8557600052602052176040600020555b7f100000000000000000000000000000000000000000000000000000000000000091828416611b51575b73ffffffffffffffffffffffffffffffffffffffff928360643516927f0000000000000000000000000000000000000000000000000000000000000000928584169485811480611b26575b8015611b2057305b7f01000000000000000000000000000000000000000000000000000000000000008a1615611af65761179984806150db565b9050610b0a578c6117b19185948b6024351690614e2f565b611ae6575b6107ea575090898992866084351686811493848095611ade575b156119f557505050915050610a2d5787907e8000000000000000000000000000000000000000000000000000000000000085161561192757506000808093508092611819614f83565b5af1611823613e0d565b501561085a577f080000000000000000000000000000000000000000000000000000000000000085925b16611884575b5060406106ed7ffec331350fce78ba658e082a71da20ac9f8d798a99b3c79681c8440cbfe77e0792610716956143f0565b90506024351691823b1561026a57600060405180947f462ebde20000000000000000000000000000000000000000000000000000000082528183816118d0878c8c338c6004870161434b565b03925af1908115610e2f576106ed85604092610716967ffec331350fce78ba658e082a71da20ac9f8d798a99b3c79681c8440cbfe77e0795611918575b509550925050611853565b61192190613c41565b8961190d565b60046000809381937fd0e30db00000000000000000000000000000000000000000000000000000000083525af115610e2f57602060006044611967614f83565b604051907fa9059cbb00000000000000000000000000000000000000000000000000000000825260048201528a602482015282855af190816119d2575b5015610960577f0800000000000000000000000000000000000000000000000000000000000000859261184d565b90503d156119ed5750600160005114601f3d11165b876119a4565b3b15156119e7565b90919293809599975094611ab3575b8415611aa55730925b1615611a685791611a44917f0800000000000000000000000000000000000000000000000000000000000000969594933390614e2f565b611a4f575b5061184d565b611a629089611a5c614f83565b91614f0b565b88611a49565b611a7793959497503390614d6c565b15610b715786937f080000000000000000000000000000000000000000000000000000000000000092611a44565b611aad614f83565b92611a0d565b7e80000000000000000000000000000000000000000000000000000000000000871615159450611a04565b5060006117d0565b611af1338c87614f0b565b6117b6565b611b1491928d611b0686806150db565b9390928c6024351690614dc1565b15610d225781906117b1565b33611767565b507f40000000000000000000000000000000000000000000000000000000000000008316151561175f565b73ffffffffffffffffffffffffffffffffffffffff60243516803b1561026a5760008988928a838a611bb4604051978896879586947f0986bdd500000000000000000000000000000000000000000000000000000000865233906004870161434b565b03925af18015610e2f57611bc9575b50611714565b611bd39150613c41565b600088611bc3565b73ffffffffffffffffffffffffffffffffffffffff602435166000526005602052604060002084600052602052858503196040600020556116ea565b90508614158861166e565b89818103611c3a5750508911610f62575b8980611660565b610f9d611c47928d61421e565b1015611c335760046040517ffb8ae129000000000000000000000000000000000000000000000000000000008152fd5b60c4359688611c87818a856152f3565b98888a11611d0e575b5076ffffffffffffffffffffffffffffffffffffffffffffff84169081611cb9575b5050611663565b8a818103611cd1575050881061102f575b8980611cb2565b610f9d611cde928c61421e565b1115611cca5760046040517f481ea392000000000000000000000000000000000000000000000000000000008152fd5b98509850611d1e8780998461531a565b98808a116110ba578a611c90565b611d3584613e9e565b6111cf5760a084811c8216901b60243573ffffffffffffffffffffffffffffffffffffffff1617600090815260026020526040902054607885901c909116036111a557876115fc565b90504211896115cf565b331614905088806115b2565b60206000809360405190807f1626ba7e00000000000000000000000000000000000000000000000000000000958684528a60048501526040602485015281604485015260648401376064019073ffffffffffffffffffffffffffffffffffffffff602435165afa611e0d575b50156113b757868061157b565b600051143d60201416905087611e00565b3461026a576020611e3b611e3136613a40565b9092919230613ef6565b81929192611e50575b50506040519015158152f35b1090508280611e44565b3461026a5760207ffffffffffffffffffffffffffffffffffffffffffffffffffffffffffffffffc36011261026a57611e916139d4565b7fffffffffffffffffffffffff00000000000000000000000000000000000000008160a01b1633176000526002602052604060002060018154018091556bffffffffffffffffffffffff6040519216825260208201527f099133aefc2c2d1e56f8ef3622ec8e80979a0713fc9c4e1497740efcf809939660403392a2005b3461026a5760407ffffffffffffffffffffffffffffffffffffffffffffffffffffffffffffffffc36011261026a5773ffffffffffffffffffffffffffffffffffffffff611f5b6139ef565b16600052600560205260406000206024356000526020526020604060002054604051908152f35b3461026a5760206114e9611f9536613a40565b91613e3d565b3461026a5760207ffffffffffffffffffffffffffffffffffffffffffffffffffffffffffffffffc36011261026a5760043567ffffffffffffffff811161026a57611ff6611fef6020923690600401613a12565b9030613ef6565b81612007575b506040519015158152f35b90501582611ffc565b3461026a5761202761202136613b21565b91613ef6565b901561203857602090604051908152f35b60046040517f1f1b8f61000000000000000000000000000000000000000000000000000000008152fd5b3461026a5760008061207336613b21565b90816040519283928337810184815203915af461208e613e0d565b906120d36040519283927f1934afc800000000000000000000000000000000000000000000000000000000845215156004840152604060248401526044830190613a92565b0390fd5b3461026a5760407ffffffffffffffffffffffffffffffffffffffffffffffffffffffffffffffffc36011261026a57612114602435600435613cf1565b005b7ffffffffffffffffffffffffffffffffffffffffffffffffffffffffffffffffc3601610180811261026a576101001361026a5761014435610124356000610164356121636102e2613f1c565b9061216d82614191565b9260a43594858514612739575b5060ff6003541661126c5761218d614adb565b9015611263575060e4359169ffffffffffffffffffff808416801591821561272d575b50501561122d5764ffffffffff808460501c168015159081612723575b506111f9577f040000000000000000000000000000000000000000000000000000000000000084166126d1575b507f8000000000000000000000000000000000000000000000000000000000000000958187161561261c578588108689180286189661223c8860c4358461531a565b9876ffffffffffffffffffffffffffffffffffffffffffffff841690816125c7575b50505b8416151590816125bc575b50610f155786860215610eeb5761228283613e9e565b156125805773ffffffffffffffffffffffffffffffffffffffff602435166000526004602052604060002063ffffffff8460801c16600160ff8660781c161b918160005280602052604060002054918380841614610e8557600052602052176040600020555b7f1000000000000000000000000000000000000000000000000000000000000000918284166124f6575b73ffffffffffffffffffffffffffffffffffffffff928360643516927f00000000000000000000000000000000000000000000000000000000000000009285841694858114806124cb575b80156124c557305b7f01000000000000000000000000000000000000000000000000000000000000008a16156124a95761239784806150db565b9050610b0a578c6123af9185948b6024351690614e2f565b612499575b6107ea5750608435851691848314918280612490575b1561243d5750505050873410610a2d57879081341161241c575b7e8000000000000000000000000000000000000000000000000000000000000085161561192757506000808093508092611819614f83565b906000808080933403335af1612430613e0d565b501561085a5787906123e4565b90919296945034610a2d5789968b9284611ab3578415611aa55730921615611a685791611a44917f0800000000000000000000000000000000000000000000000000000000000000969594933390614e2f565b503415156123ca565b6124a4338c87614f0b565b6123b4565b6124b991928d611b0686806150db565b15610d225781906123af565b33612365565b507f40000000000000000000000000000000000000000000000000000000000000008316151561235d565b73ffffffffffffffffffffffffffffffffffffffff60243516803b1561026a5760008988928a838a612559604051978896879586947f0986bdd500000000000000000000000000000000000000000000000000000000865233906004870161434b565b03925af18015610e2f5761256e575b50612312565b6125789150613c41565b600088612568565b73ffffffffffffffffffffffffffffffffffffffff602435166000526005602052604060002084600052602052858503196040600020556122e8565b90508614158861226c565b898181036125df5750508911610f62575b898061225e565b610f9d6125ec928d61421e565b10156125d85760046040517ffb8ae129000000000000000000000000000000000000000000000000000000008152fd5b60c435968861262c818a856152f3565b98888a116126b3575b5076ffffffffffffffffffffffffffffffffffffffffffffff8416908161265e575b5050612261565b8a818103612676575050881061102f575b8980612657565b610f9d612683928c61421e565b111561266f5760046040517f481ea392000000000000000000000000000000000000000000000000000000008152fd5b985098506126c38780998461531a565b98808a116110ba578a612635565b6126da84613e9e565b6111cf5760a084811c8216901b60243573ffffffffffffffffffffffffffffffffffffffff1617600090815260026020526040902054607885901c909116036111a557876121fa565b90504211896121cd565b331614905088806121b0565b73ffffffffffffffffffffffffffffffffffffffff806024351690811592831561276b575b5050506113b7578661217a565b909192506000907f7fffffffffffffffffffffffffffffffffffffffffffffffffffffffffffffff81167f7fffffffffffffffffffffffffffffff5d576e7357a4501ddfe92f46681b20a181106127ca575b505016141587808061275e565b60209250600091608091604051918a835260ff1c601b0185830152610104356040830152606082015282805260015afa5060005189806127bd565b3461026a5760407ffffffffffffffffffffffffffffffffffffffffffffffffffffffffffffffffc36011261026a5767ffffffffffffffff60043581811161026a57612855903690600401613af0565b909160243590811161026a5761286f903690600401613af0565b908183036128ad5760005b83811061288357005b806128a76128946001938789613cb2565b356128a0838787613cb2565b3590613cf1565b0161287a565b60046040517fd97cd9d8000000000000000000000000000000000000000000000000000000008152fd5b3461026a5760007ffffffffffffffffffffffffffffffffffffffffffffffffffffffffffffffffc36011261026a5761292f7f0000000000000000000000000000000000000000000000000000000000000000614769565b6129587f00000000000000000000000000000000000000000000000000000000000000006148de565b60405160208082019282841067ffffffffffffffff851117612a1c579160206129cf85946129c19796604052600084526040519788977f0f00000000000000000000000000000000000000000000000000000000000000895260e0858a015260e0890190613a92565b908782036040890152613a92565b91466060870152306080870152600060a087015285830360c0870152519182815201929160005b828110612a0557505050500390f35b8351855286955093810193928101926001016129f6565b7f4e487b7100000000000000000000000000000000000000000000000000000000600052604160045260246000fd5b3461026a57610100807ffffffffffffffffffffffffffffffffffffffffffffffffffffffffffffffffc36011261026a576042602091610120612a8c613f1c565b91604051907f3af21ec5a20011b88d3b7b4ed7c806cef05a5980cf34974bcd53566a131f7e4c825260048683013720604051917f190100000000000000000000000000000000000000000000000000000000000083526002830152602282015220604051908152f35b3461026a5760206114e9612b0836613a40565b91613be8565b3461026a576020612b21611e3136613a40565b81929192612b355750506040519015158152f35b1490508280611e44565b3461026a5760007ffffffffffffffffffffffffffffffffffffffffffffffffffffffffffffffffc36011261026a57602060ff600354166040519015158152f35b60407ffffffffffffffffffffffffffffffffffffffffffffffffffffffffffffffffc36011261026a5767ffffffffffffffff60043581811161026a57612bcb903690600401613a12565b9160243590811161026a57612be4903690600401613a12565b612bf18484959395613b8c565b60601c918060141161026a57600093849360147fffffffffffffffffffffffffffffffffffffffffffffffffffffffffffffffec612c369401920190309033906143fd565b508060405194853783305af43d6000833e15612c50573d90f35b3d90fd5b3461026a577ffffffffffffffffffffffffffffffffffffffffffffffffffffffffffffffffc3601610180811261026a576101001361026a5767ffffffffffffffff6101043581811161026a57612caf903690600401613a12565b90916101643590811161026a57612ccd612cd7913690600401613a12565b9061014435614054565b949192612ce96102e297929597613f1c565b94612cf386614191565b9360009360a435861461357e575b505060ff6003541661126c57612d1785836149c8565b9015611263575069ffffffffffffffffffff8060e435168015918215613572575b50501561122d5764ffffffffff8060e43560501c168015159081613568575b506111f9577f040000000000000000000000000000000000000000000000000000000000000060e43516613510575b50846134d1575b610144357f800000000000000000000000000000000000000000000000000000000000000016156133eb5783610124351084610124351802841896612dd587868a8987614cc3565b9876ffffffffffffffffffffffffffffffffffffffffffffff610144351680613393575b505b7f800000000000000000000000000000000000000000000000000000000000000060e43516151580613387575b610f155789890215610eeb57612e3f60e435613e9e565b1561334b5773ffffffffffffffffffffffffffffffffffffffff602435166000526004602052604060002063ffffffff60e43560801c166000528060205260406000205490600160ff60e43560781c161b600160ff60e43560781c161b831614610e855763ffffffff60e43560801c16600052602052600160ff60e43560781c161b176040600020555b7f100000000000000000000000000000000000000000000000000000000000000060e43516613252575b73ffffffffffffffffffffffffffffffffffffffff7f00000000000000000000000000000000000000000000000000000000000000001673ffffffffffffffffffffffffffffffffffffffff606435161480613224575b801561321e57305b8a60e4357f010000000000000000000000000000000000000000000000000000000000000016156131e25750612f8889876150db565b9050610b0a578a612fca9173ffffffffffffffffffffffffffffffffffffffff6024351673ffffffffffffffffffffffffffffffffffffffff60643516614e2f565b6131b1575b50601381116130ff575b505073ffffffffffffffffffffffffffffffffffffffff7f00000000000000000000000000000000000000000000000000000000000000001673ffffffffffffffffffffffffffffffffffffffff60843516148080916130f7575b15613075575086610a2d5760e4357e80000000000000000000000000000000000000000000000000000000000000161561088457818080808a61067c614f83565b93846130ca575b84156130bc5730945b88610144357f10000000000000000000000000000000000000000000000000000000000000001615610b345750610aa3828461512a565b6130c4614f83565b94613085565b60e4357e80000000000000000000000000000000000000000000000000000000000000161515945061307c565b506000613034565b6131098183613b8c565b60601c9181601411610ca057823b15610ca05787927fffffffffffffffffffffffffffffffffffffffffffffffffffffffffffffffec86809461318b6014958f8f8e918e918d6040519d8e9c8d9b8c9a7fadf38ba1000000000000000000000000000000000000000000000000000000008c5201970195339260048b0161429f565b03925af18015610c955790839115612fd9576131a690613c41565b610c91578188612fd9565b6131dc90897f0000000000000000000000000000000000000000000000000000000000000000614f0b565b89612fcf565b6131f091610ce38b896150db565b612fca5760046040517f70a03f48000000000000000000000000000000000000000000000000000000008152fd5b81612f52565b507f400000000000000000000000000000000000000000000000000000000000000061014435161515612f4a565b61325c878561508a565b73ffffffffffffffffffffffffffffffffffffffff6024358116828460138211613301575b50508181163b1561026a578b60008f938f966132d78f91978f9885998f996040519c8d9b8c9a8b987f0986bdd5000000000000000000000000000000000000000000000000000000008a52339260048b0161429f565b0393165af18015610e2f576132ed575b50612ef3565b6132f8919550613c41565b6000938a6132e7565b8195508094506133119250613b8c565b60601c918360141161026a57601401927fffffffffffffffffffffffffffffffffffffffffffffffffffffffffffffffec01918e80613281565b73ffffffffffffffffffffffffffffffffffffffff60243516600052600560205260406000208860005260205288860319604060002055612ec9565b5060a435891415612e28565b610124358a036133aa578a11610f62575b8a612df9565b6133bb8a610f9d610124358e61421e565b10156133a45760046040517ffb8ae129000000000000000000000000000000000000000000000000000000008152fd5b6101243597966133fe87868b8987614bd5565b97858911613488575b76ffffffffffffffffffffffffffffffffffffffffffffff610144351680613430575b50612dfb565b610124358b0361344757891061102f575b8a61342a565b6134588b610f9d610124358d61421e565b11156134415760046040517f481ea392000000000000000000000000000000000000000000000000000000008152fd5b98509650839661349b8786808987614cc3565b98610124358a11156134075760046040517f7f902a93000000000000000000000000000000000000000000000000000000008152fd5b6134db8583615006565b806134e8575b5050612d8d565b6134f29130613ef6565b81613505575b50156111185788806134e1565b6001915014896134f8565b61351b60e435613e9e565b6111cf5760e43560a081811c8316901b60243573ffffffffffffffffffffffffffffffffffffffff161760009081526002602052604090205460789190911c909116036111a55788612d86565b905042118a612d57565b33161490508980612d38565b60206000809360405190807f1626ba7e00000000000000000000000000000000000000000000000000000000958684528d60048501526040602485015281604485015260648401376064019073ffffffffffffffffffffffffffffffffffffffff602435165afa6135f7575b50156113b7578880612d01565b600051143d602014169050896135ea565b3461026a57602061361b611e3136613a40565b8192919261362f5750506040519015158152f35b1190508280611e44565b3461026a5760407ffffffffffffffffffffffffffffffffffffffffffffffffffffffffffffffffc36011261026a5773ffffffffffffffffffffffffffffffffffffffff6136856139ef565b166000526005602052604060002060243560005260205260406000205480156136b45760209060405190198152f35b60046040517faa3eef95000000000000000000000000000000000000000000000000000000008152fd5b3461026a5760007ffffffffffffffffffffffffffffffffffffffffffffffffffffffffffffffffc36011261026a576020613717613f1c565b604051908152f35b3461026a5760207ffffffffffffffffffffffffffffffffffffffffffffffffffffffffffffffffc36011261026a5760043567ffffffffffffffff811161026a57613773611fef6020923690600401613a12565b8161378357506040519015158152f35b600191501482611ffc565b3461026a5760407ffffffffffffffffffffffffffffffffffffffffffffffffffffffffffffffffc36011261026a5773ffffffffffffffffffffffffffffffffffffffff6137da6139ef565b166000526004602052604060002060243560081c6000526020526020604060002054604051908152f35b3461026a5760407ffffffffffffffffffffffffffffffffffffffffffffffffffffffffffffffffc36011261026a5761383b6139d4565b602435801580156138f2575b6138c8577fffffffffffffffffffffffff00000000000000000000000000000000000000008260a01b16331760005260026020526040600020908154018091556bffffffffffffffffffffffff6040519216825260208201527f099133aefc2c2d1e56f8ef3622ec8e80979a0713fc9c4e1497740efcf809939660403392a2005b60046040517f555fbbbf000000000000000000000000000000000000000000000000000000008152fd5b5060ff8111613847565b3461026a5760407ffffffffffffffffffffffffffffffffffffffffffffffffffffffffffffffffc36011261026a576004359061393882613e9e565b156139ac575033600052600460205260406000209063ffffffff8160801c169182600052602052604060002090600160ff6024359260781c161b1781541780915560405191825260208201527fcda0f7e73d07bdb14b141f2cf4745926629a1b63e7c6a3dd8a80232cb459a85060403392a2005b807f86bffaca0000000000000000000000000000000000000000000000000000000060049252fd5b600435906bffffffffffffffffffffffff8216820361026a57565b6004359073ffffffffffffffffffffffffffffffffffffffff8216820361026a57565b9181601f8401121561026a5782359167ffffffffffffffff831161026a576020838186019501011161026a57565b9060407ffffffffffffffffffffffffffffffffffffffffffffffffffffffffffffffffc83011261026a57600435916024359067ffffffffffffffff821161026a57613a8e91600401613a12565b9091565b919082519283825260005b848110613adc5750507fffffffffffffffffffffffffffffffffffffffffffffffffffffffffffffffe0601f8460006020809697860101520116010190565b602081830181015184830182015201613a9d565b9181601f8401121561026a5782359167ffffffffffffffff831161026a576020808501948460051b01011161026a57565b9060407ffffffffffffffffffffffffffffffffffffffffffffffffffffffffffffffffc83011261026a5760043573ffffffffffffffffffffffffffffffffffffffff8116810361026a57916024359067ffffffffffffffff821161026a57613a8e91600401613a12565b7fffffffffffffffffffffffffffffffffffffffff0000000000000000000000009035818116939260148110613bc157505050565b60140360031b82901b16169150565b9093929384831161026a57841161026a578101920390565b9290919260005b63ffffffff8216908115613c3657611fef82613c0c928888613bd0565b81613c2b575b50613c21579060201c90613bef565b5050915050600190565b600191501438613c12565b505050915050600090565b67ffffffffffffffff8111612a1c57604052565b6040810190811067ffffffffffffffff821117612a1c57604052565b90601f7fffffffffffffffffffffffffffffffffffffffffffffffffffffffffffffffe0910116810190811067ffffffffffffffff821117612a1c57604052565b9190811015613cc25760051b0190565b7f4e487b7100000000000000000000000000000000000000000000000000000000600052603260045260246000fd5b90613cfb82613e9e565b15613d6a575033600052600460205260406000209063ffffffff8160801c169182600052602052600160ff60406000209260781c161b81541780915560405191825260208201527fcda0f7e73d07bdb14b141f2cf4745926629a1b63e7c6a3dd8a80232cb459a85060403392a2565b7f5152abf959f6564662358c2e52b702259b78bac5ee7842a0f01937e670efcc7d9150602090336000526005825260406000208160005282527fffffffffffffffffffffffffffffffffffffffffffffffffffffffffffffffff604060002055604051908152a1565b67ffffffffffffffff8111612a1c57601f017fffffffffffffffffffffffffffffffffffffffffffffffffffffffffffffffe01660200190565b3d15613e38573d90613e1e82613dd3565b91613e2c6040519384613c71565b82523d6000602084013e565b606090565b9290919260009060005b63ffffffff8216908115613e9257611fef82613e64928989613bd0565b9015908115613e86575b50613e7d579060201c90613e47565b50509150915090565b60019150141538613e6e565b50505050915050600190565b7f800000000000000000000000000000000000000000000000000000000000000081161590811591613ece575090565b7f40000000000000000000000000000000000000000000000000000000000000009150161590565b916000906020928294826040519283375afa60203d14169182613f1557565b6000519150565b73ffffffffffffffffffffffffffffffffffffffff7f00000000000000000000000000000000000000000000000000000000000000001630148061402b575b15613f84577f000000000000000000000000000000000000000000000000000000000000000090565b60405160208101907f8b73c3c69bb8fe3d512ecc4cf759cc79239f7b179b0ffacaa9a75d522b39400f82527f000000000000000000000000000000000000000000000000000000000000000060408201527f000000000000000000000000000000000000000000000000000000000000000060608201524660808201523060a082015260a0815260c0810181811067ffffffffffffffff821117612a1c5760405251902090565b507f00000000000000000000000000000000000000000000000000000000000000004614613f5b565b909291907f080000000000000000000000000000000000000000000000000000000000000081161561411c5761408a8285613b8c565b60601c938260141161026a5760147fffffffffffffffffffffffffffffffffffffffffffffffffffffffffffffffec91019201925b62ffffff60e083901c811694851561410c5780861161026a576140e6908596818197613bd0565b919091935b60c81c1692831561410057831161026a579190565b50509050600090600090565b92939094506000946000946140eb565b339391926140bf565b6042906101206040517f3af21ec5a20011b88d3b7b4ed7c806cef05a5980cf34974bcd53566a131f7e4c81526101006004602083013720604051917f19010000000000000000000000000000000000000000000000000000000000008352600283015260228201522090565b61419c60e435613e9e565b156141d9575060a435905b81156141af57565b60046040517ff71fbda2000000000000000000000000000000000000000000000000000000008152fd5b73ffffffffffffffffffffffffffffffffffffffff60243516600052600560205260406000209060005260205261421860406000205460a435906149b7565b906141a7565b8181029291811591840414171561423157565b7f4e487b7100000000000000000000000000000000000000000000000000000000600052601160045260246000fd5b601f82602094937fffffffffffffffffffffffffffffffffffffffffffffffffffffffffffffffe0938186528686013760008582860101520116010190565b94919361431a73ffffffffffffffffffffffffffffffffffffffff926143489b99969a98959a6101e061430b8a6004358152602435602082015260443560408201526064356060820152608435608082015260a43560a082015260c43560c082015260e060e435910152565b806101008b0152890191614260565b98610120870152166101408501526101608401526101808301526101a08201526101c0818503910152614260565b90565b9360009373ffffffffffffffffffffffffffffffffffffffff610220979394866101e06143b18a6004358152602435602082015260443560408201526064356060820152608435608082015260a43560a082015260c43560c082015260e060e435910152565b806101008b015289015261020095610120890152166101408701526101608601526101808501526101a0840152806101c0840152820152016000815290565b9190820391821161423157565b91909360009493859461440e614fb1565b90604051948491826064146146b457826048146145f3578260e0146145b957826101001461457d57826060146144b75750506101601461447d57508185926004927f9fd5a6cf0000000000000000000000000000000000000000000000000000000086528386013701925af190565b906101649450859250610160907f2b67b57000000000000000000000000000000000000000000000000000000000855260048501375af190565b88955060409250906101649760209495927f2b67b5700000000000000000000000000000000000000000000000000000000089526004890152602488015260148260508901377fffffffffffffffffffffffffffffffffffffffffffffffffffffffffffffffff65ffffffffffff9181601485013560e01c01831660648a0152601884013560e01c60848a015260a4890152601c83013560e01c011660c487015261010060e48701528161010487015282808201610124880137016101448501375af190565b5050505084915092610100610104947f8fcbaf0c00000000000000000000000000000000000000000000000000000000855260048501375af190565b505050508491509260e060e4947fd505accf00000000000000000000000000000000000000000000000000000000855260048501375af190565b8895507f7fffffffffffffffffffffffffffffffffffffffffffffffffffffffffffffff9350610104979492507f8fcbaf0c0000000000000000000000000000000000000000000000000000000087526004870152602486015260206008602883013592803560e01c60448901527fffffffffffffffffffffffffffffffffffffffffffffffffffffffffffffffff600482013560e01c016064890152600160848901528360ff1c601b0160a48901520160c48701371660e48401525af190565b8895507f7fffffffffffffffffffffffffffffffffffffffffffffffffffffffffffffff935060e4979492507fd505accf0000000000000000000000000000000000000000000000000000000087526004870152602486015260206024604483013592828160448a01377fffffffffffffffffffffffffffffffffffffffffffffffffffffffffffffffff8382013560e01c0160648901528360ff1c601b0160848901520160a48701371660c48401525af190565b60ff81146147bf5760ff811690601f8211614795576040519161478b83613c55565b8252602082015290565b60046040517fb3512b0c000000000000000000000000000000000000000000000000000000008152fd5b50604051600080549060018260011c90600184169384156148d4575b60209485841081146148a75783875286949392918115614868575060011461480c575b505061434892500382613c71565b60008080527f290decd9548b62a8d60345a988386fc84ba6bc95484008f6362f93160ef3e56395935091905b818310614850575050614348935082010138806147fe565b85548784018501529485019486945091830191614838565b90506143489593507fffffffffffffffffffffffffffffffffffffffffffffffffffffffffffffff0091501682840152151560051b82010138806147fe565b6024857f4e487b710000000000000000000000000000000000000000000000000000000081526022600452fd5b91607f16916147db565b60ff81146149005760ff811690601f8211614795576040519161478b83613c55565b506040516000600190600154918260011c90600184169384156149ad575b60209485841081146148a75783875286949392918115614868575060011461494e57505061434892500382613c71565b9093915060016000527fb10e2d527612073b26eecdfd717e6a320cf44b4afac2b0732d9fcbe2b7fa0cf6936000915b818310614995575050614348935082010138806147fe565b8554878401850152948501948694509183019161497d565b91607f169161491e565b9081156149c357501990565b905090565b9060e4357f02000000000000000000000000000000000000000000000000000000000000001615614aad578015614a8457614a0281613dd3565b90614a106040519283613c71565b8082526020820192368282011161026a578160009260209286378301015273ffffffffffffffffffffffffffffffffffffffff91829151902016906004351603614a5d575b600190600090565b6000907fdc11ee6b0000000000000000000000000000000000000000000000000000000090565b50506000907fb2d25e490000000000000000000000000000000000000000000000000000000090565b905015614a55576000907f74896a7b0000000000000000000000000000000000000000000000000000000090565b600060e4357f02000000000000000000000000000000000000000000000000000000000000001615614b2c57907fb2d25e490000000000000000000000000000000000000000000000000000000090565b50600190600090565b93614bad73ffffffffffffffffffffffffffffffffffffffff926143489a98959997946101c0614b9e896004358152602435602082015260443560408201526064356060820152608435608082015260a43560a082015260c43560c082015260e060e435910152565b806101008a0152880191614260565b97610120860152166101408401526101608301526101808201526101a0818503910152614260565b909291614be28483615218565b90928115614cad57614bf48285613b8c565b60601c938260141161026a576020966014967fffffffffffffffffffffffffffffffffffffffffffffffffffffffffffffffec95614c68946040519b8c9a8b998a997f1d9671c3000000000000000000000000000000000000000000000000000000008b5201960194339260048a01614b35565b03915afa908115610e2f57600091614c7e575090565b90506020813d602011614ca5575b81614c9960209383613c71565b8101031261026a575190565b3d9150614c8c565b505092505050614348915060c43560a4356152f3565b909291614cd08483615269565b90928115614d5657614ce28285613b8c565b60601c938260141161026a576020966014967fffffffffffffffffffffffffffffffffffffffffffffffffffffffffffffffec95614c68946040519b8c9a8b998a997fd7ff8a80000000000000000000000000000000000000000000000000000000008b5201960194339260048a01614b35565b505092505050614348915060c43560a43561531a565b9060006064926020958295604051947f23b872dd0000000000000000000000000000000000000000000000000000000086526004860152602485015260448401525af1600160005114601f3d11163d15171690565b92948060009581602098889596604051977f23b872dd000000000000000000000000000000000000000000000000000000008952600489015260248801526044870152614e23575b5050606401925af1600160005114601f3d11163d15171690565b60648501378038614e09565b92919073ffffffffffffffffffffffffffffffffffffffff8311614ee157608490614e58614fb1565b946000948594604051937f36c78516000000000000000000000000000000000000000000000000000000008552600485015260248401526044830152606482015282855af19081614ed6575b5015614eac57565b60046040517ff4059071000000000000000000000000000000000000000000000000000000008152fd5b90503b151538614ea4565b60046040517f8112e119000000000000000000000000000000000000000000000000000000008152fd5b9160249260008094818080947f2e1a7d4d000000000000000000000000000000000000000000000000000000008252876004525af1156107ed573073ffffffffffffffffffffffffffffffffffffffff821603614f6757505050565b8280809381935af115614f775750565b604051903d90823e3d90fd5b73ffffffffffffffffffffffffffffffffffffffff6044358116908115614fa8575090565b90506024351690565b468061014414614ff2578061012c14614ff25761010414614fdf576e22d473030f116ddee9f6b43ac78ba390565b6e225e31d15943971f47ad3022f714fa90565b506e225e31d15943971f47ad3022f714fa90565b91909160208310615081578035907fffffffffffffffffffffffffffffffffffffffffffffffffffffffffffffffe063ffffffff808460601c169360801c1694018411615057578101602001920390565b7f9605a0100000000000000000000000000000000000000000000000000000000060005260046000fd5b50600091508190565b91909160208310615081578035907fffffffffffffffffffffffffffffffffffffffffffffffffffffffffffffffe063ffffffff808460a01c169360c01c1694018411615057578101602001920390565b91909160208310615081578035907fffffffffffffffffffffffffffffffffffffffffffffffffffffffffffffffe063ffffffff928060201b8416931694018411615057578101602001920390565b91909160208310615081578035907fffffffffffffffffffffffffffffffffffffffffffffffffffffffffffffffe063ffffffff8084169360201c1694018411615057578101602001920390565b91909160208310615081578035907fffffffffffffffffffffffffffffffffffffffffffffffffffffffffffffffe063ffffffff8360c01c169260e01c94018411615057578101602001920390565b91909160208310615081578035907fffffffffffffffffffffffffffffffffffffffffffffffffffffffffffffffe063ffffffff808460801c169360a01c1694018411615057578101602001920390565b91909160208310615081578035907fffffffffffffffffffffffffffffffffffffffffffffffffffffffffffffffe063ffffffff808460201c169360401c1694018411615057578101602001920390565b91909160208310615081578035907fffffffffffffffffffffffffffffffffffffffffffffffffffffffffffffffe063ffffffff808460401c169360601c1694018411615057578101602001920390565b81156152c4570490565b7f4e487b7100000000000000000000000000000000000000000000000000000000600052601260045260246000fd5b80831760801c156153105761530b906143489361421e565b6152ba565b61434892026152ba565b9080831760801c1561536e57615330919261421e565b90808201809211614231577fffffffffffffffffffffffffffffffffffffffffffffffffffffffffffffffff820191821161423157614348916152ba565b614348920281017fffffffffffffffffffffffffffffffffffffffffffffffffffffffffffffffff016152ba56fea2646970667358221220df1ae2114f905b011897af2e4942e21bcbb2fca5bc26bb8f7e125c2ad6e2042564736f6c63430008170033","linkReferences":{}},"methodIdentifiers":{"DOMAIN_SEPARATOR()":"3644e515","advanceEpoch(uint96,uint256)":"0d2c7c16","and(uint256,bytes)":"bfa75143","arbitraryStaticCall(address,bytes)":"bf15fcd8","bitInvalidatorForOrder(address,uint256)":"143e86a7","bitsInvalidateForOrder(uint256,uint256)":"05b1ea03","cancelOrder(uint256,bytes32)":"b68fb020","cancelOrders(uint256[],bytes32[])":"89e7c650","checkPredicate(bytes)":"15169dec","eip712Domain()":"84b0196e","epoch(address,uint96)":"fcea9e4e","epochEquals(address,uint256,uint256)":"ce3d710a","eq(uint256,bytes)":"6fe7b0ba","fillContractOrder((uint256,uint256,uint256,uint256,uint256,uint256,uint256,uint256),bytes,uint256,uint256)":"cc713a04","fillContractOrderArgs((uint256,uint256,uint256,uint256,uint256,uint256,uint256,uint256),bytes,uint256,uint256,bytes)":"56a75868","fillOrder((uint256,uint256,uint256,uint256,uint256,uint256,uint256,uint256),bytes32,bytes32,uint256,uint256)":"9fda64bd","fillOrderArgs((uint256,uint256,uint256,uint256,uint256,uint256,uint256,uint256),bytes32,bytes32,uint256,uint256,bytes)":"f497df75","gt(uint256,bytes)":"4f38e2b8","hashOrder((uint256,uint256,uint256,uint256,uint256,uint256,uint256,uint256))":"802b2ef1","increaseEpoch(uint96)":"c3cf8043","lt(uint256,bytes)":"ca4ece22","not(bytes)":"bf797959","or(uint256,bytes)":"74261145","paused()":"5c975abb","permitAndCall(bytes,bytes)":"5816d723","rawRemainingInvalidatorForOrder(address,bytes32)":"c2a40753","remainingInvalidatorForOrder(address,bytes32)":"435b9789","simulate(address,bytes)":"bd61951d"},"id":20}