{
  "abi": [
    {
      "type": "constructor",
      "inputs": [
        {
          "name": "accessToken",
          "type": "address",
          "internalType": "contract IERC20"
        },
        {
          "name": "_owner",
          "type": "address",
          "internalType": "address"
        },
        {
          "name": "rescueDelay",
          "type": "uint32",
          "internalType": "uint32"
        }
      ],
      "stateMutability": "nonpayable"
    },
    {
      "type": "function",
      "name": "ESCROW_DST_IMPLEMENTATION",
      "inputs": [],
      "outputs": [
        {
          "name": "",
          "type": "address",
          "internalType": "address"
        }
      ],
      "stateMutability": "view"
    },
    {
      "type": "function",
      "name": "ESCROW_SRC_IMPLEMENTATION",
      "inputs": [],
      "outputs": [
        {
          "name": "",
          "type": "address",
          "internalType": "address"
        }
      ],
      "stateMutability": "view"
    },
    {
      "type": "function",
      "name": "addMaker",
      "inputs": [
        {
          "name": "maker",
          "type": "address",
          "internalType": "address"
        }
      ],
      "outputs": [],
      "stateMutability": "nonpayable"
    },
    {
      "type": "function",
      "name": "addResolver",
      "inputs": [
        {
          "name": "resolver",
          "type": "address",
          "internalType": "address"
        }
      ],
      "outputs": [],
      "stateMutability": "nonpayable"
    },
    {
      "type": "function",
      "name": "addressOfEscrow",
      "inputs": [
        {
          "name": "immutables",
          "type": "tuple",
          "internalType": "struct IBaseEscrow.Immutables",
          "components": [
            {
              "name": "orderHash",
              "type": "bytes32",
              "internalType": "bytes32"
            },
            {
              "name": "hashlock",
              "type": "bytes32",
              "internalType": "bytes32"
            },
            {
              "name": "maker",
              "type": "uint256",
              "internalType": "Address"
            },
            {
              "name": "taker",
              "type": "uint256",
              "internalType": "Address"
            },
            {
              "name": "token",
              "type": "uint256",
              "internalType": "Address"
            },
            {
              "name": "amount",
              "type": "uint256",
              "internalType": "uint256"
            },
            {
              "name": "safetyDeposit",
              "type": "uint256",
              "internalType": "uint256"
            },
            {
              "name": "timelocks",
              "type": "uint256",
              "internalType": "Timelocks"
            }
          ]
        },
        {
          "name": "isSrc",
          "type": "bool",
          "internalType": "bool"
        }
      ],
      "outputs": [
        {
          "name": "",
          "type": "address",
          "internalType": "address"
        }
      ],
      "stateMutability": "view"
    },
    {
      "type": "function",
      "name": "createDstEscrow",
      "inputs": [
        {
          "name": "immutables",
          "type": "tuple",
          "internalType": "struct IBaseEscrow.Immutables",
          "components": [
            {
              "name": "orderHash",
              "type": "bytes32",
              "internalType": "bytes32"
            },
            {
              "name": "hashlock",
              "type": "bytes32",
              "internalType": "bytes32"
            },
            {
              "name": "maker",
              "type": "uint256",
              "internalType": "Address"
            },
            {
              "name": "taker",
              "type": "uint256",
              "internalType": "Address"
            },
            {
              "name": "token",
              "type": "uint256",
              "internalType": "Address"
            },
            {
              "name": "amount",
              "type": "uint256",
              "internalType": "uint256"
            },
            {
              "name": "safetyDeposit",
              "type": "uint256",
              "internalType": "uint256"
            },
            {
              "name": "timelocks",
              "type": "uint256",
              "internalType": "Timelocks"
            }
          ]
        }
      ],
      "outputs": [
        {
          "name": "escrow",
          "type": "address",
          "internalType": "address"
        }
      ],
      "stateMutability": "payable"
    },
    {
      "type": "function",
      "name": "createSrcEscrow",
      "inputs": [
        {
          "name": "immutables",
          "type": "tuple",
          "internalType": "struct IBaseEscrow.Immutables",
          "components": [
            {
              "name": "orderHash",
              "type": "bytes32",
              "internalType": "bytes32"
            },
            {
              "name": "hashlock",
              "type": "bytes32",
              "internalType": "bytes32"
            },
            {
              "name": "maker",
              "type": "uint256",
              "internalType": "Address"
            },
            {
              "name": "taker",
              "type": "uint256",
              "internalType": "Address"
            },
            {
              "name": "token",
              "type": "uint256",
              "internalType": "Address"
            },
            {
              "name": "amount",
              "type": "uint256",
              "internalType": "uint256"
            },
            {
              "name": "safetyDeposit",
              "type": "uint256",
              "internalType": "uint256"
            },
            {
              "name": "timelocks",
              "type": "uint256",
              "internalType": "Timelocks"
            }
          ]
        },
        {
          "name": "maker",
          "type": "address",
          "internalType": "address"
        },
        {
          "name": "token",
          "type": "address",
          "internalType": "address"
        },
        {
          "name": "amount",
          "type": "uint256",
          "internalType": "uint256"
        }
      ],
      "outputs": [
        {
          "name": "escrow",
          "type": "address",
          "internalType": "address"
        }
      ],
      "stateMutability": "nonpayable"
    },
    {
      "type": "function",
      "name": "emergencyPaused",
      "inputs": [],
      "outputs": [
        {
          "name": "",
          "type": "bool",
          "internalType": "bool"
        }
      ],
      "stateMutability": "view"
    },
    {
      "type": "function",
      "name": "escrows",
      "inputs": [
        {
          "name": "",
          "type": "bytes32",
          "internalType": "bytes32"
        }
      ],
      "outputs": [
        {
          "name": "",
          "type": "address",
          "internalType": "address"
        }
      ],
      "stateMutability": "view"
    },
    {
      "type": "function",
      "name": "isWhitelistedResolver",
      "inputs": [
        {
          "name": "resolver",
          "type": "address",
          "internalType": "address"
        }
      ],
      "outputs": [
        {
          "name": "",
          "type": "bool",
          "internalType": "bool"
        }
      ],
      "stateMutability": "view"
    },
    {
      "type": "function",
      "name": "makerWhitelistEnabled",
      "inputs": [],
      "outputs": [
        {
          "name": "",
          "type": "bool",
          "internalType": "bool"
        }
      ],
      "stateMutability": "view"
    },
    {
      "type": "function",
      "name": "owner",
      "inputs": [],
      "outputs": [
        {
          "name": "",
          "type": "address",
          "internalType": "address"
        }
      ],
      "stateMutability": "view"
    },
    {
      "type": "function",
      "name": "pause",
      "inputs": [],
      "outputs": [],
      "stateMutability": "nonpayable"
    },
    {
      "type": "function",
      "name": "postInteraction",
      "inputs": [
        {
          "name": "order",
          "type": "tuple",
          "internalType": "struct IOrderMixin.Order",
          "components": [
            {
              "name": "salt",
              "type": "uint256",
              "internalType": "uint256"
            },
            {
              "name": "maker",
              "type": "uint256",
              "internalType": "Address"
            },
            {
              "name": "receiver",
              "type": "uint256",
              "internalType": "Address"
            },
            {
              "name": "makerAsset",
              "type": "uint256",
              "internalType": "Address"
            },
            {
              "name": "takerAsset",
              "type": "uint256",
              "internalType": "Address"
            },
            {
              "name": "makingAmount",
              "type": "uint256",
              "internalType": "uint256"
            },
            {
              "name": "takingAmount",
              "type": "uint256",
              "internalType": "uint256"
            },
            {
              "name": "makerTraits",
              "type": "uint256",
              "internalType": "MakerTraits"
            }
          ]
        },
        {
          "name": "",
          "type": "bytes",
          "internalType": "bytes"
        },
        {
          "name": "orderHash",
          "type": "bytes32",
          "internalType": "bytes32"
        },
        {
          "name": "taker",
          "type": "address",
          "internalType": "address"
        },
        {
          "name": "makingAmount",
          "type": "uint256",
          "internalType": "uint256"
        },
        {
          "name": "",
          "type": "uint256",
          "internalType": "uint256"
        },
        {
          "name": "",
          "type": "uint256",
          "internalType": "uint256"
        },
        {
          "name": "extraData",
          "type": "bytes",
          "internalType": "bytes"
        }
      ],
      "outputs": [],
      "stateMutability": "nonpayable"
    },
    {
      "type": "function",
      "name": "removeMaker",
      "inputs": [
        {
          "name": "maker",
          "type": "address",
          "internalType": "address"
        }
      ],
      "outputs": [],
      "stateMutability": "nonpayable"
    },
    {
      "type": "function",
      "name": "removeResolver",
      "inputs": [
        {
          "name": "resolver",
          "type": "address",
          "internalType": "address"
        }
      ],
      "outputs": [],
      "stateMutability": "nonpayable"
    },
    {
      "type": "function",
      "name": "resolverCount",
      "inputs": [],
      "outputs": [
        {
          "name": "",
          "type": "uint256",
          "internalType": "uint256"
        }
      ],
      "stateMutability": "view"
    },
    {
      "type": "function",
      "name": "setMakerWhitelistEnabled",
      "inputs": [
        {
          "name": "enabled",
          "type": "bool",
          "internalType": "bool"
        }
      ],
      "outputs": [],
      "stateMutability": "nonpayable"
    },
    {
      "type": "function",
      "name": "transferOwnership",
      "inputs": [
        {
          "name": "newOwner",
          "type": "address",
          "internalType": "address"
        }
      ],
      "outputs": [],
      "stateMutability": "nonpayable"
    },
    {
      "type": "function",
      "name": "unpause",
      "inputs": [],
      "outputs": [],
      "stateMutability": "nonpayable"
    },
    {
      "type": "function",
      "name": "whitelistedMakers",
      "inputs": [
        {
          "name": "",
          "type": "address",
          "internalType": "address"
        }
      ],
      "outputs": [
        {
          "name": "",
          "type": "bool",
          "internalType": "bool"
        }
      ],
      "stateMutability": "view"
    },
    {
      "type": "function",
      "name": "whitelistedResolvers",
      "inputs": [
        {
          "name": "",
          "type": "address",
          "internalType": "address"
        }
      ],
      "outputs": [
        {
          "name": "",
          "type": "bool",
          "internalType": "bool"
        }
      ],
      "stateMutability": "view"
    },
    {
      "type": "event",
      "name": "DstEscrowCreated",
      "inputs": [
        {
          "name": "escrow",
          "type": "address",
          "indexed": true,
          "internalType": "address"
        },
        {
          "name": "hashlock",
          "type": "bytes32",
          "indexed": true,
          "internalType": "bytes32"
        },
        {
          "name": "taker",
          "type": "address",
          "indexed": true,
          "internalType": "address"
        }
      ],
      "anonymous": false
    },
    {
      "type": "event",
      "name": "EmergencyPause",
      "inputs": [
        {
          "name": "paused",
          "type": "bool",
          "indexed": false,
          "internalType": "bool"
        }
      ],
      "anonymous": false
    },
    {
      "type": "event",
      "name": "MakerRemoved",
      "inputs": [
        {
          "name": "maker",
          "type": "address",
          "indexed": true,
          "internalType": "address"
        }
      ],
      "anonymous": false
    },
    {
      "type": "event",
      "name": "MakerWhitelisted",
      "inputs": [
        {
          "name": "maker",
          "type": "address",
          "indexed": true,
          "internalType": "address"
        }
      ],
      "anonymous": false
    },
    {
      "type": "event",
      "name": "OwnershipTransferred",
      "inputs": [
        {
          "name": "previousOwner",
          "type": "address",
          "indexed": true,
          "internalType": "address"
        },
        {
          "name": "newOwner",
          "type": "address",
          "indexed": true,
          "internalType": "address"
        }
      ],
      "anonymous": false
    },
    {
      "type": "event",
      "name": "PostInteractionEscrowCreated",
      "inputs": [
        {
          "name": "escrow",
          "type": "address",
          "indexed": true,
          "internalType": "address"
        },
        {
          "name": "hashlock",
          "type": "bytes32",
          "indexed": true,
          "internalType": "bytes32"
        },
        {
          "name": "protocol",
          "type": "address",
          "indexed": true,
          "internalType": "address"
        },
        {
          "name": "taker",
          "type": "address",
          "indexed": false,
          "internalType": "address"
        },
        {
          "name": "amount",
          "type": "uint256",
          "indexed": false,
          "internalType": "uint256"
        }
      ],
      "anonymous": false
    },
    {
      "type": "event",
      "name": "ResolverRemoved",
      "inputs": [
        {
          "name": "resolver",
          "type": "address",
          "indexed": true,
          "internalType": "address"
        }
      ],
      "anonymous": false
    },
    {
      "type": "event",
      "name": "ResolverWhitelisted",
      "inputs": [
        {
          "name": "resolver",
          "type": "address",
          "indexed": true,
          "internalType": "address"
        }
      ],
      "anonymous": false
    },
    {
      "type": "event",
      "name": "SrcEscrowCreated",
      "inputs": [
        {
          "name": "escrow",
          "type": "address",
          "indexed": true,
          "internalType": "address"
        },
        {
          "name": "orderHash",
          "type": "bytes32",
          "indexed": true,
          "internalType": "bytes32"
        },
        {
          "name": "maker",
          "type": "address",
          "indexed": true,
          "internalType": "address"
        },
        {
          "name": "taker",
          "type": "address",
          "indexed": false,
          "internalType": "address"
        },
        {
          "name": "amount",
          "type": "uint256",
          "indexed": false,
          "internalType": "uint256"
        }
      ],
      "anonymous": false
    },
    {
      "type": "error",
      "name": "FailedDeployment",
      "inputs": []
    },
    {
      "type": "error",
      "name": "InsufficientBalance",
      "inputs": [
        {
          "name": "balance",
          "type": "uint256",
          "internalType": "uint256"
        },
        {
          "name": "needed",
          "type": "uint256",
          "internalType": "uint256"
        }
      ]
    },
    {
      "type": "error",
      "name": "SafeTransferFromFailed",
      "inputs": []
    }
  ],
  "bytecode": {
    "object": "0x60c034620002b557601f620036e838819003918201601f19168301916001600160401b03918284118585101762000297578160609286926040968752833981010312620002b55782516001600160a01b03908181168103620002b557602085015194828616809603620002b5578401519263ffffffff84168403620002b55784516112808082019082821084831117620002975784878493620000c29362002468863963ffffffff90911681526001600160a01b03909116602082015260400190565b03905ff08015620002ab5783169385519261105c9182850193858510908511176200029757849362000114936200140c863963ffffffff90911681526001600160a01b03909116602082015260400190565b03905ff080156200028d57169080156200024957811562000205578315620001d15760805260a0525f80546001600160a01b0319168317815582815260016020819052828220805460ff191682179055600455905191907f45fedec4fac25f615c1ed3c5890277618636de60b3ade84ae3006e93923fcb429080a26111529081620002ba823960805181818161033201528181610674015281816107670152610aa1015260a0518181816102ce015281816103c20152610c220152f35b825162461bcd60e51b815260206004820152600d60248201526c24b73b30b634b21037bbb732b960991b6044820152606490fd5b825162461bcd60e51b815260206004820152601a60248201527f496e76616c69642064737420696d706c656d656e746174696f6e0000000000006044820152606490fd5b825162461bcd60e51b815260206004820152601a60248201527f496e76616c69642073726320696d706c656d656e746174696f6e0000000000006044820152606490fd5b83513d5f823e3d90fd5b634e487b7160e01b5f52604160045260245ffd5b85513d5f823e3d90fd5b5f80fdfe6080806040526004361015610012575f80fd5b5f3560e01c90816327c830a914610ef3575080632d83549c14610ec1578063390a0b6f14610de95780633f4ba83a14610d8e5780634579d04b14610be3578063462ebde21461081b5780635413f4df146107965780637040f17314610752578063793a31a5146105da5780637bc17ed1146105b8578063802fd960146105745780638456cb59146105105780638da5cb5b146104e957806396a8a53b146104ac578063a133353614610404578063a674b197146103e7578063aa80eb29146101b8578063af8a1b27146102fd578063ba551177146102b9578063d4ec1fc2146101f5578063d8958e2c146101b85763f2fde38b1461010e575f80fd5b346101b45760203660031901126101b457610127610f14565b5f54906001600160a01b0380831691610141338414610f58565b1691821561017f576001600160a01b03191682175f9081557f8be0079c531659141344cd1fd0a4f28419497f9722a3daafe3b4186f6b6457e09080a3005b60405162461bcd60e51b815260206004820152600d60248201526c24b73b30b634b21037bbb732b960991b6044820152606490fd5b5f80fd5b346101b45760203660031901126101b4576001600160a01b036101d9610f14565b165f526001602052602060ff60405f2054166040519015158152f35b346101b45760203660031901126101b45761020e610f14565b5f546001600160a01b0391906102279083163314610f58565b16801561028457805f52600260205261024760ff60405f20541615610f90565b805f52600260205260405f20600160ff198254161790557f9faa3c4eaf67e3583721b249c7b4f68963f32c75c1a305e2a8e18aa846d7dd275f80a2005b60405162461bcd60e51b815260206004820152600d60248201526c24b73b30b634b21036b0b5b2b960991b6044820152606490fd5b346101b4575f3660031901126101b4576040517f00000000000000000000000000000000000000000000000000000000000000006001600160a01b03168152602090f35b346101b457366003190161012081126101b4576101008091126101b457610104359081151582036101b457602091156103c0577f0000000000000000000000000000000000000000000000000000000000000000905b604051816004823720604051913060388401526f5af43d82803e903d91602b57fd5bf3ff60248401526014830152733d602d80600a3d3981f3363d3d373d3d3d363d73825260588201526037600c82012060788201526055604360018060a01b0392012016604051908152f35b7f000000000000000000000000000000000000000000000000000000000000000090610353565b346101b4575f3660031901126101b4576020600454604051908152f35b346101b45760203660031901126101b45761041d610f14565b5f546001600160a01b0391906104369083163314610f58565b16805f52600160205261044f60ff60405f20541661101d565b805f52600160205260405f2060ff1981541690556004548015610498575f19016004557f3ae8b1488efc5effc2f9c5dc1943ec82217b537d2c5f6dce8340094446bbb3535f80a2005b634e487b7160e01b5f52601160045260245ffd5b346101b45760203660031901126101b4576001600160a01b036104cd610f14565b165f526002602052602060ff60405f2054166040519015158152f35b346101b4575f3660031901126101b4575f546040516001600160a01b039091168152602090f35b346101b4575f3660031901126101b4575f54610536336001600160a01b03831614610f58565b60ff60a01b1916600160a01b175f55604051600181527fb80d1ae5628c2af91424c54c87acfd15016be4bebeef0425b328238702f3483190602090a1005b346101b45760203660031901126101b4576004358015158091036101b4576105a660018060a01b035f54163314610f58565b60ff8019600554169116176005555f80f35b346101b4575f3660031901126101b457602060ff600554166040519015158152f35b346101b457366003190161016081126101b4576101008091126101b4576001600160a01b0361010435818116908190036101b45761012435918083168093036101b4576101443561063260ff5f5460a01c1615610fd2565b60ff60055416610701575b7fb68514f3fd43f58950720caa0e3c8a33918342e1150fe06e53f288a3999020086106f660209660405181600482372092610698847f000000000000000000000000000000000000000000000000000000000000000061105b565b935f52600388526106cc8160405f2095878116998a97886bffffffffffffffffffffffff60a01b82541617905533906110af565b60408051606435969096166001600160a01b03168652602086019190915260043594918291820190565b0390a4604051908152f35b825f52600260205260ff60405f20541661063d5760405162461bcd60e51b815260206004820152601560248201527413585ad95c881b9bdd081dda1a5d195b1a5cdd1959605a1b6044820152606490fd5b346101b4575f3660031901126101b4576040517f00000000000000000000000000000000000000000000000000000000000000006001600160a01b03168152602090f35b346101b45760203660031901126101b4576107af610f14565b5f546001600160a01b0391906107c89083163314610f58565b16805f5260026020526107e160ff60405f20541661101d565b805f52600260205260405f2060ff1981541690557fc61be715a2ea14b6511e1f253e4b75edc1a54edbbbf304876a6f747d89d654c15f80a2005b346101b45736600319016101e081126101b457610100136101b4576101043567ffffffffffffffff81116101b457610857903690600401610f2a565b5050610144356001600160a01b03811681036101b4576101c43567ffffffffffffffff81116101b45761088e903690600401610f2a565b6108a260ff5f9493945460a01c1615610fd2565b6001600160a01b0382165f9081526001602052604090205460ff1615610b9e578260a091810103126101b45760408201356001600160a01b038116036101b45781355f908152600360205260409020546080830135906001600160a01b0316610b61576001600160801b0381169060801c6109476bffffffff000000000000000061092d4284611010565b60401b1663ffffffff60e01b4260e01b1617914290611010565b9061012c91828101809111610498576109889163ffffffff60801b61096c4287611010565b60801b169163ffffffff60601b9060601b161717924290611010565b91818301831161049857604051928361010081011067ffffffffffffffff61010086011117610b4d57610100840160405261012435845285356020850152604084019160018060a01b03602435168352606085019360018060a01b038716855260808601606435815260a087019161016435835260c08801936001600160801b0360608c013516855260e08901956502580000012c60e160c51b019263ffffffff60a01b910160a01b1617178452604051956020870195610124358752602089015160408901525160608801525160808701525160a08601525160c08501525160e084015251610100830152610100825261012082019082821067ffffffffffffffff831117610b4d57602092610ac5926040525190207f000000000000000000000000000000000000000000000000000000000000000061105b565b9101515f90815260036020526040902080546001600160a01b0319166001600160a01b0380841691821790925591610b08916101643591908590606435166110af565b604080516001600160a01b03939093168352610164356020840152339335927f50805b468bc791ab273bca5a11ee2eb5134b6658b446b9aef2ee42eea3d8f0b89190a4005b634e487b7160e01b5f52604160045260245ffd5b60405162461bcd60e51b8152602060048201526015602482015274457363726f7720616c72656164792065786973747360581b6044820152606490fd5b60405162461bcd60e51b815260206004820152601860248201527f5265736f6c766572206e6f742077686974656c697374656400000000000000006044820152606490fd5b610100806003193601126101b457610c0260ff5f5460a01c1615610fd2565b335f52600160205260ff60405f20541615610d49576040518160048237207f0000000000000000000000000000000000000000000000000000000000000000344710610d2b5780763d602d80600a3d3981f3363d3d373d3d3d363d7300000062ffffff6e5af43d82803e903d91602b57fd5bf39360881c16175f5260781b17602052806037600934f56001600160a01b0390808216908115610d19576020935f526003845260405f20826bffffffffffffffffffffffff60a01b825416179055826084351680610d03575b50506040519160643516602435827fbfd5e2039d3537cb8378a5ba1d9a6170f92307d49369f6fadd6b2ee64ca254a75f80a48152f35b610d129160a4359133906110af565b8380610ccd565b60405163b06ebf3d60e01b8152600490fd5b60405163cf47918160e01b8152476004820152346024820152604490fd5b60405162461bcd60e51b815260206004820152601860248201527f4e6f742077686974656c6973746564207265736f6c76657200000000000000006044820152606490fd5b346101b4575f3660031901126101b4575f54610db4336001600160a01b03831614610f58565b60ff60a01b19165f557fb80d1ae5628c2af91424c54c87acfd15016be4bebeef0425b328238702f3483160206040515f8152a1005b346101b45760203660031901126101b457610e02610f14565b5f546001600160a01b039190610e1b9083163314610f58565b168015610e8957805f526001602052610e3b60ff60405f20541615610f90565b805f52600160205260405f20600160ff198254161790556004545f198114610498576001016004557f45fedec4fac25f615c1ed3c5890277618636de60b3ade84ae3006e93923fcb425f80a2005b60405162461bcd60e51b815260206004820152601060248201526f24b73b30b634b2103932b9b7b63b32b960811b6044820152606490fd5b346101b45760203660031901126101b4576004355f526003602052602060018060a01b0360405f205416604051908152f35b346101b4575f3660031901126101b45760209060ff5f5460a01c1615158152f35b600435906001600160a01b03821682036101b457565b9181601f840112156101b45782359167ffffffffffffffff83116101b457602083818601950101116101b457565b15610f5f57565b60405162461bcd60e51b81526020600482015260096024820152682737ba1037bbb732b960b91b6044820152606490fd5b15610f9757565b60405162461bcd60e51b8152602060048201526013602482015272105b1c9958591e481dda1a5d195b1a5cdd1959606a1b6044820152606490fd5b15610fd957565b60405162461bcd60e51b815260206004820152600f60248201526e141c9bdd1bd8dbdb081c185d5cd959608a1b6044820152606490fd5b9190820391821161049857565b1561102457565b60405162461bcd60e51b815260206004820152600f60248201526e139bdd081dda1a5d195b1a5cdd1959608a1b6044820152606490fd5b6e5af43d82803e903d91602b57fd5bf390763d602d80600a3d3981f3363d3d373d3d3d363d7300000062ffffff8260881c16175f5260781b17602052603760095ff5906001600160a01b03821615610d1957565b925f91606491602094604051926323b872dd60e01b845260048401526024830152604482015282855af190816110fa575b50156110e857565b60405163f405907160e01b8152600490fd5b90503d15611114575060015f5114601f3d11165b5f6110e0565b3b151561110e56fea26469706673582212201d7ca4bcbdab0727b07a1ba7258d5b2f15a0d2b473d4cd940ef841aed38afd4764736f6c634300081700336101a034610220576001600160401b0361105c601f38829003908101601f19168401908382118583101761020c57808591604094859485528339810103126102205782519263ffffffff84168094036102205760200151906001600160a01b038216820361022057306080524660a05280519061007b82610224565b600a825260036020830169424d4e2d457363726f7760b01b8152602083516100a281610224565b838152019362322e3360e81b85525190209220908260c0528160e05280519160208301937f8b73c3c69bb8fe3d512ecc4cf759cc79239f7b179b0ffacaa9a75d522b39400f85528284015260608301524660808301523060a083015260a0825260c08201948286109086111761020c5784905251902092610100938452610160903382526101409081526101209283526e5af43d82803e903d91602b57fd5bf360205230601152763d602d80600a3d3981f3363d3d373d3d3d363d730000003060881c175f52603760092092610180938452610e1c9586610240873960805186610ae2015260a05186610b05015260c05186610b95015260e05186610bbb01525185610ac00152518461077a01525183818160af01526104e701525182818161013d015281816102ca015281816104b00152818161065f015281816109260152610c91015251818181610113015281816102a0015281816104860152818161058b01526108fc0152f35b634e487b7160e01b5f52604160045260245ffd5b5f80fd5b604081019081106001600160401b0382111761020c5760405256fe6080604090808252600480361015610015575f80fd5b5f3560e01c9182630af97558146107505750816323305703146106dc578163265d3e971461068e5781632dd310001461064b578163344de82f146105ae57816334862b6a146105745781634649088b1461042e5781635d7d5e991461039e578163877435cd146101ed57816390d3252f146100d6575063f56cd69c14610099575f80fd5b346100d2575f3660031901126100d257602090517f00000000000000000000000000000000000000000000000000000000000000008152f35b5f80fd5b82346100d257610100806003193601126100d2576001600160a01b0391606435831691338390036101dd576055600b8592845181898237208451907f00000000000000000000000000000000000000000000000000000000000000008683015260208201527f000000000000000000000000000000000000000000000000000000000000000081520160ff8153201630036101ce5761017660e435610c39565b42106101bf5761018d60a435836084358616610d16565b61019960c43533610d98565b7f6e3be9294e58d10b9c8053cfd5e09871b67e442fe394d6b0870d336b9df984a95f80a1005b516337bf561360e11b81528390fd5b51635134a42560e11b81528390fd5b81516348f5c3ed60e01b81528590fd5b82346100d2576101403660031901126100d257813591610100806023193601126100d2576101243567ffffffffffffffff81116100d2576102319036908401610834565b906101043561023f81610c0b565b421061038e5761024e90610c39565b42101561037e5791610293600b9260559594875161026b81610862565b60138152724453545f5055424c49435f574954484452415760681b6020820152602435610c53565b84518160248237208451907f00000000000000000000000000000000000000000000000000000000000000008683015260208201527f000000000000000000000000000000000000000000000000000000000000000081520160ff8153919091206001600160a01b0391908216300361037057835f5260205f2060443503610362577fe346f5c97a360db5188bfa5d3ec5f0583abde420c6ba4d08b6cfe61addc171056020858561034f60c435606435881660a4358916610d16565b61035b60e43533610d98565b51908152a1005b825163abab6bd760e01b8152fd5b8251635134a42560e11b8152fd5b84516337bf561360e11b81528490fd5b85516337bf561360e11b81528590fd5b82346100d25760603660031901126100d257602435916001600160a01b03831683036100d2576044359067ffffffffffffffff82116100d257366023830112156100d25781810135936103f0856108b4565b916103fd85519384610892565b85835236602487860101116100d2575f602087819860246104279801838801378501015235610a4b565b9051908152f35b82346100d2576101403660031901126100d2578135916001600160a01b03808416918285036100d25760243591610100806043193601126100d2578160a43516330361056457600b60559187518160448237208751907f00000000000000000000000000000000000000000000000000000000000000008983015260208201527f000000000000000000000000000000000000000000000000000000000000000081520160ff815320163003610556576101243560e01c7f0000000000000000000000000000000000000000000000000000000000000000014210610548575061053b817fc4474c2790e13695f6d2b6f1d8e164290b55370f87a542fd7711abe0a1bf40ac953390610d16565b82519182526020820152a1005b83516337bf561360e11b8152fd5b8351635134a42560e11b8152fd5b85516348f5c3ed60e01b81528390fd5b82346100d2575f3660031901126100d257602090517f00000000000000000000000000000000000000000000000000000000000000008152f35b82346100d257366003190161012081126100d257610100136100d2576101043567ffffffffffffffff81116100d2576105ea9036908401610834565b916105f660e435610c39565b42106101bf575161062e9361060a82610862565b60118252701114d517d41550931250d7d0d05390d153607a1b602083015235610c53565b61018d60a4356001600160a01b0360643581169060843516610d16565b82346100d2575f3660031901126100d257517f00000000000000000000000000000000000000000000000000000000000000006001600160a01b03168152602090f35b82346100d257806003193601126100d25760243567ffffffffffffffff81116100d2576020926106c46106cb9236908301610834565b91356109f9565b90516001600160a01b039091168152f35b82346100d2576106eb36610811565b9160608301356001600160a01b031633036107415760e083013563ffffffff8160e01c9160801c16810180911161072e5742106101bf5761072c83836108d0565b005b601185634e487b7160e01b5f525260245ffd5b516348f5c3ed60e01b81528390fd5b8390346100d25761076036610811565b6370a0823160e01b835233858401529290916020816024817f00000000000000000000000000000000000000000000000000000000000000006001600160a01b03165afa908115610807575f916107d5575b5015610741576107c560e0840135610c0b565b42106101bf5761072c83836108d0565b90506020813d6020116107ff575b816107f060209383610892565b810103126100d25751856107b2565b3d91506107e3565b82513d5f823e3d90fd5b906101206003198301126100d2576101006004359260231901126100d257602490565b9181601f840112156100d25782359167ffffffffffffffff83116100d257602083818601950101116100d257565b6040810190811067ffffffffffffffff82111761087e57604052565b634e487b7160e01b5f52604160045260245ffd5b90601f8019910116810190811067ffffffffffffffff82111761087e57604052565b67ffffffffffffffff811161087e57601f01601f191660200190565b906108de60e0820135610c39565b4210156109e7576040906055600b83516101009081858237208451907f00000000000000000000000000000000000000000000000000000000000000008683015260208201527f000000000000000000000000000000000000000000000000000000000000000081520160ff8153206001600160a01b0390811630036109d657835f5260205f206020830135036109c557916109be60c0836109b660209660a07fe346f5c97a360db5188bfa5d3ec5f0583abde420c6ba4d08b6cfe61addc17105999701359080878501351690608085013516610d16565b013533610d98565b51908152a1565b825163abab6bd760e01b8152600490fd5b8251635134a42560e11b8152600490fd5b6040516337bf561360e11b8152600490fd5b9091604103610a455760805f91602080946040519283526040810135851a82840152803560408401520135606082015282805260015afa15610a3a575f5190565b6040513d5f823e3d90fd5b50505f90565b91602081519101209160409283519260208401927fd6ae97ebc6a7fcc26983b667d1787f39e1b4383b40a13b0c604f9aa744952bb384528585015260018060a01b0316606084015260808301526080825260a082019267ffffffffffffffff918385108386111761087e5784825283519020927f0000000000000000000000000000000000000000000000000000000000000000947f000000000000000000000000000000000000000000000000000000000000000030147f000000000000000000000000000000000000000000000000000000000000000046141615610b64575b5050805192602084019461190160f01b8652602285015260428401526042835260808301918383109083111761087e575251902090565b9091945061016060c08301927f8b73c3c69bb8fe3d512ecc4cf759cc79239f7b179b0ffacaa9a75d522b39400f84527f000000000000000000000000000000000000000000000000000000000000000060e08201527f0000000000000000000000000000000000000000000000000000000000000000610100820152466101208201523061014082015260a08352018181108482111761087e578552519020925f80610b2d565b63ffffffff8160e01c9160a01c168101809111610c255790565b634e487b7160e01b5f52601160045260245ffd5b63ffffffff8160e01c9160c01c168101809111610c255790565b92602092610c68610c6d936024963390610a4b565b6109f9565b604051633625638b60e21b81526001600160a01b03918216600482015292839182907f0000000000000000000000000000000000000000000000000000000000000000165afa908115610a3a575f91610cdb575b5015610cc957565b6040516348f5c3ed60e01b8152600490fd5b90506020813d602011610d0e575b81610cf660209383610892565b810103126100d2575180151581036100d2575f610cc1565b3d9150610ce9565b6001600160a01b0316919082610d3257610d309250610d98565b565b60445f916020936040519163a9059cbb60e01b83526004830152602482015282855af19081610d76575b5015610d6457565b60405163fb7f507960e01b8152600490fd5b90503d15610d90575060015f5114601f3d11165b5f610d5c565b3b1515610d8a565b5f80809381935af13d15610de1573d610db0816108b4565b90610dbe6040519283610892565b81525f60203d92013e5b15610dcf57565b604051638a0332d560e01b8152600490fd5b610dc856fea264697066735822122028a0b38ef49f86f4c34eb9c127afe5d778cf43693377498d3f9e26690fdc860764736f6c634300081700336101a034610227576001600160401b03611280601f38829003908101601f19168401908382118583101761021357808591604094859485528339810103126102275782519263ffffffff84168094036102275760200151906001600160a01b038216820361022757306080524660a05280519061007b8261022b565b600a825260036020830169424d4e2d457363726f7760b01b8152602083516100a28161022b565b838152019362322e3360e81b85525190209220908260c0528160e05280519160208301937f8b73c3c69bb8fe3d512ecc4cf759cc79239f7b179b0ffacaa9a75d522b39400f85528284015260608301524660808301523060a083015260a0825260c0820194828610908611176102135784905251902092610100938452610160903382526101409081526101209283526e5af43d82803e903d91602b57fd5bf360205230601152763d602d80600a3d3981f3363d3d373d3d3d363d730000003060881c175f526037600920926101809384526110399586610247873960805186610b47015260a05186610b6a015260c05186610bfa015260e05186610c2001525185610b25015251848181610122015261088201525183818160c5015261059e0152518281816103300152818161073301528181610d2701528181610dec01528181610e790152610ef30152518181816103060152818161064801528181610dc101528181610e4e0152610ec80152f35b634e487b7160e01b5f52604160045260245ffd5b5f80fd5b604081019081106001600160401b038211176102135760405256fe6080604090808252600480361015610015575f80fd5b5f3560e01c9182630af975581461084a5750816323305703146107b0578163265d3e97146107625781632dd310001461071f578163344de82f1461066b57816334862b6a146106315781634649088b1461054a5781635d7d5e99146104c55781636c10c0c8146103e3578163877435cd1461024757816390d3252f14610215578163daff233e146100ec575063f56cd69c146100af575f80fd5b346100e8575f3660031901126100e857602090517f00000000000000000000000000000000000000000000000000000000000000008152f35b5f80fd5b82346100e8576101003660031901126100e85780516370a0823160e01b815233838201526001600160a01b0391906020816024817f000000000000000000000000000000000000000000000000000000000000000087165afa90811561020b575f916101d9575b50156101ca5761016460e435610ccf565b42106101bb5761018982610176610dac565b60a4359080604435169060843516610f2e565b61019560c43533610f95565b7f6e3be9294e58d10b9c8053cfd5e09871b67e442fe394d6b0870d336b9df984a95f80a1005b516337bf561360e11b81529050fd5b516348f5c3ed60e01b81529050fd5b90506020813d602011610203575b816101f460209383610a20565b810103126100e8575184610153565b3d91506101e7565b82513d5f823e3d90fd5b82346100e8576101003660031901126100e8576001600160a01b0390606435821633036101ca5761016460e435610c9e565b82346100e8576101403660031901126100e857813591610100806023193601126100e8576101243567ffffffffffffffff81116100e85761028b90369084016109ac565b906101043561029981610c70565b42106103d3576102a890610c9e565b4210156103c357600b9392916102eb9186516102c3816109f0565b60138152725352435f5055424c49435f574954484452415760681b6020820152602435610ce9565b83516001600160a01b039384926055928160248237208651907f00000000000000000000000000000000000000000000000000000000000000008883015260208201527f000000000000000000000000000000000000000000000000000000000000000081520160ff8153201630036103b557835f5260205f20604435036103a7575f80516020610fe48339815191526020858561039460c435608435881660a4358916610f2e565b6103a060e43533610f95565b51908152a1005b825163abab6bd760e01b8152fd5b8251635134a42560e11b8152fd5b84516337bf561360e11b81528490fd5b85516337bf561360e11b81528590fd5b82346100e8576101403660031901126100e8578135916104016109da565b6101003660431901126100e8576001600160a01b039160a435831633036104b7576101243561042f81610cb8565b42106104a85761043e90610c9e565b42101561049a5761044d610e39565b845f5260205f206064350361048c575f80516020610fe48339815191526020868661047f60e4358760c4358a16610f2e565b6103a06101043533610f95565b835163abab6bd760e01b8152fd5b83516337bf561360e11b8152fd5b5083516337bf561360e11b8152fd5b83516348f5c3ed60e01b8152fd5b82346100e85760603660031901126100e8576104df6109da565b916044359067ffffffffffffffff82116100e857366023830112156100e857818101359361050c85610a42565b9161051985519384610a20565b85835236602487860101116100e8575f602087819860246105439801838801378501015235610ab0565b9051908152f35b82346100e8576101403660031901126100e85781356001600160a01b03818116918290036100e857602435906101003660431901126100e85760a43516330361062257610595610e39565b6101243560e01c7f0000000000000000000000000000000000000000000000000000000000000000014210610613577fc4474c2790e13695f6d2b6f1d8e164290b55370f87a542fd7711abe0a1bf40ac935081610603576105f68133610f95565b82519182526020820152a1005b61060e813384610f2e565b6105f6565b5050516337bf561360e11b8152fd5b5050516348f5c3ed60e01b8152fd5b82346100e8575f3660031901126100e857602090517f00000000000000000000000000000000000000000000000000000000000000008152f35b82346100e857366003190161012081126100e857610100136100e8576101043567ffffffffffffffff81116100e8576106a790369084016109ac565b916106b360e435610ccf565b421061071057516106eb936106c7826109f0565b601182527014d490d7d41550931250d7d0d05390d153607a1b602083015235610ce9565b6106f3610dac565b61018960a4356001600160a01b0360443581169060843516610f2e565b516337bf561360e11b81528390fd5b82346100e8575f3660031901126100e857517f00000000000000000000000000000000000000000000000000000000000000006001600160a01b03168152602090f35b82346100e857806003193601126100e85760243567ffffffffffffffff81116100e85760209261079861079f92369083016109ac565b9135610a5e565b90516001600160a01b039091168152f35b82346100e8576107bf36610989565b90926001600160a01b03906060830135821633036104b75760e08301356107e581610cb8565b42106104a8576107f490610c9e565b42101561049a5761080483610eb4565b845f5260205f2060208401350361048c575f80516020610fe4833981519152602086866103a060c08861084260a08201353360808401358c16610f2e565b013533610f95565b9150346100e85761085a36610989565b6370a0823160e01b8452338484015293602093919290916001600160a01b03919085816024817f000000000000000000000000000000000000000000000000000000000000000087165afa90811561097f575f91610952575b50156109445760e08601356108c781610c70565b4210610935576108d690610c9e565b421015610927576108e686610eb4565b835f52845f2085870135036103a7575060c0856108426103a09360a05f80516020610fe4833981519152990135908060608501351690608085013516610f2e565b82516337bf561360e11b8152fd5b5082516337bf561360e11b8152fd5b82516348f5c3ed60e01b8152fd5b90508581813d8311610978575b6109698183610a20565b810103126100e857515f6108b3565b503d61095f565b84513d5f823e3d90fd5b906101206003198301126100e8576101006004359260231901126100e857602490565b9181601f840112156100e85782359167ffffffffffffffff83116100e857602083818601950101116100e857565b602435906001600160a01b03821682036100e857565b6040810190811067ffffffffffffffff821117610a0c57604052565b634e487b7160e01b5f52604160045260245ffd5b90601f8019910116810190811067ffffffffffffffff821117610a0c57604052565b67ffffffffffffffff8111610a0c57601f01601f191660200190565b9091604103610aaa5760805f91602080946040519283526040810135851a82840152803560408401520135606082015282805260015afa15610a9f575f5190565b6040513d5f823e3d90fd5b50505f90565b91602081519101209160409283519260208401927fd6ae97ebc6a7fcc26983b667d1787f39e1b4383b40a13b0c604f9aa744952bb384528585015260018060a01b0316606084015260808301526080825260a082019267ffffffffffffffff9183851083861117610a0c5784825283519020927f0000000000000000000000000000000000000000000000000000000000000000947f000000000000000000000000000000000000000000000000000000000000000030147f000000000000000000000000000000000000000000000000000000000000000046141615610bc9575b5050805192602084019461190160f01b86526022850152604284015260428352608083019183831090831117610a0c575251902090565b9091945061016060c08301927f8b73c3c69bb8fe3d512ecc4cf759cc79239f7b179b0ffacaa9a75d522b39400f84527f000000000000000000000000000000000000000000000000000000000000000060e08201527f0000000000000000000000000000000000000000000000000000000000000000610100820152466101208201523061014082015260a083520181811084821117610a0c578552519020925f80610b92565b63ffffffff8160e01c9160201c168101809111610c8a5790565b634e487b7160e01b5f52601160045260245ffd5b63ffffffff8160e01c9160401c168101809111610c8a5790565b63ffffffff8160e01c91168101809111610c8a5790565b63ffffffff8160e01c9160601c168101809111610c8a5790565b92602092610cfe610d03936024963390610ab0565b610a5e565b604051633625638b60e21b81526001600160a01b03918216600482015292839182907f0000000000000000000000000000000000000000000000000000000000000000165afa908115610a9f575f91610d71575b5015610d5f57565b6040516348f5c3ed60e01b8152600490fd5b90506020813d602011610da4575b81610d8c60209383610a20565b810103126100e8575180151581036100e8575f610d57565b3d9150610d7f565b600b60405161010090816004823720604051907f0000000000000000000000000000000000000000000000000000000000000000604083015260208201527f000000000000000000000000000000000000000000000000000000000000000081520160ff8153605590206001600160a01b03163003610e2757565b604051635134a42560e11b8152600490fd5b600b60405161010090816044823720604051907f0000000000000000000000000000000000000000000000000000000000000000604083015260208201527f000000000000000000000000000000000000000000000000000000000000000081520160ff8153605590206001600160a01b03163003610e2757565b600b906040516101008092823720604051907f0000000000000000000000000000000000000000000000000000000000000000604083015260208201527f000000000000000000000000000000000000000000000000000000000000000081520160ff8153605590206001600160a01b03163003610e2757565b9160446020925f926040519163a9059cbb60e01b83526004830152602482015282855af19081610f73575b5015610f6157565b60405163fb7f507960e01b8152600490fd5b90503d15610f8d575060015f5114601f3d11165b5f610f59565b3b1515610f87565b5f80809381935af13d15610fde573d610fad81610a42565b90610fbb6040519283610a20565b81525f60203d92013e5b15610fcc57565b604051638a0332d560e01b8152600490fd5b610fc556fee346f5c97a360db5188bfa5d3ec5f0583abde420c6ba4d08b6cfe61addc17105a26469706673582212201c71e56012333076baad5aa309379dd853542ad3aca7991198a07e6d94827c6164736f6c63430008170033",
    "linkReferences": {}
  },
  "methodIdentifiers": {
    "ESCROW_DST_IMPLEMENTATION()": "ba551177",
    "ESCROW_SRC_IMPLEMENTATION()": "7040f173",
    "addMaker(address)": "d4ec1fc2",
    "addResolver(address)": "390a0b6f",
    "addressOfEscrow((bytes32,bytes32,uint256,uint256,uint256,uint256,uint256,uint256),bool)": "af8a1b27",
    "createDstEscrow((bytes32,bytes32,uint256,uint256,uint256,uint256,uint256,uint256))": "4579d04b",
    "createSrcEscrow((bytes32,bytes32,uint256,uint256,uint256,uint256,uint256,uint256),address,address,uint256)": "793a31a5",
    "emergencyPaused()": "27c830a9",
    "escrows(bytes32)": "2d83549c",
    "isWhitelistedResolver(address)": "d8958e2c",
    "makerWhitelistEnabled()": "7bc17ed1",
    "owner()": "8da5cb5b",
    "pause()": "8456cb59",
    "postInteraction((uint256,uint256,uint256,uint256,uint256,uint256,uint256,uint256),bytes,bytes32,address,uint256,uint256,uint256,bytes)": "462ebde2",
    "removeMaker(address)": "5413f4df",
    "removeResolver(address)": "a1333536",
    "resolverCount()": "a674b197",
    "setMakerWhitelistEnabled(bool)": "802fd960",
    "transferOwnership(address)": "f2fde38b",
    "unpause()": "3f4ba83a",
    "whitelistedMakers(address)": "96a8a53b",
    "whitelistedResolvers(address)": "aa80eb29"
  },
  "id": 10
}