{
  "abi": [
    {
      "type": "constructor",
      "inputs": [
        {
          "name": "limitOrderProtocol",
          "type": "address",
          "internalType": "address"
        },
        {
          "name": "feeToken",
          "type": "address",
          "internalType": "contract IERC20"
        },
        {
          "name": "accessToken",
          "type": "address",
          "internalType": "contract IERC20"
        },
        {
          "name": "owner",
          "type": "address",
          "internalType": "address"
        },
        {
          "name": "rescueDelaySrc",
          "type": "uint32",
          "internalType": "uint32"
        },
        {
          "name": "rescueDelayDst",
          "type": "uint32",
          "internalType": "uint32"
        }
      ],
      "stateMutability": "nonpayable"
    },
    {
      "type": "function",
      "name": "ACCESS_TOKEN",
      "inputs": [],
      "outputs": [
        {
          "name": "",
          "type": "address",
          "internalType": "contract IERC20"
        }
      ],
      "stateMutability": "view"
    },
    {
      "type": "function",
      "name": "ESCROW_DST_IMPLEMENTATION",
      "inputs": [],
      "outputs": [
        {
          "name": "",
          "type": "address",
          "internalType": "address"
        }
      ],
      "stateMutability": "view"
    },
    {
      "type": "function",
      "name": "ESCROW_SRC_IMPLEMENTATION",
      "inputs": [],
      "outputs": [
        {
          "name": "",
          "type": "address",
          "internalType": "address"
        }
      ],
      "stateMutability": "view"
    },
    {
      "type": "function",
      "name": "FEE_TOKEN",
      "inputs": [],
      "outputs": [
        {
          "name": "",
          "type": "address",
          "internalType": "contract IERC20"
        }
      ],
      "stateMutability": "view"
    },
    {
      "type": "function",
      "name": "LIMIT_ORDER_PROTOCOL",
      "inputs": [],
      "outputs": [
        {
          "name": "",
          "type": "address",
          "internalType": "address"
        }
      ],
      "stateMutability": "view"
    },
    {
      "type": "function",
      "name": "OWNER",
      "inputs": [],
      "outputs": [
        {
          "name": "",
          "type": "address",
          "internalType": "address"
        }
      ],
      "stateMutability": "view"
    },
    {
      "type": "function",
      "name": "addressOfEscrowDst",
      "inputs": [
        {
          "name": "immutables",
          "type": "tuple",
          "internalType": "struct IBaseEscrow.Immutables",
          "components": [
            {
              "name": "orderHash",
              "type": "bytes32",
              "internalType": "bytes32"
            },
            {
              "name": "hashlock",
              "type": "bytes32",
              "internalType": "bytes32"
            },
            {
              "name": "maker",
              "type": "uint256",
              "internalType": "Address"
            },
            {
              "name": "taker",
              "type": "uint256",
              "internalType": "Address"
            },
            {
              "name": "token",
              "type": "uint256",
              "internalType": "Address"
            },
            {
              "name": "amount",
              "type": "uint256",
              "internalType": "uint256"
            },
            {
              "name": "safetyDeposit",
              "type": "uint256",
              "internalType": "uint256"
            },
            {
              "name": "timelocks",
              "type": "uint256",
              "internalType": "Timelocks"
            }
          ]
        }
      ],
      "outputs": [
        {
          "name": "",
          "type": "address",
          "internalType": "address"
        }
      ],
      "stateMutability": "view"
    },
    {
      "type": "function",
      "name": "addressOfEscrowSrc",
      "inputs": [
        {
          "name": "immutables",
          "type": "tuple",
          "internalType": "struct IBaseEscrow.Immutables",
          "components": [
            {
              "name": "orderHash",
              "type": "bytes32",
              "internalType": "bytes32"
            },
            {
              "name": "hashlock",
              "type": "bytes32",
              "internalType": "bytes32"
            },
            {
              "name": "maker",
              "type": "uint256",
              "internalType": "Address"
            },
            {
              "name": "taker",
              "type": "uint256",
              "internalType": "Address"
            },
            {
              "name": "token",
              "type": "uint256",
              "internalType": "Address"
            },
            {
              "name": "amount",
              "type": "uint256",
              "internalType": "uint256"
            },
            {
              "name": "safetyDeposit",
              "type": "uint256",
              "internalType": "uint256"
            },
            {
              "name": "timelocks",
              "type": "uint256",
              "internalType": "Timelocks"
            }
          ]
        }
      ],
      "outputs": [
        {
          "name": "",
          "type": "address",
          "internalType": "address"
        }
      ],
      "stateMutability": "view"
    },
    {
      "type": "function",
      "name": "computeSrcEscrowAddress",
      "inputs": [
        {
          "name": "immutables",
          "type": "tuple",
          "internalType": "struct IBaseEscrow.Immutables",
          "components": [
            {
              "name": "orderHash",
              "type": "bytes32",
              "internalType": "bytes32"
            },
            {
              "name": "hashlock",
              "type": "bytes32",
              "internalType": "bytes32"
            },
            {
              "name": "maker",
              "type": "uint256",
              "internalType": "Address"
            },
            {
              "name": "taker",
              "type": "uint256",
              "internalType": "Address"
            },
            {
              "name": "token",
              "type": "uint256",
              "internalType": "Address"
            },
            {
              "name": "amount",
              "type": "uint256",
              "internalType": "uint256"
            },
            {
              "name": "safetyDeposit",
              "type": "uint256",
              "internalType": "uint256"
            },
            {
              "name": "timelocks",
              "type": "uint256",
              "internalType": "Timelocks"
            }
          ]
        }
      ],
      "outputs": [
        {
          "name": "",
          "type": "address",
          "internalType": "address"
        }
      ],
      "stateMutability": "view"
    },
    {
      "type": "function",
      "name": "createDstEscrow",
      "inputs": [
        {
          "name": "dstImmutables",
          "type": "tuple",
          "internalType": "struct IBaseEscrow.Immutables",
          "components": [
            {
              "name": "orderHash",
              "type": "bytes32",
              "internalType": "bytes32"
            },
            {
              "name": "hashlock",
              "type": "bytes32",
              "internalType": "bytes32"
            },
            {
              "name": "maker",
              "type": "uint256",
              "internalType": "Address"
            },
            {
              "name": "taker",
              "type": "uint256",
              "internalType": "Address"
            },
            {
              "name": "token",
              "type": "uint256",
              "internalType": "Address"
            },
            {
              "name": "amount",
              "type": "uint256",
              "internalType": "uint256"
            },
            {
              "name": "safetyDeposit",
              "type": "uint256",
              "internalType": "uint256"
            },
            {
              "name": "timelocks",
              "type": "uint256",
              "internalType": "Timelocks"
            }
          ]
        },
        {
          "name": "srcCancellationTimestamp",
          "type": "uint256",
          "internalType": "uint256"
        }
      ],
      "outputs": [],
      "stateMutability": "payable"
    },
    {
      "type": "function",
      "name": "createSrcEscrowForTesting",
      "inputs": [
        {
          "name": "immutables",
          "type": "tuple",
          "internalType": "struct IBaseEscrow.Immutables",
          "components": [
            {
              "name": "orderHash",
              "type": "bytes32",
              "internalType": "bytes32"
            },
            {
              "name": "hashlock",
              "type": "bytes32",
              "internalType": "bytes32"
            },
            {
              "name": "maker",
              "type": "uint256",
              "internalType": "Address"
            },
            {
              "name": "taker",
              "type": "uint256",
              "internalType": "Address"
            },
            {
              "name": "token",
              "type": "uint256",
              "internalType": "Address"
            },
            {
              "name": "amount",
              "type": "uint256",
              "internalType": "uint256"
            },
            {
              "name": "safetyDeposit",
              "type": "uint256",
              "internalType": "uint256"
            },
            {
              "name": "timelocks",
              "type": "uint256",
              "internalType": "Timelocks"
            }
          ]
        },
        {
          "name": "prefundAmount",
          "type": "uint256",
          "internalType": "uint256"
        }
      ],
      "outputs": [
        {
          "name": "escrow",
          "type": "address",
          "internalType": "address"
        }
      ],
      "stateMutability": "nonpayable"
    },
    {
      "type": "function",
      "name": "deploySrcEscrowWithFactoryTokens",
      "inputs": [
        {
          "name": "immutables",
          "type": "tuple",
          "internalType": "struct IBaseEscrow.Immutables",
          "components": [
            {
              "name": "orderHash",
              "type": "bytes32",
              "internalType": "bytes32"
            },
            {
              "name": "hashlock",
              "type": "bytes32",
              "internalType": "bytes32"
            },
            {
              "name": "maker",
              "type": "uint256",
              "internalType": "Address"
            },
            {
              "name": "taker",
              "type": "uint256",
              "internalType": "Address"
            },
            {
              "name": "token",
              "type": "uint256",
              "internalType": "Address"
            },
            {
              "name": "amount",
              "type": "uint256",
              "internalType": "uint256"
            },
            {
              "name": "safetyDeposit",
              "type": "uint256",
              "internalType": "uint256"
            },
            {
              "name": "timelocks",
              "type": "uint256",
              "internalType": "Timelocks"
            }
          ]
        }
      ],
      "outputs": [
        {
          "name": "escrow",
          "type": "address",
          "internalType": "address"
        }
      ],
      "stateMutability": "nonpayable"
    },
    {
      "type": "function",
      "name": "getMakingAmount",
      "inputs": [
        {
          "name": "order",
          "type": "tuple",
          "internalType": "struct IOrderMixin.Order",
          "components": [
            {
              "name": "salt",
              "type": "uint256",
              "internalType": "uint256"
            },
            {
              "name": "maker",
              "type": "uint256",
              "internalType": "Address"
            },
            {
              "name": "receiver",
              "type": "uint256",
              "internalType": "Address"
            },
            {
              "name": "makerAsset",
              "type": "uint256",
              "internalType": "Address"
            },
            {
              "name": "takerAsset",
              "type": "uint256",
              "internalType": "Address"
            },
            {
              "name": "makingAmount",
              "type": "uint256",
              "internalType": "uint256"
            },
            {
              "name": "takingAmount",
              "type": "uint256",
              "internalType": "uint256"
            },
            {
              "name": "makerTraits",
              "type": "uint256",
              "internalType": "MakerTraits"
            }
          ]
        },
        {
          "name": "",
          "type": "bytes",
          "internalType": "bytes"
        },
        {
          "name": "",
          "type": "bytes32",
          "internalType": "bytes32"
        },
        {
          "name": "",
          "type": "address",
          "internalType": "address"
        },
        {
          "name": "takingAmount",
          "type": "uint256",
          "internalType": "uint256"
        },
        {
          "name": "",
          "type": "uint256",
          "internalType": "uint256"
        },
        {
          "name": "extraData",
          "type": "bytes",
          "internalType": "bytes"
        }
      ],
      "outputs": [
        {
          "name": "",
          "type": "uint256",
          "internalType": "uint256"
        }
      ],
      "stateMutability": "view"
    },
    {
      "type": "function",
      "name": "getTakingAmount",
      "inputs": [
        {
          "name": "order",
          "type": "tuple",
          "internalType": "struct IOrderMixin.Order",
          "components": [
            {
              "name": "salt",
              "type": "uint256",
              "internalType": "uint256"
            },
            {
              "name": "maker",
              "type": "uint256",
              "internalType": "Address"
            },
            {
              "name": "receiver",
              "type": "uint256",
              "internalType": "Address"
            },
            {
              "name": "makerAsset",
              "type": "uint256",
              "internalType": "Address"
            },
            {
              "name": "takerAsset",
              "type": "uint256",
              "internalType": "Address"
            },
            {
              "name": "makingAmount",
              "type": "uint256",
              "internalType": "uint256"
            },
            {
              "name": "takingAmount",
              "type": "uint256",
              "internalType": "uint256"
            },
            {
              "name": "makerTraits",
              "type": "uint256",
              "internalType": "MakerTraits"
            }
          ]
        },
        {
          "name": "",
          "type": "bytes",
          "internalType": "bytes"
        },
        {
          "name": "",
          "type": "bytes32",
          "internalType": "bytes32"
        },
        {
          "name": "",
          "type": "address",
          "internalType": "address"
        },
        {
          "name": "makingAmount",
          "type": "uint256",
          "internalType": "uint256"
        },
        {
          "name": "",
          "type": "uint256",
          "internalType": "uint256"
        },
        {
          "name": "extraData",
          "type": "bytes",
          "internalType": "bytes"
        }
      ],
      "outputs": [
        {
          "name": "",
          "type": "uint256",
          "internalType": "uint256"
        }
      ],
      "stateMutability": "view"
    },
    {
      "type": "function",
      "name": "lastValidated",
      "inputs": [
        {
          "name": "key",
          "type": "bytes32",
          "internalType": "bytes32"
        }
      ],
      "outputs": [
        {
          "name": "index",
          "type": "uint256",
          "internalType": "uint256"
        },
        {
          "name": "leaf",
          "type": "bytes32",
          "internalType": "bytes32"
        }
      ],
      "stateMutability": "view"
    },
    {
      "type": "function",
      "name": "postInteraction",
      "inputs": [
        {
          "name": "order",
          "type": "tuple",
          "internalType": "struct IOrderMixin.Order",
          "components": [
            {
              "name": "salt",
              "type": "uint256",
              "internalType": "uint256"
            },
            {
              "name": "maker",
              "type": "uint256",
              "internalType": "Address"
            },
            {
              "name": "receiver",
              "type": "uint256",
              "internalType": "Address"
            },
            {
              "name": "makerAsset",
              "type": "uint256",
              "internalType": "Address"
            },
            {
              "name": "takerAsset",
              "type": "uint256",
              "internalType": "Address"
            },
            {
              "name": "makingAmount",
              "type": "uint256",
              "internalType": "uint256"
            },
            {
              "name": "takingAmount",
              "type": "uint256",
              "internalType": "uint256"
            },
            {
              "name": "makerTraits",
              "type": "uint256",
              "internalType": "MakerTraits"
            }
          ]
        },
        {
          "name": "extension",
          "type": "bytes",
          "internalType": "bytes"
        },
        {
          "name": "orderHash",
          "type": "bytes32",
          "internalType": "bytes32"
        },
        {
          "name": "taker",
          "type": "address",
          "internalType": "address"
        },
        {
          "name": "makingAmount",
          "type": "uint256",
          "internalType": "uint256"
        },
        {
          "name": "takingAmount",
          "type": "uint256",
          "internalType": "uint256"
        },
        {
          "name": "remainingMakingAmount",
          "type": "uint256",
          "internalType": "uint256"
        },
        {
          "name": "extraData",
          "type": "bytes",
          "internalType": "bytes"
        }
      ],
      "outputs": [],
      "stateMutability": "nonpayable"
    },
    {
      "type": "function",
      "name": "preInteraction",
      "inputs": [
        {
          "name": "order",
          "type": "tuple",
          "internalType": "struct IOrderMixin.Order",
          "components": [
            {
              "name": "salt",
              "type": "uint256",
              "internalType": "uint256"
            },
            {
              "name": "maker",
              "type": "uint256",
              "internalType": "Address"
            },
            {
              "name": "receiver",
              "type": "uint256",
              "internalType": "Address"
            },
            {
              "name": "makerAsset",
              "type": "uint256",
              "internalType": "Address"
            },
            {
              "name": "takerAsset",
              "type": "uint256",
              "internalType": "Address"
            },
            {
              "name": "makingAmount",
              "type": "uint256",
              "internalType": "uint256"
            },
            {
              "name": "takingAmount",
              "type": "uint256",
              "internalType": "uint256"
            },
            {
              "name": "makerTraits",
              "type": "uint256",
              "internalType": "MakerTraits"
            }
          ]
        },
        {
          "name": "extension",
          "type": "bytes",
          "internalType": "bytes"
        },
        {
          "name": "orderHash",
          "type": "bytes32",
          "internalType": "bytes32"
        },
        {
          "name": "taker",
          "type": "address",
          "internalType": "address"
        },
        {
          "name": "makingAmount",
          "type": "uint256",
          "internalType": "uint256"
        },
        {
          "name": "takingAmount",
          "type": "uint256",
          "internalType": "uint256"
        },
        {
          "name": "remainingMakingAmount",
          "type": "uint256",
          "internalType": "uint256"
        },
        {
          "name": "extraData",
          "type": "bytes",
          "internalType": "bytes"
        }
      ],
      "outputs": [],
      "stateMutability": "nonpayable"
    },
    {
      "type": "function",
      "name": "takerInteraction",
      "inputs": [
        {
          "name": "",
          "type": "tuple",
          "internalType": "struct IOrderMixin.Order",
          "components": [
            {
              "name": "salt",
              "type": "uint256",
              "internalType": "uint256"
            },
            {
              "name": "maker",
              "type": "uint256",
              "internalType": "Address"
            },
            {
              "name": "receiver",
              "type": "uint256",
              "internalType": "Address"
            },
            {
              "name": "makerAsset",
              "type": "uint256",
              "internalType": "Address"
            },
            {
              "name": "takerAsset",
              "type": "uint256",
              "internalType": "Address"
            },
            {
              "name": "makingAmount",
              "type": "uint256",
              "internalType": "uint256"
            },
            {
              "name": "takingAmount",
              "type": "uint256",
              "internalType": "uint256"
            },
            {
              "name": "makerTraits",
              "type": "uint256",
              "internalType": "MakerTraits"
            }
          ]
        },
        {
          "name": "extension",
          "type": "bytes",
          "internalType": "bytes"
        },
        {
          "name": "orderHash",
          "type": "bytes32",
          "internalType": "bytes32"
        },
        {
          "name": "",
          "type": "address",
          "internalType": "address"
        },
        {
          "name": "",
          "type": "uint256",
          "internalType": "uint256"
        },
        {
          "name": "",
          "type": "uint256",
          "internalType": "uint256"
        },
        {
          "name": "",
          "type": "uint256",
          "internalType": "uint256"
        },
        {
          "name": "extraData",
          "type": "bytes",
          "internalType": "bytes"
        }
      ],
      "outputs": [],
      "stateMutability": "nonpayable"
    },
    {
      "type": "event",
      "name": "DstEscrowCreated",
      "inputs": [
        {
          "name": "escrow",
          "type": "address",
          "indexed": false,
          "internalType": "address"
        },
        {
          "name": "hashlock",
          "type": "bytes32",
          "indexed": false,
          "internalType": "bytes32"
        },
        {
          "name": "taker",
          "type": "uint256",
          "indexed": false,
          "internalType": "Address"
        }
      ],
      "anonymous": false
    },
    {
      "type": "event",
      "name": "SrcEscrowCreated",
      "inputs": [
        {
          "name": "srcImmutables",
          "type": "tuple",
          "indexed": false,
          "internalType": "struct IBaseEscrow.Immutables",
          "components": [
            {
              "name": "orderHash",
              "type": "bytes32",
              "internalType": "bytes32"
            },
            {
              "name": "hashlock",
              "type": "bytes32",
              "internalType": "bytes32"
            },
            {
              "name": "maker",
              "type": "uint256",
              "internalType": "Address"
            },
            {
              "name": "taker",
              "type": "uint256",
              "internalType": "Address"
            },
            {
              "name": "token",
              "type": "uint256",
              "internalType": "Address"
            },
            {
              "name": "amount",
              "type": "uint256",
              "internalType": "uint256"
            },
            {
              "name": "safetyDeposit",
              "type": "uint256",
              "internalType": "uint256"
            },
            {
              "name": "timelocks",
              "type": "uint256",
              "internalType": "Timelocks"
            }
          ]
        },
        {
          "name": "dstImmutablesComplement",
          "type": "tuple",
          "indexed": false,
          "internalType": "struct IEscrowFactory.DstImmutablesComplement",
          "components": [
            {
              "name": "maker",
              "type": "uint256",
              "internalType": "Address"
            },
            {
              "name": "amount",
              "type": "uint256",
              "internalType": "uint256"
            },
            {
              "name": "token",
              "type": "uint256",
              "internalType": "Address"
            },
            {
              "name": "safetyDeposit",
              "type": "uint256",
              "internalType": "uint256"
            },
            {
              "name": "chainId",
              "type": "uint256",
              "internalType": "uint256"
            }
          ]
        }
      ],
      "anonymous": false
    },
    {
      "type": "error",
      "name": "AccessDenied",
      "inputs": []
    },
    {
      "type": "error",
      "name": "FailedDeployment",
      "inputs": []
    },
    {
      "type": "error",
      "name": "InsufficientBalance",
      "inputs": [
        {
          "name": "balance",
          "type": "uint256",
          "internalType": "uint256"
        },
        {
          "name": "needed",
          "type": "uint256",
          "internalType": "uint256"
        }
      ]
    },
    {
      "type": "error",
      "name": "InsufficientEscrowBalance",
      "inputs": []
    },
    {
      "type": "error",
      "name": "InvalidCreationTime",
      "inputs": []
    },
    {
      "type": "error",
      "name": "InvalidPartialFill",
      "inputs": []
    },
    {
      "type": "error",
      "name": "InvalidProof",
      "inputs": []
    },
    {
      "type": "error",
      "name": "InvalidSecretsAmount",
      "inputs": []
    },
    {
      "type": "error",
      "name": "OnlyLimitOrderProtocol",
      "inputs": []
    },
    {
      "type": "error",
      "name": "SafeERC20FailedOperation",
      "inputs": [
        {
          "name": "token",
          "type": "address",
          "internalType": "address"
        }
      ]
    },
    {
      "type": "error",
      "name": "SafeTransferFromFailed",
      "inputs": []
    }
  ],
  "bytecode": {
    "object": "0x6101a034620002b0576001600160401b03601f62003ada38819003918201601f1916840191908383118584101762000292578160c09286926040958652833981010312620002b0576200005283620002b4565b926200006160208201620002b4565b906200006f838201620002b4565b906200007e60608201620002b4565b6200009a60a06200009260808501620002c9565b9301620002c9565b938760805260a0528260c05260e052610100958652835190610fa3808301908382108883111762000292578392620000f492869262002b37863963ffffffff90911681526001600160a01b03909116602082015260400190565b03905ff0938415620002a65760018060a01b03928361012096168652845192610bb991828501938585109085111762000292578493620001549362001f7e863963ffffffff90911681526001600160a01b03909116602082015260400190565b03905ff0801562000288578161014091168152620001f9620001b183865116763d602d80600a3d3981f3363d3d373d3d3d363d73000000906e5af43d82803e903d91602b57fd5bf36020528060115260881c175f52603760092090565b92610160938452825116763d602d80600a3d3981f3363d3d373d3d3d363d73000000906e5af43d82803e903d91602b57fd5bf36020528060115260881c175f52603760092090565b926101809384525193611ca29586620002dc87396080518681816106f101528181610e40015261158a015260a05186610bf2015260c051866113f5015260e05186611535015251856108850152518481816101290152818161021a01528181610c60015281816111be015261145e0152518381816104550152818161075b015261083201525182505051815050f35b82513d5f823e3d90fd5b634e487b7160e01b5f52604160045260245ffd5b83513d5f823e3d90fd5b5f80fd5b51906001600160a01b0382168203620002b057565b519063ffffffff82168203620002b05756fe60808060405260049081361015610014575f80fd5b5f3560e01c9081630986bdd51461155957508063117803e3146114eb5780631d9671c3146106a2578063259842f8146114195780633eb5002a146113ab578063462ebde214610e0f578063605505d814610c845780637040f17314610c1657806373717b0814610ba8578063acf4ce5c14610b59578063adf38ba114610856578063ba551177146107e8578063be58e91c14610715578063c1459384146106a7578063d7ff8a80146106a2578063dea024e4146103b2578063df18814a146101d85763fb6bd47e146100e4575f80fd5b346101d45761010090817ffffffffffffffffffffffffffffffffffffffffffffffffffffffffffffffffc3601126101d457816101b6916020936040519182372030907f000000000000000000000000000000000000000000000000000000000000000073ffffffffffffffffffffffffffffffffffffffff926055926043926040519260388401526f5af43d82803e903d91602b57fd5bf3ff60248401526014830152733d602d80600a3d3981f3363d3d373d3d3d363d73825260588201526037600c820120607882015201201690565b73ffffffffffffffffffffffffffffffffffffffff60405191168152f35b5f80fd5b50346101d457610100807ffffffffffffffffffffffffffffffffffffffffffffffffffffffffffffffffc3601126101d45761023e81610217366118a8565b207f0000000000000000000000000000000000000000000000000000000000000000611ad6565b6084359173ffffffffffffffffffffffffffffffffffffffff9260a4359284604051917fa9059cbb0000000000000000000000000000000000000000000000000000000060208401521694856024830152846044830152604482526080820182811067ffffffffffffffff8211176103865793602097936102ed61037d947f0e534c62f0afd2fa0f0fa71198e8aa2d549f24daf2bb47de0d5486c7ce9288ca98946101a0986040528316611b61565b6040519260c435916044356103018661184b565b808652828c870152816040870152836060870152466080870152604051973588526024358c89015260408801526064356060880152608087015260a086015260c085015260e43560e085015283019060808091805184526020810151602085015260408101516040850152606081015160608501520151910152565ba1604051908152f35b6041887f4e487b71000000000000000000000000000000000000000000000000000000005f525260245ffd5b506103bc366117a8565b9173ffffffffffffffffffffffffffffffffffffffff806080840135169060c0840135948215958661068e575b3403610665576103f9368661191f565b9061043d60e0830180517bffffffffffffffffffffffffffffffffffffffffffffffffffffffff4260e01b91161780915263ffffffff8160c01c169060e01c611984565b61012c820180921161063957116106105761010081207f00000000000000000000000000000000000000000000000000000000000000003447106105da5780763d602d80600a3d3981f3363d3d373d3d3d363d7300000062ffffff6e5af43d82803e903d91602b57fd5bf39360881c16175f5260781b176020526037600934f59182169586156105b1571561050d575b7fc30e111dcc74fddc2c3a4d98ffb97adec4485c0a687946bf5b22c2a99c7ff96d60608781886040519283526020810135602084015201356040820152a1005b606460209260a05f930151604051917f23b872dd00000000000000000000000000000000000000000000000000000000835233888401526024830152604482015282855af1908161058f575b5015610567578080806104cd565b6040517ff4059071000000000000000000000000000000000000000000000000000000008152fd5b90503d156105a9575060015f5114601f3d11165b5f610559565b3b15156105a3565b846040517fb06ebf3d000000000000000000000000000000000000000000000000000000008152fd5b60448647604051917fcf479181000000000000000000000000000000000000000000000000000000008352820152346024820152fd5b836040517ff4840e96000000000000000000000000000000000000000000000000000000008152fd5b6011867f4e487b71000000000000000000000000000000000000000000000000000000005f525260245ffd5b836040517f34f5151d000000000000000000000000000000000000000000000000000000008152fd5b61069d9060a087013590611984565b6103e9565b6116b2565b346101d4575f7ffffffffffffffffffffffffffffffffffffffffffffffffffffffffffffffffc3601126101d457602060405173ffffffffffffffffffffffffffffffffffffffff7f0000000000000000000000000000000000000000000000000000000000000000168152f35b50346101d45761010090817ffffffffffffffffffffffffffffffffffffffffffffffffffffffffffffffffc3601126101d457816101b6916020936040519182372030907f000000000000000000000000000000000000000000000000000000000000000073ffffffffffffffffffffffffffffffffffffffff926055926043926040519260388401526f5af43d82803e903d91602b57fd5bf3ff60248401526014830152733d602d80600a3d3981f3363d3d373d3d3d363d73825260588201526037600c820120607882015201201690565b346101d4575f7ffffffffffffffffffffffffffffffffffffffffffffffffffffffffffffffffc3601126101d457602060405173ffffffffffffffffffffffffffffffffffffffff7f0000000000000000000000000000000000000000000000000000000000000000168152f35b50346101d45761086536611605565b50989750505050509173ffffffffffffffffffffffffffffffffffffffff7f0000000000000000000000000000000000000000000000000000000000000000163303610b3057906108b591611bed565b92907fffffffffffffffffffffffffffffffffffffffffffffffffffffffffffffff607dffffffffffffffffffffffffffffffffffffffffffffffffffffffffffff9485920101351690604051926020936109748161094886888301958690603e927fffffffffffffffffffffffffffffffffffffffffffffffffffffffffffff000091835260101b1660208201520190565b037fffffffffffffffffffffffffffffffffffffffffffffffffffffffffffffffe08101835282611867565b5190209185357fffffffffffffffffffffffffffffffffffffffffffffffffffffffffffffffe1873603018112156101d45767ffffffffffffffff9590870180358781116101d4576005918160051b3603888201136101d4576040888b01359a013598604051898101917fffffffffffffffff0000000000000000000000000000000000000000000000008d60c01b1683528b602883015260288252606082019082821090821117610b0457604052519020925f9291905b828410610ac957505050501603610aa15760018501809511610a755750600192915f9160405195610a5c876117e5565b865281860193845282525260405f209251835551910155005b6011907f4e487b71000000000000000000000000000000000000000000000000000000005f525260245ffd5b6040517f09bde339000000000000000000000000000000000000000000000000000000008152fd5b909192938985831b84010135908181105f14610af4575f528952600160405f205b9401929190610a2c565b905f528952600160405f20610aea565b6041897f4e487b71000000000000000000000000000000000000000000000000000000005f525260245ffd5b836040517f4ca88867000000000000000000000000000000000000000000000000000000008152fd5b50346101d45760207ffffffffffffffffffffffffffffffffffffffffffffffffffffffffffffffffc3601126101d457355f525f6020526040805f206001815491015482519182526020820152f35b346101d4575f7ffffffffffffffffffffffffffffffffffffffffffffffffffffffffffffffffc3601126101d457602060405173ffffffffffffffffffffffffffffffffffffffff7f0000000000000000000000000000000000000000000000000000000000000000168152f35b346101d4575f7ffffffffffffffffffffffffffffffffffffffffffffffffffffffffffffffffc3601126101d457602060405173ffffffffffffffffffffffffffffffffffffffff7f0000000000000000000000000000000000000000000000000000000000000000168152f35b346101d45760206101a07f0e534c62f0afd2fa0f0fa71198e8aa2d549f24daf2bb47de0d5486c7ce9288ca610cb8366117a8565b9290610d7d61010091610ccf83610217368461191f565b9580610d9c575b5060408101359260e060a08301359260808101359360c08201359060405195610cfe8761184b565b888752818d8801528060408801528260608801524660808801526040519884358a528d8501358e8b015260408a0152606084013560608a0152608089015260a088015260c0870152013560e085015283019060808091805184526020810151602085015260408101516040850152606081015160608501520151910152565ba173ffffffffffffffffffffffffffffffffffffffff60405191168152f35b610e099073ffffffffffffffffffffffffffffffffffffffff604051917f23b872dd000000000000000000000000000000000000000000000000000000008b840152336024840152818a166044840152606483015260648252610dfe8261184b565b608084013516611b61565b87610cd6565b50346101d457610e1e36611605565b959397509097955073ffffffffffffffffffffffffffffffffffffffff9391937f0000000000000000000000000000000000000000000000000000000000000000163303611382577fffffffffffffffffffffffffffffffffffffffffffffffffffffffffffffff608581810111611356578186010160e08701357f400000000000000000000000000000000000000000000000000000000000000016156112e957358060f01c600281106112c057610f6f91604051610f37816109487dffffffffffffffffffffffffffffffffffffffffffffffffffffffffffff6020830195168a8690603e927fffffffffffffffffffffffffffffffffffffffffffffffffffffffffffff000091835260101b1660208201520190565b5190205f525f60205260405f20906020604051610f53816117e5565b6001845494858352015491829101529a60a08a0135908b611a15565b15611297577fffffffffffffffffffffffffffffffffffffffffffffffffffffffffffffff806111e29573ffffffffffffffffffffffffffffffffffffffff6101a094610fe39b7f0e534c62f0afd2fa0f0fa71198e8aa2d549f24daf2bb47de0d5486c7ce9288ca975b6040519d8e61182e565b8d5260208d015260208a013560408d01521660608b0152606088013560808b01528860a08b01527fffffffffffffffffffffffffffffffffffffffffffffffffffffffffffffffc0818401013560801c60c08b015260e08a01924260e01b7bffffffffffffffffffffffffffffffffffffffffffffffffffffffff7fffffffffffffffffffffffffffffffffffffffffffffffffffffffffffffffe0848401013516178452604089013573ffffffffffffffffffffffffffffffffffffffff8116155f1461129157506020890135965b604051976110c08961184b565b885260208801527fffffffffffffffffffffffffffffffffffffffffffffffffffffffffffffffa0828201013560408801526fffffffffffffffffffffffffffffffff7fffffffffffffffffffffffffffffffffffffffffffffffffffffffffffffffc08383010135166060880152010135608085015260405190885182526020890151602083015260408901516040830152606089015160608301526080890151608083015260a089015160a083015260c089015160c08301525160e08201526111b9610100948583019060808091805184526020810151602085015260408101516040850152606081015160608501520151910152565ba184207f0000000000000000000000000000000000000000000000000000000000000000611ad6565b9260c0843191015111928315611224575b5050506111fc57005b6040517f34f5151d000000000000000000000000000000000000000000000000000000008152fd5b60209293505f73ffffffffffffffffffffffffffffffffffffffff606082946024947f70a0823100000000000000000000000000000000000000000000000000000000855289520135165afa5f51901560203d101761128657105f80806111f3565b6040513d5f823e3d90fd5b966110b3565b886040517feab3a174000000000000000000000000000000000000000000000000000000008152fd5b8a6040517f10d629d3000000000000000000000000000000000000000000000000000000008152fd5b610fe398506111e29573ffffffffffffffffffffffffffffffffffffffff6101a0947f0e534c62f0afd2fa0f0fa71198e8aa2d549f24daf2bb47de0d5486c7ce9288ca967fffffffffffffffffffffffffffffffffffffffffffffffffffffffffffffff80943590610fd9565b60118a7f4e487b71000000000000000000000000000000000000000000000000000000005f525260245ffd5b886040517fd25aa106000000000000000000000000000000000000000000000000000000008152fd5b346101d4575f7ffffffffffffffffffffffffffffffffffffffffffffffffffffffffffffffffc3601126101d457602060405173ffffffffffffffffffffffffffffffffffffffff7f0000000000000000000000000000000000000000000000000000000000000000168152f35b346101d457610100807ffffffffffffffffffffffffffffffffffffffffffffffffffffffffffffffffc3601126101d4576101b6602091611459366118a8565b2030907f000000000000000000000000000000000000000000000000000000000000000073ffffffffffffffffffffffffffffffffffffffff926055926043926040519260388401526f5af43d82803e903d91602b57fd5bf3ff60248401526014830152733d602d80600a3d3981f3363d3d373d3d3d363d73825260588201526037600c820120607882015201201690565b346101d4575f7ffffffffffffffffffffffffffffffffffffffffffffffffffffffffffffffffc3601126101d457602060405173ffffffffffffffffffffffffffffffffffffffff7f0000000000000000000000000000000000000000000000000000000000000000168152f35b9050346101d45761156936611605565b5050505050505050505073ffffffffffffffffffffffffffffffffffffffff7f00000000000000000000000000000000000000000000000000000000000000001633036115b257005b7fd25aa106000000000000000000000000000000000000000000000000000000008152fd5b9181601f840112156101d45782359167ffffffffffffffff83116101d457602083818601950101116101d457565b7ffffffffffffffffffffffffffffffffffffffffffffffffffffffffffffffffc81016101e081126101d457610100136101d45760049167ffffffffffffffff610104358181116101d4578361165d916004016115d7565b9390939261012435926101443573ffffffffffffffffffffffffffffffffffffffff811681036101d45792610164359261018435926101a435926101c4359182116101d4576116ae916004016115d7565b9091565b346101d4577ffffffffffffffffffffffffffffffffffffffffffffffffffffffffffffffffc36016101c081126101d457610100136101d45767ffffffffffffffff610104358181116101d45761170d9036906004016115d7565b50506101443573ffffffffffffffffffffffffffffffffffffffff8116036101d4576101a4359081116101d4576117489036906004016115d7565b505060646040517f08c379a000000000000000000000000000000000000000000000000000000000815260206004820152600f60248201527f4e6f7420696d706c656d656e74656400000000000000000000000000000000006044820152fd5b7ffffffffffffffffffffffffffffffffffffffffffffffffffffffffffffffffc0161012081126101d457610100136101d4576004906101043590565b6040810190811067ffffffffffffffff82111761180157604052565b7f4e487b71000000000000000000000000000000000000000000000000000000005f52604160045260245ffd5b610100810190811067ffffffffffffffff82111761180157604052565b60a0810190811067ffffffffffffffff82111761180157604052565b90601f7fffffffffffffffffffffffffffffffffffffffffffffffffffffffffffffffe0910116810190811067ffffffffffffffff82111761180157604052565b7ffffffffffffffffffffffffffffffffffffffffffffffffffffffffffffffffc6101009101126101d457604051906118e08261182e565b6004358252602435602083015260443560408301526064356060830152608435608083015260a43560a083015260c43560c083015260e43560e0830152565b9190826101009103126101d4576040516119388161182e565b60e0808294803584526020810135602085015260408101356040850152606081013560608501526080810135608085015260a081013560a085015260c081013560c08501520135910152565b9190820180921161199157565b7f4e487b71000000000000000000000000000000000000000000000000000000005f52601160045260245ffd5b9190820391821161199157565b8181029291811591840414171561199157565b81156119e8570490565b7f4e487b71000000000000000000000000000000000000000000000000000000005f52601260045260245ffd5b929190611a2b84611a2683856119be565b611984565b907fffffffffffffffffffffffffffffffffffffffffffffffffffffffffffffffff918281019081116119915783611a6686611a6b936119cb565b6119de565b948103611a85575050505060028101809111611991571490565b808303611aa0575b5050505060018101809111611991571490565b611aaa90836119be565b90810190811161199157611ac192611a66916119cb565b8114611ad0575f808080611a8d565b50505f90565b6e5af43d82803e903d91602b57fd5bf390763d602d80600a3d3981f3363d3d373d3d3d363d7300000062ffffff8260881c16175f5260781b17602052603760095ff59073ffffffffffffffffffffffffffffffffffffffff821615611b3757565b60046040517fb06ebf3d000000000000000000000000000000000000000000000000000000008152fd5b905f602091828151910182855af115611286575f513d611be4575073ffffffffffffffffffffffffffffffffffffffff81163b155b611b9d5750565b60249073ffffffffffffffffffffffffffffffffffffffff604051917f5274afe7000000000000000000000000000000000000000000000000000000008352166004820152fd5b60011415611b96565b91909160208310611c64578035907fffffffffffffffffffffffffffffffffffffffffffffffffffffffffffffffe063ffffffff8360c01c169260e01c94018411611c3c578101602001920390565b7f9605a010000000000000000000000000000000000000000000000000000000005f5260045ffd5b505f9150819056fea2646970667358221220df4e1799a1ad87ba7aff870ec012bf79760a078d708bcf3ec4c5edfb196ac9e264736f6c634300081700336101003461010f57601f610bb938819003918201601f19168301916001600160401b0383118484101761011357808492604094855283398101031261010f5780519063ffffffff821680920361010f5760200151906001600160a01b038216820361010f573360c05260a0526080526e5af43d82803e903d91602b57fd5bf360205230601152763d602d80600a3d3981f3363d3d373d3d3d363d730000003060881c175f52603760092060e052604051610a9190816101288239608051816105d9015260a05181818160a30152610358015260c05181818161015b01528181610322015281816104d20152610798015260e051818181610131015281816102f801528181610465015261076e0152f35b5f80fd5b634e487b7160e01b5f52604160045260245ffdfe6080604090808252600480361015610015575f80fd5b60e05f35811c9283630af97558146105825750826323305703146104f65782632dd310001461048857826334862b6a146104305782634649088b146102555750816390d3252f146100ca575063f56cd69c1461006f575f80fd5b346100c6575f7ffffffffffffffffffffffffffffffffffffffffffffffffffffffffffffffffc3601126100c657602090517f00000000000000000000000000000000000000000000000000000000000000008152f35b5f80fd5b82346100c657610100807ffffffffffffffffffffffffffffffffffffffffffffffffffffffffffffffffc3601126100c65773ffffffffffffffffffffffffffffffffffffffff9182606435169182330361022d576055600b8592845181898237208451907f00000000000000000000000000000000000000000000000000000000000000008683015260208201527f000000000000000000000000000000000000000000000000000000000000000081520160ff8153201630036102055761019460e4356108c0565b42106101dd576101ab60a435836084358616610907565b6101b760c435336109c7565b7f6e3be9294e58d10b9c8053cfd5e09871b67e442fe394d6b0870d336b9df984a95f80a1005b8390517f6f7eac26000000000000000000000000000000000000000000000000000000008152fd5b8390517fa269484a000000000000000000000000000000000000000000000000000000008152fd5b8482517f48f5c3ed000000000000000000000000000000000000000000000000000000008152fd5b8390346100c6576101407ffffffffffffffffffffffffffffffffffffffffffffffffffffffffffffffffc3601126100c65782359273ffffffffffffffffffffffffffffffffffffffff90818516928386036100c65760243592610100807fffffffffffffffffffffffffffffffffffffffffffffffffffffffffffffffbc3601126100c6578160a43516330361040857600b60559188518160448237208851907f00000000000000000000000000000000000000000000000000000000000000008a83015260208201527f000000000000000000000000000000000000000000000000000000000000000081520160ff8153201630036103e05761012435901c7f00000000000000000000000000000000000000000000000000000000000000000142106103b957506103ac817fc4474c2790e13695f6d2b6f1d8e164290b55370f87a542fd7711abe0a1bf40ac953390610907565b82519182526020820152a1005b83517f6f7eac26000000000000000000000000000000000000000000000000000000008152fd5b5083517fa269484a000000000000000000000000000000000000000000000000000000008152fd5b8387517f48f5c3ed000000000000000000000000000000000000000000000000000000008152fd5b83346100c6575f7ffffffffffffffffffffffffffffffffffffffffffffffffffffffffffffffffc3601126100c657602090517f00000000000000000000000000000000000000000000000000000000000000008152f35b83346100c6575f7ffffffffffffffffffffffffffffffffffffffffffffffffffffffffffffffffc3601126100c6576020905173ffffffffffffffffffffffffffffffffffffffff7f0000000000000000000000000000000000000000000000000000000000000000168152f35b8390346100c65761050636610675565b92909173ffffffffffffffffffffffffffffffffffffffff606085013516330361022d5763ffffffff8185013580921c9160801c1681018091116105565742106101dd576105548383610742565b005b6011857f4e487b71000000000000000000000000000000000000000000000000000000005f525260245ffd5b84346100c65761059136610675565b9390927f70a08231000000000000000000000000000000000000000000000000000000008152338682015260208160248173ffffffffffffffffffffffffffffffffffffffff7f0000000000000000000000000000000000000000000000000000000000000000165afa90811561066b575f91610639575b501561022d5763ffffffff8185013580921c9160a01c1681018091116105565742106101dd576105548383610742565b90506020813d602011610663575b81610654602093836106d4565b810103126100c6575186610609565b3d9150610647565b83513d5f823e3d90fd5b906101207ffffffffffffffffffffffffffffffffffffffffffffffffffffffffffffffffc8301126100c6576101007fffffffffffffffffffffffffffffffffffffffffffffffffffffffffffffffdc6004359301126100c657602490565b90601f7fffffffffffffffffffffffffffffffffffffffffffffffffffffffffffffffe0910116810190811067ffffffffffffffff82111761071557604052565b7f4e487b71000000000000000000000000000000000000000000000000000000005f52604160045260245ffd5b9061075060e08201356108c0565b421015610896576040906055600b83516101009081858237208451907f00000000000000000000000000000000000000000000000000000000000000008683015260208201527f000000000000000000000000000000000000000000000000000000000000000081520160ff81532073ffffffffffffffffffffffffffffffffffffffff908116300361086d57835f5260205f20602083013503610844579161083d60c08361083560209660a07fe346f5c97a360db5188bfa5d3ec5f0583abde420c6ba4d08b6cfe61addc17105999701359080878501351690608085013516610907565b0135336109c7565b51908152a1565b600483517fabab6bd7000000000000000000000000000000000000000000000000000000008152fd5b600483517fa269484a000000000000000000000000000000000000000000000000000000008152fd5b60046040517f6f7eac26000000000000000000000000000000000000000000000000000000008152fd5b63ffffffff8160e01c9160c01c1681018091116108da5790565b7f4e487b71000000000000000000000000000000000000000000000000000000005f52601160045260245ffd5b73ffffffffffffffffffffffffffffffffffffffff169190826109305761092e92506109c7565b565b60445f91602093604051917fa9059cbb0000000000000000000000000000000000000000000000000000000083526004830152602482015282855af190816109a5575b501561097b57565b60046040517ffb7f5079000000000000000000000000000000000000000000000000000000008152fd5b90503d156109bf575060015f5114601f3d11165b5f610973565b3b15156109b9565b5f80809381935af13d15610a56573d67ffffffffffffffff81116107155760405190610a1b60207fffffffffffffffffffffffffffffffffffffffffffffffffffffffffffffffe0601f84011601836106d4565b81525f60203d92013e5b15610a2c57565b60046040517f8a0332d5000000000000000000000000000000000000000000000000000000008152fd5b610a2556fea2646970667358221220b874b0d4a69935fddeb5b2733222ac4d597fdf898d5fdde3d8848c3b5403916264736f6c634300081700336101003461011657601f610fa338819003918201601f19168301916001600160401b0383118484101761011a5780849260409485528339810103126101165780519063ffffffff82168092036101165760200151906001600160a01b0382168203610116573360c05260a0526080526e5af43d82803e903d91602b57fd5bf360205230601152763d602d80600a3d3981f3363d3d373d3d3d363d730000003060881c175f52603760092060e052604051610e74908161012f823960805181818161015a0152610866015260a05181818160b9015261059c015260c05181818161070401528181610bab01528181610c5c0152610ce2015260e05181818161069701528181610b8001528181610c310152610cb70152f35b5f80fd5b634e487b7160e01b5f52604160045260245ffdfe6080604090808252600480361015610015575f80fd5b60e05f35811c9283630af975581461080a5750826323305703146107285782632dd31000146106ba57826334862b6a146106625782634649088b146104fe5782636c10c0c81461035057826390d3252f146102b8578263daff233e146100e057505063f56cd69c14610085575f80fd5b346100dc575f7ffffffffffffffffffffffffffffffffffffffffffffffffffffffffffffffffc3601126100dc57602090517f00000000000000000000000000000000000000000000000000000000000000008152f35b5f80fd5b83346100dc576101007ffffffffffffffffffffffffffffffffffffffffffffffffffffffffffffffffc3601126100dc5773ffffffffffffffffffffffffffffffffffffffff9181517f70a082310000000000000000000000000000000000000000000000000000000081523385820152602081602481877f0000000000000000000000000000000000000000000000000000000000000000165afa9081156102ae575f9161027c575b50156102545763ffffffff60e43580921c9160601c168101809111610228574210610200576101ce826101bb610c05565b60a4359080604435169060843516610d12565b6101da60c43533610daa565b7f6e3be9294e58d10b9c8053cfd5e09871b67e442fe394d6b0870d336b9df984a95f80a1005b9050517f6f7eac26000000000000000000000000000000000000000000000000000000008152fd5b6011847f4e487b71000000000000000000000000000000000000000000000000000000005f525260245ffd5b8382517f48f5c3ed000000000000000000000000000000000000000000000000000000008152fd5b90506020813d6020116102a6575b8161029760209383610a88565b810103126100dc57518561018a565b3d915061028a565b83513d5f823e3d90fd5b5082346100dc576101007ffffffffffffffffffffffffffffffffffffffffffffffffffffffffffffffffc3601126100dc5773ffffffffffffffffffffffffffffffffffffffff90816064351633036103285761031660e435610af6565b4210610200576101ce826101bb610c05565b9050517f48f5c3ed000000000000000000000000000000000000000000000000000000008152fd5b5082346100dc576101407ffffffffffffffffffffffffffffffffffffffffffffffffffffffffffffffffc3601126100dc5781359160243573ffffffffffffffffffffffffffffffffffffffff9182821682036100dc576101007fffffffffffffffffffffffffffffffffffffffffffffffffffffffffffffffbc3601126100dc578260a4351633036104d757610124356103ea81610b3d565b42106104af576103f990610af6565b42101561048857610408610b54565b845f5260205f2060643503610461577fe346f5c97a360db5188bfa5d3ec5f0583abde420c6ba4d08b6cfe61addc171056020868661044d60e4358760c4358a16610d12565b61045a6101043533610daa565b51908152a1005b83517fabab6bd7000000000000000000000000000000000000000000000000000000008152fd5b83517f6f7eac26000000000000000000000000000000000000000000000000000000008152fd5b5083517f6f7eac26000000000000000000000000000000000000000000000000000000008152fd5b83517f48f5c3ed000000000000000000000000000000000000000000000000000000008152fd5b8390346100dc576101407ffffffffffffffffffffffffffffffffffffffffffffffffffffffffffffffffc3601126100dc5782359073ffffffffffffffffffffffffffffffffffffffff908183168093036100dc57602435916101007fffffffffffffffffffffffffffffffffffffffffffffffffffffffffffffffbc3601126100dc5760a43516330361063957610594610b54565b61012435901c7f0000000000000000000000000000000000000000000000000000000000000000014210610611577fc4474c2790e13695f6d2b6f1d8e164290b55370f87a542fd7711abe0a1bf40ac935081610601576105f48133610daa565b82519182526020820152a1005b61060c813384610d12565b6105f4565b5050517f6f7eac26000000000000000000000000000000000000000000000000000000008152fd5b505050517f48f5c3ed000000000000000000000000000000000000000000000000000000008152fd5b83346100dc575f7ffffffffffffffffffffffffffffffffffffffffffffffffffffffffffffffffc3601126100dc57602090517f00000000000000000000000000000000000000000000000000000000000000008152f35b83346100dc575f7ffffffffffffffffffffffffffffffffffffffffffffffffffffffffffffffffc3601126100dc576020905173ffffffffffffffffffffffffffffffffffffffff7f0000000000000000000000000000000000000000000000000000000000000000168152f35b8390346100dc5761073836610a29565b91909373ffffffffffffffffffffffffffffffffffffffff918260608501351633036107e25783013561076a81610b3d565b42106104af5761077990610af6565b4210156104885761078983610c8c565b845f5260205f20602084013503610461577fe346f5c97a360db5188bfa5d3ec5f0583abde420c6ba4d08b6cfe61addc171056020868661045a60c0886107da60a08201353360808401358c16610d12565b013533610daa565b5083517f48f5c3ed000000000000000000000000000000000000000000000000000000008152fd5b8285346100dc5761081a36610a29565b94909273ffffffffffffffffffffffffffffffffffffffff917f70a0823100000000000000000000000000000000000000000000000000000000865233828701526020958681602481877f0000000000000000000000000000000000000000000000000000000000000000165afa908115610a1f575f916109f2575b50156109ca578087013580911c63ffffffff82881c16810180911161099e574210610976576108c490610af6565b42101561094f576108d486610c8c565b835f52845f208587013503610928575060c0856107da61045a9360a07fe346f5c97a360db5188bfa5d3ec5f0583abde420c6ba4d08b6cfe61addc17105990135908060608501351690608085013516610d12565b82517fabab6bd7000000000000000000000000000000000000000000000000000000008152fd5b82517f6f7eac26000000000000000000000000000000000000000000000000000000008152fd5b5082517f6f7eac26000000000000000000000000000000000000000000000000000000008152fd5b6011837f4e487b71000000000000000000000000000000000000000000000000000000005f525260245ffd5b5082517f48f5c3ed000000000000000000000000000000000000000000000000000000008152fd5b90508681813d8311610a18575b610a098183610a88565b810103126100dc575188610896565b503d6109ff565b85513d5f823e3d90fd5b906101207ffffffffffffffffffffffffffffffffffffffffffffffffffffffffffffffffc8301126100dc576101007fffffffffffffffffffffffffffffffffffffffffffffffffffffffffffffffdc6004359301126100dc57602490565b90601f7fffffffffffffffffffffffffffffffffffffffffffffffffffffffffffffffe0910116810190811067ffffffffffffffff821117610ac957604052565b7f4e487b71000000000000000000000000000000000000000000000000000000005f52604160045260245ffd5b63ffffffff8160e01c9160401c168101809111610b105790565b7f4e487b71000000000000000000000000000000000000000000000000000000005f52601160045260245ffd5b63ffffffff8160e01c91168101809111610b105790565b73ffffffffffffffffffffffffffffffffffffffff6055600b60405161010090816044823720604051907f0000000000000000000000000000000000000000000000000000000000000000604083015260208201527f000000000000000000000000000000000000000000000000000000000000000081520160ff815320163003610bdb57565b60046040517fa269484a000000000000000000000000000000000000000000000000000000008152fd5b73ffffffffffffffffffffffffffffffffffffffff6055600b60405161010090816004823720604051907f0000000000000000000000000000000000000000000000000000000000000000604083015260208201527f000000000000000000000000000000000000000000000000000000000000000081520160ff815320163003610bdb57565b6055600b73ffffffffffffffffffffffffffffffffffffffff926040516101008092823720604051907f0000000000000000000000000000000000000000000000000000000000000000604083015260208201527f000000000000000000000000000000000000000000000000000000000000000081520160ff815320163003610bdb57565b9160446020925f92604051917fa9059cbb0000000000000000000000000000000000000000000000000000000083526004830152602482015282855af19081610d88575b5015610d5e57565b60046040517ffb7f5079000000000000000000000000000000000000000000000000000000008152fd5b90503d15610da2575060015f5114601f3d11165b5f610d56565b3b1515610d9c565b5f80809381935af13d15610e39573d67ffffffffffffffff8111610ac95760405190610dfe60207fffffffffffffffffffffffffffffffffffffffffffffffffffffffffffffffe0601f8401160183610a88565b81525f60203d92013e5b15610e0f57565b60046040517f8a0332d5000000000000000000000000000000000000000000000000000000008152fd5b610e0856fea2646970667358221220c3ea7f60f981efebd792064d85a479eb8a66c0c167e139da81734f67e2de7f2564736f6c63430008170033",
    "linkReferences": {}
  },
  "methodIdentifiers": {
    "ACCESS_TOKEN()": "3eb5002a",
    "ESCROW_DST_IMPLEMENTATION()": "ba551177",
    "ESCROW_SRC_IMPLEMENTATION()": "7040f173",
    "FEE_TOKEN()": "73717b08",
    "LIMIT_ORDER_PROTOCOL()": "c1459384",
    "OWNER()": "117803e3",
    "addressOfEscrowDst((bytes32,bytes32,uint256,uint256,uint256,uint256,uint256,uint256))": "be58e91c",
    "addressOfEscrowSrc((bytes32,bytes32,uint256,uint256,uint256,uint256,uint256,uint256))": "fb6bd47e",
    "computeSrcEscrowAddress((bytes32,bytes32,uint256,uint256,uint256,uint256,uint256,uint256))": "259842f8",
    "createDstEscrow((bytes32,bytes32,uint256,uint256,uint256,uint256,uint256,uint256),uint256)": "dea024e4",
    "createSrcEscrowForTesting((bytes32,bytes32,uint256,uint256,uint256,uint256,uint256,uint256),uint256)": "605505d8",
    "deploySrcEscrowWithFactoryTokens((bytes32,bytes32,uint256,uint256,uint256,uint256,uint256,uint256))": "df18814a",
    "getMakingAmount((uint256,uint256,uint256,uint256,uint256,uint256,uint256,uint256),bytes,bytes32,address,uint256,uint256,bytes)": "1d9671c3",
    "getTakingAmount((uint256,uint256,uint256,uint256,uint256,uint256,uint256,uint256),bytes,bytes32,address,uint256,uint256,bytes)": "d7ff8a80",
    "lastValidated(bytes32)": "acf4ce5c",
    "postInteraction((uint256,uint256,uint256,uint256,uint256,uint256,uint256,uint256),bytes,bytes32,address,uint256,uint256,uint256,bytes)": "462ebde2",
    "preInteraction((uint256,uint256,uint256,uint256,uint256,uint256,uint256,uint256),bytes,bytes32,address,uint256,uint256,uint256,bytes)": "0986bdd5",
    "takerInteraction((uint256,uint256,uint256,uint256,uint256,uint256,uint256,uint256),bytes,bytes32,address,uint256,uint256,uint256,bytes)": "adf38ba1"
  },
  "id": 23
}